{
  "abi": [
    {
      "inputs": [],
      "name": "CantAddToOFFList",
      "type": "error"
    },
    {
      "inputs": [],
      "name": "DeadmanTriggerStillActive",
      "type": "error"
    },
    {
      "inputs": [],
      "name": "MustBeAdmin",
      "type": "error"
    },
    {
      "inputs": [],
      "name": "Unauthorized",
      "type": "error"
    },
    {
      "anonymous": false,
      "inputs": [
        {
          "indexed": true,
          "internalType": "address",
          "name": "_updater",
          "type": "address"
        },
        {
          "indexed": true,
          "internalType": "address",
          "name": "_addedAddr",
          "type": "address"
        },
        {
          "indexed": true,
          "internalType": "enum IRoyaltyGuard.ListType",
          "name": "_ListType",
          "type": "uint8"
        }
      ],
      "name": "AddressAddedToList",
      "type": "event"
    },
    {
      "anonymous": false,
      "inputs": [
        {
          "indexed": true,
          "internalType": "address",
          "name": "_updater",
          "type": "address"
        },
        {
          "indexed": true,
          "internalType": "address",
          "name": "_removedAddr",
          "type": "address"
        },
        {
          "indexed": true,
          "internalType": "enum IRoyaltyGuard.ListType",
          "name": "_ListType",
          "type": "uint8"
        }
      ],
      "name": "AddressRemovedList",
      "type": "event"
    },
    {
      "anonymous": false,
      "inputs": [
        {
          "indexed": true,
          "internalType": "address",
          "name": "owner",
          "type": "address"
        },
        {
          "indexed": true,
          "internalType": "address",
          "name": "approved",
          "type": "address"
        },
        {
          "indexed": true,
          "internalType": "uint256",
          "name": "tokenId",
          "type": "uint256"
        }
      ],
      "name": "Approval",
      "type": "event"
    },
    {
      "anonymous": false,
      "inputs": [
        {
          "indexed": true,
          "internalType": "address",
          "name": "owner",
          "type": "address"
        },
        {
          "indexed": true,
          "internalType": "address",
          "name": "operator",
          "type": "address"
        },
        {
          "indexed": false,
          "internalType": "bool",
          "name": "approved",
          "type": "bool"
        }
      ],
      "name": "ApprovalForAll",
      "type": "event"
    },
    {
      "anonymous": false,
      "inputs": [
        {
          "indexed": true,
          "internalType": "address",
          "name": "user",
          "type": "address"
        }
      ],
      "name": "ContractDisabled",
      "type": "event"
    },
    {
      "anonymous": false,
      "inputs": [
        {
          "indexed": true,
          "internalType": "address",
          "name": "_activator",
          "type": "address"
        }
      ],
      "name": "DeadmanTriggerActivated",
      "type": "event"
    },
    {
      "anonymous": false,
      "inputs": [
        {
          "indexed": true,
          "internalType": "address",
          "name": "_updater",
          "type": "address"
        },
        {
          "indexed": false,
          "internalType": "uint256",
          "name": "_oldDatetime",
          "type": "uint256"
        },
        {
          "indexed": false,
          "internalType": "uint256",
          "name": "_newDatetime",
          "type": "uint256"
        }
      ],
      "name": "DeadmanTriggerDatetimeUpdated",
      "type": "event"
    },
    {
      "anonymous": false,
      "inputs": [
        {
          "indexed": false,
          "internalType": "uint8",
          "name": "version",
          "type": "uint8"
        }
      ],
      "name": "Initialized",
      "type": "event"
    },
    {
      "anonymous": false,
      "inputs": [
        {
          "indexed": true,
          "internalType": "address",
          "name": "_updater",
          "type": "address"
        },
        {
          "indexed": false,
          "internalType": "enum IRoyaltyGuard.ListType",
          "name": "_listType",
          "type": "uint8"
        }
      ],
      "name": "ListCleared",
      "type": "event"
    },
    {
      "anonymous": false,
      "inputs": [
        {
          "indexed": true,
          "internalType": "address",
          "name": "_updater",
          "type": "address"
        },
        {
          "indexed": true,
          "internalType": "enum IRoyaltyGuard.ListType",
          "name": "_oldListType",
          "type": "uint8"
        },
        {
          "indexed": true,
          "internalType": "enum IRoyaltyGuard.ListType",
          "name": "_newListType",
          "type": "uint8"
        }
      ],
      "name": "ListTypeUpdated",
      "type": "event"
    },
    {
      "anonymous": false,
      "inputs": [
        {
          "indexed": false,
          "internalType": "string",
          "name": "baseURI",
          "type": "string"
        }
      ],
      "name": "MetadataLocked",
      "type": "event"
    },
    {
      "anonymous": false,
      "inputs": [
        {
          "indexed": false,
          "internalType": "string",
          "name": "baseURI",
          "type": "string"
        }
      ],
      "name": "MetadataUpdated",
      "type": "event"
    },
    {
      "anonymous": false,
      "inputs": [
        {
          "indexed": true,
          "internalType": "address",
          "name": "previousOwner",
          "type": "address"
        },
        {
          "indexed": true,
          "internalType": "address",
          "name": "newOwner",
          "type": "address"
        }
      ],
      "name": "OwnershipTransferred",
      "type": "event"
    },
    {
      "anonymous": false,
      "inputs": [
        {
          "indexed": true,
          "internalType": "uint256",
          "name": "numberOfTokens",
          "type": "uint256"
        },
        {
          "indexed": false,
          "internalType": "string",
          "name": "baseURI",
          "type": "string"
        }
      ],
      "name": "PrepareMint",
      "type": "event"
    },
    {
      "anonymous": false,
      "inputs": [
        {
          "indexed": true,
          "internalType": "address",
          "name": "from",
          "type": "address"
        },
        {
          "indexed": true,
          "internalType": "address",
          "name": "to",
          "type": "address"
        },
        {
          "indexed": true,
          "internalType": "uint256",
          "name": "tokenId",
          "type": "uint256"
        }
      ],
      "name": "Transfer",
      "type": "event"
    },
    {
      "inputs": [],
      "name": "activateDeadmanListTrigger",
      "outputs": [],
      "stateMutability": "nonpayable",
      "type": "function"
    },
    {
      "inputs": [
        {
          "internalType": "address",
          "name": "_spender",
          "type": "address"
        },
        {
          "internalType": "uint256",
          "name": "_id",
          "type": "uint256"
        }
      ],
      "name": "approve",
      "outputs": [],
      "stateMutability": "nonpayable",
      "type": "function"
    },
    {
      "inputs": [
        {
          "internalType": "address",
          "name": "owner",
          "type": "address"
        }
      ],
      "name": "balanceOf",
      "outputs": [
        {
          "internalType": "uint256",
          "name": "",
          "type": "uint256"
        }
      ],
      "stateMutability": "view",
      "type": "function"
    },
    {
      "inputs": [
        {
          "internalType": "enum IRoyaltyGuard.ListType",
          "name": "_listType",
          "type": "uint8"
        },
        {
          "internalType": "address[]",
          "name": "_addrs",
          "type": "address[]"
        }
      ],
      "name": "batchAddAddressToRoyaltyList",
      "outputs": [],
      "stateMutability": "nonpayable",
      "type": "function"
    },
    {
      "inputs": [
        {
          "internalType": "enum IRoyaltyGuard.ListType",
          "name": "_listType",
          "type": "uint8"
        },
        {
          "internalType": "address[]",
          "name": "_addrs",
          "type": "address[]"
        }
      ],
      "name": "batchRemoveAddressToRoyaltyList",
      "outputs": [],
      "stateMutability": "nonpayable",
      "type": "function"
    },
    {
      "inputs": [
        {
          "internalType": "uint256",
          "name": "tokenId",
          "type": "uint256"
        }
      ],
      "name": "burn",
      "outputs": [],
      "stateMutability": "nonpayable",
      "type": "function"
    },
    {
      "inputs": [
        {
          "internalType": "enum IRoyaltyGuard.ListType",
          "name": "_listType",
          "type": "uint8"
        }
      ],
      "name": "clearList",
      "outputs": [],
      "stateMutability": "nonpayable",
      "type": "function"
    },
    {
      "inputs": [
        {
          "internalType": "uint256",
          "name": "_tokenId",
          "type": "uint256"
        }
      ],
      "name": "deleteToken",
      "outputs": [],
      "stateMutability": "nonpayable",
      "type": "function"
    },
    {
      "inputs": [],
      "name": "disableContract",
      "outputs": [],
      "stateMutability": "nonpayable",
      "type": "function"
    },
    {
      "inputs": [],
      "name": "disabled",
      "outputs": [
        {
          "internalType": "bool",
          "name": "",
          "type": "bool"
        }
      ],
      "stateMutability": "view",
      "type": "function"
    },
    {
      "inputs": [
        {
          "internalType": "uint256",
          "name": "tokenId",
          "type": "uint256"
        }
      ],
      "name": "getApproved",
      "outputs": [
        {
          "internalType": "address",
          "name": "",
          "type": "address"
        }
      ],
      "stateMutability": "view",
      "type": "function"
    },
    {
      "inputs": [],
      "name": "getDeadmanTriggerAvailableDatetime",
      "outputs": [
        {
          "internalType": "uint256",
          "name": "",
          "type": "uint256"
        }
      ],
      "stateMutability": "view",
      "type": "function"
    },
    {
      "inputs": [],
      "name": "getDefaultRoyaltyPercentage",
      "outputs": [
        {
          "internalType": "uint256",
          "name": "",
          "type": "uint256"
        }
      ],
      "stateMutability": "view",
      "type": "function"
    },
    {
      "inputs": [],
      "name": "getDefaultRoyaltyReceiver",
      "outputs": [
        {
          "internalType": "address",
          "name": "",
          "type": "address"
        }
      ],
      "stateMutability": "view",
      "type": "function"
    },
    {
      "inputs": [],
      "name": "getInUseList",
      "outputs": [
        {
          "internalType": "address[]",
          "name": "",
          "type": "address[]"
        }
      ],
      "stateMutability": "view",
      "type": "function"
    },
    {
      "inputs": [
        {
          "internalType": "enum IRoyaltyGuard.ListType",
          "name": "_listType",
          "type": "uint8"
        }
      ],
      "name": "getList",
      "outputs": [
        {
          "internalType": "address[]",
          "name": "",
          "type": "address[]"
        }
      ],
      "stateMutability": "view",
      "type": "function"
    },
    {
      "inputs": [],
      "name": "getListType",
      "outputs": [
        {
          "internalType": "enum IRoyaltyGuard.ListType",
          "name": "",
          "type": "uint8"
        }
      ],
      "stateMutability": "view",
      "type": "function"
    },
    {
      "inputs": [],
      "name": "getMintConfig",
      "outputs": [
        {
          "components": [
            {
              "internalType": "uint256",
              "name": "numberOfTokens",
              "type": "uint256"
            },
            {
              "internalType": "string",
              "name": "baseURI",
              "type": "string"
            },
            {
              "internalType": "bool",
              "name": "lockedMetadata",
              "type": "bool"
            }
          ],
          "internalType": "struct LazySovereignNFT.MintConfig",
          "name": "",
          "type": "tuple"
        }
      ],
      "stateMutability": "view",
      "type": "function"
    },
    {
      "inputs": [
        {
          "internalType": "address",
          "name": "_addr",
          "type": "address"
        }
      ],
      "name": "hasAdminPermission",
      "outputs": [
        {
          "internalType": "bool",
          "name": "",
          "type": "bool"
        }
      ],
      "stateMutability": "view",
      "type": "function"
    },
    {
      "inputs": [
        {
          "internalType": "string",
          "name": "_name",
          "type": "string"
        },
        {
          "internalType": "string",
          "name": "_symbol",
          "type": "string"
        },
        {
          "internalType": "address",
          "name": "_creator",
          "type": "address"
        },
        {
          "internalType": "uint256",
          "name": "_maxTokens",
          "type": "uint256"
        }
      ],
      "name": "init",
      "outputs": [],
      "stateMutability": "nonpayable",
      "type": "function"
    },
    {
      "inputs": [
        {
          "internalType": "address",
          "name": "owner",
          "type": "address"
        },
        {
          "internalType": "address",
          "name": "operator",
          "type": "address"
        }
      ],
      "name": "isApprovedForAll",
      "outputs": [
        {
          "internalType": "bool",
          "name": "",
          "type": "bool"
        }
      ],
      "stateMutability": "view",
      "type": "function"
    },
    {
      "inputs": [
        {
          "internalType": "address",
          "name": "_address",
          "type": "address"
        }
      ],
      "name": "isApprovedMinter",
      "outputs": [
        {
          "internalType": "bool",
          "name": "",
          "type": "bool"
        }
      ],
      "stateMutability": "view",
      "type": "function"
    },
    {
      "inputs": [
        {
          "internalType": "address",
          "name": "_operator",
          "type": "address"
        }
      ],
      "name": "isOperatorInList",
      "outputs": [
        {
          "internalType": "bool",
          "name": "",
          "type": "bool"
        }
      ],
      "stateMutability": "view",
      "type": "function"
    },
    {
      "inputs": [],
      "name": "lockBaseURI",
      "outputs": [],
      "stateMutability": "nonpayable",
      "type": "function"
    },
    {
      "inputs": [],
      "name": "maxTokens",
      "outputs": [
        {
          "internalType": "uint256",
          "name": "",
          "type": "uint256"
        }
      ],
      "stateMutability": "view",
      "type": "function"
    },
    {
      "inputs": [
        {
          "internalType": "address",
          "name": "_receiver",
          "type": "address"
        }
      ],
      "name": "mintTo",
      "outputs": [
        {
          "internalType": "uint256",
          "name": "",
          "type": "uint256"
        }
      ],
      "stateMutability": "nonpayable",
      "type": "function"
    },
    {
      "inputs": [],
      "name": "name",
      "outputs": [
        {
          "internalType": "string",
          "name": "",
          "type": "string"
        }
      ],
      "stateMutability": "view",
      "type": "function"
    },
    {
      "inputs": [],
      "name": "owner",
      "outputs": [
        {
          "internalType": "address",
          "name": "",
          "type": "address"
        }
      ],
      "stateMutability": "view",
      "type": "function"
    },
    {
      "inputs": [
        {
          "internalType": "uint256",
          "name": "tokenId",
          "type": "uint256"
        }
      ],
      "name": "ownerOf",
      "outputs": [
        {
          "internalType": "address",
          "name": "",
          "type": "address"
        }
      ],
      "stateMutability": "view",
      "type": "function"
    },
    {
      "inputs": [
        {
          "internalType": "string",
          "name": "_baseURI",
          "type": "string"
        },
        {
          "internalType": "uint256",
          "name": "_numberOfTokens",
          "type": "uint256"
        }
      ],
      "name": "prepareMint",
      "outputs": [],
      "stateMutability": "nonpayable",
      "type": "function"
    },
    {
      "inputs": [
        {
          "internalType": "string",
          "name": "_baseURI",
          "type": "string"
        },
        {
          "internalType": "uint256",
          "name": "_numberOfTokens",
          "type": "uint256"
        },
        {
          "internalType": "address",
          "name": "_minter",
          "type": "address"
        }
      ],
      "name": "prepareMintWithMinter",
      "outputs": [],
      "stateMutability": "nonpayable",
      "type": "function"
    },
    {
      "inputs": [],
      "name": "renounceOwnership",
      "outputs": [],
      "stateMutability": "nonpayable",
      "type": "function"
    },
    {
      "inputs": [
        {
          "internalType": "uint256",
          "name": "_tokenId",
          "type": "uint256"
        },
        {
          "internalType": "uint256",
          "name": "_salePrice",
          "type": "uint256"
        }
      ],
      "name": "royaltyInfo",
      "outputs": [
        {
          "internalType": "address",
          "name": "receiver",
          "type": "address"
        },
        {
          "internalType": "uint256",
          "name": "royaltyAmount",
          "type": "uint256"
        }
      ],
      "stateMutability": "view",
      "type": "function"
    },
    {
      "inputs": [
        {
          "internalType": "address",
          "name": "from",
          "type": "address"
        },
        {
          "internalType": "address",
          "name": "to",
          "type": "address"
        },
        {
          "internalType": "uint256",
          "name": "tokenId",
          "type": "uint256"
        }
      ],
      "name": "safeTransferFrom",
      "outputs": [],
      "stateMutability": "nonpayable",
      "type": "function"
    },
    {
      "inputs": [
        {
          "internalType": "address",
          "name": "from",
          "type": "address"
        },
        {
          "internalType": "address",
          "name": "to",
          "type": "address"
        },
        {
          "internalType": "uint256",
          "name": "tokenId",
          "type": "uint256"
        },
        {
          "internalType": "bytes",
          "name": "_data",
          "type": "bytes"
        }
      ],
      "name": "safeTransferFrom",
      "outputs": [],
      "stateMutability": "nonpayable",
      "type": "function"
    },
    {
      "inputs": [
        {
          "internalType": "address",
          "name": "_operator",
          "type": "address"
        },
        {
          "internalType": "bool",
          "name": "_approved",
          "type": "bool"
        }
      ],
      "name": "setApprovalForAll",
      "outputs": [],
      "stateMutability": "nonpayable",
      "type": "function"
    },
    {
      "inputs": [
        {
          "internalType": "uint256",
          "name": "_numYears",
          "type": "uint256"
        }
      ],
      "name": "setDeadmanListTriggerRenewalDuration",
      "outputs": [],
      "stateMutability": "nonpayable",
      "type": "function"
    },
    {
      "inputs": [
        {
          "internalType": "address",
          "name": "_receiver",
          "type": "address"
        }
      ],
      "name": "setDefaultRoyaltyReceiver",
      "outputs": [],
      "stateMutability": "nonpayable",
      "type": "function"
    },
    {
      "inputs": [
        {
          "internalType": "address",
          "name": "_receiver",
          "type": "address"
        },
        {
          "internalType": "uint256",
          "name": "_tokenId",
          "type": "uint256"
        }
      ],
      "name": "setRoyaltyReceiverForToken",
      "outputs": [],
      "stateMutability": "nonpayable",
      "type": "function"
    },
    {
      "inputs": [
        {
          "internalType": "bytes4",
          "name": "_interfaceId",
          "type": "bytes4"
        }
      ],
      "name": "supportsInterface",
      "outputs": [
        {
          "internalType": "bool",
          "name": "",
          "type": "bool"
        }
      ],
      "stateMutability": "view",
      "type": "function"
    },
    {
      "inputs": [],
      "name": "symbol",
      "outputs": [
        {
          "internalType": "string",
          "name": "",
          "type": "string"
        }
      ],
      "stateMutability": "view",
      "type": "function"
    },
    {
      "inputs": [
        {
          "internalType": "enum IRoyaltyGuard.ListType",
          "name": "_newListType",
          "type": "uint8"
        }
      ],
      "name": "toggleListType",
      "outputs": [],
      "stateMutability": "nonpayable",
      "type": "function"
    },
    {
      "inputs": [
        {
          "internalType": "uint256",
          "name": "_tokenId",
          "type": "uint256"
        }
      ],
      "name": "tokenCreator",
      "outputs": [
        {
          "internalType": "address payable",
          "name": "",
          "type": "address"
        }
      ],
      "stateMutability": "view",
      "type": "function"
    },
    {
      "inputs": [
        {
          "internalType": "uint256",
          "name": "_tokenId",
          "type": "uint256"
        }
      ],
      "name": "tokenURI",
      "outputs": [
        {
          "internalType": "string",
          "name": "",
          "type": "string"
        }
      ],
      "stateMutability": "view",
      "type": "function"
    },
    {
      "inputs": [],
      "name": "totalSupply",
      "outputs": [
        {
          "internalType": "uint256",
          "name": "",
          "type": "uint256"
        }
      ],
      "stateMutability": "view",
      "type": "function"
    },
    {
      "inputs": [
        {
          "internalType": "address",
          "name": "from",
          "type": "address"
        },
        {
          "internalType": "address",
          "name": "to",
          "type": "address"
        },
        {
          "internalType": "uint256",
          "name": "tokenId",
          "type": "uint256"
        }
      ],
      "name": "transferFrom",
      "outputs": [],
      "stateMutability": "nonpayable",
      "type": "function"
    },
    {
      "inputs": [
        {
          "internalType": "address",
          "name": "newOwner",
          "type": "address"
        }
      ],
      "name": "transferOwnership",
      "outputs": [],
      "stateMutability": "nonpayable",
      "type": "function"
    },
    {
      "inputs": [
        {
          "internalType": "string",
          "name": "_baseURI",
          "type": "string"
        }
      ],
      "name": "updateBaseURI",
      "outputs": [],
      "stateMutability": "nonpayable",
      "type": "function"
    }
  ],
  "bytecode": {
    "object": "0x608060405234801561001057600080fd5b506136d9806100206000396000f3fe608060405234801561001057600080fd5b50600436106102a05760003560e01c8063715018a611610167578063b390ac25116100ce578063e985e9c511610087578063e985e9c5146105e0578063eab85118146105f3578063ee07080514610606578063efc32cd414610612578063f2fde38b14610625578063ff6e8c8f1461063857600080fd5b8063b390ac2514610577578063b88d4fde1461058a578063b9fbd25c1461059d578063bc719455146105b0578063c87b56dd146105c3578063e8315742146105d657600080fd5b8063931688cb11610120578063931688cb146105195780639338bb5d1461052c57806395d89b41146105415780639e860f2a14610549578063a22cb4651461055c578063ab69607a1461056f57600080fd5b8063715018a6146104c8578063717392ed146104d0578063755edd17146104d957806387bc793f146104ec578063894ba833146105005780638da5cb5b1461050857600080fd5b80633a3d146f1161020b57806353df5c7c116101c457806353df5c7c1461046c5780635aec8d62146104745780635edc7c191461047c5780636297c16c1461048f5780636352211e146104a257806370a08231146104b557600080fd5b80633a3d146f146103e05780633ebc82c51461040d57806340c1a0641461042057806342842e0e1461043357806342966c6814610446578063472a66381461045957600080fd5b8063204274861161025d578063204274861461035c57806321c4a5d81461036f57806323b872dd146103825780632a55205a146103955780632ce878da146103c75780633403c4e9146103cf57600080fd5b8063012cf1e8146102a557806301ffc9a7146102ce57806306fdde03146102f1578063081812fc14610306578063095ea7b31461033157806318160ddd14610346575b600080fd5b6102b86102b3366004612a61565b61064b565b6040516102c59190612a7c565b60405180910390f35b6102e16102dc366004612adf565b610691565b60405190151581526020016102c5565b6102f96106ab565b6040516102c59190612b54565b610319610314366004612b67565b61073d565b6040516001600160a01b0390911681526020016102c5565b61034461033f366004612b97565b6107d7565b005b61034e6108ac565b6040519081526020016102c5565b6102e161036a366004612bc1565b6108bd565b61034461037d366004612b67565b6108ec565b610344610390366004612bdc565b61091e565b6103a86103a3366004612c18565b610950565b604080516001600160a01b0390931683526020830191909152016102c5565b6102b86109eb565b60fb546001600160a01b0316610319565b6102e16103ee366004612bc1565b6001600160a01b03166000908152610102602052604090205460ff1690565b61034461041b366004612bc1565b610a11565b61031961042e366004612b67565b610a44565b610344610441366004612bdc565b610a58565b610344610454366004612b67565b610a73565b610344610467366004612a61565b610aea565b610344610b19565b610344610b8d565b61034461048a366004612c83565b610be8565b61034461049d366004612b67565b610d68565b6103196104b0366004612b67565b610dd1565b61034e6104c3366004612bc1565b610e48565b610344610ece565b6101095461034e565b61034e6104e7366004612bc1565b610f04565b6101085460ff166040516102c59190612d22565b610344610fda565b6033546001600160a01b0316610319565b610344610527366004612d4a565b61103e565b610534611112565b6040516102c59190612d8c565b6102f96111f6565b610344610557366004612dca565b611205565b61034461056a366004612e50565b611268565b60fc5461034e565b610344610585366004612e8c565b61130f565b610344610598366004612eee565b611366565b6103446105ab366004612fca565b61139e565b6103446105be366004612a61565b61141d565b6102f96105d1366004612b67565b6114d2565b61034e6101005481565b6102e16105ee366004613027565b611507565b6102e1610601366004612bc1565b611535565b60ff80546102e1911681565b610344610620366004612b97565b61155c565b610344610633366004612bc1565b6115b4565b610344610646366004612dca565b61164c565b606061068b610107600084600281111561066757610667612d0c565b600281111561067857610678612d0c565b81526020019081526020016000206116e4565b92915050565b600061069c826116f8565b8061068b575061068b8261171d565b6060609780546106ba90613051565b80601f01602080910402602001604051908101604052809291908181526020018280546106e690613051565b80156107335780601f1061070857610100808354040283529160200191610733565b820191906000526020600020905b81548152906001019060200180831161071657829003601f168201915b5050505050905090565b6000818152609960205260408120546001600160a01b03166107bb5760405162461bcd60e51b815260206004820152602c60248201527f4552433732313a20617070726f76656420717565727920666f72206e6f6e657860448201526b34b9ba32b73a103a37b5b2b760a11b60648201526084015b60405180910390fd5b506000908152609b60205260409020546001600160a01b031690565b8160016101085460ff1660028111156107f2576107f2612d0c565b036108515761083081610107600060015b600281111561081457610814612d0c565b815260200190815260200160002061176090919063ffffffff16565b61084c576040516282b42960e81b815260040160405180910390fd5b61089d565b60026101085460ff16600281111561086b5761086b612d0c565b0361089d576108808161010760006002610803565b1561089d576040516282b42960e81b815260040160405180910390fd5b6108a78383611782565b505050565b60006108b86101035490565b905090565b60006108d16033546001600160a01b031690565b6001600160a01b0316826001600160a01b0316149050919050565b6108f5336108bd565b61091257604051635c510c8360e11b815260040160405180910390fd5b61091b81611892565b50565b610929335b826118f5565b6109455760405162461bcd60e51b81526004016107b29061308b565b6108a78383836119cc565b600082815260fd602052604081205481906001600160a01b031661097f5760fb546001600160a01b0316610998565b600084815260fd60205260409020546001600160a01b03165b91506109e260646109dc60fe6000888152602001908152602001600020546000036109c55760fc546109d5565b600087815260fe60205260409020545b8690611b68565b90611b74565b90509250929050565b610108546060906108b8906101079060009060ff16600281111561066757610667612d0c565b6033546001600160a01b03163314610a3b5760405162461bcd60e51b81526004016107b2906130dc565b61091b81611b80565b600061068b6033546001600160a01b031690565b6108a783838360405180602001604052806000815250611366565b610a7c33610923565b610ae15760405162461bcd60e51b815260206004820152603060248201527f4552433732314275726e61626c653a2063616c6c6572206973206e6f74206f7760448201526f1b995c881b9bdc88185c1c1c9bdd995960821b60648201526084016107b2565b61091b81611ba2565b610af3336108bd565b610b1057604051635c510c8360e11b815260040160405180910390fd5b61091b81611c3e565b6033546001600160a01b03163314610b435760405162461bcd60e51b81526004016107b2906130dc565b6040517fb634b0cb94234b05eabb1438717e0e645bfd84788ae1263682242327563cde5e90610b759061010590613111565b60405180910390a1610106805460ff19166001179055565b42610109541115610bb15760405163807a684760e01b815260040160405180910390fd5b610bbb6000611c3e565b60405133907f60faf76514baf225c418dfc1e3c75bed0bd280f0436999e12cb0a73acb0f9a4690600090a2565b6000610bf46001611cbb565b90508015610c0c576000805461ff0019166101001790555b6001600160a01b038316610c625760405162461bcd60e51b815260206004820152601e60248201527f63726561746f722063616e6e6f74206265206e756c6c2061646472657373000060448201526064016107b2565b610c6c600a60fc55565b60ff805460ff19169055610100829055610c84611d43565b610cf787878080601f01602080910402602001604051908101604052809392919081815260200183838082843760009201919091525050604080516020601f8b018190048102820181019092528981529250899150889081908401838280828437600092019190915250611d7292505050565b610cff611da3565b610d07611dca565b610d1083611b80565b610d19836115b4565b8015610d5f576000805461ff0019169055604051600181527f7f26b83ff96e1f2b6a682f133852f6798a09c465da95921460cefb38474024989060200160405180910390a15b50505050505050565b33610d7282610dd1565b6001600160a01b031614610dc85760405162461bcd60e51b815260206004820152601f60248201527f4d75737420626520746865206f776e6572206f662074686520746f6b656e2e0060448201526064016107b2565b61091b81610a73565b6000818152609960205260408120546001600160a01b03168061068b5760405162461bcd60e51b815260206004820152602960248201527f4552433732313a206f776e657220717565727920666f72206e6f6e657869737460448201526832b73a103a37b5b2b760b91b60648201526084016107b2565b60006001600160a01b038216610eb25760405162461bcd60e51b815260206004820152602960248201527f4552433732313a2061646472657373207a65726f206973206e6f7420612076616044820152683634b21037bbb732b960b91b60648201526084016107b2565b506001600160a01b03166000908152609a602052604090205490565b6033546001600160a01b03163314610ef85760405162461bcd60e51b81526004016107b2906130dc565b610f026000611df9565b565b60ff80546000911615610f295760405162461bcd60e51b81526004016107b29061319c565b6033546001600160a01b0316331480610f525750336000908152610102602052604090205460ff165b610fb75760405162461bcd60e51b815260206004820152603060248201527f6c617a794d696e743a3a6f6e6c79206f776e6572206f7220617070726f76656460448201526f081b5a5b9d195c8818d85b881b5a5b9d60821b60648201526084016107b2565b61068b82610fc460fc5490565b60fb546001600160a01b0316611e4b565b919050565b6033546001600160a01b031633146110045760405162461bcd60e51b81526004016107b2906130dc565b60ff805460ff1916600117905560405133907f793bc6423dd0257d64f9d47db72fd4b2162f4541aa41740ba1c5fb5e2cd41bcd90600090a2565b6033546001600160a01b031633146110685760405162461bcd60e51b81526004016107b2906130dc565b6101065460ff16156110c65760405162461bcd60e51b815260206004820152602160248201527f757064617465426173655552493a3a6d65746164617461206973206c6f636b656044820152601960fa1b60648201526084016107b2565b6101056110d4828483613221565b507f1c306e70c05992619e2128ad1ef88df75f36c9476282e59f51401b2abaa42e4e82826040516111069291906132e2565b60405180910390a15050565b611138604051806060016040528060008152602001606081526020016000151581525090565b604080516060810190915261010480548252610105805460208401919061115e90613051565b80601f016020809104026020016040519081016040528092919081815260200182805461118a90613051565b80156111d75780601f106111ac576101008083540402835291602001916111d7565b820191906000526020600020905b8154815290600101906020018083116111ba57829003601f168201915b50505091835250506002919091015460ff161515602090910152919050565b6060609880546106ba90613051565b61120e336108bd565b61122b57604051635c510c8360e11b815260040160405180910390fd5b6108a78383838080602002602001604051908101604052809392919081815260200183836020028082843760009201829052509250611f07915050565b8160016101085460ff16600281111561128357611283612d0c565b036112b9576112988161010760006001610803565b6112b4576040516282b42960e81b815260040160405180910390fd5b611305565b60026101085460ff1660028111156112d3576112d3612d0c565b03611305576112e88161010760006002610803565b15611305576040516282b42960e81b815260040160405180910390fd5b6108a783836120e4565b6033546001600160a01b031633146113395760405162461bcd60e51b81526004016107b2906130dc565b60ff8054161561135b5760405162461bcd60e51b81526004016107b29061319c565b6108a78383836120ef565b61137033836118f5565b61138c5760405162461bcd60e51b81526004016107b29061308b565b61139884848484612271565b50505050565b6033546001600160a01b031633146113c85760405162461bcd60e51b81526004016107b2906130dc565b60ff805416156113ea5760405162461bcd60e51b81526004016107b29061319c565b6113f58484846120ef565b6001600160a01b0316600090815261010260205260409020805460ff19166001179055505050565b611426336108bd565b61144357604051635c510c8360e11b815260040160405180910390fd5b610107600082600281111561145a5761145a612d0c565b600281111561146b5761146b612d0c565b81526020810191909152604001600090812090818161148a8282612a20565b50505050336001600160a01b03167f7efc19cf93d497a6a56103ea89a39d51c0cad74a817ed3cd0ecaff9823d4da24826040516114c79190612d22565b60405180910390a250565b60606101056114e0836122a4565b6040516020016114f1929190613311565b6040516020818303038152906040529050919050565b6001600160a01b039182166000908152609c6020908152604080832093909416825291909152205460ff1690565b6101085460009061068b90839061010790849060ff16600281111561080357610803612d0c565b6033546001600160a01b031633146115865760405162461bcd60e51b81526004016107b2906130dc565b600090815260fd6020526040902080546001600160a01b0319166001600160a01b0392909216919091179055565b6033546001600160a01b031633146115de5760405162461bcd60e51b81526004016107b2906130dc565b6001600160a01b0381166116435760405162461bcd60e51b815260206004820152602660248201527f4f776e61626c653a206e6577206f776e657220697320746865207a65726f206160448201526564647265737360d01b60648201526084016107b2565b61091b81611df9565b611655336108bd565b61167257604051635c510c8360e11b815260040160405180910390fd5b600083600281111561168657611686612d0c565b036116a457604051632de777a160e11b815260040160405180910390fd5b6108a78383838080602002602001604051908101604052809392919081815260200183836020028082843760009201919091525060019250611f07915050565b606060006116f1836123a5565b9392505050565b60006001600160e01b0319821663fa31a45b60e01b148061068b575061068b82612401565b60006001600160e01b03198216631030681960e21b1480611742575061174282612401565b80611751575061175182612417565b8061068b575061068b82612438565b6001600160a01b038116600090815260018301602052604081205415156116f1565b600061178d82610dd1565b9050806001600160a01b0316836001600160a01b0316036117fa5760405162461bcd60e51b815260206004820152602160248201527f4552433732313a20617070726f76616c20746f2063757272656e74206f776e656044820152603960f91b60648201526084016107b2565b336001600160a01b038216148061181657506118168133611507565b6118885760405162461bcd60e51b815260206004820152603860248201527f4552433732313a20617070726f76652063616c6c6572206973206e6f74206f7760448201527f6e6572206e6f7220617070726f76656420666f7220616c6c000000000000000060648201526084016107b2565b6108a78383612478565b60006118a2826301e133806133cd565b6118ac90426133ec565b61010954604080519182526020820183905291925033917f6e948191a35d69000746799fef50c705bbdc93bd5a7577e9e9eb879c04bdebc9910160405180910390a26101095550565b6000818152609960205260408120546001600160a01b031661196e5760405162461bcd60e51b815260206004820152602c60248201527f4552433732313a206f70657261746f7220717565727920666f72206e6f6e657860448201526b34b9ba32b73a103a37b5b2b760a11b60648201526084016107b2565b600061197983610dd1565b9050806001600160a01b0316846001600160a01b031614806119a057506119a08185611507565b806119c45750836001600160a01b03166119b98461073d565b6001600160a01b0316145b949350505050565b826001600160a01b03166119df82610dd1565b6001600160a01b031614611a435760405162461bcd60e51b815260206004820152602560248201527f4552433732313a207472616e736665722066726f6d20696e636f72726563742060448201526437bbb732b960d91b60648201526084016107b2565b6001600160a01b038216611aa55760405162461bcd60e51b8152602060048201526024808201527f4552433732313a207472616e7366657220746f20746865207a65726f206164646044820152637265737360e01b60648201526084016107b2565b611ab0600082612478565b6001600160a01b0383166000908152609a60205260408120805460019290611ad9908490613404565b90915550506001600160a01b0382166000908152609a60205260408120805460019290611b079084906133ec565b909155505060008181526099602052604080822080546001600160a01b0319166001600160a01b0386811691821790925591518493918716917fddf252ad1be2c89b69c2b068fc378daa952ba7f163c4a11628f55a4df523b3ef91a4505050565b60006116f182846133cd565b60006116f18284613431565b60fb80546001600160a01b0319166001600160a01b0392909216919091179055565b6000611bad82610dd1565b9050611bba600083612478565b6001600160a01b0381166000908152609a60205260408120805460019290611be3908490613404565b909155505060008281526099602052604080822080546001600160a01b0319169055518391906001600160a01b038416907fddf252ad1be2c89b69c2b068fc378daa952ba7f163c4a11628f55a4df523b3ef908390a45b5050565b806002811115611c5057611c50612d0c565b6101085460ff166002811115611c6857611c68612d0c565b60405133907f12282389323caf08dd4e02c490ef05bc7edb56967c085742687aad3cc81aa15f90600090a4610108805482919060ff19166001836002811115611cb357611cb3612d0c565b021790555050565b60008054610100900460ff1615611d02578160ff166001148015611cde5750303b155b611cfa5760405162461bcd60e51b81526004016107b290613445565b506000919050565b60005460ff808416911610611d295760405162461bcd60e51b81526004016107b290613445565b506000805460ff191660ff92909216919091179055600190565b600054610100900460ff16611d6a5760405162461bcd60e51b81526004016107b290613493565b610f026124e6565b600054610100900460ff16611d995760405162461bcd60e51b81526004016107b290613493565b611c3a8282612516565b600054610100900460ff16610f025760405162461bcd60e51b81526004016107b290613493565b600054610100900460ff16611df15760405162461bcd60e51b81526004016107b290613493565b610f02611da3565b603380546001600160a01b038381166001600160a01b0319831681179093556040519116919082907f8be0079c531659141344cd1fd0a4f28419497f9722a3daafe3b4186f6b6457e090600090a35050565b6000611e5c61010380546001019055565b6000611e686101035490565b905061010054811115611ebd5760405162461bcd60e51b815260206004820181905260248201527f5f637265617465546f6b656e3a3a6578636565646564206d6178546f6b656e7360448201526064016107b2565b611ec78582612556565b600081815260fe60205260409020849055600081815260fd6020526040902080546001600160a01b0319166001600160a01b038516179055949350505050565b6000836002811115611f1b57611f1b612d0c565b146108a75760005b825181101561139857811561200457611f93838281518110611f4757611f476134de565b60200260200101516101076000876002811115611f6657611f66612d0c565b6002811115611f7757611f77612d0c565b815260200190815260200160002061257090919063ffffffff16565b50836002811115611fa657611fa6612d0c565b838281518110611fb857611fb86134de565b60200260200101516001600160a01b0316336001600160a01b03167f14155f749dc3f9cd2bf890d6d3a47069f77ae35befcee11c8b1a3ba41cba153660405160405180910390a46120d2565b612065838281518110612019576120196134de565b6020026020010151610107600087600281111561203857612038612d0c565b600281111561204957612049612d0c565b815260200190815260200160002061258590919063ffffffff16565b5083600281111561207857612078612d0c565b83828151811061208a5761208a6134de565b60200260200101516001600160a01b0316336001600160a01b03167fc72e29af1b34de3dec3a764b4ca4d85b9c380ab33b9b268d29b6e7008bd0ed9560405160405180910390a45b806120dc816134f4565b915050611f23565b611c3a33838361259a565b610100548111156121425760405162461bcd60e51b815260206004820181905260248201527f5f707265706172654d696e743a3a6578636565646564206d6178546f6b656e7360448201526064016107b2565b61010354156121ad5760405162461bcd60e51b815260206004820152603160248201527f5f707265706172654d696e743a3a63616e206f6e6c792070726570617265206d604482015270696e742077697468203020746f6b656e7360781b60648201526084016107b2565b604051806060016040528082815260200184848080601f016020809104026020016040519081016040528093929190818152602001838380828437600092018290525093855250505060209182015281516101049081559082015161010590612216908261350d565b50604091820151600291909101805460ff19169115159190911790555181907f6f1d651e6e0c8f86bd32a20c22a644d1e34fabf72307ff95d51b9f5892ddba199061226490869086906132e2565b60405180910390a2505050565b61227c8484846119cc565b61228884848484612668565b6113985760405162461bcd60e51b81526004016107b2906135cd565b6060816000036122cb5750506040805180820190915260018152600360fc1b602082015290565b8160005b81156122f557806122df816134f4565b91506122ee9050600a83613431565b91506122cf565b60008167ffffffffffffffff81111561231057612310612ed8565b6040519080825280601f01601f19166020018201604052801561233a576020820181803683370190505b5090505b84156119c45761234f600183613404565b915061235c600a8661361f565b6123679060306133ec565b60f81b81838151811061237c5761237c6134de565b60200101906001600160f81b031916908160001a90535061239e600a86613431565b945061233e565b6060816000018054806020026020016040519081016040528092919081815260200182805480156123f557602002820191906000526020600020905b8154815260200190600101908083116123e1575b50505050509050919050565b6001600160e01b0319166301ffc9a760e01b1490565b60006001600160e01b0319821663152a902d60e11b148061068b575061068b825b60006001600160e01b031982166380ac58cd60e01b148061246957506001600160e01b03198216635b5e139f60e01b145b8061068b575061068b82612401565b6000818152609b6020526040902080546001600160a01b0319166001600160a01b03841690811790915581906124ad82610dd1565b6001600160a01b03167f8c5be1e5ebec7d5bd14f71427d1e84f3dd0314c0f7b2291e5b200ac8c7c3b92560405160405180910390a45050565b600054610100900460ff1661250d5760405162461bcd60e51b81526004016107b290613493565b610f0233611df9565b600054610100900460ff1661253d5760405162461bcd60e51b81526004016107b290613493565b6097612549838261350d565b5060986108a7828261350d565b611c3a828260405180602001604052806000815250612769565b60006116f1836001600160a01b03841661279c565b60006116f1836001600160a01b0384166127eb565b816001600160a01b0316836001600160a01b0316036125fb5760405162461bcd60e51b815260206004820152601960248201527f4552433732313a20617070726f766520746f2063616c6c65720000000000000060448201526064016107b2565b6001600160a01b038381166000818152609c6020908152604080832094871680845294825291829020805460ff191686151590811790915591519182527f17307eab39ab6107e8899845ad3d59bd9653f200f220920489ca2b5937696c31910160405180910390a3505050565b60006001600160a01b0384163b1561275e57604051630a85bd0160e11b81526001600160a01b0385169063150b7a02906126ac903390899088908890600401613633565b6020604051808303816000875af19250505080156126e7575060408051601f3d908101601f191682019092526126e491810190613670565b60015b612744573d808015612715576040519150601f19603f3d011682016040523d82523d6000602084013e61271a565b606091505b50805160000361273c5760405162461bcd60e51b81526004016107b2906135cd565b805181602001fd5b6001600160e01b031916630a85bd0160e11b1490506119c4565b506001949350505050565b61277383836128de565b6127806000848484612668565b6108a75760405162461bcd60e51b81526004016107b2906135cd565b60008181526001830160205260408120546127e35750815460018181018455600084815260208082209093018490558454848252828601909352604090209190915561068b565b50600061068b565b600081815260018301602052604081205480156128d457600061280f600183613404565b855490915060009061282390600190613404565b9050818114612888576000866000018281548110612843576128436134de565b9060005260206000200154905080876000018481548110612866576128666134de565b6000918252602080832090910192909255918252600188019052604090208390555b85548690806128995761289961368d565b60019003818190600052602060002001600090559055856001016000868152602001908152602001600020600090556001935050505061068b565b600091505061068b565b6001600160a01b0382166129345760405162461bcd60e51b815260206004820181905260248201527f4552433732313a206d696e7420746f20746865207a65726f206164647265737360448201526064016107b2565b6000818152609960205260409020546001600160a01b0316156129995760405162461bcd60e51b815260206004820152601c60248201527f4552433732313a20746f6b656e20616c7265616479206d696e7465640000000060448201526064016107b2565b6001600160a01b0382166000908152609a602052604081208054600192906129c29084906133ec565b909155505060008181526099602052604080822080546001600160a01b0319166001600160a01b03861690811790915590518392907fddf252ad1be2c89b69c2b068fc378daa952ba7f163c4a11628f55a4df523b3ef908290a45050565b508054600082559060005260206000209081019061091b91905b80821115612a4e5760008155600101612a3a565b5090565b803560038110610fd557600080fd5b600060208284031215612a7357600080fd5b6116f182612a52565b6020808252825182820181905260009190848201906040850190845b81811015612abd5783516001600160a01b031683529284019291840191600101612a98565b50909695505050505050565b6001600160e01b03198116811461091b57600080fd5b600060208284031215612af157600080fd5b81356116f181612ac9565b60005b83811015612b17578181015183820152602001612aff565b838111156113985750506000910152565b60008151808452612b40816020860160208601612afc565b601f01601f19169290920160200192915050565b6020815260006116f16020830184612b28565b600060208284031215612b7957600080fd5b5035919050565b80356001600160a01b0381168114610fd557600080fd5b60008060408385031215612baa57600080fd5b612bb383612b80565b946020939093013593505050565b600060208284031215612bd357600080fd5b6116f182612b80565b600080600060608486031215612bf157600080fd5b612bfa84612b80565b9250612c0860208501612b80565b9150604084013590509250925092565b60008060408385031215612c2b57600080fd5b50508035926020909101359150565b60008083601f840112612c4c57600080fd5b50813567ffffffffffffffff811115612c6457600080fd5b602083019150836020828501011115612c7c57600080fd5b9250929050565b60008060008060008060808789031215612c9c57600080fd5b863567ffffffffffffffff80821115612cb457600080fd5b612cc08a838b01612c3a565b90985096506020890135915080821115612cd957600080fd5b50612ce689828a01612c3a565b9095509350612cf9905060408801612b80565b9150606087013590509295509295509295565b634e487b7160e01b600052602160045260246000fd5b6020810160038310612d4457634e487b7160e01b600052602160045260246000fd5b91905290565b60008060208385031215612d5d57600080fd5b823567ffffffffffffffff811115612d7457600080fd5b612d8085828601612c3a565b90969095509350505050565b60208152815160208201526000602083015160606040840152612db26080840182612b28565b90506040840151151560608401528091505092915050565b600080600060408486031215612ddf57600080fd5b612de884612a52565b9250602084013567ffffffffffffffff80821115612e0557600080fd5b818601915086601f830112612e1957600080fd5b813581811115612e2857600080fd5b8760208260051b8501011115612e3d57600080fd5b6020830194508093505050509250925092565b60008060408385031215612e6357600080fd5b612e6c83612b80565b915060208301358015158114612e8157600080fd5b809150509250929050565b600080600060408486031215612ea157600080fd5b833567ffffffffffffffff811115612eb857600080fd5b612ec486828701612c3a565b909790965060209590950135949350505050565b634e487b7160e01b600052604160045260246000fd5b60008060008060808587031215612f0457600080fd5b612f0d85612b80565b9350612f1b60208601612b80565b925060408501359150606085013567ffffffffffffffff80821115612f3f57600080fd5b818701915087601f830112612f5357600080fd5b813581811115612f6557612f65612ed8565b604051601f8201601f19908116603f01168101908382118183101715612f8d57612f8d612ed8565b816040528281528a6020848701011115612fa657600080fd5b82602086016020830137600060208483010152809550505050505092959194509250565b60008060008060608587031215612fe057600080fd5b843567ffffffffffffffff811115612ff757600080fd5b61300387828801612c3a565b9095509350506020850135915061301c60408601612b80565b905092959194509250565b6000806040838503121561303a57600080fd5b61304383612b80565b91506109e260208401612b80565b600181811c9082168061306557607f821691505b60208210810361308557634e487b7160e01b600052602260045260246000fd5b50919050565b60208082526031908201527f4552433732313a207472616e736665722063616c6c6572206973206e6f74206f6040820152701ddb995c881b9bdc88185c1c1c9bdd9959607a1b606082015260800190565b6020808252818101527f4f776e61626c653a2063616c6c6572206973206e6f7420746865206f776e6572604082015260600190565b600060208083526000845461312581613051565b8084870152604060018084166000811461314657600181146131605761318e565b60ff1985168984015283151560051b89018301955061318e565b896000528660002060005b858110156131865781548b820186015290830190880161316b565b8a0184019650505b509398975050505050505050565b6020808252601e908201527f436f6e7472616374206d757374206e6f742062652064697361626c65642e0000604082015260600190565b601f8211156108a757600081815260208120601f850160051c810160208610156131fa5750805b601f850160051c820191505b8181101561321957828155600101613206565b505050505050565b67ffffffffffffffff83111561323957613239612ed8565b61324d836132478354613051565b836131d3565b6000601f84116001811461328157600085156132695750838201355b600019600387901b1c1916600186901b1783556132db565b600083815260209020601f19861690835b828110156132b25786850135825560209485019460019092019101613292565b50868210156132cf5760001960f88860031b161c19848701351681555b505060018560011b0183555b5050505050565b60208152816020820152818360408301376000818301604090810191909152601f909201601f19160101919050565b600080845461331f81613051565b60018281168015613337576001811461334c5761337b565b60ff198416875282151583028701945061337b565b8860005260208060002060005b858110156133725781548a820152908401908201613359565b50505082870194505b50602f60f81b8452865192506133978382860160208a01612afc565b64173539b7b760d91b939092019182019290925260060195945050505050565b634e487b7160e01b600052601160045260246000fd5b60008160001904831182151516156133e7576133e76133b7565b500290565b600082198211156133ff576133ff6133b7565b500190565b600082821015613416576134166133b7565b500390565b634e487b7160e01b600052601260045260246000fd5b6000826134405761344061341b565b500490565b6020808252602e908201527f496e697469616c697a61626c653a20636f6e747261637420697320616c72656160408201526d191e481a5b9a5d1a585b1a5e995960921b606082015260800190565b6020808252602b908201527f496e697469616c697a61626c653a20636f6e7472616374206973206e6f74206960408201526a6e697469616c697a696e6760a81b606082015260800190565b634e487b7160e01b600052603260045260246000fd5b600060018201613506576135066133b7565b5060010190565b815167ffffffffffffffff81111561352757613527612ed8565b61353b816135358454613051565b846131d3565b602080601f83116001811461357057600084156135585750858301515b600019600386901b1c1916600185901b178555613219565b600085815260208120601f198616915b8281101561359f57888601518255948401946001909101908401613580565b50858210156135bd5787850151600019600388901b60f8161c191681555b5050505050600190811b01905550565b60208082526032908201527f4552433732313a207472616e7366657220746f206e6f6e20455243373231526560408201527131b2b4bb32b91034b6b83632b6b2b73a32b960711b606082015260800190565b60008261362e5761362e61341b565b500690565b6001600160a01b038581168252841660208201526040810183905260806060820181905260009061366690830184612b28565b9695505050505050565b60006020828403121561368257600080fd5b81516116f181612ac9565b634e487b7160e01b600052603160045260246000fdfea26469706673582212201578cb92f9d0b849d9a39fac543b36e3ac45105b744972da831f814a5e9dbdaf64736f6c634300080f0033",
    "linkReferences": {}
  },
  "methodIdentifiers": {
    "activateDeadmanListTrigger()": "5aec8d62",
    "approve(address,uint256)": "095ea7b3",
    "balanceOf(address)": "70a08231",
    "batchAddAddressToRoyaltyList(uint8,address[])": "ff6e8c8f",
    "batchRemoveAddressToRoyaltyList(uint8,address[])": "9e860f2a",
    "burn(uint256)": "42966c68",
    "clearList(uint8)": "bc719455",
    "deleteToken(uint256)": "6297c16c",
    "disableContract()": "894ba833",
    "disabled()": "ee070805",
    "getApproved(uint256)": "081812fc",
    "getDeadmanTriggerAvailableDatetime()": "717392ed",
    "getDefaultRoyaltyPercentage()": "ab69607a",
    "getDefaultRoyaltyReceiver()": "3403c4e9",
    "getInUseList()": "2ce878da",
    "getList(uint8)": "012cf1e8",
    "getListType()": "87bc793f",
    "getMintConfig()": "9338bb5d",
    "hasAdminPermission(address)": "20427486",
    "init(string,string,address,uint256)": "5edc7c19",
    "isApprovedForAll(address,address)": "e985e9c5",
    "isApprovedMinter(address)": "3a3d146f",
    "isOperatorInList(address)": "eab85118",
    "lockBaseURI()": "53df5c7c",
    "maxTokens()": "e8315742",
    "mintTo(address)": "755edd17",
    "name()": "06fdde03",
    "owner()": "8da5cb5b",
    "ownerOf(uint256)": "6352211e",
    "prepareMint(string,uint256)": "b390ac25",
    "prepareMintWithMinter(string,uint256,address)": "b9fbd25c",
    "renounceOwnership()": "715018a6",
    "royaltyInfo(uint256,uint256)": "2a55205a",
    "safeTransferFrom(address,address,uint256)": "42842e0e",
    "safeTransferFrom(address,address,uint256,bytes)": "b88d4fde",
    "setApprovalForAll(address,bool)": "a22cb465",
    "setDeadmanListTriggerRenewalDuration(uint256)": "21c4a5d8",
    "setDefaultRoyaltyReceiver(address)": "3ebc82c5",
    "setRoyaltyReceiverForToken(address,uint256)": "efc32cd4",
    "supportsInterface(bytes4)": "01ffc9a7",
    "symbol()": "95d89b41",
    "toggleListType(uint8)": "472a6638",
    "tokenCreator(uint256)": "40c1a064",
    "tokenURI(uint256)": "c87b56dd",
    "totalSupply()": "18160ddd",
    "transferFrom(address,address,uint256)": "23b872dd",
    "transferOwnership(address)": "f2fde38b",
    "updateBaseURI(string)": "931688cb"
  },
  "id": 27
}