{
  "abi": [
    {
      "inputs": [],
      "name": "CantAddToOFFList",
      "type": "error"
    },
    {
      "inputs": [],
      "name": "MustBeAdmin",
      "type": "error"
    },
    {
      "inputs": [],
      "name": "Unauthorized",
      "type": "error"
    },
    {
      "anonymous": false,
      "inputs": [
        {
          "indexed": true,
          "internalType": "address",
          "name": "_updater",
          "type": "address"
        },
        {
          "indexed": true,
          "internalType": "address",
          "name": "_addedAddr",
          "type": "address"
        },
        {
          "indexed": true,
          "internalType": "enum IRoyaltyGuard.ListType",
          "name": "_ListType",
          "type": "uint8"
        }
      ],
      "name": "AddressAddedToList",
      "type": "event"
    },
    {
      "anonymous": false,
      "inputs": [
        {
          "indexed": true,
          "internalType": "address",
          "name": "_updater",
          "type": "address"
        },
        {
          "indexed": true,
          "internalType": "address",
          "name": "_removedAddr",
          "type": "address"
        },
        {
          "indexed": true,
          "internalType": "enum IRoyaltyGuard.ListType",
          "name": "_ListType",
          "type": "uint8"
        }
      ],
      "name": "AddressRemovedList",
      "type": "event"
    },
    {
      "anonymous": false,
      "inputs": [
        {
          "indexed": true,
          "internalType": "address",
          "name": "owner",
          "type": "address"
        },
        {
          "indexed": true,
          "internalType": "address",
          "name": "approved",
          "type": "address"
        },
        {
          "indexed": true,
          "internalType": "uint256",
          "name": "tokenId",
          "type": "uint256"
        }
      ],
      "name": "Approval",
      "type": "event"
    },
    {
      "anonymous": false,
      "inputs": [
        {
          "indexed": true,
          "internalType": "address",
          "name": "owner",
          "type": "address"
        },
        {
          "indexed": true,
          "internalType": "address",
          "name": "operator",
          "type": "address"
        },
        {
          "indexed": false,
          "internalType": "bool",
          "name": "approved",
          "type": "bool"
        }
      ],
      "name": "ApprovalForAll",
      "type": "event"
    },
    {
      "anonymous": false,
      "inputs": [
        {
          "indexed": true,
          "internalType": "address",
          "name": "user",
          "type": "address"
        }
      ],
      "name": "ContractDisabled",
      "type": "event"
    },
    {
      "anonymous": false,
      "inputs": [
        {
          "indexed": false,
          "internalType": "uint8",
          "name": "version",
          "type": "uint8"
        }
      ],
      "name": "Initialized",
      "type": "event"
    },
    {
      "anonymous": false,
      "inputs": [
        {
          "indexed": true,
          "internalType": "address",
          "name": "_updater",
          "type": "address"
        },
        {
          "indexed": false,
          "internalType": "enum IRoyaltyGuard.ListType",
          "name": "_listType",
          "type": "uint8"
        }
      ],
      "name": "ListCleared",
      "type": "event"
    },
    {
      "anonymous": false,
      "inputs": [
        {
          "indexed": true,
          "internalType": "address",
          "name": "_updater",
          "type": "address"
        },
        {
          "indexed": true,
          "internalType": "enum IRoyaltyGuard.ListType",
          "name": "_oldListType",
          "type": "uint8"
        },
        {
          "indexed": true,
          "internalType": "enum IRoyaltyGuard.ListType",
          "name": "_newListType",
          "type": "uint8"
        }
      ],
      "name": "ListTypeUpdated",
      "type": "event"
    },
    {
      "anonymous": false,
      "inputs": [
        {
          "indexed": false,
          "internalType": "string",
          "name": "baseURI",
          "type": "string"
        }
      ],
      "name": "MetadataLocked",
      "type": "event"
    },
    {
      "anonymous": false,
      "inputs": [
        {
          "indexed": false,
          "internalType": "string",
          "name": "baseURI",
          "type": "string"
        }
      ],
      "name": "MetadataUpdated",
      "type": "event"
    },
    {
      "anonymous": false,
      "inputs": [
        {
          "indexed": true,
          "internalType": "address",
          "name": "previousOwner",
          "type": "address"
        },
        {
          "indexed": true,
          "internalType": "address",
          "name": "newOwner",
          "type": "address"
        }
      ],
      "name": "OwnershipTransferred",
      "type": "event"
    },
    {
      "anonymous": false,
      "inputs": [
        {
          "indexed": true,
          "internalType": "uint256",
          "name": "numberOfTokens",
          "type": "uint256"
        },
        {
          "indexed": false,
          "internalType": "string",
          "name": "baseURI",
          "type": "string"
        }
      ],
      "name": "PrepareMint",
      "type": "event"
    },
    {
      "anonymous": false,
      "inputs": [
        {
          "indexed": true,
          "internalType": "uint256",
          "name": "tokenId",
          "type": "uint256"
        },
        {
          "indexed": false,
          "internalType": "string",
          "name": "metadataUri",
          "type": "string"
        }
      ],
      "name": "TokenURIUpdated",
      "type": "event"
    },
    {
      "anonymous": false,
      "inputs": [
        {
          "indexed": true,
          "internalType": "address",
          "name": "from",
          "type": "address"
        },
        {
          "indexed": true,
          "internalType": "address",
          "name": "to",
          "type": "address"
        },
        {
          "indexed": true,
          "internalType": "uint256",
          "name": "tokenId",
          "type": "uint256"
        }
      ],
      "name": "Transfer",
      "type": "event"
    },
    {
      "inputs": [
        {
          "internalType": "address",
          "name": "_spender",
          "type": "address"
        },
        {
          "internalType": "uint256",
          "name": "_id",
          "type": "uint256"
        }
      ],
      "name": "approve",
      "outputs": [],
      "stateMutability": "nonpayable",
      "type": "function"
    },
    {
      "inputs": [
        {
          "internalType": "address",
          "name": "owner",
          "type": "address"
        }
      ],
      "name": "balanceOf",
      "outputs": [
        {
          "internalType": "uint256",
          "name": "",
          "type": "uint256"
        }
      ],
      "stateMutability": "view",
      "type": "function"
    },
    {
      "inputs": [
        {
          "internalType": "enum IRoyaltyGuard.ListType",
          "name": "_listType",
          "type": "uint8"
        },
        {
          "internalType": "address[]",
          "name": "_addrs",
          "type": "address[]"
        }
      ],
      "name": "batchAddAddressToRoyaltyList",
      "outputs": [],
      "stateMutability": "nonpayable",
      "type": "function"
    },
    {
      "inputs": [
        {
          "internalType": "enum IRoyaltyGuard.ListType",
          "name": "_listType",
          "type": "uint8"
        },
        {
          "internalType": "address[]",
          "name": "_addrs",
          "type": "address[]"
        }
      ],
      "name": "batchRemoveAddressToRoyaltyList",
      "outputs": [],
      "stateMutability": "nonpayable",
      "type": "function"
    },
    {
      "inputs": [
        {
          "internalType": "uint256",
          "name": "tokenId",
          "type": "uint256"
        }
      ],
      "name": "burn",
      "outputs": [],
      "stateMutability": "nonpayable",
      "type": "function"
    },
    {
      "inputs": [
        {
          "internalType": "enum IRoyaltyGuard.ListType",
          "name": "_listType",
          "type": "uint8"
        }
      ],
      "name": "clearList",
      "outputs": [],
      "stateMutability": "nonpayable",
      "type": "function"
    },
    {
      "inputs": [
        {
          "internalType": "uint256",
          "name": "_tokenId",
          "type": "uint256"
        }
      ],
      "name": "deleteToken",
      "outputs": [],
      "stateMutability": "nonpayable",
      "type": "function"
    },
    {
      "inputs": [],
      "name": "disableContract",
      "outputs": [],
      "stateMutability": "nonpayable",
      "type": "function"
    },
    {
      "inputs": [],
      "name": "disabled",
      "outputs": [
        {
          "internalType": "bool",
          "name": "",
          "type": "bool"
        }
      ],
      "stateMutability": "view",
      "type": "function"
    },
    {
      "inputs": [
        {
          "internalType": "uint256",
          "name": "tokenId",
          "type": "uint256"
        }
      ],
      "name": "getApproved",
      "outputs": [
        {
          "internalType": "address",
          "name": "",
          "type": "address"
        }
      ],
      "stateMutability": "view",
      "type": "function"
    },
    {
      "inputs": [],
      "name": "getDefaultRoyaltyPercentage",
      "outputs": [
        {
          "internalType": "uint256",
          "name": "",
          "type": "uint256"
        }
      ],
      "stateMutability": "view",
      "type": "function"
    },
    {
      "inputs": [],
      "name": "getDefaultRoyaltyReceiver",
      "outputs": [
        {
          "internalType": "address",
          "name": "",
          "type": "address"
        }
      ],
      "stateMutability": "view",
      "type": "function"
    },
    {
      "inputs": [],
      "name": "getInUseList",
      "outputs": [
        {
          "internalType": "address[]",
          "name": "",
          "type": "address[]"
        }
      ],
      "stateMutability": "view",
      "type": "function"
    },
    {
      "inputs": [
        {
          "internalType": "enum IRoyaltyGuard.ListType",
          "name": "_listType",
          "type": "uint8"
        }
      ],
      "name": "getList",
      "outputs": [
        {
          "internalType": "address[]",
          "name": "",
          "type": "address[]"
        }
      ],
      "stateMutability": "view",
      "type": "function"
    },
    {
      "inputs": [],
      "name": "getListType",
      "outputs": [
        {
          "internalType": "enum IRoyaltyGuard.ListType",
          "name": "",
          "type": "uint8"
        }
      ],
      "stateMutability": "view",
      "type": "function"
    },
    {
      "inputs": [],
      "name": "getMintConfig",
      "outputs": [
        {
          "components": [
            {
              "internalType": "uint256",
              "name": "numberOfTokens",
              "type": "uint256"
            },
            {
              "internalType": "string",
              "name": "baseURI",
              "type": "string"
            },
            {
              "internalType": "bool",
              "name": "lockedMetadata",
              "type": "bool"
            }
          ],
          "internalType": "struct LazySovereignNFT.MintConfig",
          "name": "",
          "type": "tuple"
        }
      ],
      "stateMutability": "view",
      "type": "function"
    },
    {
      "inputs": [
        {
          "internalType": "address",
          "name": "_addr",
          "type": "address"
        }
      ],
      "name": "hasAdminPermission",
      "outputs": [
        {
          "internalType": "bool",
          "name": "",
          "type": "bool"
        }
      ],
      "stateMutability": "view",
      "type": "function"
    },
    {
      "inputs": [
        {
          "internalType": "string",
          "name": "_name",
          "type": "string"
        },
        {
          "internalType": "string",
          "name": "_symbol",
          "type": "string"
        },
        {
          "internalType": "address",
          "name": "_creator",
          "type": "address"
        },
        {
          "internalType": "uint256",
          "name": "_maxTokens",
          "type": "uint256"
        }
      ],
      "name": "init",
      "outputs": [],
      "stateMutability": "nonpayable",
      "type": "function"
    },
    {
      "inputs": [
        {
          "internalType": "address",
          "name": "owner",
          "type": "address"
        },
        {
          "internalType": "address",
          "name": "operator",
          "type": "address"
        }
      ],
      "name": "isApprovedForAll",
      "outputs": [
        {
          "internalType": "bool",
          "name": "",
          "type": "bool"
        }
      ],
      "stateMutability": "view",
      "type": "function"
    },
    {
      "inputs": [
        {
          "internalType": "address",
          "name": "_address",
          "type": "address"
        }
      ],
      "name": "isApprovedMinter",
      "outputs": [
        {
          "internalType": "bool",
          "name": "",
          "type": "bool"
        }
      ],
      "stateMutability": "view",
      "type": "function"
    },
    {
      "inputs": [
        {
          "internalType": "address",
          "name": "_operator",
          "type": "address"
        }
      ],
      "name": "isOperatorInList",
      "outputs": [
        {
          "internalType": "bool",
          "name": "",
          "type": "bool"
        }
      ],
      "stateMutability": "view",
      "type": "function"
    },
    {
      "inputs": [],
      "name": "lockBaseURI",
      "outputs": [],
      "stateMutability": "nonpayable",
      "type": "function"
    },
    {
      "inputs": [],
      "name": "maxTokens",
      "outputs": [
        {
          "internalType": "uint256",
          "name": "",
          "type": "uint256"
        }
      ],
      "stateMutability": "view",
      "type": "function"
    },
    {
      "inputs": [
        {
          "internalType": "address",
          "name": "_receiver",
          "type": "address"
        }
      ],
      "name": "mintTo",
      "outputs": [
        {
          "internalType": "uint256",
          "name": "",
          "type": "uint256"
        }
      ],
      "stateMutability": "nonpayable",
      "type": "function"
    },
    {
      "inputs": [],
      "name": "name",
      "outputs": [
        {
          "internalType": "string",
          "name": "",
          "type": "string"
        }
      ],
      "stateMutability": "view",
      "type": "function"
    },
    {
      "inputs": [],
      "name": "owner",
      "outputs": [
        {
          "internalType": "address",
          "name": "",
          "type": "address"
        }
      ],
      "stateMutability": "view",
      "type": "function"
    },
    {
      "inputs": [
        {
          "internalType": "uint256",
          "name": "tokenId",
          "type": "uint256"
        }
      ],
      "name": "ownerOf",
      "outputs": [
        {
          "internalType": "address",
          "name": "",
          "type": "address"
        }
      ],
      "stateMutability": "view",
      "type": "function"
    },
    {
      "inputs": [
        {
          "internalType": "string",
          "name": "_baseURI",
          "type": "string"
        },
        {
          "internalType": "uint256",
          "name": "_numberOfTokens",
          "type": "uint256"
        }
      ],
      "name": "prepareMint",
      "outputs": [],
      "stateMutability": "nonpayable",
      "type": "function"
    },
    {
      "inputs": [
        {
          "internalType": "string",
          "name": "_baseURI",
          "type": "string"
        },
        {
          "internalType": "uint256",
          "name": "_numberOfTokens",
          "type": "uint256"
        },
        {
          "internalType": "address",
          "name": "_minter",
          "type": "address"
        }
      ],
      "name": "prepareMintWithMinter",
      "outputs": [],
      "stateMutability": "nonpayable",
      "type": "function"
    },
    {
      "inputs": [],
      "name": "renounceOwnership",
      "outputs": [],
      "stateMutability": "nonpayable",
      "type": "function"
    },
    {
      "inputs": [
        {
          "internalType": "uint256",
          "name": "_tokenId",
          "type": "uint256"
        },
        {
          "internalType": "uint256",
          "name": "_salePrice",
          "type": "uint256"
        }
      ],
      "name": "royaltyInfo",
      "outputs": [
        {
          "internalType": "address",
          "name": "receiver",
          "type": "address"
        },
        {
          "internalType": "uint256",
          "name": "royaltyAmount",
          "type": "uint256"
        }
      ],
      "stateMutability": "view",
      "type": "function"
    },
    {
      "inputs": [
        {
          "internalType": "address",
          "name": "from",
          "type": "address"
        },
        {
          "internalType": "address",
          "name": "to",
          "type": "address"
        },
        {
          "internalType": "uint256",
          "name": "tokenId",
          "type": "uint256"
        }
      ],
      "name": "safeTransferFrom",
      "outputs": [],
      "stateMutability": "nonpayable",
      "type": "function"
    },
    {
      "inputs": [
        {
          "internalType": "address",
          "name": "from",
          "type": "address"
        },
        {
          "internalType": "address",
          "name": "to",
          "type": "address"
        },
        {
          "internalType": "uint256",
          "name": "tokenId",
          "type": "uint256"
        },
        {
          "internalType": "bytes",
          "name": "_data",
          "type": "bytes"
        }
      ],
      "name": "safeTransferFrom",
      "outputs": [],
      "stateMutability": "nonpayable",
      "type": "function"
    },
    {
      "inputs": [
        {
          "internalType": "address",
          "name": "_operator",
          "type": "address"
        },
        {
          "internalType": "bool",
          "name": "_approved",
          "type": "bool"
        }
      ],
      "name": "setApprovalForAll",
      "outputs": [],
      "stateMutability": "nonpayable",
      "type": "function"
    },
    {
      "inputs": [
        {
          "internalType": "address",
          "name": "_receiver",
          "type": "address"
        }
      ],
      "name": "setDefaultRoyaltyReceiver",
      "outputs": [],
      "stateMutability": "nonpayable",
      "type": "function"
    },
    {
      "inputs": [
        {
          "internalType": "address",
          "name": "_minter",
          "type": "address"
        },
        {
          "internalType": "bool",
          "name": "_isMinter",
          "type": "bool"
        }
      ],
      "name": "setMinterApproval",
      "outputs": [],
      "stateMutability": "nonpayable",
      "type": "function"
    },
    {
      "inputs": [
        {
          "internalType": "address",
          "name": "_receiver",
          "type": "address"
        },
        {
          "internalType": "uint256",
          "name": "_tokenId",
          "type": "uint256"
        }
      ],
      "name": "setRoyaltyReceiverForToken",
      "outputs": [],
      "stateMutability": "nonpayable",
      "type": "function"
    },
    {
      "inputs": [
        {
          "internalType": "bytes4",
          "name": "_interfaceId",
          "type": "bytes4"
        }
      ],
      "name": "supportsInterface",
      "outputs": [
        {
          "internalType": "bool",
          "name": "",
          "type": "bool"
        }
      ],
      "stateMutability": "view",
      "type": "function"
    },
    {
      "inputs": [],
      "name": "symbol",
      "outputs": [
        {
          "internalType": "string",
          "name": "",
          "type": "string"
        }
      ],
      "stateMutability": "view",
      "type": "function"
    },
    {
      "inputs": [
        {
          "internalType": "enum IRoyaltyGuard.ListType",
          "name": "_newListType",
          "type": "uint8"
        }
      ],
      "name": "toggleListType",
      "outputs": [],
      "stateMutability": "nonpayable",
      "type": "function"
    },
    {
      "inputs": [
        {
          "internalType": "uint256",
          "name": "_tokenId",
          "type": "uint256"
        }
      ],
      "name": "tokenCreator",
      "outputs": [
        {
          "internalType": "address payable",
          "name": "",
          "type": "address"
        }
      ],
      "stateMutability": "view",
      "type": "function"
    },
    {
      "inputs": [
        {
          "internalType": "uint256",
          "name": "_tokenId",
          "type": "uint256"
        }
      ],
      "name": "tokenURI",
      "outputs": [
        {
          "internalType": "string",
          "name": "",
          "type": "string"
        }
      ],
      "stateMutability": "view",
      "type": "function"
    },
    {
      "inputs": [],
      "name": "totalSupply",
      "outputs": [
        {
          "internalType": "uint256",
          "name": "",
          "type": "uint256"
        }
      ],
      "stateMutability": "view",
      "type": "function"
    },
    {
      "inputs": [
        {
          "internalType": "address",
          "name": "from",
          "type": "address"
        },
        {
          "internalType": "address",
          "name": "to",
          "type": "address"
        },
        {
          "internalType": "uint256",
          "name": "tokenId",
          "type": "uint256"
        }
      ],
      "name": "transferFrom",
      "outputs": [],
      "stateMutability": "nonpayable",
      "type": "function"
    },
    {
      "inputs": [
        {
          "internalType": "address",
          "name": "newOwner",
          "type": "address"
        }
      ],
      "name": "transferOwnership",
      "outputs": [],
      "stateMutability": "nonpayable",
      "type": "function"
    },
    {
      "inputs": [
        {
          "internalType": "string",
          "name": "_baseURI",
          "type": "string"
        }
      ],
      "name": "updateBaseURI",
      "outputs": [],
      "stateMutability": "nonpayable",
      "type": "function"
    },
    {
      "inputs": [
        {
          "internalType": "uint256",
          "name": "_tokenId",
          "type": "uint256"
        },
        {
          "internalType": "string",
          "name": "_metadataUri",
          "type": "string"
        }
      ],
      "name": "updateTokenURI",
      "outputs": [],
      "stateMutability": "nonpayable",
      "type": "function"
    }
  ],
  "bytecode": {
    "object": "0x608060405234801561001057600080fd5b50613840806100206000396000f3fe608060405234801561001057600080fd5b50600436106102955760003560e01c806370a0823111610167578063b390ac25116100ce578063e985e9c511610087578063e985e9c5146105d7578063eab85118146105ea578063ee070805146105fd578063efc32cd414610609578063f2fde38b1461061c578063ff6e8c8f1461062f57600080fd5b8063b390ac251461056e578063b88d4fde14610581578063b9fbd25c14610594578063bc719455146105a7578063c87b56dd146105ba578063e8315742146105cd57600080fd5b8063931688cb11610120578063931688cb146105105780639338bb5d1461052357806395d89b41146105385780639e860f2a14610540578063a22cb46514610553578063ab69607a1461056657600080fd5b806370a08231146104b5578063715018a6146104c8578063755edd17146104d057806387bc793f146104e3578063894ba833146104f75780638da5cb5b146104ff57600080fd5b80632ce878da1161020b57806342966c68116101c457806342966c681461044e578063472a66381461046157806353df5c7c146104745780635edc7c191461047c5780636297c16c1461048f5780636352211e146104a257600080fd5b80632ce878da146103cf5780633403c4e9146103d75780633a3d146f146103e85780633ebc82c51461041557806340c1a0641461042857806342842e0e1461043b57600080fd5b80630de54ba01161025d5780630de54ba01461033b57806318160ddd1461034e57806318e97fd114610364578063204274861461037757806323b872dd1461038a5780632a55205a1461039d57600080fd5b8063012cf1e81461029a57806301ffc9a7146102c357806306fdde03146102e6578063081812fc146102fb578063095ea7b314610326575b600080fd5b6102ad6102a8366004612b7c565b610642565b6040516102ba9190612b97565b60405180910390f35b6102d66102d1366004612bfa565b610688565b60405190151581526020016102ba565b6102ee6106a2565b6040516102ba9190612c6f565b61030e610309366004612c82565b610734565b6040516001600160a01b0390911681526020016102ba565b610339610334366004612cb2565b6107ce565b005b610339610349366004612cdc565b6108a3565b61035661091b565b6040519081526020016102ba565b610339610372366004612d61565b61092c565b6102d6610385366004612dad565b610a0f565b610339610398366004612dc8565b610a3e565b6103b06103ab366004612e04565b610a70565b604080516001600160a01b0390931683526020830191909152016102ba565b6102ad610b0b565b60fb546001600160a01b031661030e565b6102d66103f6366004612dad565b6001600160a01b03166000908152610102602052604090205460ff1690565b610339610423366004612dad565b610b31565b61030e610436366004612c82565b610b67565b610339610449366004612dc8565b610b7b565b61033961045c366004612c82565b610b96565b61033961046f366004612b7c565b610c0d565b610339610c3c565b61033961048a366004612e26565b610cb0565b61033961049d366004612c82565b610e30565b61030e6104b0366004612c82565b610e99565b6103566104c3366004612dad565b610f10565b610339610f96565b6103566104de366004612dad565b610fcc565b6101095460ff166040516102ba9190612ec5565b6103396110a2565b6033546001600160a01b031661030e565b61033961051e366004612eed565b611106565b61052b6111da565b6040516102ba9190612f2f565b6102ee6112be565b61033961054e366004612f6d565b6112cd565b610339610561366004612cdc565b611330565b60fc54610356565b61033961057c366004612ff3565b6113d7565b61033961058f366004613055565b61142e565b6103396105a2366004613131565b611466565b6103396105b5366004612b7c565b6114e5565b6102ee6105c8366004612c82565b61159a565b6103566101005481565b6102d66105e536600461318e565b611693565b6102d66105f8366004612dad565b6116c1565b60ff80546102d6911681565b610339610617366004612cb2565b6116e8565b61033961062a366004612dad565b611740565b61033961063d366004612f6d565b6117d8565b6060610682610108600084600281111561065e5761065e612eaf565b600281111561066f5761066f612eaf565b8152602001908152602001600020611870565b92915050565b600061069382611884565b806106825750610682826118a9565b6060609780546106b1906131b8565b80601f01602080910402602001604051908101604052809291908181526020018280546106dd906131b8565b801561072a5780601f106106ff5761010080835404028352916020019161072a565b820191906000526020600020905b81548152906001019060200180831161070d57829003601f168201915b5050505050905090565b6000818152609960205260408120546001600160a01b03166107b25760405162461bcd60e51b815260206004820152602c60248201527f4552433732313a20617070726f76656420717565727920666f72206e6f6e657860448201526b34b9ba32b73a103a37b5b2b760a11b60648201526084015b60405180910390fd5b506000908152609b60205260409020546001600160a01b031690565b8160016101095460ff1660028111156107e9576107e9612eaf565b036108485761082781610108600060015b600281111561080b5761080b612eaf565b81526020019081526020016000206118ec90919063ffffffff16565b610843576040516282b42960e81b815260040160405180910390fd5b610894565b60026101095460ff16600281111561086257610862612eaf565b036108945761087781610108600060026107fa565b15610894576040516282b42960e81b815260040160405180910390fd5b61089e838361190e565b505050565b6033546001600160a01b031633146108cd5760405162461bcd60e51b81526004016107a9906131f2565b60ff805416156108ef5760405162461bcd60e51b81526004016107a990613227565b6001600160a01b0391909116600090815261010260205260409020805460ff1916911515919091179055565b60006109276101045490565b905090565b6033546001600160a01b031633146109565760405162461bcd60e51b81526004016107a9906131f2565b6101075460ff16156109b55760405162461bcd60e51b815260206004820152602260248201527f757064617465546f6b656e5552493a3a6d65746164617461206973206c6f636b604482015261195960f21b60648201526084016107a9565b6000838152610103602052604090206109cf8284836132ac565b50827f931f495b9a8e5d8e61946ea5d61e021f636cfe213a801f97589c18c152e408bd8383604051610a0292919061336d565b60405180910390a2505050565b6000610a236033546001600160a01b031690565b6001600160a01b0316826001600160a01b0316149050919050565b610a49335b82611a1e565b610a655760405162461bcd60e51b81526004016107a99061339c565b61089e838383611af5565b600082815260fd602052604081205481906001600160a01b0316610a9f5760fb546001600160a01b0316610ab8565b600084815260fd60205260409020546001600160a01b03165b9150610b026064610afc60fe600088815260200190815260200160002054600003610ae55760fc54610af5565b600087815260fe60205260409020545b8690611c91565b90611c9d565b90509250929050565b61010954606090610927906101089060009060ff16600281111561065e5761065e612eaf565b6033546001600160a01b03163314610b5b5760405162461bcd60e51b81526004016107a9906131f2565b610b6481611ca9565b50565b60006106826033546001600160a01b031690565b61089e8383836040518060200160405280600081525061142e565b610b9f33610a43565b610c045760405162461bcd60e51b815260206004820152603060248201527f4552433732314275726e61626c653a2063616c6c6572206973206e6f74206f7760448201526f1b995c881b9bdc88185c1c1c9bdd995960821b60648201526084016107a9565b610b6481611ccb565b610c1633610a0f565b610c3357604051635c510c8360e11b815260040160405180910390fd5b610b6481611d67565b6033546001600160a01b03163314610c665760405162461bcd60e51b81526004016107a9906131f2565b6040517fb634b0cb94234b05eabb1438717e0e645bfd84788ae1263682242327563cde5e90610c9890610106906133ed565b60405180910390a1610107805460ff19166001179055565b6000610cbc6001611de4565b90508015610cd4576000805461ff0019166101001790555b6001600160a01b038316610d2a5760405162461bcd60e51b815260206004820152601e60248201527f63726561746f722063616e6e6f74206265206e756c6c2061646472657373000060448201526064016107a9565b610d34600a60fc55565b60ff805460ff19169055610100829055610d4c611e6c565b610dbf87878080601f01602080910402602001604051908101604052809392919081815260200183838082843760009201919091525050604080516020601f8b018190048102820181019092528981529250899150889081908401838280828437600092019190915250611e9b92505050565b610dc7611ecc565b610dcf611ef3565b610dd883611ca9565b610de183611740565b8015610e27576000805461ff0019169055604051600181527f7f26b83ff96e1f2b6a682f133852f6798a09c465da95921460cefb38474024989060200160405180910390a15b50505050505050565b33610e3a82610e99565b6001600160a01b031614610e905760405162461bcd60e51b815260206004820152601f60248201527f4d75737420626520746865206f776e6572206f662074686520746f6b656e2e0060448201526064016107a9565b610b6481610b96565b6000818152609960205260408120546001600160a01b0316806106825760405162461bcd60e51b815260206004820152602960248201527f4552433732313a206f776e657220717565727920666f72206e6f6e657869737460448201526832b73a103a37b5b2b760b91b60648201526084016107a9565b60006001600160a01b038216610f7a5760405162461bcd60e51b815260206004820152602960248201527f4552433732313a2061646472657373207a65726f206973206e6f7420612076616044820152683634b21037bbb732b960b91b60648201526084016107a9565b506001600160a01b03166000908152609a602052604090205490565b6033546001600160a01b03163314610fc05760405162461bcd60e51b81526004016107a9906131f2565b610fca6000611f22565b565b60ff80546000911615610ff15760405162461bcd60e51b81526004016107a990613227565b6033546001600160a01b031633148061101a5750336000908152610102602052604090205460ff165b61107f5760405162461bcd60e51b815260206004820152603060248201527f6c617a794d696e743a3a6f6e6c79206f776e6572206f7220617070726f76656460448201526f081b5a5b9d195c8818d85b881b5a5b9d60821b60648201526084016107a9565b6106828261108c60fc5490565b60fb546001600160a01b0316611f74565b919050565b6033546001600160a01b031633146110cc5760405162461bcd60e51b81526004016107a9906131f2565b60ff805460ff1916600117905560405133907f793bc6423dd0257d64f9d47db72fd4b2162f4541aa41740ba1c5fb5e2cd41bcd90600090a2565b6033546001600160a01b031633146111305760405162461bcd60e51b81526004016107a9906131f2565b6101075460ff161561118e5760405162461bcd60e51b815260206004820152602160248201527f757064617465426173655552493a3a6d65746164617461206973206c6f636b656044820152601960fa1b60648201526084016107a9565b61010661119c8284836132ac565b507f1c306e70c05992619e2128ad1ef88df75f36c9476282e59f51401b2abaa42e4e82826040516111ce92919061336d565b60405180910390a15050565b611200604051806060016040528060008152602001606081526020016000151581525090565b6040805160608101909152610105805482526101068054602084019190611226906131b8565b80601f0160208091040260200160405190810160405280929190818152602001828054611252906131b8565b801561129f5780601f106112745761010080835404028352916020019161129f565b820191906000526020600020905b81548152906001019060200180831161128257829003601f168201915b50505091835250506002919091015460ff161515602090910152919050565b6060609880546106b1906131b8565b6112d633610a0f565b6112f357604051635c510c8360e11b815260040160405180910390fd5b61089e8383838080602002602001604051908101604052809392919081815260200183836020028082843760009201829052509250612030915050565b8160016101095460ff16600281111561134b5761134b612eaf565b036113815761136081610108600060016107fa565b61137c576040516282b42960e81b815260040160405180910390fd5b6113cd565b60026101095460ff16600281111561139b5761139b612eaf565b036113cd576113b081610108600060026107fa565b156113cd576040516282b42960e81b815260040160405180910390fd5b61089e838361220d565b6033546001600160a01b031633146114015760405162461bcd60e51b81526004016107a9906131f2565b60ff805416156114235760405162461bcd60e51b81526004016107a990613227565b61089e838383612218565b6114383383611a1e565b6114545760405162461bcd60e51b81526004016107a99061339c565b6114608484848461238d565b50505050565b6033546001600160a01b031633146114905760405162461bcd60e51b81526004016107a9906131f2565b60ff805416156114b25760405162461bcd60e51b81526004016107a990613227565b6114bd848484612218565b6001600160a01b0316600090815261010260205260409020805460ff19166001179055505050565b6114ee33610a0f565b61150b57604051635c510c8360e11b815260040160405180910390fd5b610108600082600281111561152257611522612eaf565b600281111561153357611533612eaf565b8152602081019190915260400160009081209081816115528282612b3b565b50505050336001600160a01b03167f7efc19cf93d497a6a56103ea89a39d51c0cad74a817ed3cd0ecaff9823d4da248260405161158f9190612ec5565b60405180910390a250565b600081815261010360205260408120805460609291906115b9906131b8565b905011156116605760008281526101036020526040902080546115db906131b8565b80601f0160208091040260200160405190810160405280929190818152602001828054611607906131b8565b80156116545780601f1061162957610100808354040283529160200191611654565b820191906000526020600020905b81548152906001019060200180831161163757829003601f168201915b50505050509050919050565b61010661166c836123c0565b60405160200161167d929190613478565b6040516020818303038152906040529050919050565b6001600160a01b039182166000908152609c6020908152604080832093909416825291909152205460ff1690565b6101095460009061068290839061010890849060ff1660028111156107fa576107fa612eaf565b6033546001600160a01b031633146117125760405162461bcd60e51b81526004016107a9906131f2565b600090815260fd6020526040902080546001600160a01b0319166001600160a01b0392909216919091179055565b6033546001600160a01b0316331461176a5760405162461bcd60e51b81526004016107a9906131f2565b6001600160a01b0381166117cf5760405162461bcd60e51b815260206004820152602660248201527f4f776e61626c653a206e6577206f776e657220697320746865207a65726f206160448201526564647265737360d01b60648201526084016107a9565b610b6481611f22565b6117e133610a0f565b6117fe57604051635c510c8360e11b815260040160405180910390fd5b600083600281111561181257611812612eaf565b0361183057604051632de777a160e11b815260040160405180910390fd5b61089e8383838080602002602001604051908101604052809392919081815260200183836020028082843760009201919091525060019250612030915050565b6060600061187d836124c1565b9392505050565b60006001600160e01b0319821663fa31a45b60e01b148061068257506106828261251c565b60006001600160e01b03198216631030681960e21b14806118ce57506118ce8261251c565b806118dd57506118dd82612532565b80610682575061068282612553565b6001600160a01b0381166000908152600183016020526040812054151561187d565b600061191982610e99565b9050806001600160a01b0316836001600160a01b0316036119865760405162461bcd60e51b815260206004820152602160248201527f4552433732313a20617070726f76616c20746f2063757272656e74206f776e656044820152603960f91b60648201526084016107a9565b336001600160a01b03821614806119a257506119a28133611693565b611a145760405162461bcd60e51b815260206004820152603860248201527f4552433732313a20617070726f76652063616c6c6572206973206e6f74206f7760448201527f6e6572206e6f7220617070726f76656420666f7220616c6c000000000000000060648201526084016107a9565b61089e8383612593565b6000818152609960205260408120546001600160a01b0316611a975760405162461bcd60e51b815260206004820152602c60248201527f4552433732313a206f70657261746f7220717565727920666f72206e6f6e657860448201526b34b9ba32b73a103a37b5b2b760a11b60648201526084016107a9565b6000611aa283610e99565b9050806001600160a01b0316846001600160a01b03161480611ac95750611ac98185611693565b80611aed5750836001600160a01b0316611ae284610734565b6001600160a01b0316145b949350505050565b826001600160a01b0316611b0882610e99565b6001600160a01b031614611b6c5760405162461bcd60e51b815260206004820152602560248201527f4552433732313a207472616e736665722066726f6d20696e636f72726563742060448201526437bbb732b960d91b60648201526084016107a9565b6001600160a01b038216611bce5760405162461bcd60e51b8152602060048201526024808201527f4552433732313a207472616e7366657220746f20746865207a65726f206164646044820152637265737360e01b60648201526084016107a9565b611bd9600082612593565b6001600160a01b0383166000908152609a60205260408120805460019290611c02908490613534565b90915550506001600160a01b0382166000908152609a60205260408120805460019290611c3090849061354b565b909155505060008181526099602052604080822080546001600160a01b0319166001600160a01b0386811691821790925591518493918716917fddf252ad1be2c89b69c2b068fc378daa952ba7f163c4a11628f55a4df523b3ef91a4505050565b600061187d8284613563565b600061187d8284613598565b60fb80546001600160a01b0319166001600160a01b0392909216919091179055565b6000611cd682610e99565b9050611ce3600083612593565b6001600160a01b0381166000908152609a60205260408120805460019290611d0c908490613534565b909155505060008281526099602052604080822080546001600160a01b0319169055518391906001600160a01b038416907fddf252ad1be2c89b69c2b068fc378daa952ba7f163c4a11628f55a4df523b3ef908390a45b5050565b806002811115611d7957611d79612eaf565b6101095460ff166002811115611d9157611d91612eaf565b60405133907f12282389323caf08dd4e02c490ef05bc7edb56967c085742687aad3cc81aa15f90600090a4610109805482919060ff19166001836002811115611ddc57611ddc612eaf565b021790555050565b60008054610100900460ff1615611e2b578160ff166001148015611e075750303b155b611e235760405162461bcd60e51b81526004016107a9906135ac565b506000919050565b60005460ff808416911610611e525760405162461bcd60e51b81526004016107a9906135ac565b506000805460ff191660ff92909216919091179055600190565b600054610100900460ff16611e935760405162461bcd60e51b81526004016107a9906135fa565b610fca612601565b600054610100900460ff16611ec25760405162461bcd60e51b81526004016107a9906135fa565b611d638282612631565b600054610100900460ff16610fca5760405162461bcd60e51b81526004016107a9906135fa565b600054610100900460ff16611f1a5760405162461bcd60e51b81526004016107a9906135fa565b610fca611ecc565b603380546001600160a01b038381166001600160a01b0319831681179093556040519116919082907f8be0079c531659141344cd1fd0a4f28419497f9722a3daafe3b4186f6b6457e090600090a35050565b6000611f8561010480546001019055565b6000611f916101045490565b905061010054811115611fe65760405162461bcd60e51b815260206004820181905260248201527f5f637265617465546f6b656e3a3a6578636565646564206d6178546f6b656e7360448201526064016107a9565b611ff08582612671565b600081815260fe60205260409020849055600081815260fd6020526040902080546001600160a01b0319166001600160a01b038516179055949350505050565b600083600281111561204457612044612eaf565b1461089e5760005b825181101561146057811561212d576120bc83828151811061207057612070613645565b6020026020010151610108600087600281111561208f5761208f612eaf565b60028111156120a0576120a0612eaf565b815260200190815260200160002061268b90919063ffffffff16565b508360028111156120cf576120cf612eaf565b8382815181106120e1576120e1613645565b60200260200101516001600160a01b0316336001600160a01b03167f14155f749dc3f9cd2bf890d6d3a47069f77ae35befcee11c8b1a3ba41cba153660405160405180910390a46121fb565b61218e83828151811061214257612142613645565b6020026020010151610108600087600281111561216157612161612eaf565b600281111561217257612172612eaf565b81526020019081526020016000206126a090919063ffffffff16565b508360028111156121a1576121a1612eaf565b8382815181106121b3576121b3613645565b60200260200101516001600160a01b0316336001600160a01b03167fc72e29af1b34de3dec3a764b4ca4d85b9c380ab33b9b268d29b6e7008bd0ed9560405160405180910390a45b806122058161365b565b91505061204c565b611d633383836126b5565b6101005481111561226b5760405162461bcd60e51b815260206004820181905260248201527f5f707265706172654d696e743a3a6578636565646564206d6178546f6b656e7360448201526064016107a9565b61010454156122d65760405162461bcd60e51b815260206004820152603160248201527f5f707265706172654d696e743a3a63616e206f6e6c792070726570617265206d604482015270696e742077697468203020746f6b656e7360781b60648201526084016107a9565b604051806060016040528082815260200184848080601f01602080910402602001604051908101604052809392919081815260200183838082843760009201829052509385525050506020918201528151610105908155908201516101069061233f9082613674565b50604091820151600291909101805460ff19169115159190911790555181907f6f1d651e6e0c8f86bd32a20c22a644d1e34fabf72307ff95d51b9f5892ddba1990610a02908690869061336d565b612398848484611af5565b6123a484848484612783565b6114605760405162461bcd60e51b81526004016107a990613734565b6060816000036123e75750506040805180820190915260018152600360fc1b602082015290565b8160005b811561241157806123fb8161365b565b915061240a9050600a83613598565b91506123eb565b60008167ffffffffffffffff81111561242c5761242c61303f565b6040519080825280601f01601f191660200182016040528015612456576020820181803683370190505b5090505b8415611aed5761246b600183613534565b9150612478600a86613786565b61248390603061354b565b60f81b81838151811061249857612498613645565b60200101906001600160f81b031916908160001a9053506124ba600a86613598565b945061245a565b60608160000180548060200260200160405190810160405280929190818152602001828054801561165457602002820191906000526020600020905b8154815260200190600101908083116124fd5750505050509050919050565b6001600160e01b0319166301ffc9a760e01b1490565b60006001600160e01b0319821663152a902d60e11b14806106825750610682825b60006001600160e01b031982166380ac58cd60e01b148061258457506001600160e01b03198216635b5e139f60e01b145b8061068257506106828261251c565b6000818152609b6020526040902080546001600160a01b0319166001600160a01b03841690811790915581906125c882610e99565b6001600160a01b03167f8c5be1e5ebec7d5bd14f71427d1e84f3dd0314c0f7b2291e5b200ac8c7c3b92560405160405180910390a45050565b600054610100900460ff166126285760405162461bcd60e51b81526004016107a9906135fa565b610fca33611f22565b600054610100900460ff166126585760405162461bcd60e51b81526004016107a9906135fa565b60976126648382613674565b50609861089e8282613674565b611d63828260405180602001604052806000815250612884565b600061187d836001600160a01b0384166128b7565b600061187d836001600160a01b038416612906565b816001600160a01b0316836001600160a01b0316036127165760405162461bcd60e51b815260206004820152601960248201527f4552433732313a20617070726f766520746f2063616c6c65720000000000000060448201526064016107a9565b6001600160a01b038381166000818152609c6020908152604080832094871680845294825291829020805460ff191686151590811790915591519182527f17307eab39ab6107e8899845ad3d59bd9653f200f220920489ca2b5937696c31910160405180910390a3505050565b60006001600160a01b0384163b1561287957604051630a85bd0160e11b81526001600160a01b0385169063150b7a02906127c790339089908890889060040161379a565b6020604051808303816000875af1925050508015612802575060408051601f3d908101601f191682019092526127ff918101906137d7565b60015b61285f573d808015612830576040519150601f19603f3d011682016040523d82523d6000602084013e612835565b606091505b5080516000036128575760405162461bcd60e51b81526004016107a990613734565b805181602001fd5b6001600160e01b031916630a85bd0160e11b149050611aed565b506001949350505050565b61288e83836129f9565b61289b6000848484612783565b61089e5760405162461bcd60e51b81526004016107a990613734565b60008181526001830160205260408120546128fe57508154600181810184556000848152602080822090930184905584548482528286019093526040902091909155610682565b506000610682565b600081815260018301602052604081205480156129ef57600061292a600183613534565b855490915060009061293e90600190613534565b90508181146129a357600086600001828154811061295e5761295e613645565b906000526020600020015490508087600001848154811061298157612981613645565b6000918252602080832090910192909255918252600188019052604090208390555b85548690806129b4576129b46137f4565b600190038181906000526020600020016000905590558560010160008681526020019081526020016000206000905560019350505050610682565b6000915050610682565b6001600160a01b038216612a4f5760405162461bcd60e51b815260206004820181905260248201527f4552433732313a206d696e7420746f20746865207a65726f206164647265737360448201526064016107a9565b6000818152609960205260409020546001600160a01b031615612ab45760405162461bcd60e51b815260206004820152601c60248201527f4552433732313a20746f6b656e20616c7265616479206d696e7465640000000060448201526064016107a9565b6001600160a01b0382166000908152609a60205260408120805460019290612add90849061354b565b909155505060008181526099602052604080822080546001600160a01b0319166001600160a01b03861690811790915590518392907fddf252ad1be2c89b69c2b068fc378daa952ba7f163c4a11628f55a4df523b3ef908290a45050565b5080546000825590600052602060002090810190610b6491905b80821115612b695760008155600101612b55565b5090565b80356003811061109d57600080fd5b600060208284031215612b8e57600080fd5b61187d82612b6d565b6020808252825182820181905260009190848201906040850190845b81811015612bd85783516001600160a01b031683529284019291840191600101612bb3565b50909695505050505050565b6001600160e01b031981168114610b6457600080fd5b600060208284031215612c0c57600080fd5b813561187d81612be4565b60005b83811015612c32578181015183820152602001612c1a565b838111156114605750506000910152565b60008151808452612c5b816020860160208601612c17565b601f01601f19169290920160200192915050565b60208152600061187d6020830184612c43565b600060208284031215612c9457600080fd5b5035919050565b80356001600160a01b038116811461109d57600080fd5b60008060408385031215612cc557600080fd5b612cce83612c9b565b946020939093013593505050565b60008060408385031215612cef57600080fd5b612cf883612c9b565b915060208301358015158114612d0d57600080fd5b809150509250929050565b60008083601f840112612d2a57600080fd5b50813567ffffffffffffffff811115612d4257600080fd5b602083019150836020828501011115612d5a57600080fd5b9250929050565b600080600060408486031215612d7657600080fd5b83359250602084013567ffffffffffffffff811115612d9457600080fd5b612da086828701612d18565b9497909650939450505050565b600060208284031215612dbf57600080fd5b61187d82612c9b565b600080600060608486031215612ddd57600080fd5b612de684612c9b565b9250612df460208501612c9b565b9150604084013590509250925092565b60008060408385031215612e1757600080fd5b50508035926020909101359150565b60008060008060008060808789031215612e3f57600080fd5b863567ffffffffffffffff80821115612e5757600080fd5b612e638a838b01612d18565b90985096506020890135915080821115612e7c57600080fd5b50612e8989828a01612d18565b9095509350612e9c905060408801612c9b565b9150606087013590509295509295509295565b634e487b7160e01b600052602160045260246000fd5b6020810160038310612ee757634e487b7160e01b600052602160045260246000fd5b91905290565b60008060208385031215612f0057600080fd5b823567ffffffffffffffff811115612f1757600080fd5b612f2385828601612d18565b90969095509350505050565b60208152815160208201526000602083015160606040840152612f556080840182612c43565b90506040840151151560608401528091505092915050565b600080600060408486031215612f8257600080fd5b612f8b84612b6d565b9250602084013567ffffffffffffffff80821115612fa857600080fd5b818601915086601f830112612fbc57600080fd5b813581811115612fcb57600080fd5b8760208260051b8501011115612fe057600080fd5b6020830194508093505050509250925092565b60008060006040848603121561300857600080fd5b833567ffffffffffffffff81111561301f57600080fd5b61302b86828701612d18565b909790965060209590950135949350505050565b634e487b7160e01b600052604160045260246000fd5b6000806000806080858703121561306b57600080fd5b61307485612c9b565b935061308260208601612c9b565b925060408501359150606085013567ffffffffffffffff808211156130a657600080fd5b818701915087601f8301126130ba57600080fd5b8135818111156130cc576130cc61303f565b604051601f8201601f19908116603f011681019083821181831017156130f4576130f461303f565b816040528281528a602084870101111561310d57600080fd5b82602086016020830137600060208483010152809550505050505092959194509250565b6000806000806060858703121561314757600080fd5b843567ffffffffffffffff81111561315e57600080fd5b61316a87828801612d18565b9095509350506020850135915061318360408601612c9b565b905092959194509250565b600080604083850312156131a157600080fd5b6131aa83612c9b565b9150610b0260208401612c9b565b600181811c908216806131cc57607f821691505b6020821081036131ec57634e487b7160e01b600052602260045260246000fd5b50919050565b6020808252818101527f4f776e61626c653a2063616c6c6572206973206e6f7420746865206f776e6572604082015260600190565b6020808252601e908201527f436f6e7472616374206d757374206e6f742062652064697361626c65642e0000604082015260600190565b601f82111561089e57600081815260208120601f850160051c810160208610156132855750805b601f850160051c820191505b818110156132a457828155600101613291565b505050505050565b67ffffffffffffffff8311156132c4576132c461303f565b6132d8836132d283546131b8565b8361325e565b6000601f84116001811461330c57600085156132f45750838201355b600019600387901b1c1916600186901b178355613366565b600083815260209020601f19861690835b8281101561333d578685013582556020948501946001909201910161331d565b508682101561335a5760001960f88860031b161c19848701351681555b505060018560011b0183555b5050505050565b60208152816020820152818360408301376000818301604090810191909152601f909201601f19160101919050565b60208082526031908201527f4552433732313a207472616e736665722063616c6c6572206973206e6f74206f6040820152701ddb995c881b9bdc88185c1c1c9bdd9959607a1b606082015260800190565b6000602080835260008454613401816131b8565b80848701526040600180841660008114613422576001811461343c5761346a565b60ff1985168984015283151560051b89018301955061346a565b896000528660002060005b858110156134625781548b8201860152908301908801613447565b8a0184019650505b509398975050505050505050565b6000808454613486816131b8565b6001828116801561349e57600181146134b3576134e2565b60ff19841687528215158302870194506134e2565b8860005260208060002060005b858110156134d95781548a8201529084019082016134c0565b50505082870194505b50602f60f81b8452865192506134fe8382860160208a01612c17565b64173539b7b760d91b939092019182019290925260060195945050505050565b634e487b7160e01b600052601160045260246000fd5b6000828210156135465761354661351e565b500390565b6000821982111561355e5761355e61351e565b500190565b600081600019048311821515161561357d5761357d61351e565b500290565b634e487b7160e01b600052601260045260246000fd5b6000826135a7576135a7613582565b500490565b6020808252602e908201527f496e697469616c697a61626c653a20636f6e747261637420697320616c72656160408201526d191e481a5b9a5d1a585b1a5e995960921b606082015260800190565b6020808252602b908201527f496e697469616c697a61626c653a20636f6e7472616374206973206e6f74206960408201526a6e697469616c697a696e6760a81b606082015260800190565b634e487b7160e01b600052603260045260246000fd5b60006001820161366d5761366d61351e565b5060010190565b815167ffffffffffffffff81111561368e5761368e61303f565b6136a28161369c84546131b8565b8461325e565b602080601f8311600181146136d757600084156136bf5750858301515b600019600386901b1c1916600185901b1785556132a4565b600085815260208120601f198616915b82811015613706578886015182559484019460019091019084016136e7565b50858210156137245787850151600019600388901b60f8161c191681555b5050505050600190811b01905550565b60208082526032908201527f4552433732313a207472616e7366657220746f206e6f6e20455243373231526560408201527131b2b4bb32b91034b6b83632b6b2b73a32b960711b606082015260800190565b60008261379557613795613582565b500690565b6001600160a01b03858116825284166020820152604081018390526080606082018190526000906137cd90830184612c43565b9695505050505050565b6000602082840312156137e957600080fd5b815161187d81612be4565b634e487b7160e01b600052603160045260246000fdfea26469706673582212205370b00cd33099bb7db34d5dcd47472641d39a154db4f6e3ad68922ff6aec39a64736f6c634300080f0033",
    "linkReferences": {}
  },
  "methodIdentifiers": {
    "approve(address,uint256)": "095ea7b3",
    "balanceOf(address)": "70a08231",
    "batchAddAddressToRoyaltyList(uint8,address[])": "ff6e8c8f",
    "batchRemoveAddressToRoyaltyList(uint8,address[])": "9e860f2a",
    "burn(uint256)": "42966c68",
    "clearList(uint8)": "bc719455",
    "deleteToken(uint256)": "6297c16c",
    "disableContract()": "894ba833",
    "disabled()": "ee070805",
    "getApproved(uint256)": "081812fc",
    "getDefaultRoyaltyPercentage()": "ab69607a",
    "getDefaultRoyaltyReceiver()": "3403c4e9",
    "getInUseList()": "2ce878da",
    "getList(uint8)": "012cf1e8",
    "getListType()": "87bc793f",
    "getMintConfig()": "9338bb5d",
    "hasAdminPermission(address)": "20427486",
    "init(string,string,address,uint256)": "5edc7c19",
    "isApprovedForAll(address,address)": "e985e9c5",
    "isApprovedMinter(address)": "3a3d146f",
    "isOperatorInList(address)": "eab85118",
    "lockBaseURI()": "53df5c7c",
    "maxTokens()": "e8315742",
    "mintTo(address)": "755edd17",
    "name()": "06fdde03",
    "owner()": "8da5cb5b",
    "ownerOf(uint256)": "6352211e",
    "prepareMint(string,uint256)": "b390ac25",
    "prepareMintWithMinter(string,uint256,address)": "b9fbd25c",
    "renounceOwnership()": "715018a6",
    "royaltyInfo(uint256,uint256)": "2a55205a",
    "safeTransferFrom(address,address,uint256)": "42842e0e",
    "safeTransferFrom(address,address,uint256,bytes)": "b88d4fde",
    "setApprovalForAll(address,bool)": "a22cb465",
    "setDefaultRoyaltyReceiver(address)": "3ebc82c5",
    "setMinterApproval(address,bool)": "0de54ba0",
    "setRoyaltyReceiverForToken(address,uint256)": "efc32cd4",
    "supportsInterface(bytes4)": "01ffc9a7",
    "symbol()": "95d89b41",
    "toggleListType(uint8)": "472a6638",
    "tokenCreator(uint256)": "40c1a064",
    "tokenURI(uint256)": "c87b56dd",
    "totalSupply()": "18160ddd",
    "transferFrom(address,address,uint256)": "23b872dd",
    "transferOwnership(address)": "f2fde38b",
    "updateBaseURI(string)": "931688cb",
    "updateTokenURI(uint256,string)": "18e97fd1"
  },
  "id": 39
}