{
  "abi": [
    {
      "inputs": [],
      "stateMutability": "nonpayable",
      "type": "constructor"
    },
    {
      "anonymous": false,
      "inputs": [
        {
          "indexed": true,
          "internalType": "address",
          "name": "previousOwner",
          "type": "address"
        },
        {
          "indexed": true,
          "internalType": "address",
          "name": "newOwner",
          "type": "address"
        }
      ],
      "name": "OwnershipTransferred",
      "type": "event"
    },
    {
      "anonymous": false,
      "inputs": [
        {
          "indexed": true,
          "internalType": "address",
          "name": "contractAddress",
          "type": "address"
        },
        {
          "indexed": true,
          "internalType": "address",
          "name": "owner",
          "type": "address"
        }
      ],
      "name": "SovereignNFTContractCreated",
      "type": "event"
    },
    {
      "anonymous": false,
      "inputs": [
        {
          "indexed": true,
          "internalType": "address",
          "name": "contractAddress",
          "type": "address"
        },
        {
          "indexed": true,
          "internalType": "address",
          "name": "owner",
          "type": "address"
        },
        {
          "indexed": true,
          "internalType": "bytes32",
          "name": "contractType",
          "type": "bytes32"
        }
      ],
      "name": "SovereignNFTContractCreated",
      "type": "event"
    },
    {
      "inputs": [],
      "name": "LAZY_ROYALTY_GUARD",
      "outputs": [
        {
          "internalType": "bytes32",
          "name": "",
          "type": "bytes32"
        }
      ],
      "stateMutability": "view",
      "type": "function"
    },
    {
      "inputs": [],
      "name": "LAZY_ROYALTY_GUARD_DEADMAN",
      "outputs": [
        {
          "internalType": "bytes32",
          "name": "",
          "type": "bytes32"
        }
      ],
      "stateMutability": "view",
      "type": "function"
    },
    {
      "inputs": [],
      "name": "LAZY_SOVEREIGN_NFT",
      "outputs": [
        {
          "internalType": "bytes32",
          "name": "",
          "type": "bytes32"
        }
      ],
      "stateMutability": "view",
      "type": "function"
    },
    {
      "inputs": [
        {
          "internalType": "string",
          "name": "_name",
          "type": "string"
        },
        {
          "internalType": "string",
          "name": "_symbol",
          "type": "string"
        },
        {
          "internalType": "uint256",
          "name": "_maxTokens",
          "type": "uint256"
        },
        {
          "internalType": "bytes32",
          "name": "_contractType",
          "type": "bytes32"
        }
      ],
      "name": "createSovereignNFTContract",
      "outputs": [
        {
          "internalType": "address",
          "name": "",
          "type": "address"
        }
      ],
      "stateMutability": "nonpayable",
      "type": "function"
    },
    {
      "inputs": [],
      "name": "lazySovereignNFT",
      "outputs": [
        {
          "internalType": "address",
          "name": "",
          "type": "address"
        }
      ],
      "stateMutability": "view",
      "type": "function"
    },
    {
      "inputs": [],
      "name": "lazySovereignNFTRoyaltyGuard",
      "outputs": [
        {
          "internalType": "address",
          "name": "",
          "type": "address"
        }
      ],
      "stateMutability": "view",
      "type": "function"
    },
    {
      "inputs": [],
      "name": "lazySovereignNFTRoyaltyGuardDeadmanTrigger",
      "outputs": [
        {
          "internalType": "address",
          "name": "",
          "type": "address"
        }
      ],
      "stateMutability": "view",
      "type": "function"
    },
    {
      "inputs": [],
      "name": "owner",
      "outputs": [
        {
          "internalType": "address",
          "name": "",
          "type": "address"
        }
      ],
      "stateMutability": "view",
      "type": "function"
    },
    {
      "inputs": [],
      "name": "renounceOwnership",
      "outputs": [],
      "stateMutability": "nonpayable",
      "type": "function"
    },
    {
      "inputs": [
        {
          "internalType": "address",
          "name": "_sovereignNFT",
          "type": "address"
        },
        {
          "internalType": "bytes32",
          "name": "_contractType",
          "type": "bytes32"
        }
      ],
      "name": "setSovereignNFT",
      "outputs": [],
      "stateMutability": "nonpayable",
      "type": "function"
    },
    {
      "inputs": [
        {
          "internalType": "address",
          "name": "newOwner",
          "type": "address"
        }
      ],
      "name": "transferOwnership",
      "outputs": [],
      "stateMutability": "nonpayable",
      "type": "function"
    }
  ],
  "bytecode": {
    "object": "0x608060405234801561001057600080fd5b5061001a33610102565b600060405161002890610152565b604051809103906000f080158015610044573d6000803e3d6000fd5b50600180546001600160a01b0319166001600160a01b03831617905560405190915060009061007290610160565b604051809103906000f08015801561008e573d6000803e3d6000fd5b50600280546001600160a01b0319166001600160a01b0383161790556040519091506000906100bc9061016e565b604051809103906000f0801580156100d8573d6000803e3d6000fd5b50600380546001600160a01b0319166001600160a01b03929092169190911790555061017c915050565b600080546001600160a01b038381166001600160a01b0319831681178455604051919092169283917f8be0079c531659141344cd1fd0a4f28419497f9722a3daafe3b4186f6b6457e09190a35050565b612b418062000c6883390190565b61365d80620037a983390190565b61379f8062006e0683390190565b610adc806200018c6000396000f3fe608060405234801561001057600080fd5b50600436106100a85760003560e01c8063877ebf5111610071578063877ebf511461016a5780638da5cb5b1461017d578063a55b1c251461018e578063c4dca7ab146101a1578063f2fde38b146101b4578063f5e0e6df146101c757600080fd5b8062e8ece6146100ad57806322d60fcb146100e7578063637944f514610112578063715018a614610139578063740adf3114610143575b600080fd5b6100d47f5d53444d40ee2f466d1c91f96d7c4d4b6bcb514ac7911b9a6c947234a2f957c581565b6040519081526020015b60405180910390f35b6002546100fa906001600160a01b031681565b6040516001600160a01b0390911681526020016100de565b6100d47f8eae45f58440dde5634b0645eea1e0aa7e9dfd92d41ded6de63fc6498057dd6881565b6101416101da565b005b6100d47f6c556facba1fb001f8d830adc0dcceae3a683a8890dc3299db292ca0c662517081565b6100fa61017836600461090b565b610219565b6000546001600160a01b03166100fa565b61014161019c366004610996565b610576565b6003546100fa906001600160a01b031681565b6101416101c23660046109c0565b6106e1565b6001546100fa906001600160a01b031681565b6000546001600160a01b0316331461020d5760405162461bcd60e51b8152600401610204906109e2565b60405180910390fd5b610217600061077c565b565b6000826000036102875760405162461bcd60e51b815260206004820152603360248201527f637265617465536f7665726569676e4e4654436f6e74726163743a3a5f6d6178604482015272546f6b656e732063616e74206265207a65726f60681b6064820152608401610204565b60007f8eae45f58440dde5634b0645eea1e0aa7e9dfd92d41ded6de63fc6498057dd68830361032d576001546102c5906001600160a01b03166107cc565b604051635edc7c1960e01b81529091506001600160a01b03821690635edc7c19906102fa908990899033908a90600401610a64565b600060405180830381600087803b15801561031457600080fd5b505af1158015610328573d6000803e3d6000fd5b505050505b7f5d53444d40ee2f466d1c91f96d7c4d4b6bcb514ac7911b9a6c947234a2f957c583036103d157600254610369906001600160a01b03166107cc565b604051635edc7c1960e01b81529091506001600160a01b03821690635edc7c199061039e908990899033908a90600401610a64565b600060405180830381600087803b1580156103b857600080fd5b505af11580156103cc573d6000803e3d6000fd5b505050505b7f6c556facba1fb001f8d830adc0dcceae3a683a8890dc3299db292ca0c662517083036104755760035461040d906001600160a01b03166107cc565b604051635edc7c1960e01b81529091506001600160a01b03821690635edc7c1990610442908990899033908a90600401610a64565b600060405180830381600087803b15801561045c57600080fd5b505af1158015610470573d6000803e3d6000fd5b505050505b6001600160a01b0381166104ff5760405162461bcd60e51b8152602060048201526044602482018190527f637265617465536f7665726569676e4e4654436f6e74726163743a3a5f636f6e908201527f74726163745479706520756e737570706f7274656420636f6e747261637420746064820152633cb8329760e11b608482015260a401610204565b60405133906001600160a01b038316907f46dd19b0bfeba14ab8b9e9c9e4179a2f8a3ba70420a845ea8da585dd8e59eeec90600090a3604051839033906001600160a01b038416907feec8a411955d10f84b6b0e3110b206d0888593b71381b8ca931e8f131f7eb36590600090a495945050505050565b6000546001600160a01b031633146105a05760405162461bcd60e51b8152600401610204906109e2565b6001600160a01b0382166105b357600080fd5b7f8eae45f58440dde5634b0645eea1e0aa7e9dfd92d41ded6de63fc6498057dd6881036105f957600180546001600160a01b0319166001600160a01b0384161790555050565b7f5d53444d40ee2f466d1c91f96d7c4d4b6bcb514ac7911b9a6c947234a2f957c5810361063f57600280546001600160a01b0319166001600160a01b0384161790555050565b7f6c556facba1fb001f8d830adc0dcceae3a683a8890dc3299db292ca0c6625170810361068557600380546001600160a01b0319166001600160a01b0384161790555050565b60405162461bcd60e51b815260206004820152602b60248201527f736574536f7665726569676e4e46543a3a556e737570706f72746564205f636f60448201526a373a3930b1ba2a3cb8329760a91b6064820152608401610204565b6000546001600160a01b0316331461070b5760405162461bcd60e51b8152600401610204906109e2565b6001600160a01b0381166107705760405162461bcd60e51b815260206004820152602660248201527f4f776e61626c653a206e6577206f776e657220697320746865207a65726f206160448201526564647265737360d01b6064820152608401610204565b6107798161077c565b50565b600080546001600160a01b038381166001600160a01b0319831681178455604051919092169283917f8be0079c531659141344cd1fd0a4f28419497f9722a3daafe3b4186f6b6457e09190a35050565b600060405172602d8060093d393df3363d3d373d3d3d363d7360681b81528260601b60138201526e5af43d82803e903d91602b57fd5bf360881b60278201526036816000f09150506001600160a01b0381166108635760405162461bcd60e51b8152602060048201526016602482015275115490cc4c4d8dce8818dc99585d194819985a5b195960521b6044820152606401610204565b919050565b634e487b7160e01b600052604160045260246000fd5b600082601f83011261088f57600080fd5b813567ffffffffffffffff808211156108aa576108aa610868565b604051601f8301601f19908116603f011681019082821181831017156108d2576108d2610868565b816040528381528660208588010111156108eb57600080fd5b836020870160208301376000602085830101528094505050505092915050565b6000806000806080858703121561092157600080fd5b843567ffffffffffffffff8082111561093957600080fd5b6109458883890161087e565b9550602087013591508082111561095b57600080fd5b506109688782880161087e565b949794965050505060408301359260600135919050565b80356001600160a01b038116811461086357600080fd5b600080604083850312156109a957600080fd5b6109b28361097f565b946020939093013593505050565b6000602082840312156109d257600080fd5b6109db8261097f565b9392505050565b6020808252818101527f4f776e61626c653a2063616c6c6572206973206e6f7420746865206f776e6572604082015260600190565b6000815180845260005b81811015610a3d57602081850181015186830182015201610a21565b81811115610a4f576000602083870101525b50601f01601f19169290920160200192915050565b608081526000610a776080830187610a17565b8281036020840152610a898187610a17565b6001600160a01b039590951660408401525050606001529291505056fea2646970667358221220765623b7f16e007846ea564f4ed04675bb647469fd2e929a8db47e3db6845d2264736f6c634300080f0033608060405234801561001057600080fd5b50612b21806100206000396000f3fe608060405234801561001057600080fd5b50600436106102275760003560e01c806370a0823111610130578063ab69607a116100b8578063e83157421161007c578063e8315742146104c0578063e985e9c5146104ca578063ee07080514610506578063efc32cd414610512578063f2fde38b1461052557600080fd5b8063ab69607a1461046c578063b390ac2514610474578063b88d4fde14610487578063b9fbd25c1461049a578063c87b56dd146104ad57600080fd5b80638da5cb5b116100ff5780638da5cb5b14610418578063931688cb146104295780639338bb5d1461043c57806395d89b4114610451578063a22cb4651461045957600080fd5b806370a08231146103e2578063715018a6146103f5578063755edd17146103fd578063894ba8331461041057600080fd5b80633a3d146f116101b357806342966c681161018257806342966c681461038e57806353df5c7c146103a15780635edc7c19146103a95780636297c16c146103bc5780636352211e146103cf57600080fd5b80633a3d146f146103285780633ebc82c51461035557806340c1a0641461036857806342842e0e1461037b57600080fd5b80630de54ba0116101fa5780630de54ba0146102a957806318160ddd146102bc57806323b872dd146102d25780632a55205a146102e55780633403c4e91461031757600080fd5b806301ffc9a71461022c57806306fdde0314610254578063081812fc14610269578063095ea7b314610294575b600080fd5b61023f61023a366004612001565b610538565b60405190151581526020015b60405180910390f35b61025c610581565b60405161024b9190612076565b61027c610277366004612089565b610613565b6040516001600160a01b03909116815260200161024b565b6102a76102a23660046120b9565b6106ad565b005b6102a76102b73660046120e3565b6107c2565b6102c461083a565b60405190815260200161024b565b6102a76102e036600461211f565b61084b565b6102f86102f336600461215b565b61087d565b604080516001600160a01b03909316835260208301919091520161024b565b60fb546001600160a01b031661027c565b61023f61033636600461217d565b6001600160a01b03166000908152610102602052604090205460ff1690565b6102a761036336600461217d565b610918565b61027c610376366004612089565b61094e565b6102a761038936600461211f565b610962565b6102a761039c366004612089565b61097d565b6102a76109f4565b6102a76103b73660046121e1565b610a68565b6102a76103ca366004612089565b610be8565b61027c6103dd366004612089565b610c51565b6102c46103f036600461217d565b610cc8565b6102a7610d4e565b6102c461040b36600461217d565b610d84565b6102a7610e5a565b6033546001600160a01b031661027c565b6102a761043736600461226a565b610ebe565b610444610f92565b60405161024b91906122ac565b61025c611076565b6102a76104673660046120e3565b611085565b60fc546102c4565b6102a76104823660046122ea565b611094565b6102a761049536600461234c565b6110eb565b6102a76104a8366004612428565b611123565b61025c6104bb366004612089565b6111a2565b6102c46101005481565b61023f6104d8366004612485565b6001600160a01b039182166000908152609c6020908152604080832093909416825291909152205460ff1690565b60ff805461023f911681565b6102a76105203660046120b9565b6111d7565b6102a761053336600461217d565b61122f565b60006001600160e01b03198216631030681960e21b148061055d575061055d826112c7565b8061056c575061056c826112dd565b8061057b575061057b826112fe565b92915050565b606060978054610590906124af565b80601f01602080910402602001604051908101604052809291908181526020018280546105bc906124af565b80156106095780601f106105de57610100808354040283529160200191610609565b820191906000526020600020905b8154815290600101906020018083116105ec57829003601f168201915b5050505050905090565b6000818152609960205260408120546001600160a01b03166106915760405162461bcd60e51b815260206004820152602c60248201527f4552433732313a20617070726f76656420717565727920666f72206e6f6e657860448201526b34b9ba32b73a103a37b5b2b760a11b60648201526084015b60405180910390fd5b506000908152609b60205260409020546001600160a01b031690565b60006106b882610c51565b9050806001600160a01b0316836001600160a01b0316036107255760405162461bcd60e51b815260206004820152602160248201527f4552433732313a20617070726f76616c20746f2063757272656e74206f776e656044820152603960f91b6064820152608401610688565b336001600160a01b0382161480610741575061074181336104d8565b6107b35760405162461bcd60e51b815260206004820152603860248201527f4552433732313a20617070726f76652063616c6c6572206973206e6f74206f7760448201527f6e6572206e6f7220617070726f76656420666f7220616c6c00000000000000006064820152608401610688565b6107bd838361133e565b505050565b6033546001600160a01b031633146107ec5760405162461bcd60e51b8152600401610688906124e9565b60ff8054161561080e5760405162461bcd60e51b81526004016106889061251e565b6001600160a01b0391909116600090815261010260205260409020805460ff1916911515919091179055565b60006108466101035490565b905090565b610856335b826113ac565b6108725760405162461bcd60e51b815260040161068890612555565b6107bd8383836114a3565b600082815260fd602052604081205481906001600160a01b03166108ac5760fb546001600160a01b03166108c5565b600084815260fd60205260409020546001600160a01b03165b915061090f606461090960fe6000888152602001908152602001600020546000036108f25760fc54610902565b600087815260fe60205260409020545b869061163f565b90611652565b90509250929050565b6033546001600160a01b031633146109425760405162461bcd60e51b8152600401610688906124e9565b61094b8161165e565b50565b600061057b6033546001600160a01b031690565b6107bd838383604051806020016040528060008152506110eb565b61098633610850565b6109eb5760405162461bcd60e51b815260206004820152603060248201527f4552433732314275726e61626c653a2063616c6c6572206973206e6f74206f7760448201526f1b995c881b9bdc88185c1c1c9bdd995960821b6064820152608401610688565b61094b81611680565b6033546001600160a01b03163314610a1e5760405162461bcd60e51b8152600401610688906124e9565b6040517fb634b0cb94234b05eabb1438717e0e645bfd84788ae1263682242327563cde5e90610a5090610105906125a6565b60405180910390a1610106805460ff19166001179055565b6000610a74600161171b565b90508015610a8c576000805461ff0019166101001790555b6001600160a01b038316610ae25760405162461bcd60e51b815260206004820152601e60248201527f63726561746f722063616e6e6f74206265206e756c6c206164647265737300006044820152606401610688565b610aec600a60fc55565b60ff805460ff19169055610100829055610b046117a3565b610b7787878080601f01602080910402602001604051908101604052809392919081815260200183838082843760009201919091525050604080516020601f8b0181900481028201810190925289815292508991508890819084018382808284376000920191909152506117d292505050565b610b7f611803565b610b8761182a565b610b908361165e565b610b998361122f565b8015610bdf576000805461ff0019169055604051600181527f7f26b83ff96e1f2b6a682f133852f6798a09c465da95921460cefb38474024989060200160405180910390a15b50505050505050565b33610bf282610c51565b6001600160a01b031614610c485760405162461bcd60e51b815260206004820152601f60248201527f4d75737420626520746865206f776e6572206f662074686520746f6b656e2e006044820152606401610688565b61094b8161097d565b6000818152609960205260408120546001600160a01b03168061057b5760405162461bcd60e51b815260206004820152602960248201527f4552433732313a206f776e657220717565727920666f72206e6f6e657869737460448201526832b73a103a37b5b2b760b91b6064820152608401610688565b60006001600160a01b038216610d325760405162461bcd60e51b815260206004820152602960248201527f4552433732313a2061646472657373207a65726f206973206e6f7420612076616044820152683634b21037bbb732b960b91b6064820152608401610688565b506001600160a01b03166000908152609a602052604090205490565b6033546001600160a01b03163314610d785760405162461bcd60e51b8152600401610688906124e9565b610d826000611859565b565b60ff80546000911615610da95760405162461bcd60e51b81526004016106889061251e565b6033546001600160a01b0316331480610dd25750336000908152610102602052604090205460ff165b610e375760405162461bcd60e51b815260206004820152603060248201527f6c617a794d696e743a3a6f6e6c79206f776e6572206f7220617070726f76656460448201526f081b5a5b9d195c8818d85b881b5a5b9d60821b6064820152608401610688565b61057b82610e4460fc5490565b60fb546001600160a01b03166118ab565b919050565b6033546001600160a01b03163314610e845760405162461bcd60e51b8152600401610688906124e9565b60ff805460ff1916600117905560405133907f793bc6423dd0257d64f9d47db72fd4b2162f4541aa41740ba1c5fb5e2cd41bcd90600090a2565b6033546001600160a01b03163314610ee85760405162461bcd60e51b8152600401610688906124e9565b6101065460ff1615610f465760405162461bcd60e51b815260206004820152602160248201527f757064617465426173655552493a3a6d65746164617461206973206c6f636b656044820152601960fa1b6064820152608401610688565b610105610f5482848361267f565b507f1c306e70c05992619e2128ad1ef88df75f36c9476282e59f51401b2abaa42e4e8282604051610f86929190612740565b60405180910390a15050565b610fb8604051806060016040528060008152602001606081526020016000151581525090565b6040805160608101909152610104805482526101058054602084019190610fde906124af565b80601f016020809104026020016040519081016040528092919081815260200182805461100a906124af565b80156110575780601f1061102c57610100808354040283529160200191611057565b820191906000526020600020905b81548152906001019060200180831161103a57829003601f168201915b50505091835250506002919091015460ff161515602090910152919050565b606060988054610590906124af565b611090338383611967565b5050565b6033546001600160a01b031633146110be5760405162461bcd60e51b8152600401610688906124e9565b60ff805416156110e05760405162461bcd60e51b81526004016106889061251e565b6107bd838383611a35565b6110f533836113ac565b6111115760405162461bcd60e51b815260040161068890612555565b61111d84848484611bb7565b50505050565b6033546001600160a01b0316331461114d5760405162461bcd60e51b8152600401610688906124e9565b60ff8054161561116f5760405162461bcd60e51b81526004016106889061251e565b61117a848484611a35565b6001600160a01b0316600090815261010260205260409020805460ff19166001179055505050565b60606101056111b083611bea565b6040516020016111c192919061276f565b6040516020818303038152906040529050919050565b6033546001600160a01b031633146112015760405162461bcd60e51b8152600401610688906124e9565b600090815260fd6020526040902080546001600160a01b0319166001600160a01b0392909216919091179055565b6033546001600160a01b031633146112595760405162461bcd60e51b8152600401610688906124e9565b6001600160a01b0381166112be5760405162461bcd60e51b815260206004820152602660248201527f4f776e61626c653a206e6577206f776e657220697320746865207a65726f206160448201526564647265737360d01b6064820152608401610688565b61094b81611859565b6001600160e01b0319166301ffc9a760e01b1490565b60006001600160e01b0319821663152a902d60e11b148061057b575061057b825b60006001600160e01b031982166380ac58cd60e01b148061132f57506001600160e01b03198216635b5e139f60e01b145b8061057b575061057b826112c7565b6000818152609b6020526040902080546001600160a01b0319166001600160a01b038416908117909155819061137382610c51565b6001600160a01b03167f8c5be1e5ebec7d5bd14f71427d1e84f3dd0314c0f7b2291e5b200ac8c7c3b92560405160405180910390a45050565b6000818152609960205260408120546001600160a01b03166114255760405162461bcd60e51b815260206004820152602c60248201527f4552433732313a206f70657261746f7220717565727920666f72206e6f6e657860448201526b34b9ba32b73a103a37b5b2b760a11b6064820152608401610688565b600061143083610c51565b9050806001600160a01b0316846001600160a01b0316148061147757506001600160a01b038082166000908152609c602090815260408083209388168352929052205460ff165b8061149b5750836001600160a01b031661149084610613565b6001600160a01b0316145b949350505050565b826001600160a01b03166114b682610c51565b6001600160a01b03161461151a5760405162461bcd60e51b815260206004820152602560248201527f4552433732313a207472616e736665722066726f6d20696e636f72726563742060448201526437bbb732b960d91b6064820152608401610688565b6001600160a01b03821661157c5760405162461bcd60e51b8152602060048201526024808201527f4552433732313a207472616e7366657220746f20746865207a65726f206164646044820152637265737360e01b6064820152608401610688565b61158760008261133e565b6001600160a01b0383166000908152609a602052604081208054600192906115b090849061282b565b90915550506001600160a01b0382166000908152609a602052604081208054600192906115de908490612842565b909155505060008181526099602052604080822080546001600160a01b0319166001600160a01b0386811691821790925591518493918716917fddf252ad1be2c89b69c2b068fc378daa952ba7f163c4a11628f55a4df523b3ef91a4505050565b600061164b828461285a565b9392505050565b600061164b828461288f565b60fb80546001600160a01b0319166001600160a01b0392909216919091179055565b600061168b82610c51565b905061169860008361133e565b6001600160a01b0381166000908152609a602052604081208054600192906116c190849061282b565b909155505060008281526099602052604080822080546001600160a01b0319169055518391906001600160a01b038416907fddf252ad1be2c89b69c2b068fc378daa952ba7f163c4a11628f55a4df523b3ef908390a45050565b60008054610100900460ff1615611762578160ff16600114801561173e5750303b155b61175a5760405162461bcd60e51b8152600401610688906128a3565b506000919050565b60005460ff8084169116106117895760405162461bcd60e51b8152600401610688906128a3565b506000805460ff191660ff92909216919091179055600190565b600054610100900460ff166117ca5760405162461bcd60e51b8152600401610688906128f1565b610d82611ceb565b600054610100900460ff166117f95760405162461bcd60e51b8152600401610688906128f1565b6110908282611d1b565b600054610100900460ff16610d825760405162461bcd60e51b8152600401610688906128f1565b600054610100900460ff166118515760405162461bcd60e51b8152600401610688906128f1565b610d82611803565b603380546001600160a01b038381166001600160a01b0319831681179093556040519116919082907f8be0079c531659141344cd1fd0a4f28419497f9722a3daafe3b4186f6b6457e090600090a35050565b60006118bc61010380546001019055565b60006118c86101035490565b90506101005481111561191d5760405162461bcd60e51b815260206004820181905260248201527f5f637265617465546f6b656e3a3a6578636565646564206d6178546f6b656e736044820152606401610688565b6119278582611d5b565b600081815260fe60205260409020849055600081815260fd6020526040902080546001600160a01b0319166001600160a01b038516179055949350505050565b816001600160a01b0316836001600160a01b0316036119c85760405162461bcd60e51b815260206004820152601960248201527f4552433732313a20617070726f766520746f2063616c6c6572000000000000006044820152606401610688565b6001600160a01b038381166000818152609c6020908152604080832094871680845294825291829020805460ff191686151590811790915591519182527f17307eab39ab6107e8899845ad3d59bd9653f200f220920489ca2b5937696c31910160405180910390a3505050565b61010054811115611a885760405162461bcd60e51b815260206004820181905260248201527f5f707265706172654d696e743a3a6578636565646564206d6178546f6b656e736044820152606401610688565b6101035415611af35760405162461bcd60e51b815260206004820152603160248201527f5f707265706172654d696e743a3a63616e206f6e6c792070726570617265206d604482015270696e742077697468203020746f6b656e7360781b6064820152608401610688565b604051806060016040528082815260200184848080601f016020809104026020016040519081016040528093929190818152602001838380828437600092018290525093855250505060209182015281516101049081559082015161010590611b5c908261293c565b50604091820151600291909101805460ff19169115159190911790555181907f6f1d651e6e0c8f86bd32a20c22a644d1e34fabf72307ff95d51b9f5892ddba1990611baa9086908690612740565b60405180910390a2505050565b611bc28484846114a3565b611bce84848484611d75565b61111d5760405162461bcd60e51b8152600401610688906129fc565b606081600003611c115750506040805180820190915260018152600360fc1b602082015290565b8160005b8115611c3b5780611c2581612a4e565b9150611c349050600a8361288f565b9150611c15565b60008167ffffffffffffffff811115611c5657611c56612336565b6040519080825280601f01601f191660200182016040528015611c80576020820181803683370190505b5090505b841561149b57611c9560018361282b565b9150611ca2600a86612a67565b611cad906030612842565b60f81b818381518110611cc257611cc2612a7b565b60200101906001600160f81b031916908160001a905350611ce4600a8661288f565b9450611c84565b600054610100900460ff16611d125760405162461bcd60e51b8152600401610688906128f1565b610d8233611859565b600054610100900460ff16611d425760405162461bcd60e51b8152600401610688906128f1565b6097611d4e838261293c565b5060986107bd828261293c565b611090828260405180602001604052806000815250611e76565b60006001600160a01b0384163b15611e6b57604051630a85bd0160e11b81526001600160a01b0385169063150b7a0290611db9903390899088908890600401612a91565b6020604051808303816000875af1925050508015611df4575060408051601f3d908101601f19168201909252611df191810190612ace565b60015b611e51573d808015611e22576040519150601f19603f3d011682016040523d82523d6000602084013e611e27565b606091505b508051600003611e495760405162461bcd60e51b8152600401610688906129fc565b805181602001fd5b6001600160e01b031916630a85bd0160e11b14905061149b565b506001949350505050565b611e808383611ea9565b611e8d6000848484611d75565b6107bd5760405162461bcd60e51b8152600401610688906129fc565b6001600160a01b038216611eff5760405162461bcd60e51b815260206004820181905260248201527f4552433732313a206d696e7420746f20746865207a65726f20616464726573736044820152606401610688565b6000818152609960205260409020546001600160a01b031615611f645760405162461bcd60e51b815260206004820152601c60248201527f4552433732313a20746f6b656e20616c7265616479206d696e746564000000006044820152606401610688565b6001600160a01b0382166000908152609a60205260408120805460019290611f8d908490612842565b909155505060008181526099602052604080822080546001600160a01b0319166001600160a01b03861690811790915590518392907fddf252ad1be2c89b69c2b068fc378daa952ba7f163c4a11628f55a4df523b3ef908290a45050565b6001600160e01b03198116811461094b57600080fd5b60006020828403121561201357600080fd5b813561164b81611feb565b60005b83811015612039578181015183820152602001612021565b8381111561111d5750506000910152565b6000815180845261206281602086016020860161201e565b601f01601f19169290920160200192915050565b60208152600061164b602083018461204a565b60006020828403121561209b57600080fd5b5035919050565b80356001600160a01b0381168114610e5557600080fd5b600080604083850312156120cc57600080fd5b6120d5836120a2565b946020939093013593505050565b600080604083850312156120f657600080fd5b6120ff836120a2565b91506020830135801515811461211457600080fd5b809150509250929050565b60008060006060848603121561213457600080fd5b61213d846120a2565b925061214b602085016120a2565b9150604084013590509250925092565b6000806040838503121561216e57600080fd5b50508035926020909101359150565b60006020828403121561218f57600080fd5b61164b826120a2565b60008083601f8401126121aa57600080fd5b50813567ffffffffffffffff8111156121c257600080fd5b6020830191508360208285010111156121da57600080fd5b9250929050565b600080600080600080608087890312156121fa57600080fd5b863567ffffffffffffffff8082111561221257600080fd5b61221e8a838b01612198565b9098509650602089013591508082111561223757600080fd5b5061224489828a01612198565b90955093506122579050604088016120a2565b9150606087013590509295509295509295565b6000806020838503121561227d57600080fd5b823567ffffffffffffffff81111561229457600080fd5b6122a085828601612198565b90969095509350505050565b602081528151602082015260006020830151606060408401526122d2608084018261204a565b90506040840151151560608401528091505092915050565b6000806000604084860312156122ff57600080fd5b833567ffffffffffffffff81111561231657600080fd5b61232286828701612198565b909790965060209590950135949350505050565b634e487b7160e01b600052604160045260246000fd5b6000806000806080858703121561236257600080fd5b61236b856120a2565b9350612379602086016120a2565b925060408501359150606085013567ffffffffffffffff8082111561239d57600080fd5b818701915087601f8301126123b157600080fd5b8135818111156123c3576123c3612336565b604051601f8201601f19908116603f011681019083821181831017156123eb576123eb612336565b816040528281528a602084870101111561240457600080fd5b82602086016020830137600060208483010152809550505050505092959194509250565b6000806000806060858703121561243e57600080fd5b843567ffffffffffffffff81111561245557600080fd5b61246187828801612198565b9095509350506020850135915061247a604086016120a2565b905092959194509250565b6000806040838503121561249857600080fd5b6124a1836120a2565b915061090f602084016120a2565b600181811c908216806124c357607f821691505b6020821081036124e357634e487b7160e01b600052602260045260246000fd5b50919050565b6020808252818101527f4f776e61626c653a2063616c6c6572206973206e6f7420746865206f776e6572604082015260600190565b6020808252601e908201527f436f6e7472616374206d757374206e6f742062652064697361626c65642e0000604082015260600190565b60208082526031908201527f4552433732313a207472616e736665722063616c6c6572206973206e6f74206f6040820152701ddb995c881b9bdc88185c1c1c9bdd9959607a1b606082015260800190565b60006020808352600084546125ba816124af565b808487015260406001808416600081146125db57600181146125f557612623565b60ff1985168984015283151560051b890183019550612623565b896000528660002060005b8581101561261b5781548b8201860152908301908801612600565b8a0184019650505b509398975050505050505050565b601f8211156107bd57600081815260208120601f850160051c810160208610156126585750805b601f850160051c820191505b8181101561267757828155600101612664565b505050505050565b67ffffffffffffffff83111561269757612697612336565b6126ab836126a583546124af565b83612631565b6000601f8411600181146126df57600085156126c75750838201355b600019600387901b1c1916600186901b178355612739565b600083815260209020601f19861690835b8281101561271057868501358255602094850194600190920191016126f0565b508682101561272d5760001960f88860031b161c19848701351681555b505060018560011b0183555b5050505050565b60208152816020820152818360408301376000818301604090810191909152601f909201601f19160101919050565b600080845461277d816124af565b6001828116801561279557600181146127aa576127d9565b60ff19841687528215158302870194506127d9565b8860005260208060002060005b858110156127d05781548a8201529084019082016127b7565b50505082870194505b50602f60f81b8452865192506127f58382860160208a0161201e565b64173539b7b760d91b939092019182019290925260060195945050505050565b634e487b7160e01b600052601160045260246000fd5b60008282101561283d5761283d612815565b500390565b6000821982111561285557612855612815565b500190565b600081600019048311821515161561287457612874612815565b500290565b634e487b7160e01b600052601260045260246000fd5b60008261289e5761289e612879565b500490565b6020808252602e908201527f496e697469616c697a61626c653a20636f6e747261637420697320616c72656160408201526d191e481a5b9a5d1a585b1a5e995960921b606082015260800190565b6020808252602b908201527f496e697469616c697a61626c653a20636f6e7472616374206973206e6f74206960408201526a6e697469616c697a696e6760a81b606082015260800190565b815167ffffffffffffffff81111561295657612956612336565b61296a8161296484546124af565b84612631565b602080601f83116001811461299f57600084156129875750858301515b600019600386901b1c1916600185901b178555612677565b600085815260208120601f198616915b828110156129ce578886015182559484019460019091019084016129af565b50858210156129ec5787850151600019600388901b60f8161c191681555b5050505050600190811b01905550565b60208082526032908201527f4552433732313a207472616e7366657220746f206e6f6e20455243373231526560408201527131b2b4bb32b91034b6b83632b6b2b73a32b960711b606082015260800190565b600060018201612a6057612a60612815565b5060010190565b600082612a7657612a76612879565b500690565b634e487b7160e01b600052603260045260246000fd5b6001600160a01b0385811682528416602082015260408101839052608060608201819052600090612ac49083018461204a565b9695505050505050565b600060208284031215612ae057600080fd5b815161164b81611feb56fea2646970667358221220c98fa94911acc69f4888b4ce79165e5d513b88b682cd7393129d9d4db9c2729964736f6c634300080f0033608060405234801561001057600080fd5b5061363d806100206000396000f3fe608060405234801561001057600080fd5b506004361061028a5760003560e01c8063715018a61161015c578063b390ac25116100ce578063e985e9c511610087578063e985e9c5146105b9578063eab85118146105cc578063ee070805146105df578063efc32cd4146105eb578063f2fde38b146105fe578063ff6e8c8f1461061157600080fd5b8063b390ac2514610550578063b88d4fde14610563578063b9fbd25c14610576578063bc71945514610589578063c87b56dd1461059c578063e8315742146105af57600080fd5b8063931688cb11610120578063931688cb146104f25780639338bb5d1461050557806395d89b411461051a5780639e860f2a14610522578063a22cb46514610535578063ab69607a1461054857600080fd5b8063715018a6146104aa578063755edd17146104b257806387bc793f146104c5578063894ba833146104d95780638da5cb5b146104e157600080fd5b80633403c4e911610200578063472a6638116101b9578063472a66381461044357806353df5c7c146104565780635edc7c191461045e5780636297c16c146104715780636352211e1461048457806370a082311461049757600080fd5b80633403c4e9146103b95780633a3d146f146103ca5780633ebc82c5146103f757806340c1a0641461040a57806342842e0e1461041d57806342966c681461043057600080fd5b80630de54ba0116102525780630de54ba01461033057806318160ddd14610343578063204274861461035957806323b872dd1461036c5780632a55205a1461037f5780632ce878da146103b157600080fd5b8063012cf1e81461028f57806301ffc9a7146102b857806306fdde03146102db578063081812fc146102f0578063095ea7b31461031b575b600080fd5b6102a261029d3660046129c5565b610624565b6040516102af91906129e0565b60405180910390f35b6102cb6102c6366004612a43565b61066a565b60405190151581526020016102af565b6102e3610684565b6040516102af9190612ab8565b6103036102fe366004612acb565b610716565b6040516001600160a01b0390911681526020016102af565b61032e610329366004612afb565b6107b0565b005b61032e61033e366004612b25565b610885565b61034b6108fd565b6040519081526020016102af565b6102cb610367366004612b61565b61090e565b61032e61037a366004612b7c565b61093d565b61039261038d366004612bb8565b61096f565b604080516001600160a01b0390931683526020830191909152016102af565b6102a2610a0a565b60fb546001600160a01b0316610303565b6102cb6103d8366004612b61565b6001600160a01b03166000908152610102602052604090205460ff1690565b61032e610405366004612b61565b610a30565b610303610418366004612acb565b610a66565b61032e61042b366004612b7c565b610a7a565b61032e61043e366004612acb565b610a95565b61032e6104513660046129c5565b610b0c565b61032e610b3b565b61032e61046c366004612c23565b610baf565b61032e61047f366004612acb565b610d2f565b610303610492366004612acb565b610d98565b61034b6104a5366004612b61565b610e0f565b61032e610e95565b61034b6104c0366004612b61565b610ecb565b6101085460ff166040516102af9190612cc2565b61032e610fa1565b6033546001600160a01b0316610303565b61032e610500366004612cea565b611005565b61050d6110d9565b6040516102af9190612d2c565b6102e36111bd565b61032e610530366004612d6a565b6111cc565b61032e610543366004612b25565b61122f565b60fc5461034b565b61032e61055e366004612df0565b6112d6565b61032e610571366004612e52565b61132d565b61032e610584366004612f2e565b611365565b61032e6105973660046129c5565b6113e4565b6102e36105aa366004612acb565b611499565b61034b6101005481565b6102cb6105c7366004612f8b565b6114ce565b6102cb6105da366004612b61565b6114fc565b60ff80546102cb911681565b61032e6105f9366004612afb565b611523565b61032e61060c366004612b61565b61157b565b61032e61061f366004612d6a565b611613565b6060610664610107600084600281111561064057610640612cac565b600281111561065157610651612cac565b81526020019081526020016000206116ab565b92915050565b6000610675826116bf565b806106645750610664826116e4565b60606097805461069390612fb5565b80601f01602080910402602001604051908101604052809291908181526020018280546106bf90612fb5565b801561070c5780601f106106e15761010080835404028352916020019161070c565b820191906000526020600020905b8154815290600101906020018083116106ef57829003601f168201915b5050505050905090565b6000818152609960205260408120546001600160a01b03166107945760405162461bcd60e51b815260206004820152602c60248201527f4552433732313a20617070726f76656420717565727920666f72206e6f6e657860448201526b34b9ba32b73a103a37b5b2b760a11b60648201526084015b60405180910390fd5b506000908152609b60205260409020546001600160a01b031690565b8160016101085460ff1660028111156107cb576107cb612cac565b0361082a5761080981610107600060015b60028111156107ed576107ed612cac565b815260200190815260200160002061172790919063ffffffff16565b610825576040516282b42960e81b815260040160405180910390fd5b610876565b60026101085460ff16600281111561084457610844612cac565b036108765761085981610107600060026107dc565b15610876576040516282b42960e81b815260040160405180910390fd5b6108808383611749565b505050565b6033546001600160a01b031633146108af5760405162461bcd60e51b815260040161078b90612fef565b60ff805416156108d15760405162461bcd60e51b815260040161078b90613024565b6001600160a01b0391909116600090815261010260205260409020805460ff1916911515919091179055565b60006109096101035490565b905090565b60006109226033546001600160a01b031690565b6001600160a01b0316826001600160a01b0316149050919050565b610948335b82611859565b6109645760405162461bcd60e51b815260040161078b9061305b565b610880838383611930565b600082815260fd602052604081205481906001600160a01b031661099e5760fb546001600160a01b03166109b7565b600084815260fd60205260409020546001600160a01b03165b9150610a0160646109fb60fe6000888152602001908152602001600020546000036109e45760fc546109f4565b600087815260fe60205260409020545b8690611acc565b90611ad8565b90509250929050565b61010854606090610909906101079060009060ff16600281111561064057610640612cac565b6033546001600160a01b03163314610a5a5760405162461bcd60e51b815260040161078b90612fef565b610a6381611ae4565b50565b60006106646033546001600160a01b031690565b6108808383836040518060200160405280600081525061132d565b610a9e33610942565b610b035760405162461bcd60e51b815260206004820152603060248201527f4552433732314275726e61626c653a2063616c6c6572206973206e6f74206f7760448201526f1b995c881b9bdc88185c1c1c9bdd995960821b606482015260840161078b565b610a6381611b06565b610b153361090e565b610b3257604051635c510c8360e11b815260040160405180910390fd5b610a6381611ba2565b6033546001600160a01b03163314610b655760405162461bcd60e51b815260040161078b90612fef565b6040517fb634b0cb94234b05eabb1438717e0e645bfd84788ae1263682242327563cde5e90610b9790610105906130ac565b60405180910390a1610106805460ff19166001179055565b6000610bbb6001611c1f565b90508015610bd3576000805461ff0019166101001790555b6001600160a01b038316610c295760405162461bcd60e51b815260206004820152601e60248201527f63726561746f722063616e6e6f74206265206e756c6c20616464726573730000604482015260640161078b565b610c33600a60fc55565b60ff805460ff19169055610100829055610c4b611ca7565b610cbe87878080601f01602080910402602001604051908101604052809392919081815260200183838082843760009201919091525050604080516020601f8b018190048102820181019092528981529250899150889081908401838280828437600092019190915250611cd692505050565b610cc6611d07565b610cce611d2e565b610cd783611ae4565b610ce08361157b565b8015610d26576000805461ff0019169055604051600181527f7f26b83ff96e1f2b6a682f133852f6798a09c465da95921460cefb38474024989060200160405180910390a15b50505050505050565b33610d3982610d98565b6001600160a01b031614610d8f5760405162461bcd60e51b815260206004820152601f60248201527f4d75737420626520746865206f776e6572206f662074686520746f6b656e2e00604482015260640161078b565b610a6381610a95565b6000818152609960205260408120546001600160a01b0316806106645760405162461bcd60e51b815260206004820152602960248201527f4552433732313a206f776e657220717565727920666f72206e6f6e657869737460448201526832b73a103a37b5b2b760b91b606482015260840161078b565b60006001600160a01b038216610e795760405162461bcd60e51b815260206004820152602960248201527f4552433732313a2061646472657373207a65726f206973206e6f7420612076616044820152683634b21037bbb732b960b91b606482015260840161078b565b506001600160a01b03166000908152609a602052604090205490565b6033546001600160a01b03163314610ebf5760405162461bcd60e51b815260040161078b90612fef565b610ec96000611d5d565b565b60ff80546000911615610ef05760405162461bcd60e51b815260040161078b90613024565b6033546001600160a01b0316331480610f195750336000908152610102602052604090205460ff165b610f7e5760405162461bcd60e51b815260206004820152603060248201527f6c617a794d696e743a3a6f6e6c79206f776e6572206f7220617070726f76656460448201526f081b5a5b9d195c8818d85b881b5a5b9d60821b606482015260840161078b565b61066482610f8b60fc5490565b60fb546001600160a01b0316611daf565b919050565b6033546001600160a01b03163314610fcb5760405162461bcd60e51b815260040161078b90612fef565b60ff805460ff1916600117905560405133907f793bc6423dd0257d64f9d47db72fd4b2162f4541aa41740ba1c5fb5e2cd41bcd90600090a2565b6033546001600160a01b0316331461102f5760405162461bcd60e51b815260040161078b90612fef565b6101065460ff161561108d5760405162461bcd60e51b815260206004820152602160248201527f757064617465426173655552493a3a6d65746164617461206973206c6f636b656044820152601960fa1b606482015260840161078b565b61010561109b828483613185565b507f1c306e70c05992619e2128ad1ef88df75f36c9476282e59f51401b2abaa42e4e82826040516110cd929190613246565b60405180910390a15050565b6110ff604051806060016040528060008152602001606081526020016000151581525090565b604080516060810190915261010480548252610105805460208401919061112590612fb5565b80601f016020809104026020016040519081016040528092919081815260200182805461115190612fb5565b801561119e5780601f106111735761010080835404028352916020019161119e565b820191906000526020600020905b81548152906001019060200180831161118157829003601f168201915b50505091835250506002919091015460ff161515602090910152919050565b60606098805461069390612fb5565b6111d53361090e565b6111f257604051635c510c8360e11b815260040160405180910390fd5b6108808383838080602002602001604051908101604052809392919081815260200183836020028082843760009201829052509250611e6b915050565b8160016101085460ff16600281111561124a5761124a612cac565b036112805761125f81610107600060016107dc565b61127b576040516282b42960e81b815260040160405180910390fd5b6112cc565b60026101085460ff16600281111561129a5761129a612cac565b036112cc576112af81610107600060026107dc565b156112cc576040516282b42960e81b815260040160405180910390fd5b6108808383612048565b6033546001600160a01b031633146113005760405162461bcd60e51b815260040161078b90612fef565b60ff805416156113225760405162461bcd60e51b815260040161078b90613024565b610880838383612053565b6113373383611859565b6113535760405162461bcd60e51b815260040161078b9061305b565b61135f848484846121d5565b50505050565b6033546001600160a01b0316331461138f5760405162461bcd60e51b815260040161078b90612fef565b60ff805416156113b15760405162461bcd60e51b815260040161078b90613024565b6113bc848484612053565b6001600160a01b0316600090815261010260205260409020805460ff19166001179055505050565b6113ed3361090e565b61140a57604051635c510c8360e11b815260040160405180910390fd5b610107600082600281111561142157611421612cac565b600281111561143257611432612cac565b8152602081019190915260400160009081209081816114518282612984565b50505050336001600160a01b03167f7efc19cf93d497a6a56103ea89a39d51c0cad74a817ed3cd0ecaff9823d4da248260405161148e9190612cc2565b60405180910390a250565b60606101056114a783612208565b6040516020016114b8929190613275565b6040516020818303038152906040529050919050565b6001600160a01b039182166000908152609c6020908152604080832093909416825291909152205460ff1690565b6101085460009061066490839061010790849060ff1660028111156107dc576107dc612cac565b6033546001600160a01b0316331461154d5760405162461bcd60e51b815260040161078b90612fef565b600090815260fd6020526040902080546001600160a01b0319166001600160a01b0392909216919091179055565b6033546001600160a01b031633146115a55760405162461bcd60e51b815260040161078b90612fef565b6001600160a01b03811661160a5760405162461bcd60e51b815260206004820152602660248201527f4f776e61626c653a206e6577206f776e657220697320746865207a65726f206160448201526564647265737360d01b606482015260840161078b565b610a6381611d5d565b61161c3361090e565b61163957604051635c510c8360e11b815260040160405180910390fd5b600083600281111561164d5761164d612cac565b0361166b57604051632de777a160e11b815260040160405180910390fd5b6108808383838080602002602001604051908101604052809392919081815260200183836020028082843760009201919091525060019250611e6b915050565b606060006116b883612309565b9392505050565b60006001600160e01b0319821663fa31a45b60e01b1480610664575061066482612365565b60006001600160e01b03198216631030681960e21b1480611709575061170982612365565b8061171857506117188261237b565b8061066457506106648261239c565b6001600160a01b038116600090815260018301602052604081205415156116b8565b600061175482610d98565b9050806001600160a01b0316836001600160a01b0316036117c15760405162461bcd60e51b815260206004820152602160248201527f4552433732313a20617070726f76616c20746f2063757272656e74206f776e656044820152603960f91b606482015260840161078b565b336001600160a01b03821614806117dd57506117dd81336114ce565b61184f5760405162461bcd60e51b815260206004820152603860248201527f4552433732313a20617070726f76652063616c6c6572206973206e6f74206f7760448201527f6e6572206e6f7220617070726f76656420666f7220616c6c0000000000000000606482015260840161078b565b61088083836123dc565b6000818152609960205260408120546001600160a01b03166118d25760405162461bcd60e51b815260206004820152602c60248201527f4552433732313a206f70657261746f7220717565727920666f72206e6f6e657860448201526b34b9ba32b73a103a37b5b2b760a11b606482015260840161078b565b60006118dd83610d98565b9050806001600160a01b0316846001600160a01b03161480611904575061190481856114ce565b806119285750836001600160a01b031661191d84610716565b6001600160a01b0316145b949350505050565b826001600160a01b031661194382610d98565b6001600160a01b0316146119a75760405162461bcd60e51b815260206004820152602560248201527f4552433732313a207472616e736665722066726f6d20696e636f72726563742060448201526437bbb732b960d91b606482015260840161078b565b6001600160a01b038216611a095760405162461bcd60e51b8152602060048201526024808201527f4552433732313a207472616e7366657220746f20746865207a65726f206164646044820152637265737360e01b606482015260840161078b565b611a146000826123dc565b6001600160a01b0383166000908152609a60205260408120805460019290611a3d908490613331565b90915550506001600160a01b0382166000908152609a60205260408120805460019290611a6b908490613348565b909155505060008181526099602052604080822080546001600160a01b0319166001600160a01b0386811691821790925591518493918716917fddf252ad1be2c89b69c2b068fc378daa952ba7f163c4a11628f55a4df523b3ef91a4505050565b60006116b88284613360565b60006116b88284613395565b60fb80546001600160a01b0319166001600160a01b0392909216919091179055565b6000611b1182610d98565b9050611b1e6000836123dc565b6001600160a01b0381166000908152609a60205260408120805460019290611b47908490613331565b909155505060008281526099602052604080822080546001600160a01b0319169055518391906001600160a01b038416907fddf252ad1be2c89b69c2b068fc378daa952ba7f163c4a11628f55a4df523b3ef908390a45b5050565b806002811115611bb457611bb4612cac565b6101085460ff166002811115611bcc57611bcc612cac565b60405133907f12282389323caf08dd4e02c490ef05bc7edb56967c085742687aad3cc81aa15f90600090a4610108805482919060ff19166001836002811115611c1757611c17612cac565b021790555050565b60008054610100900460ff1615611c66578160ff166001148015611c425750303b155b611c5e5760405162461bcd60e51b815260040161078b906133a9565b506000919050565b60005460ff808416911610611c8d5760405162461bcd60e51b815260040161078b906133a9565b506000805460ff191660ff92909216919091179055600190565b600054610100900460ff16611cce5760405162461bcd60e51b815260040161078b906133f7565b610ec961244a565b600054610100900460ff16611cfd5760405162461bcd60e51b815260040161078b906133f7565b611b9e828261247a565b600054610100900460ff16610ec95760405162461bcd60e51b815260040161078b906133f7565b600054610100900460ff16611d555760405162461bcd60e51b815260040161078b906133f7565b610ec9611d07565b603380546001600160a01b038381166001600160a01b0319831681179093556040519116919082907f8be0079c531659141344cd1fd0a4f28419497f9722a3daafe3b4186f6b6457e090600090a35050565b6000611dc061010380546001019055565b6000611dcc6101035490565b905061010054811115611e215760405162461bcd60e51b815260206004820181905260248201527f5f637265617465546f6b656e3a3a6578636565646564206d6178546f6b656e73604482015260640161078b565b611e2b85826124ba565b600081815260fe60205260409020849055600081815260fd6020526040902080546001600160a01b0319166001600160a01b038516179055949350505050565b6000836002811115611e7f57611e7f612cac565b146108805760005b825181101561135f578115611f6857611ef7838281518110611eab57611eab613442565b60200260200101516101076000876002811115611eca57611eca612cac565b6002811115611edb57611edb612cac565b81526020019081526020016000206124d490919063ffffffff16565b50836002811115611f0a57611f0a612cac565b838281518110611f1c57611f1c613442565b60200260200101516001600160a01b0316336001600160a01b03167f14155f749dc3f9cd2bf890d6d3a47069f77ae35befcee11c8b1a3ba41cba153660405160405180910390a4612036565b611fc9838281518110611f7d57611f7d613442565b60200260200101516101076000876002811115611f9c57611f9c612cac565b6002811115611fad57611fad612cac565b81526020019081526020016000206124e990919063ffffffff16565b50836002811115611fdc57611fdc612cac565b838281518110611fee57611fee613442565b60200260200101516001600160a01b0316336001600160a01b03167fc72e29af1b34de3dec3a764b4ca4d85b9c380ab33b9b268d29b6e7008bd0ed9560405160405180910390a45b8061204081613458565b915050611e87565b611b9e3383836124fe565b610100548111156120a65760405162461bcd60e51b815260206004820181905260248201527f5f707265706172654d696e743a3a6578636565646564206d6178546f6b656e73604482015260640161078b565b61010354156121115760405162461bcd60e51b815260206004820152603160248201527f5f707265706172654d696e743a3a63616e206f6e6c792070726570617265206d604482015270696e742077697468203020746f6b656e7360781b606482015260840161078b565b604051806060016040528082815260200184848080601f01602080910402602001604051908101604052809392919081815260200183838082843760009201829052509385525050506020918201528151610104908155908201516101059061217a9082613471565b50604091820151600291909101805460ff19169115159190911790555181907f6f1d651e6e0c8f86bd32a20c22a644d1e34fabf72307ff95d51b9f5892ddba19906121c89086908690613246565b60405180910390a2505050565b6121e0848484611930565b6121ec848484846125cc565b61135f5760405162461bcd60e51b815260040161078b90613531565b60608160000361222f5750506040805180820190915260018152600360fc1b602082015290565b8160005b8115612259578061224381613458565b91506122529050600a83613395565b9150612233565b60008167ffffffffffffffff81111561227457612274612e3c565b6040519080825280601f01601f19166020018201604052801561229e576020820181803683370190505b5090505b8415611928576122b3600183613331565b91506122c0600a86613583565b6122cb906030613348565b60f81b8183815181106122e0576122e0613442565b60200101906001600160f81b031916908160001a905350612302600a86613395565b94506122a2565b60608160000180548060200260200160405190810160405280929190818152602001828054801561235957602002820191906000526020600020905b815481526020019060010190808311612345575b50505050509050919050565b6001600160e01b0319166301ffc9a760e01b1490565b60006001600160e01b0319821663152a902d60e11b14806106645750610664825b60006001600160e01b031982166380ac58cd60e01b14806123cd57506001600160e01b03198216635b5e139f60e01b145b80610664575061066482612365565b6000818152609b6020526040902080546001600160a01b0319166001600160a01b038416908117909155819061241182610d98565b6001600160a01b03167f8c5be1e5ebec7d5bd14f71427d1e84f3dd0314c0f7b2291e5b200ac8c7c3b92560405160405180910390a45050565b600054610100900460ff166124715760405162461bcd60e51b815260040161078b906133f7565b610ec933611d5d565b600054610100900460ff166124a15760405162461bcd60e51b815260040161078b906133f7565b60976124ad8382613471565b5060986108808282613471565b611b9e8282604051806020016040528060008152506126cd565b60006116b8836001600160a01b038416612700565b60006116b8836001600160a01b03841661274f565b816001600160a01b0316836001600160a01b03160361255f5760405162461bcd60e51b815260206004820152601960248201527f4552433732313a20617070726f766520746f2063616c6c657200000000000000604482015260640161078b565b6001600160a01b038381166000818152609c6020908152604080832094871680845294825291829020805460ff191686151590811790915591519182527f17307eab39ab6107e8899845ad3d59bd9653f200f220920489ca2b5937696c31910160405180910390a3505050565b60006001600160a01b0384163b156126c257604051630a85bd0160e11b81526001600160a01b0385169063150b7a0290612610903390899088908890600401613597565b6020604051808303816000875af192505050801561264b575060408051601f3d908101601f19168201909252612648918101906135d4565b60015b6126a8573d808015612679576040519150601f19603f3d011682016040523d82523d6000602084013e61267e565b606091505b5080516000036126a05760405162461bcd60e51b815260040161078b90613531565b805181602001fd5b6001600160e01b031916630a85bd0160e11b149050611928565b506001949350505050565b6126d78383612842565b6126e460008484846125cc565b6108805760405162461bcd60e51b815260040161078b90613531565b600081815260018301602052604081205461274757508154600181810184556000848152602080822090930184905584548482528286019093526040902091909155610664565b506000610664565b60008181526001830160205260408120548015612838576000612773600183613331565b855490915060009061278790600190613331565b90508181146127ec5760008660000182815481106127a7576127a7613442565b90600052602060002001549050808760000184815481106127ca576127ca613442565b6000918252602080832090910192909255918252600188019052604090208390555b85548690806127fd576127fd6135f1565b600190038181906000526020600020016000905590558560010160008681526020019081526020016000206000905560019350505050610664565b6000915050610664565b6001600160a01b0382166128985760405162461bcd60e51b815260206004820181905260248201527f4552433732313a206d696e7420746f20746865207a65726f2061646472657373604482015260640161078b565b6000818152609960205260409020546001600160a01b0316156128fd5760405162461bcd60e51b815260206004820152601c60248201527f4552433732313a20746f6b656e20616c7265616479206d696e74656400000000604482015260640161078b565b6001600160a01b0382166000908152609a60205260408120805460019290612926908490613348565b909155505060008181526099602052604080822080546001600160a01b0319166001600160a01b03861690811790915590518392907fddf252ad1be2c89b69c2b068fc378daa952ba7f163c4a11628f55a4df523b3ef908290a45050565b5080546000825590600052602060002090810190610a6391905b808211156129b2576000815560010161299e565b5090565b803560038110610f9c57600080fd5b6000602082840312156129d757600080fd5b6116b8826129b6565b6020808252825182820181905260009190848201906040850190845b81811015612a215783516001600160a01b0316835292840192918401916001016129fc565b50909695505050505050565b6001600160e01b031981168114610a6357600080fd5b600060208284031215612a5557600080fd5b81356116b881612a2d565b60005b83811015612a7b578181015183820152602001612a63565b8381111561135f5750506000910152565b60008151808452612aa4816020860160208601612a60565b601f01601f19169290920160200192915050565b6020815260006116b86020830184612a8c565b600060208284031215612add57600080fd5b5035919050565b80356001600160a01b0381168114610f9c57600080fd5b60008060408385031215612b0e57600080fd5b612b1783612ae4565b946020939093013593505050565b60008060408385031215612b3857600080fd5b612b4183612ae4565b915060208301358015158114612b5657600080fd5b809150509250929050565b600060208284031215612b7357600080fd5b6116b882612ae4565b600080600060608486031215612b9157600080fd5b612b9a84612ae4565b9250612ba860208501612ae4565b9150604084013590509250925092565b60008060408385031215612bcb57600080fd5b50508035926020909101359150565b60008083601f840112612bec57600080fd5b50813567ffffffffffffffff811115612c0457600080fd5b602083019150836020828501011115612c1c57600080fd5b9250929050565b60008060008060008060808789031215612c3c57600080fd5b863567ffffffffffffffff80821115612c5457600080fd5b612c608a838b01612bda565b90985096506020890135915080821115612c7957600080fd5b50612c8689828a01612bda565b9095509350612c99905060408801612ae4565b9150606087013590509295509295509295565b634e487b7160e01b600052602160045260246000fd5b6020810160038310612ce457634e487b7160e01b600052602160045260246000fd5b91905290565b60008060208385031215612cfd57600080fd5b823567ffffffffffffffff811115612d1457600080fd5b612d2085828601612bda565b90969095509350505050565b60208152815160208201526000602083015160606040840152612d526080840182612a8c565b90506040840151151560608401528091505092915050565b600080600060408486031215612d7f57600080fd5b612d88846129b6565b9250602084013567ffffffffffffffff80821115612da557600080fd5b818601915086601f830112612db957600080fd5b813581811115612dc857600080fd5b8760208260051b8501011115612ddd57600080fd5b6020830194508093505050509250925092565b600080600060408486031215612e0557600080fd5b833567ffffffffffffffff811115612e1c57600080fd5b612e2886828701612bda565b909790965060209590950135949350505050565b634e487b7160e01b600052604160045260246000fd5b60008060008060808587031215612e6857600080fd5b612e7185612ae4565b9350612e7f60208601612ae4565b925060408501359150606085013567ffffffffffffffff80821115612ea357600080fd5b818701915087601f830112612eb757600080fd5b813581811115612ec957612ec9612e3c565b604051601f8201601f19908116603f01168101908382118183101715612ef157612ef1612e3c565b816040528281528a6020848701011115612f0a57600080fd5b82602086016020830137600060208483010152809550505050505092959194509250565b60008060008060608587031215612f4457600080fd5b843567ffffffffffffffff811115612f5b57600080fd5b612f6787828801612bda565b90955093505060208501359150612f8060408601612ae4565b905092959194509250565b60008060408385031215612f9e57600080fd5b612fa783612ae4565b9150610a0160208401612ae4565b600181811c90821680612fc957607f821691505b602082108103612fe957634e487b7160e01b600052602260045260246000fd5b50919050565b6020808252818101527f4f776e61626c653a2063616c6c6572206973206e6f7420746865206f776e6572604082015260600190565b6020808252601e908201527f436f6e7472616374206d757374206e6f742062652064697361626c65642e0000604082015260600190565b60208082526031908201527f4552433732313a207472616e736665722063616c6c6572206973206e6f74206f6040820152701ddb995c881b9bdc88185c1c1c9bdd9959607a1b606082015260800190565b60006020808352600084546130c081612fb5565b808487015260406001808416600081146130e157600181146130fb57613129565b60ff1985168984015283151560051b890183019550613129565b896000528660002060005b858110156131215781548b8201860152908301908801613106565b8a0184019650505b509398975050505050505050565b601f82111561088057600081815260208120601f850160051c8101602086101561315e5750805b601f850160051c820191505b8181101561317d5782815560010161316a565b505050505050565b67ffffffffffffffff83111561319d5761319d612e3c565b6131b1836131ab8354612fb5565b83613137565b6000601f8411600181146131e557600085156131cd5750838201355b600019600387901b1c1916600186901b17835561323f565b600083815260209020601f19861690835b8281101561321657868501358255602094850194600190920191016131f6565b50868210156132335760001960f88860031b161c19848701351681555b505060018560011b0183555b5050505050565b60208152816020820152818360408301376000818301604090810191909152601f909201601f19160101919050565b600080845461328381612fb5565b6001828116801561329b57600181146132b0576132df565b60ff19841687528215158302870194506132df565b8860005260208060002060005b858110156132d65781548a8201529084019082016132bd565b50505082870194505b50602f60f81b8452865192506132fb8382860160208a01612a60565b64173539b7b760d91b939092019182019290925260060195945050505050565b634e487b7160e01b600052601160045260246000fd5b6000828210156133435761334361331b565b500390565b6000821982111561335b5761335b61331b565b500190565b600081600019048311821515161561337a5761337a61331b565b500290565b634e487b7160e01b600052601260045260246000fd5b6000826133a4576133a461337f565b500490565b6020808252602e908201527f496e697469616c697a61626c653a20636f6e747261637420697320616c72656160408201526d191e481a5b9a5d1a585b1a5e995960921b606082015260800190565b6020808252602b908201527f496e697469616c697a61626c653a20636f6e7472616374206973206e6f74206960408201526a6e697469616c697a696e6760a81b606082015260800190565b634e487b7160e01b600052603260045260246000fd5b60006001820161346a5761346a61331b565b5060010190565b815167ffffffffffffffff81111561348b5761348b612e3c565b61349f816134998454612fb5565b84613137565b602080601f8311600181146134d457600084156134bc5750858301515b600019600386901b1c1916600185901b17855561317d565b600085815260208120601f198616915b82811015613503578886015182559484019460019091019084016134e4565b50858210156135215787850151600019600388901b60f8161c191681555b5050505050600190811b01905550565b60208082526032908201527f4552433732313a207472616e7366657220746f206e6f6e20455243373231526560408201527131b2b4bb32b91034b6b83632b6b2b73a32b960711b606082015260800190565b6000826135925761359261337f565b500690565b6001600160a01b03858116825284166020820152604081018390526080606082018190526000906135ca90830184612a8c565b9695505050505050565b6000602082840312156135e657600080fd5b81516116b881612a2d565b634e487b7160e01b600052603160045260246000fdfea264697066735822122085268ddd0eb5da5bd3506525f3ecd9535679f679f9af0983e091cbb1fb43fef964736f6c634300080f0033608060405234801561001057600080fd5b5061377f806100206000396000f3fe608060405234801561001057600080fd5b50600436106102bb5760003560e01c806370a0823111610182578063ab69607a116100e9578063e8315742116100a2578063ee0708051161007c578063ee07080514610634578063efc32cd414610640578063f2fde38b14610653578063ff6e8c8f1461066657600080fd5b8063e831574214610604578063e985e9c51461060e578063eab851181461062157600080fd5b8063ab69607a1461059d578063b390ac25146105a5578063b88d4fde146105b8578063b9fbd25c146105cb578063bc719455146105de578063c87b56dd146105f157600080fd5b80638da5cb5b1161013b5780638da5cb5b14610536578063931688cb146105475780639338bb5d1461055a57806395d89b411461056f5780639e860f2a14610577578063a22cb4651461058a57600080fd5b806370a08231146104e3578063715018a6146104f6578063717392ed146104fe578063755edd171461050757806387bc793f1461051a578063894ba8331461052e57600080fd5b80633403c4e911610226578063472a6638116101df578063472a66381461048757806353df5c7c1461049a5780635aec8d62146104a25780635edc7c19146104aa5780636297c16c146104bd5780636352211e146104d057600080fd5b80633403c4e9146103fd5780633a3d146f1461040e5780633ebc82c51461043b57806340c1a0641461044e57806342842e0e1461046157806342966c681461047457600080fd5b806318160ddd1161027857806318160ddd14610374578063204274861461038a57806321c4a5d81461039d57806323b872dd146103b05780632a55205a146103c35780632ce878da146103f557600080fd5b8063012cf1e8146102c057806301ffc9a7146102e957806306fdde031461030c578063081812fc14610321578063095ea7b31461034c5780630de54ba014610361575b600080fd5b6102d36102ce366004612b07565b610679565b6040516102e09190612b22565b60405180910390f35b6102fc6102f7366004612b85565b6106bf565b60405190151581526020016102e0565b6103146106d9565b6040516102e09190612bfa565b61033461032f366004612c0d565b61076b565b6040516001600160a01b0390911681526020016102e0565b61035f61035a366004612c3d565b610805565b005b61035f61036f366004612c67565b6108da565b61037c610952565b6040519081526020016102e0565b6102fc610398366004612ca3565b610963565b61035f6103ab366004612c0d565b610992565b61035f6103be366004612cbe565b6109c4565b6103d66103d1366004612cfa565b6109f6565b604080516001600160a01b0390931683526020830191909152016102e0565b6102d3610a91565b60fb546001600160a01b0316610334565b6102fc61041c366004612ca3565b6001600160a01b03166000908152610102602052604090205460ff1690565b61035f610449366004612ca3565b610ab7565b61033461045c366004612c0d565b610aea565b61035f61046f366004612cbe565b610afe565b61035f610482366004612c0d565b610b19565b61035f610495366004612b07565b610b90565b61035f610bbf565b61035f610c33565b61035f6104b8366004612d65565b610c8e565b61035f6104cb366004612c0d565b610e0e565b6103346104de366004612c0d565b610e77565b61037c6104f1366004612ca3565b610eee565b61035f610f74565b6101095461037c565b61037c610515366004612ca3565b610faa565b6101085460ff166040516102e09190612e04565b61035f611080565b6033546001600160a01b0316610334565b61035f610555366004612e2c565b6110e4565b6105626111b8565b6040516102e09190612e6e565b61031461129c565b61035f610585366004612eac565b6112ab565b61035f610598366004612c67565b61130e565b60fc5461037c565b61035f6105b3366004612f32565b6113b5565b61035f6105c6366004612f94565b61140c565b61035f6105d9366004613070565b611444565b61035f6105ec366004612b07565b6114c3565b6103146105ff366004612c0d565b611578565b61037c6101005481565b6102fc61061c3660046130cd565b6115ad565b6102fc61062f366004612ca3565b6115db565b60ff80546102fc911681565b61035f61064e366004612c3d565b611602565b61035f610661366004612ca3565b61165a565b61035f610674366004612eac565b6116f2565b60606106b9610107600084600281111561069557610695612dee565b60028111156106a6576106a6612dee565b815260200190815260200160002061178a565b92915050565b60006106ca8261179e565b806106b957506106b9826117c3565b6060609780546106e8906130f7565b80601f0160208091040260200160405190810160405280929190818152602001828054610714906130f7565b80156107615780601f1061073657610100808354040283529160200191610761565b820191906000526020600020905b81548152906001019060200180831161074457829003601f168201915b5050505050905090565b6000818152609960205260408120546001600160a01b03166107e95760405162461bcd60e51b815260206004820152602c60248201527f4552433732313a20617070726f76656420717565727920666f72206e6f6e657860448201526b34b9ba32b73a103a37b5b2b760a11b60648201526084015b60405180910390fd5b506000908152609b60205260409020546001600160a01b031690565b8160016101085460ff16600281111561082057610820612dee565b0361087f5761085e81610107600060015b600281111561084257610842612dee565b815260200190815260200160002061180690919063ffffffff16565b61087a576040516282b42960e81b815260040160405180910390fd5b6108cb565b60026101085460ff16600281111561089957610899612dee565b036108cb576108ae8161010760006002610831565b156108cb576040516282b42960e81b815260040160405180910390fd5b6108d58383611828565b505050565b6033546001600160a01b031633146109045760405162461bcd60e51b81526004016107e090613131565b60ff805416156109265760405162461bcd60e51b81526004016107e090613166565b6001600160a01b0391909116600090815261010260205260409020805460ff1916911515919091179055565b600061095e6101035490565b905090565b60006109776033546001600160a01b031690565b6001600160a01b0316826001600160a01b0316149050919050565b61099b33610963565b6109b857604051635c510c8360e11b815260040160405180910390fd5b6109c181611938565b50565b6109cf335b8261199b565b6109eb5760405162461bcd60e51b81526004016107e09061319d565b6108d5838383611a72565b600082815260fd602052604081205481906001600160a01b0316610a255760fb546001600160a01b0316610a3e565b600084815260fd60205260409020546001600160a01b03165b9150610a886064610a8260fe600088815260200190815260200160002054600003610a6b5760fc54610a7b565b600087815260fe60205260409020545b8690611c0e565b90611c1a565b90509250929050565b6101085460609061095e906101079060009060ff16600281111561069557610695612dee565b6033546001600160a01b03163314610ae15760405162461bcd60e51b81526004016107e090613131565b6109c181611c26565b60006106b96033546001600160a01b031690565b6108d58383836040518060200160405280600081525061140c565b610b22336109c9565b610b875760405162461bcd60e51b815260206004820152603060248201527f4552433732314275726e61626c653a2063616c6c6572206973206e6f74206f7760448201526f1b995c881b9bdc88185c1c1c9bdd995960821b60648201526084016107e0565b6109c181611c48565b610b9933610963565b610bb657604051635c510c8360e11b815260040160405180910390fd5b6109c181611ce4565b6033546001600160a01b03163314610be95760405162461bcd60e51b81526004016107e090613131565b6040517fb634b0cb94234b05eabb1438717e0e645bfd84788ae1263682242327563cde5e90610c1b90610105906131ee565b60405180910390a1610106805460ff19166001179055565b42610109541115610c575760405163807a684760e01b815260040160405180910390fd5b610c616000611ce4565b60405133907f60faf76514baf225c418dfc1e3c75bed0bd280f0436999e12cb0a73acb0f9a4690600090a2565b6000610c9a6001611d61565b90508015610cb2576000805461ff0019166101001790555b6001600160a01b038316610d085760405162461bcd60e51b815260206004820152601e60248201527f63726561746f722063616e6e6f74206265206e756c6c2061646472657373000060448201526064016107e0565b610d12600a60fc55565b60ff805460ff19169055610100829055610d2a611de9565b610d9d87878080601f01602080910402602001604051908101604052809392919081815260200183838082843760009201919091525050604080516020601f8b018190048102820181019092528981529250899150889081908401838280828437600092019190915250611e1892505050565b610da5611e49565b610dad611e70565b610db683611c26565b610dbf8361165a565b8015610e05576000805461ff0019169055604051600181527f7f26b83ff96e1f2b6a682f133852f6798a09c465da95921460cefb38474024989060200160405180910390a15b50505050505050565b33610e1882610e77565b6001600160a01b031614610e6e5760405162461bcd60e51b815260206004820152601f60248201527f4d75737420626520746865206f776e6572206f662074686520746f6b656e2e0060448201526064016107e0565b6109c181610b19565b6000818152609960205260408120546001600160a01b0316806106b95760405162461bcd60e51b815260206004820152602960248201527f4552433732313a206f776e657220717565727920666f72206e6f6e657869737460448201526832b73a103a37b5b2b760b91b60648201526084016107e0565b60006001600160a01b038216610f585760405162461bcd60e51b815260206004820152602960248201527f4552433732313a2061646472657373207a65726f206973206e6f7420612076616044820152683634b21037bbb732b960b91b60648201526084016107e0565b506001600160a01b03166000908152609a602052604090205490565b6033546001600160a01b03163314610f9e5760405162461bcd60e51b81526004016107e090613131565b610fa86000611e9f565b565b60ff80546000911615610fcf5760405162461bcd60e51b81526004016107e090613166565b6033546001600160a01b0316331480610ff85750336000908152610102602052604090205460ff165b61105d5760405162461bcd60e51b815260206004820152603060248201527f6c617a794d696e743a3a6f6e6c79206f776e6572206f7220617070726f76656460448201526f081b5a5b9d195c8818d85b881b5a5b9d60821b60648201526084016107e0565b6106b98261106a60fc5490565b60fb546001600160a01b0316611ef1565b919050565b6033546001600160a01b031633146110aa5760405162461bcd60e51b81526004016107e090613131565b60ff805460ff1916600117905560405133907f793bc6423dd0257d64f9d47db72fd4b2162f4541aa41740ba1c5fb5e2cd41bcd90600090a2565b6033546001600160a01b0316331461110e5760405162461bcd60e51b81526004016107e090613131565b6101065460ff161561116c5760405162461bcd60e51b815260206004820152602160248201527f757064617465426173655552493a3a6d65746164617461206973206c6f636b656044820152601960fa1b60648201526084016107e0565b61010561117a8284836132c7565b507f1c306e70c05992619e2128ad1ef88df75f36c9476282e59f51401b2abaa42e4e82826040516111ac929190613388565b60405180910390a15050565b6111de604051806060016040528060008152602001606081526020016000151581525090565b6040805160608101909152610104805482526101058054602084019190611204906130f7565b80601f0160208091040260200160405190810160405280929190818152602001828054611230906130f7565b801561127d5780601f106112525761010080835404028352916020019161127d565b820191906000526020600020905b81548152906001019060200180831161126057829003601f168201915b50505091835250506002919091015460ff161515602090910152919050565b6060609880546106e8906130f7565b6112b433610963565b6112d157604051635c510c8360e11b815260040160405180910390fd5b6108d58383838080602002602001604051908101604052809392919081815260200183836020028082843760009201829052509250611fad915050565b8160016101085460ff16600281111561132957611329612dee565b0361135f5761133e8161010760006001610831565b61135a576040516282b42960e81b815260040160405180910390fd5b6113ab565b60026101085460ff16600281111561137957611379612dee565b036113ab5761138e8161010760006002610831565b156113ab576040516282b42960e81b815260040160405180910390fd5b6108d5838361218a565b6033546001600160a01b031633146113df5760405162461bcd60e51b81526004016107e090613131565b60ff805416156114015760405162461bcd60e51b81526004016107e090613166565b6108d5838383612195565b611416338361199b565b6114325760405162461bcd60e51b81526004016107e09061319d565b61143e84848484612317565b50505050565b6033546001600160a01b0316331461146e5760405162461bcd60e51b81526004016107e090613131565b60ff805416156114905760405162461bcd60e51b81526004016107e090613166565b61149b848484612195565b6001600160a01b0316600090815261010260205260409020805460ff19166001179055505050565b6114cc33610963565b6114e957604051635c510c8360e11b815260040160405180910390fd5b610107600082600281111561150057611500612dee565b600281111561151157611511612dee565b8152602081019190915260400160009081209081816115308282612ac6565b50505050336001600160a01b03167f7efc19cf93d497a6a56103ea89a39d51c0cad74a817ed3cd0ecaff9823d4da248260405161156d9190612e04565b60405180910390a250565b60606101056115868361234a565b6040516020016115979291906133b7565b6040516020818303038152906040529050919050565b6001600160a01b039182166000908152609c6020908152604080832093909416825291909152205460ff1690565b610108546000906106b990839061010790849060ff16600281111561083157610831612dee565b6033546001600160a01b0316331461162c5760405162461bcd60e51b81526004016107e090613131565b600090815260fd6020526040902080546001600160a01b0319166001600160a01b0392909216919091179055565b6033546001600160a01b031633146116845760405162461bcd60e51b81526004016107e090613131565b6001600160a01b0381166116e95760405162461bcd60e51b815260206004820152602660248201527f4f776e61626c653a206e6577206f776e657220697320746865207a65726f206160448201526564647265737360d01b60648201526084016107e0565b6109c181611e9f565b6116fb33610963565b61171857604051635c510c8360e11b815260040160405180910390fd5b600083600281111561172c5761172c612dee565b0361174a57604051632de777a160e11b815260040160405180910390fd5b6108d58383838080602002602001604051908101604052809392919081815260200183836020028082843760009201919091525060019250611fad915050565b606060006117978361244b565b9392505050565b60006001600160e01b0319821663fa31a45b60e01b14806106b957506106b9826124a7565b60006001600160e01b03198216631030681960e21b14806117e857506117e8826124a7565b806117f757506117f7826124bd565b806106b957506106b9826124de565b6001600160a01b03811660009081526001830160205260408120541515611797565b600061183382610e77565b9050806001600160a01b0316836001600160a01b0316036118a05760405162461bcd60e51b815260206004820152602160248201527f4552433732313a20617070726f76616c20746f2063757272656e74206f776e656044820152603960f91b60648201526084016107e0565b336001600160a01b03821614806118bc57506118bc81336115ad565b61192e5760405162461bcd60e51b815260206004820152603860248201527f4552433732313a20617070726f76652063616c6c6572206973206e6f74206f7760448201527f6e6572206e6f7220617070726f76656420666f7220616c6c000000000000000060648201526084016107e0565b6108d5838361251e565b6000611948826301e13380613473565b6119529042613492565b61010954604080519182526020820183905291925033917f6e948191a35d69000746799fef50c705bbdc93bd5a7577e9e9eb879c04bdebc9910160405180910390a26101095550565b6000818152609960205260408120546001600160a01b0316611a145760405162461bcd60e51b815260206004820152602c60248201527f4552433732313a206f70657261746f7220717565727920666f72206e6f6e657860448201526b34b9ba32b73a103a37b5b2b760a11b60648201526084016107e0565b6000611a1f83610e77565b9050806001600160a01b0316846001600160a01b03161480611a465750611a4681856115ad565b80611a6a5750836001600160a01b0316611a5f8461076b565b6001600160a01b0316145b949350505050565b826001600160a01b0316611a8582610e77565b6001600160a01b031614611ae95760405162461bcd60e51b815260206004820152602560248201527f4552433732313a207472616e736665722066726f6d20696e636f72726563742060448201526437bbb732b960d91b60648201526084016107e0565b6001600160a01b038216611b4b5760405162461bcd60e51b8152602060048201526024808201527f4552433732313a207472616e7366657220746f20746865207a65726f206164646044820152637265737360e01b60648201526084016107e0565b611b5660008261251e565b6001600160a01b0383166000908152609a60205260408120805460019290611b7f9084906134aa565b90915550506001600160a01b0382166000908152609a60205260408120805460019290611bad908490613492565b909155505060008181526099602052604080822080546001600160a01b0319166001600160a01b0386811691821790925591518493918716917fddf252ad1be2c89b69c2b068fc378daa952ba7f163c4a11628f55a4df523b3ef91a4505050565b60006117978284613473565b600061179782846134d7565b60fb80546001600160a01b0319166001600160a01b0392909216919091179055565b6000611c5382610e77565b9050611c6060008361251e565b6001600160a01b0381166000908152609a60205260408120805460019290611c899084906134aa565b909155505060008281526099602052604080822080546001600160a01b0319169055518391906001600160a01b038416907fddf252ad1be2c89b69c2b068fc378daa952ba7f163c4a11628f55a4df523b3ef908390a45b5050565b806002811115611cf657611cf6612dee565b6101085460ff166002811115611d0e57611d0e612dee565b60405133907f12282389323caf08dd4e02c490ef05bc7edb56967c085742687aad3cc81aa15f90600090a4610108805482919060ff19166001836002811115611d5957611d59612dee565b021790555050565b60008054610100900460ff1615611da8578160ff166001148015611d845750303b155b611da05760405162461bcd60e51b81526004016107e0906134eb565b506000919050565b60005460ff808416911610611dcf5760405162461bcd60e51b81526004016107e0906134eb565b506000805460ff191660ff92909216919091179055600190565b600054610100900460ff16611e105760405162461bcd60e51b81526004016107e090613539565b610fa861258c565b600054610100900460ff16611e3f5760405162461bcd60e51b81526004016107e090613539565b611ce082826125bc565b600054610100900460ff16610fa85760405162461bcd60e51b81526004016107e090613539565b600054610100900460ff16611e975760405162461bcd60e51b81526004016107e090613539565b610fa8611e49565b603380546001600160a01b038381166001600160a01b0319831681179093556040519116919082907f8be0079c531659141344cd1fd0a4f28419497f9722a3daafe3b4186f6b6457e090600090a35050565b6000611f0261010380546001019055565b6000611f0e6101035490565b905061010054811115611f635760405162461bcd60e51b815260206004820181905260248201527f5f637265617465546f6b656e3a3a6578636565646564206d6178546f6b656e7360448201526064016107e0565b611f6d85826125fc565b600081815260fe60205260409020849055600081815260fd6020526040902080546001600160a01b0319166001600160a01b038516179055949350505050565b6000836002811115611fc157611fc1612dee565b146108d55760005b825181101561143e5781156120aa57612039838281518110611fed57611fed613584565b6020026020010151610107600087600281111561200c5761200c612dee565b600281111561201d5761201d612dee565b815260200190815260200160002061261690919063ffffffff16565b5083600281111561204c5761204c612dee565b83828151811061205e5761205e613584565b60200260200101516001600160a01b0316336001600160a01b03167f14155f749dc3f9cd2bf890d6d3a47069f77ae35befcee11c8b1a3ba41cba153660405160405180910390a4612178565b61210b8382815181106120bf576120bf613584565b602002602001015161010760008760028111156120de576120de612dee565b60028111156120ef576120ef612dee565b815260200190815260200160002061262b90919063ffffffff16565b5083600281111561211e5761211e612dee565b83828151811061213057612130613584565b60200260200101516001600160a01b0316336001600160a01b03167fc72e29af1b34de3dec3a764b4ca4d85b9c380ab33b9b268d29b6e7008bd0ed9560405160405180910390a45b806121828161359a565b915050611fc9565b611ce0338383612640565b610100548111156121e85760405162461bcd60e51b815260206004820181905260248201527f5f707265706172654d696e743a3a6578636565646564206d6178546f6b656e7360448201526064016107e0565b61010354156122535760405162461bcd60e51b815260206004820152603160248201527f5f707265706172654d696e743a3a63616e206f6e6c792070726570617265206d604482015270696e742077697468203020746f6b656e7360781b60648201526084016107e0565b604051806060016040528082815260200184848080601f0160208091040260200160405190810160405280939291908181526020018383808284376000920182905250938552505050602091820152815161010490815590820151610105906122bc90826135b3565b50604091820151600291909101805460ff19169115159190911790555181907f6f1d651e6e0c8f86bd32a20c22a644d1e34fabf72307ff95d51b9f5892ddba199061230a9086908690613388565b60405180910390a2505050565b612322848484611a72565b61232e8484848461270e565b61143e5760405162461bcd60e51b81526004016107e090613673565b6060816000036123715750506040805180820190915260018152600360fc1b602082015290565b8160005b811561239b57806123858161359a565b91506123949050600a836134d7565b9150612375565b60008167ffffffffffffffff8111156123b6576123b6612f7e565b6040519080825280601f01601f1916602001820160405280156123e0576020820181803683370190505b5090505b8415611a6a576123f56001836134aa565b9150612402600a866136c5565b61240d906030613492565b60f81b81838151811061242257612422613584565b60200101906001600160f81b031916908160001a905350612444600a866134d7565b94506123e4565b60608160000180548060200260200160405190810160405280929190818152602001828054801561249b57602002820191906000526020600020905b815481526020019060010190808311612487575b50505050509050919050565b6001600160e01b0319166301ffc9a760e01b1490565b60006001600160e01b0319821663152a902d60e11b14806106b957506106b9825b60006001600160e01b031982166380ac58cd60e01b148061250f57506001600160e01b03198216635b5e139f60e01b145b806106b957506106b9826124a7565b6000818152609b6020526040902080546001600160a01b0319166001600160a01b038416908117909155819061255382610e77565b6001600160a01b03167f8c5be1e5ebec7d5bd14f71427d1e84f3dd0314c0f7b2291e5b200ac8c7c3b92560405160405180910390a45050565b600054610100900460ff166125b35760405162461bcd60e51b81526004016107e090613539565b610fa833611e9f565b600054610100900460ff166125e35760405162461bcd60e51b81526004016107e090613539565b60976125ef83826135b3565b5060986108d582826135b3565b611ce082826040518060200160405280600081525061280f565b6000611797836001600160a01b038416612842565b6000611797836001600160a01b038416612891565b816001600160a01b0316836001600160a01b0316036126a15760405162461bcd60e51b815260206004820152601960248201527f4552433732313a20617070726f766520746f2063616c6c65720000000000000060448201526064016107e0565b6001600160a01b038381166000818152609c6020908152604080832094871680845294825291829020805460ff191686151590811790915591519182527f17307eab39ab6107e8899845ad3d59bd9653f200f220920489ca2b5937696c31910160405180910390a3505050565b60006001600160a01b0384163b1561280457604051630a85bd0160e11b81526001600160a01b0385169063150b7a02906127529033908990889088906004016136d9565b6020604051808303816000875af192505050801561278d575060408051601f3d908101601f1916820190925261278a91810190613716565b60015b6127ea573d8080156127bb576040519150601f19603f3d011682016040523d82523d6000602084013e6127c0565b606091505b5080516000036127e25760405162461bcd60e51b81526004016107e090613673565b805181602001fd5b6001600160e01b031916630a85bd0160e11b149050611a6a565b506001949350505050565b6128198383612984565b612826600084848461270e565b6108d55760405162461bcd60e51b81526004016107e090613673565b6000818152600183016020526040812054612889575081546001818101845560008481526020808220909301849055845484825282860190935260409020919091556106b9565b5060006106b9565b6000818152600183016020526040812054801561297a5760006128b56001836134aa565b85549091506000906128c9906001906134aa565b905081811461292e5760008660000182815481106128e9576128e9613584565b906000526020600020015490508087600001848154811061290c5761290c613584565b6000918252602080832090910192909255918252600188019052604090208390555b855486908061293f5761293f613733565b6001900381819060005260206000200160009055905585600101600086815260200190815260200160002060009055600193505050506106b9565b60009150506106b9565b6001600160a01b0382166129da5760405162461bcd60e51b815260206004820181905260248201527f4552433732313a206d696e7420746f20746865207a65726f206164647265737360448201526064016107e0565b6000818152609960205260409020546001600160a01b031615612a3f5760405162461bcd60e51b815260206004820152601c60248201527f4552433732313a20746f6b656e20616c7265616479206d696e7465640000000060448201526064016107e0565b6001600160a01b0382166000908152609a60205260408120805460019290612a68908490613492565b909155505060008181526099602052604080822080546001600160a01b0319166001600160a01b03861690811790915590518392907fddf252ad1be2c89b69c2b068fc378daa952ba7f163c4a11628f55a4df523b3ef908290a45050565b50805460008255906000526020600020908101906109c191905b80821115612af45760008155600101612ae0565b5090565b80356003811061107b57600080fd5b600060208284031215612b1957600080fd5b61179782612af8565b6020808252825182820181905260009190848201906040850190845b81811015612b635783516001600160a01b031683529284019291840191600101612b3e565b50909695505050505050565b6001600160e01b0319811681146109c157600080fd5b600060208284031215612b9757600080fd5b813561179781612b6f565b60005b83811015612bbd578181015183820152602001612ba5565b8381111561143e5750506000910152565b60008151808452612be6816020860160208601612ba2565b601f01601f19169290920160200192915050565b6020815260006117976020830184612bce565b600060208284031215612c1f57600080fd5b5035919050565b80356001600160a01b038116811461107b57600080fd5b60008060408385031215612c5057600080fd5b612c5983612c26565b946020939093013593505050565b60008060408385031215612c7a57600080fd5b612c8383612c26565b915060208301358015158114612c9857600080fd5b809150509250929050565b600060208284031215612cb557600080fd5b61179782612c26565b600080600060608486031215612cd357600080fd5b612cdc84612c26565b9250612cea60208501612c26565b9150604084013590509250925092565b60008060408385031215612d0d57600080fd5b50508035926020909101359150565b60008083601f840112612d2e57600080fd5b50813567ffffffffffffffff811115612d4657600080fd5b602083019150836020828501011115612d5e57600080fd5b9250929050565b60008060008060008060808789031215612d7e57600080fd5b863567ffffffffffffffff80821115612d9657600080fd5b612da28a838b01612d1c565b90985096506020890135915080821115612dbb57600080fd5b50612dc889828a01612d1c565b9095509350612ddb905060408801612c26565b9150606087013590509295509295509295565b634e487b7160e01b600052602160045260246000fd5b6020810160038310612e2657634e487b7160e01b600052602160045260246000fd5b91905290565b60008060208385031215612e3f57600080fd5b823567ffffffffffffffff811115612e5657600080fd5b612e6285828601612d1c565b90969095509350505050565b60208152815160208201526000602083015160606040840152612e946080840182612bce565b90506040840151151560608401528091505092915050565b600080600060408486031215612ec157600080fd5b612eca84612af8565b9250602084013567ffffffffffffffff80821115612ee757600080fd5b818601915086601f830112612efb57600080fd5b813581811115612f0a57600080fd5b8760208260051b8501011115612f1f57600080fd5b6020830194508093505050509250925092565b600080600060408486031215612f4757600080fd5b833567ffffffffffffffff811115612f5e57600080fd5b612f6a86828701612d1c565b909790965060209590950135949350505050565b634e487b7160e01b600052604160045260246000fd5b60008060008060808587031215612faa57600080fd5b612fb385612c26565b9350612fc160208601612c26565b925060408501359150606085013567ffffffffffffffff80821115612fe557600080fd5b818701915087601f830112612ff957600080fd5b81358181111561300b5761300b612f7e565b604051601f8201601f19908116603f0116810190838211818310171561303357613033612f7e565b816040528281528a602084870101111561304c57600080fd5b82602086016020830137600060208483010152809550505050505092959194509250565b6000806000806060858703121561308657600080fd5b843567ffffffffffffffff81111561309d57600080fd5b6130a987828801612d1c565b909550935050602085013591506130c260408601612c26565b905092959194509250565b600080604083850312156130e057600080fd5b6130e983612c26565b9150610a8860208401612c26565b600181811c9082168061310b57607f821691505b60208210810361312b57634e487b7160e01b600052602260045260246000fd5b50919050565b6020808252818101527f4f776e61626c653a2063616c6c6572206973206e6f7420746865206f776e6572604082015260600190565b6020808252601e908201527f436f6e7472616374206d757374206e6f742062652064697361626c65642e0000604082015260600190565b60208082526031908201527f4552433732313a207472616e736665722063616c6c6572206973206e6f74206f6040820152701ddb995c881b9bdc88185c1c1c9bdd9959607a1b606082015260800190565b6000602080835260008454613202816130f7565b80848701526040600180841660008114613223576001811461323d5761326b565b60ff1985168984015283151560051b89018301955061326b565b896000528660002060005b858110156132635781548b8201860152908301908801613248565b8a0184019650505b509398975050505050505050565b601f8211156108d557600081815260208120601f850160051c810160208610156132a05750805b601f850160051c820191505b818110156132bf578281556001016132ac565b505050505050565b67ffffffffffffffff8311156132df576132df612f7e565b6132f3836132ed83546130f7565b83613279565b6000601f841160018114613327576000851561330f5750838201355b600019600387901b1c1916600186901b178355613381565b600083815260209020601f19861690835b828110156133585786850135825560209485019460019092019101613338565b50868210156133755760001960f88860031b161c19848701351681555b505060018560011b0183555b5050505050565b60208152816020820152818360408301376000818301604090810191909152601f909201601f19160101919050565b60008084546133c5816130f7565b600182811680156133dd57600181146133f257613421565b60ff1984168752821515830287019450613421565b8860005260208060002060005b858110156134185781548a8201529084019082016133ff565b50505082870194505b50602f60f81b84528651925061343d8382860160208a01612ba2565b64173539b7b760d91b939092019182019290925260060195945050505050565b634e487b7160e01b600052601160045260246000fd5b600081600019048311821515161561348d5761348d61345d565b500290565b600082198211156134a5576134a561345d565b500190565b6000828210156134bc576134bc61345d565b500390565b634e487b7160e01b600052601260045260246000fd5b6000826134e6576134e66134c1565b500490565b6020808252602e908201527f496e697469616c697a61626c653a20636f6e747261637420697320616c72656160408201526d191e481a5b9a5d1a585b1a5e995960921b606082015260800190565b6020808252602b908201527f496e697469616c697a61626c653a20636f6e7472616374206973206e6f74206960408201526a6e697469616c697a696e6760a81b606082015260800190565b634e487b7160e01b600052603260045260246000fd5b6000600182016135ac576135ac61345d565b5060010190565b815167ffffffffffffffff8111156135cd576135cd612f7e565b6135e1816135db84546130f7565b84613279565b602080601f83116001811461361657600084156135fe5750858301515b600019600386901b1c1916600185901b1785556132bf565b600085815260208120601f198616915b8281101561364557888601518255948401946001909101908401613626565b50858210156136635787850151600019600388901b60f8161c191681555b5050505050600190811b01905550565b60208082526032908201527f4552433732313a207472616e7366657220746f206e6f6e20455243373231526560408201527131b2b4bb32b91034b6b83632b6b2b73a32b960711b606082015260800190565b6000826136d4576136d46134c1565b500690565b6001600160a01b038581168252841660208201526040810183905260806060820181905260009061370c90830184612bce565b9695505050505050565b60006020828403121561372857600080fd5b815161179781612b6f565b634e487b7160e01b600052603160045260246000fdfea2646970667358221220b1773c9ef49fb96e2b549b48f79888be9bf2e0698590e99aeacfd05fc4c433a264736f6c634300080f0033",
    "linkReferences": {}
  },
  "methodIdentifiers": {
    "LAZY_ROYALTY_GUARD()": "00e8ece6",
    "LAZY_ROYALTY_GUARD_DEADMAN()": "740adf31",
    "LAZY_SOVEREIGN_NFT()": "637944f5",
    "createSovereignNFTContract(string,string,uint256,bytes32)": "877ebf51",
    "lazySovereignNFT()": "f5e0e6df",
    "lazySovereignNFTRoyaltyGuard()": "22d60fcb",
    "lazySovereignNFTRoyaltyGuardDeadmanTrigger()": "c4dca7ab",
    "owner()": "8da5cb5b",
    "renounceOwnership()": "715018a6",
    "setSovereignNFT(address,bytes32)": "a55b1c25",
    "transferOwnership(address)": "f2fde38b"
  },
  "id": 64
}