{
  "abi": [
    {
      "inputs": [],
      "name": "CantAddToOFFList",
      "type": "error"
    },
    {
      "inputs": [],
      "name": "MustBeAdmin",
      "type": "error"
    },
    {
      "inputs": [],
      "name": "Unauthorized",
      "type": "error"
    },
    {
      "anonymous": false,
      "inputs": [
        {
          "indexed": true,
          "internalType": "address",
          "name": "_updater",
          "type": "address"
        },
        {
          "indexed": true,
          "internalType": "address",
          "name": "_addedAddr",
          "type": "address"
        },
        {
          "indexed": true,
          "internalType": "enum IRoyaltyGuard.ListType",
          "name": "_ListType",
          "type": "uint8"
        }
      ],
      "name": "AddressAddedToList",
      "type": "event"
    },
    {
      "anonymous": false,
      "inputs": [
        {
          "indexed": true,
          "internalType": "address",
          "name": "_updater",
          "type": "address"
        },
        {
          "indexed": true,
          "internalType": "address",
          "name": "_removedAddr",
          "type": "address"
        },
        {
          "indexed": true,
          "internalType": "enum IRoyaltyGuard.ListType",
          "name": "_ListType",
          "type": "uint8"
        }
      ],
      "name": "AddressRemovedList",
      "type": "event"
    },
    {
      "anonymous": false,
      "inputs": [
        {
          "indexed": true,
          "internalType": "address",
          "name": "owner",
          "type": "address"
        },
        {
          "indexed": true,
          "internalType": "address",
          "name": "approved",
          "type": "address"
        },
        {
          "indexed": true,
          "internalType": "uint256",
          "name": "tokenId",
          "type": "uint256"
        }
      ],
      "name": "Approval",
      "type": "event"
    },
    {
      "anonymous": false,
      "inputs": [
        {
          "indexed": true,
          "internalType": "address",
          "name": "owner",
          "type": "address"
        },
        {
          "indexed": true,
          "internalType": "address",
          "name": "operator",
          "type": "address"
        },
        {
          "indexed": false,
          "internalType": "bool",
          "name": "approved",
          "type": "bool"
        }
      ],
      "name": "ApprovalForAll",
      "type": "event"
    },
    {
      "anonymous": false,
      "inputs": [
        {
          "indexed": true,
          "internalType": "address",
          "name": "user",
          "type": "address"
        }
      ],
      "name": "ContractDisabled",
      "type": "event"
    },
    {
      "anonymous": false,
      "inputs": [
        {
          "indexed": false,
          "internalType": "uint8",
          "name": "version",
          "type": "uint8"
        }
      ],
      "name": "Initialized",
      "type": "event"
    },
    {
      "anonymous": false,
      "inputs": [
        {
          "indexed": true,
          "internalType": "address",
          "name": "_updater",
          "type": "address"
        },
        {
          "indexed": false,
          "internalType": "enum IRoyaltyGuard.ListType",
          "name": "_listType",
          "type": "uint8"
        }
      ],
      "name": "ListCleared",
      "type": "event"
    },
    {
      "anonymous": false,
      "inputs": [
        {
          "indexed": true,
          "internalType": "address",
          "name": "_updater",
          "type": "address"
        },
        {
          "indexed": true,
          "internalType": "enum IRoyaltyGuard.ListType",
          "name": "_oldListType",
          "type": "uint8"
        },
        {
          "indexed": true,
          "internalType": "enum IRoyaltyGuard.ListType",
          "name": "_newListType",
          "type": "uint8"
        }
      ],
      "name": "ListTypeUpdated",
      "type": "event"
    },
    {
      "anonymous": false,
      "inputs": [
        {
          "indexed": false,
          "internalType": "string",
          "name": "baseURI",
          "type": "string"
        }
      ],
      "name": "MetadataLocked",
      "type": "event"
    },
    {
      "anonymous": false,
      "inputs": [
        {
          "indexed": false,
          "internalType": "string",
          "name": "baseURI",
          "type": "string"
        }
      ],
      "name": "MetadataUpdated",
      "type": "event"
    },
    {
      "anonymous": false,
      "inputs": [
        {
          "indexed": true,
          "internalType": "address",
          "name": "previousOwner",
          "type": "address"
        },
        {
          "indexed": true,
          "internalType": "address",
          "name": "newOwner",
          "type": "address"
        }
      ],
      "name": "OwnershipTransferred",
      "type": "event"
    },
    {
      "anonymous": false,
      "inputs": [
        {
          "indexed": true,
          "internalType": "uint256",
          "name": "numberOfTokens",
          "type": "uint256"
        },
        {
          "indexed": false,
          "internalType": "string",
          "name": "baseURI",
          "type": "string"
        }
      ],
      "name": "PrepareMint",
      "type": "event"
    },
    {
      "anonymous": false,
      "inputs": [
        {
          "indexed": true,
          "internalType": "address",
          "name": "from",
          "type": "address"
        },
        {
          "indexed": true,
          "internalType": "address",
          "name": "to",
          "type": "address"
        },
        {
          "indexed": true,
          "internalType": "uint256",
          "name": "tokenId",
          "type": "uint256"
        }
      ],
      "name": "Transfer",
      "type": "event"
    },
    {
      "inputs": [
        {
          "internalType": "address",
          "name": "_spender",
          "type": "address"
        },
        {
          "internalType": "uint256",
          "name": "_id",
          "type": "uint256"
        }
      ],
      "name": "approve",
      "outputs": [],
      "stateMutability": "nonpayable",
      "type": "function"
    },
    {
      "inputs": [
        {
          "internalType": "address",
          "name": "owner",
          "type": "address"
        }
      ],
      "name": "balanceOf",
      "outputs": [
        {
          "internalType": "uint256",
          "name": "",
          "type": "uint256"
        }
      ],
      "stateMutability": "view",
      "type": "function"
    },
    {
      "inputs": [
        {
          "internalType": "enum IRoyaltyGuard.ListType",
          "name": "_listType",
          "type": "uint8"
        },
        {
          "internalType": "address[]",
          "name": "_addrs",
          "type": "address[]"
        }
      ],
      "name": "batchAddAddressToRoyaltyList",
      "outputs": [],
      "stateMutability": "nonpayable",
      "type": "function"
    },
    {
      "inputs": [
        {
          "internalType": "enum IRoyaltyGuard.ListType",
          "name": "_listType",
          "type": "uint8"
        },
        {
          "internalType": "address[]",
          "name": "_addrs",
          "type": "address[]"
        }
      ],
      "name": "batchRemoveAddressToRoyaltyList",
      "outputs": [],
      "stateMutability": "nonpayable",
      "type": "function"
    },
    {
      "inputs": [
        {
          "internalType": "uint256",
          "name": "tokenId",
          "type": "uint256"
        }
      ],
      "name": "burn",
      "outputs": [],
      "stateMutability": "nonpayable",
      "type": "function"
    },
    {
      "inputs": [
        {
          "internalType": "enum IRoyaltyGuard.ListType",
          "name": "_listType",
          "type": "uint8"
        }
      ],
      "name": "clearList",
      "outputs": [],
      "stateMutability": "nonpayable",
      "type": "function"
    },
    {
      "inputs": [
        {
          "internalType": "uint256",
          "name": "_tokenId",
          "type": "uint256"
        }
      ],
      "name": "deleteToken",
      "outputs": [],
      "stateMutability": "nonpayable",
      "type": "function"
    },
    {
      "inputs": [],
      "name": "disableContract",
      "outputs": [],
      "stateMutability": "nonpayable",
      "type": "function"
    },
    {
      "inputs": [],
      "name": "disabled",
      "outputs": [
        {
          "internalType": "bool",
          "name": "",
          "type": "bool"
        }
      ],
      "stateMutability": "view",
      "type": "function"
    },
    {
      "inputs": [
        {
          "internalType": "uint256",
          "name": "tokenId",
          "type": "uint256"
        }
      ],
      "name": "getApproved",
      "outputs": [
        {
          "internalType": "address",
          "name": "",
          "type": "address"
        }
      ],
      "stateMutability": "view",
      "type": "function"
    },
    {
      "inputs": [],
      "name": "getDefaultRoyaltyPercentage",
      "outputs": [
        {
          "internalType": "uint256",
          "name": "",
          "type": "uint256"
        }
      ],
      "stateMutability": "view",
      "type": "function"
    },
    {
      "inputs": [],
      "name": "getDefaultRoyaltyReceiver",
      "outputs": [
        {
          "internalType": "address",
          "name": "",
          "type": "address"
        }
      ],
      "stateMutability": "view",
      "type": "function"
    },
    {
      "inputs": [],
      "name": "getInUseList",
      "outputs": [
        {
          "internalType": "address[]",
          "name": "",
          "type": "address[]"
        }
      ],
      "stateMutability": "view",
      "type": "function"
    },
    {
      "inputs": [
        {
          "internalType": "enum IRoyaltyGuard.ListType",
          "name": "_listType",
          "type": "uint8"
        }
      ],
      "name": "getList",
      "outputs": [
        {
          "internalType": "address[]",
          "name": "",
          "type": "address[]"
        }
      ],
      "stateMutability": "view",
      "type": "function"
    },
    {
      "inputs": [],
      "name": "getListType",
      "outputs": [
        {
          "internalType": "enum IRoyaltyGuard.ListType",
          "name": "",
          "type": "uint8"
        }
      ],
      "stateMutability": "view",
      "type": "function"
    },
    {
      "inputs": [],
      "name": "getMintConfig",
      "outputs": [
        {
          "components": [
            {
              "internalType": "uint256",
              "name": "numberOfTokens",
              "type": "uint256"
            },
            {
              "internalType": "string",
              "name": "baseURI",
              "type": "string"
            },
            {
              "internalType": "bool",
              "name": "lockedMetadata",
              "type": "bool"
            }
          ],
          "internalType": "struct LazySovereignNFT.MintConfig",
          "name": "",
          "type": "tuple"
        }
      ],
      "stateMutability": "view",
      "type": "function"
    },
    {
      "inputs": [
        {
          "internalType": "address",
          "name": "_addr",
          "type": "address"
        }
      ],
      "name": "hasAdminPermission",
      "outputs": [
        {
          "internalType": "bool",
          "name": "",
          "type": "bool"
        }
      ],
      "stateMutability": "view",
      "type": "function"
    },
    {
      "inputs": [
        {
          "internalType": "string",
          "name": "_name",
          "type": "string"
        },
        {
          "internalType": "string",
          "name": "_symbol",
          "type": "string"
        },
        {
          "internalType": "address",
          "name": "_creator",
          "type": "address"
        },
        {
          "internalType": "uint256",
          "name": "_maxTokens",
          "type": "uint256"
        }
      ],
      "name": "init",
      "outputs": [],
      "stateMutability": "nonpayable",
      "type": "function"
    },
    {
      "inputs": [
        {
          "internalType": "address",
          "name": "owner",
          "type": "address"
        },
        {
          "internalType": "address",
          "name": "operator",
          "type": "address"
        }
      ],
      "name": "isApprovedForAll",
      "outputs": [
        {
          "internalType": "bool",
          "name": "",
          "type": "bool"
        }
      ],
      "stateMutability": "view",
      "type": "function"
    },
    {
      "inputs": [
        {
          "internalType": "address",
          "name": "_address",
          "type": "address"
        }
      ],
      "name": "isApprovedMinter",
      "outputs": [
        {
          "internalType": "bool",
          "name": "",
          "type": "bool"
        }
      ],
      "stateMutability": "view",
      "type": "function"
    },
    {
      "inputs": [
        {
          "internalType": "address",
          "name": "_operator",
          "type": "address"
        }
      ],
      "name": "isOperatorInList",
      "outputs": [
        {
          "internalType": "bool",
          "name": "",
          "type": "bool"
        }
      ],
      "stateMutability": "view",
      "type": "function"
    },
    {
      "inputs": [],
      "name": "lockBaseURI",
      "outputs": [],
      "stateMutability": "nonpayable",
      "type": "function"
    },
    {
      "inputs": [],
      "name": "maxTokens",
      "outputs": [
        {
          "internalType": "uint256",
          "name": "",
          "type": "uint256"
        }
      ],
      "stateMutability": "view",
      "type": "function"
    },
    {
      "inputs": [
        {
          "internalType": "address",
          "name": "_receiver",
          "type": "address"
        }
      ],
      "name": "mintTo",
      "outputs": [
        {
          "internalType": "uint256",
          "name": "",
          "type": "uint256"
        }
      ],
      "stateMutability": "nonpayable",
      "type": "function"
    },
    {
      "inputs": [],
      "name": "name",
      "outputs": [
        {
          "internalType": "string",
          "name": "",
          "type": "string"
        }
      ],
      "stateMutability": "view",
      "type": "function"
    },
    {
      "inputs": [],
      "name": "owner",
      "outputs": [
        {
          "internalType": "address",
          "name": "",
          "type": "address"
        }
      ],
      "stateMutability": "view",
      "type": "function"
    },
    {
      "inputs": [
        {
          "internalType": "uint256",
          "name": "tokenId",
          "type": "uint256"
        }
      ],
      "name": "ownerOf",
      "outputs": [
        {
          "internalType": "address",
          "name": "",
          "type": "address"
        }
      ],
      "stateMutability": "view",
      "type": "function"
    },
    {
      "inputs": [
        {
          "internalType": "string",
          "name": "_baseURI",
          "type": "string"
        },
        {
          "internalType": "uint256",
          "name": "_numberOfTokens",
          "type": "uint256"
        }
      ],
      "name": "prepareMint",
      "outputs": [],
      "stateMutability": "nonpayable",
      "type": "function"
    },
    {
      "inputs": [
        {
          "internalType": "string",
          "name": "_baseURI",
          "type": "string"
        },
        {
          "internalType": "uint256",
          "name": "_numberOfTokens",
          "type": "uint256"
        },
        {
          "internalType": "address",
          "name": "_minter",
          "type": "address"
        }
      ],
      "name": "prepareMintWithMinter",
      "outputs": [],
      "stateMutability": "nonpayable",
      "type": "function"
    },
    {
      "inputs": [],
      "name": "renounceOwnership",
      "outputs": [],
      "stateMutability": "nonpayable",
      "type": "function"
    },
    {
      "inputs": [
        {
          "internalType": "uint256",
          "name": "_tokenId",
          "type": "uint256"
        },
        {
          "internalType": "uint256",
          "name": "_salePrice",
          "type": "uint256"
        }
      ],
      "name": "royaltyInfo",
      "outputs": [
        {
          "internalType": "address",
          "name": "receiver",
          "type": "address"
        },
        {
          "internalType": "uint256",
          "name": "royaltyAmount",
          "type": "uint256"
        }
      ],
      "stateMutability": "view",
      "type": "function"
    },
    {
      "inputs": [
        {
          "internalType": "address",
          "name": "from",
          "type": "address"
        },
        {
          "internalType": "address",
          "name": "to",
          "type": "address"
        },
        {
          "internalType": "uint256",
          "name": "tokenId",
          "type": "uint256"
        }
      ],
      "name": "safeTransferFrom",
      "outputs": [],
      "stateMutability": "nonpayable",
      "type": "function"
    },
    {
      "inputs": [
        {
          "internalType": "address",
          "name": "from",
          "type": "address"
        },
        {
          "internalType": "address",
          "name": "to",
          "type": "address"
        },
        {
          "internalType": "uint256",
          "name": "tokenId",
          "type": "uint256"
        },
        {
          "internalType": "bytes",
          "name": "_data",
          "type": "bytes"
        }
      ],
      "name": "safeTransferFrom",
      "outputs": [],
      "stateMutability": "nonpayable",
      "type": "function"
    },
    {
      "inputs": [
        {
          "internalType": "address",
          "name": "_operator",
          "type": "address"
        },
        {
          "internalType": "bool",
          "name": "_approved",
          "type": "bool"
        }
      ],
      "name": "setApprovalForAll",
      "outputs": [],
      "stateMutability": "nonpayable",
      "type": "function"
    },
    {
      "inputs": [
        {
          "internalType": "address",
          "name": "_receiver",
          "type": "address"
        }
      ],
      "name": "setDefaultRoyaltyReceiver",
      "outputs": [],
      "stateMutability": "nonpayable",
      "type": "function"
    },
    {
      "inputs": [
        {
          "internalType": "address",
          "name": "_receiver",
          "type": "address"
        },
        {
          "internalType": "uint256",
          "name": "_tokenId",
          "type": "uint256"
        }
      ],
      "name": "setRoyaltyReceiverForToken",
      "outputs": [],
      "stateMutability": "nonpayable",
      "type": "function"
    },
    {
      "inputs": [
        {
          "internalType": "bytes4",
          "name": "_interfaceId",
          "type": "bytes4"
        }
      ],
      "name": "supportsInterface",
      "outputs": [
        {
          "internalType": "bool",
          "name": "",
          "type": "bool"
        }
      ],
      "stateMutability": "view",
      "type": "function"
    },
    {
      "inputs": [],
      "name": "symbol",
      "outputs": [
        {
          "internalType": "string",
          "name": "",
          "type": "string"
        }
      ],
      "stateMutability": "view",
      "type": "function"
    },
    {
      "inputs": [
        {
          "internalType": "enum IRoyaltyGuard.ListType",
          "name": "_newListType",
          "type": "uint8"
        }
      ],
      "name": "toggleListType",
      "outputs": [],
      "stateMutability": "nonpayable",
      "type": "function"
    },
    {
      "inputs": [
        {
          "internalType": "uint256",
          "name": "_tokenId",
          "type": "uint256"
        }
      ],
      "name": "tokenCreator",
      "outputs": [
        {
          "internalType": "address payable",
          "name": "",
          "type": "address"
        }
      ],
      "stateMutability": "view",
      "type": "function"
    },
    {
      "inputs": [
        {
          "internalType": "uint256",
          "name": "_tokenId",
          "type": "uint256"
        }
      ],
      "name": "tokenURI",
      "outputs": [
        {
          "internalType": "string",
          "name": "",
          "type": "string"
        }
      ],
      "stateMutability": "view",
      "type": "function"
    },
    {
      "inputs": [],
      "name": "totalSupply",
      "outputs": [
        {
          "internalType": "uint256",
          "name": "",
          "type": "uint256"
        }
      ],
      "stateMutability": "view",
      "type": "function"
    },
    {
      "inputs": [
        {
          "internalType": "address",
          "name": "from",
          "type": "address"
        },
        {
          "internalType": "address",
          "name": "to",
          "type": "address"
        },
        {
          "internalType": "uint256",
          "name": "tokenId",
          "type": "uint256"
        }
      ],
      "name": "transferFrom",
      "outputs": [],
      "stateMutability": "nonpayable",
      "type": "function"
    },
    {
      "inputs": [
        {
          "internalType": "address",
          "name": "newOwner",
          "type": "address"
        }
      ],
      "name": "transferOwnership",
      "outputs": [],
      "stateMutability": "nonpayable",
      "type": "function"
    },
    {
      "inputs": [
        {
          "internalType": "string",
          "name": "_baseURI",
          "type": "string"
        }
      ],
      "name": "updateBaseURI",
      "outputs": [],
      "stateMutability": "nonpayable",
      "type": "function"
    }
  ],
  "bytecode": {
    "object": "0x608060405234801561001057600080fd5b506135a7806100206000396000f3fe608060405234801561001057600080fd5b506004361061027f5760003560e01c8063715018a61161015c578063b390ac25116100ce578063e985e9c511610087578063e985e9c51461059b578063eab85118146105ae578063ee070805146105c1578063efc32cd4146105cd578063f2fde38b146105e0578063ff6e8c8f146105f357600080fd5b8063b390ac2514610532578063b88d4fde14610545578063b9fbd25c14610558578063bc7194551461056b578063c87b56dd1461057e578063e83157421461059157600080fd5b8063931688cb11610120578063931688cb146104d45780639338bb5d146104e757806395d89b41146104fc5780639e860f2a14610504578063a22cb46514610517578063ab69607a1461052a57600080fd5b8063715018a61461048c578063755edd171461049457806387bc793f146104a7578063894ba833146104bb5780638da5cb5b146104c357600080fd5b80633a3d146f116101f5578063472a6638116101b9578063472a66381461042557806353df5c7c146104385780635edc7c19146104405780636297c16c146104535780636352211e1461046657806370a082311461047957600080fd5b80633a3d146f146103ac5780633ebc82c5146103d957806340c1a064146103ec57806342842e0e146103ff57806342966c681461041257600080fd5b806318160ddd1161024757806318160ddd14610325578063204274861461033b57806323b872dd1461034e5780632a55205a146103615780632ce878da146103935780633403c4e91461039b57600080fd5b8063012cf1e81461028457806301ffc9a7146102ad57806306fdde03146102d0578063081812fc146102e5578063095ea7b314610310575b600080fd5b61029761029236600461292f565b610606565b6040516102a4919061294a565b60405180910390f35b6102c06102bb3660046129ad565b61064c565b60405190151581526020016102a4565b6102d8610666565b6040516102a49190612a22565b6102f86102f3366004612a35565b6106f8565b6040516001600160a01b0390911681526020016102a4565b61032361031e366004612a65565b610792565b005b61032d610867565b6040519081526020016102a4565b6102c0610349366004612a8f565b610878565b61032361035c366004612aaa565b6108a7565b61037461036f366004612ae6565b6108d9565b604080516001600160a01b0390931683526020830191909152016102a4565b610297610974565b60fb546001600160a01b03166102f8565b6102c06103ba366004612a8f565b6001600160a01b03166000908152610102602052604090205460ff1690565b6103236103e7366004612a8f565b61099a565b6102f86103fa366004612a35565b6109d0565b61032361040d366004612aaa565b6109e4565b610323610420366004612a35565b6109ff565b61032361043336600461292f565b610a76565b610323610aa5565b61032361044e366004612b51565b610b19565b610323610461366004612a35565b610c99565b6102f8610474366004612a35565b610d02565b61032d610487366004612a8f565b610d79565b610323610dff565b61032d6104a2366004612a8f565b610e35565b6101085460ff166040516102a49190612bf0565b610323610f0b565b6033546001600160a01b03166102f8565b6103236104e2366004612c18565b610f6f565b6104ef611043565b6040516102a49190612c5a565b6102d8611127565b610323610512366004612c98565b611136565b610323610525366004612d1e565b611199565b60fc5461032d565b610323610540366004612d5a565b611240565b610323610553366004612dbc565b611297565b610323610566366004612e98565b6112cf565b61032361057936600461292f565b61134e565b6102d861058c366004612a35565b611403565b61032d6101005481565b6102c06105a9366004612ef5565b611438565b6102c06105bc366004612a8f565b611466565b60ff80546102c0911681565b6103236105db366004612a65565b61148d565b6103236105ee366004612a8f565b6114e5565b610323610601366004612c98565b61157d565b6060610646610107600084600281111561062257610622612bda565b600281111561063357610633612bda565b8152602001908152602001600020611615565b92915050565b600061065782611629565b8061064657506106468261164e565b60606097805461067590612f1f565b80601f01602080910402602001604051908101604052809291908181526020018280546106a190612f1f565b80156106ee5780601f106106c3576101008083540402835291602001916106ee565b820191906000526020600020905b8154815290600101906020018083116106d157829003601f168201915b5050505050905090565b6000818152609960205260408120546001600160a01b03166107765760405162461bcd60e51b815260206004820152602c60248201527f4552433732313a20617070726f76656420717565727920666f72206e6f6e657860448201526b34b9ba32b73a103a37b5b2b760a11b60648201526084015b60405180910390fd5b506000908152609b60205260409020546001600160a01b031690565b8160016101085460ff1660028111156107ad576107ad612bda565b0361080c576107eb81610107600060015b60028111156107cf576107cf612bda565b815260200190815260200160002061169190919063ffffffff16565b610807576040516282b42960e81b815260040160405180910390fd5b610858565b60026101085460ff16600281111561082657610826612bda565b036108585761083b81610107600060026107be565b15610858576040516282b42960e81b815260040160405180910390fd5b61086283836116b3565b505050565b60006108736101035490565b905090565b600061088c6033546001600160a01b031690565b6001600160a01b0316826001600160a01b0316149050919050565b6108b2335b826117c3565b6108ce5760405162461bcd60e51b815260040161076d90612f59565b61086283838361189a565b600082815260fd602052604081205481906001600160a01b03166109085760fb546001600160a01b0316610921565b600084815260fd60205260409020546001600160a01b03165b915061096b606461096560fe60008881526020019081526020016000205460000361094e5760fc5461095e565b600087815260fe60205260409020545b8690611a36565b90611a42565b90509250929050565b61010854606090610873906101079060009060ff16600281111561062257610622612bda565b6033546001600160a01b031633146109c45760405162461bcd60e51b815260040161076d90612faa565b6109cd81611a4e565b50565b60006106466033546001600160a01b031690565b61086283838360405180602001604052806000815250611297565b610a08336108ac565b610a6d5760405162461bcd60e51b815260206004820152603060248201527f4552433732314275726e61626c653a2063616c6c6572206973206e6f74206f7760448201526f1b995c881b9bdc88185c1c1c9bdd995960821b606482015260840161076d565b6109cd81611a70565b610a7f33610878565b610a9c57604051635c510c8360e11b815260040160405180910390fd5b6109cd81611b0c565b6033546001600160a01b03163314610acf5760405162461bcd60e51b815260040161076d90612faa565b6040517fb634b0cb94234b05eabb1438717e0e645bfd84788ae1263682242327563cde5e90610b019061010590612fdf565b60405180910390a1610106805460ff19166001179055565b6000610b256001611b89565b90508015610b3d576000805461ff0019166101001790555b6001600160a01b038316610b935760405162461bcd60e51b815260206004820152601e60248201527f63726561746f722063616e6e6f74206265206e756c6c20616464726573730000604482015260640161076d565b610b9d600a60fc55565b60ff805460ff19169055610100829055610bb5611c11565b610c2887878080601f01602080910402602001604051908101604052809392919081815260200183838082843760009201919091525050604080516020601f8b018190048102820181019092528981529250899150889081908401838280828437600092019190915250611c4092505050565b610c30611c71565b610c38611c98565b610c4183611a4e565b610c4a836114e5565b8015610c90576000805461ff0019169055604051600181527f7f26b83ff96e1f2b6a682f133852f6798a09c465da95921460cefb38474024989060200160405180910390a15b50505050505050565b33610ca382610d02565b6001600160a01b031614610cf95760405162461bcd60e51b815260206004820152601f60248201527f4d75737420626520746865206f776e6572206f662074686520746f6b656e2e00604482015260640161076d565b6109cd816109ff565b6000818152609960205260408120546001600160a01b0316806106465760405162461bcd60e51b815260206004820152602960248201527f4552433732313a206f776e657220717565727920666f72206e6f6e657869737460448201526832b73a103a37b5b2b760b91b606482015260840161076d565b60006001600160a01b038216610de35760405162461bcd60e51b815260206004820152602960248201527f4552433732313a2061646472657373207a65726f206973206e6f7420612076616044820152683634b21037bbb732b960b91b606482015260840161076d565b506001600160a01b03166000908152609a602052604090205490565b6033546001600160a01b03163314610e295760405162461bcd60e51b815260040161076d90612faa565b610e336000611cc7565b565b60ff80546000911615610e5a5760405162461bcd60e51b815260040161076d9061306a565b6033546001600160a01b0316331480610e835750336000908152610102602052604090205460ff165b610ee85760405162461bcd60e51b815260206004820152603060248201527f6c617a794d696e743a3a6f6e6c79206f776e6572206f7220617070726f76656460448201526f081b5a5b9d195c8818d85b881b5a5b9d60821b606482015260840161076d565b61064682610ef560fc5490565b60fb546001600160a01b0316611d19565b919050565b6033546001600160a01b03163314610f355760405162461bcd60e51b815260040161076d90612faa565b60ff805460ff1916600117905560405133907f793bc6423dd0257d64f9d47db72fd4b2162f4541aa41740ba1c5fb5e2cd41bcd90600090a2565b6033546001600160a01b03163314610f995760405162461bcd60e51b815260040161076d90612faa565b6101065460ff1615610ff75760405162461bcd60e51b815260206004820152602160248201527f757064617465426173655552493a3a6d65746164617461206973206c6f636b656044820152601960fa1b606482015260840161076d565b6101056110058284836130ef565b507f1c306e70c05992619e2128ad1ef88df75f36c9476282e59f51401b2abaa42e4e82826040516110379291906131b0565b60405180910390a15050565b611069604051806060016040528060008152602001606081526020016000151581525090565b604080516060810190915261010480548252610105805460208401919061108f90612f1f565b80601f01602080910402602001604051908101604052809291908181526020018280546110bb90612f1f565b80156111085780601f106110dd57610100808354040283529160200191611108565b820191906000526020600020905b8154815290600101906020018083116110eb57829003601f168201915b50505091835250506002919091015460ff161515602090910152919050565b60606098805461067590612f1f565b61113f33610878565b61115c57604051635c510c8360e11b815260040160405180910390fd5b6108628383838080602002602001604051908101604052809392919081815260200183836020028082843760009201829052509250611dd5915050565b8160016101085460ff1660028111156111b4576111b4612bda565b036111ea576111c981610107600060016107be565b6111e5576040516282b42960e81b815260040160405180910390fd5b611236565b60026101085460ff16600281111561120457611204612bda565b036112365761121981610107600060026107be565b15611236576040516282b42960e81b815260040160405180910390fd5b6108628383611fb2565b6033546001600160a01b0316331461126a5760405162461bcd60e51b815260040161076d90612faa565b60ff8054161561128c5760405162461bcd60e51b815260040161076d9061306a565b610862838383611fbd565b6112a133836117c3565b6112bd5760405162461bcd60e51b815260040161076d90612f59565b6112c98484848461213f565b50505050565b6033546001600160a01b031633146112f95760405162461bcd60e51b815260040161076d90612faa565b60ff8054161561131b5760405162461bcd60e51b815260040161076d9061306a565b611326848484611fbd565b6001600160a01b0316600090815261010260205260409020805460ff19166001179055505050565b61135733610878565b61137457604051635c510c8360e11b815260040160405180910390fd5b610107600082600281111561138b5761138b612bda565b600281111561139c5761139c612bda565b8152602081019190915260400160009081209081816113bb82826128ee565b50505050336001600160a01b03167f7efc19cf93d497a6a56103ea89a39d51c0cad74a817ed3cd0ecaff9823d4da24826040516113f89190612bf0565b60405180910390a250565b606061010561141183612172565b6040516020016114229291906131df565b6040516020818303038152906040529050919050565b6001600160a01b039182166000908152609c6020908152604080832093909416825291909152205460ff1690565b6101085460009061064690839061010790849060ff1660028111156107be576107be612bda565b6033546001600160a01b031633146114b75760405162461bcd60e51b815260040161076d90612faa565b600090815260fd6020526040902080546001600160a01b0319166001600160a01b0392909216919091179055565b6033546001600160a01b0316331461150f5760405162461bcd60e51b815260040161076d90612faa565b6001600160a01b0381166115745760405162461bcd60e51b815260206004820152602660248201527f4f776e61626c653a206e6577206f776e657220697320746865207a65726f206160448201526564647265737360d01b606482015260840161076d565b6109cd81611cc7565b61158633610878565b6115a357604051635c510c8360e11b815260040160405180910390fd5b60008360028111156115b7576115b7612bda565b036115d557604051632de777a160e11b815260040160405180910390fd5b6108628383838080602002602001604051908101604052809392919081815260200183836020028082843760009201919091525060019250611dd5915050565b6060600061162283612273565b9392505050565b60006001600160e01b0319821663fa31a45b60e01b14806106465750610646826122cf565b60006001600160e01b03198216631030681960e21b14806116735750611673826122cf565b806116825750611682826122e5565b80610646575061064682612306565b6001600160a01b03811660009081526001830160205260408120541515611622565b60006116be82610d02565b9050806001600160a01b0316836001600160a01b03160361172b5760405162461bcd60e51b815260206004820152602160248201527f4552433732313a20617070726f76616c20746f2063757272656e74206f776e656044820152603960f91b606482015260840161076d565b336001600160a01b038216148061174757506117478133611438565b6117b95760405162461bcd60e51b815260206004820152603860248201527f4552433732313a20617070726f76652063616c6c6572206973206e6f74206f7760448201527f6e6572206e6f7220617070726f76656420666f7220616c6c0000000000000000606482015260840161076d565b6108628383612346565b6000818152609960205260408120546001600160a01b031661183c5760405162461bcd60e51b815260206004820152602c60248201527f4552433732313a206f70657261746f7220717565727920666f72206e6f6e657860448201526b34b9ba32b73a103a37b5b2b760a11b606482015260840161076d565b600061184783610d02565b9050806001600160a01b0316846001600160a01b0316148061186e575061186e8185611438565b806118925750836001600160a01b0316611887846106f8565b6001600160a01b0316145b949350505050565b826001600160a01b03166118ad82610d02565b6001600160a01b0316146119115760405162461bcd60e51b815260206004820152602560248201527f4552433732313a207472616e736665722066726f6d20696e636f72726563742060448201526437bbb732b960d91b606482015260840161076d565b6001600160a01b0382166119735760405162461bcd60e51b8152602060048201526024808201527f4552433732313a207472616e7366657220746f20746865207a65726f206164646044820152637265737360e01b606482015260840161076d565b61197e600082612346565b6001600160a01b0383166000908152609a602052604081208054600192906119a790849061329b565b90915550506001600160a01b0382166000908152609a602052604081208054600192906119d59084906132b2565b909155505060008181526099602052604080822080546001600160a01b0319166001600160a01b0386811691821790925591518493918716917fddf252ad1be2c89b69c2b068fc378daa952ba7f163c4a11628f55a4df523b3ef91a4505050565b600061162282846132ca565b600061162282846132ff565b60fb80546001600160a01b0319166001600160a01b0392909216919091179055565b6000611a7b82610d02565b9050611a88600083612346565b6001600160a01b0381166000908152609a60205260408120805460019290611ab190849061329b565b909155505060008281526099602052604080822080546001600160a01b0319169055518391906001600160a01b038416907fddf252ad1be2c89b69c2b068fc378daa952ba7f163c4a11628f55a4df523b3ef908390a45b5050565b806002811115611b1e57611b1e612bda565b6101085460ff166002811115611b3657611b36612bda565b60405133907f12282389323caf08dd4e02c490ef05bc7edb56967c085742687aad3cc81aa15f90600090a4610108805482919060ff19166001836002811115611b8157611b81612bda565b021790555050565b60008054610100900460ff1615611bd0578160ff166001148015611bac5750303b155b611bc85760405162461bcd60e51b815260040161076d90613313565b506000919050565b60005460ff808416911610611bf75760405162461bcd60e51b815260040161076d90613313565b506000805460ff191660ff92909216919091179055600190565b600054610100900460ff16611c385760405162461bcd60e51b815260040161076d90613361565b610e336123b4565b600054610100900460ff16611c675760405162461bcd60e51b815260040161076d90613361565b611b0882826123e4565b600054610100900460ff16610e335760405162461bcd60e51b815260040161076d90613361565b600054610100900460ff16611cbf5760405162461bcd60e51b815260040161076d90613361565b610e33611c71565b603380546001600160a01b038381166001600160a01b0319831681179093556040519116919082907f8be0079c531659141344cd1fd0a4f28419497f9722a3daafe3b4186f6b6457e090600090a35050565b6000611d2a61010380546001019055565b6000611d366101035490565b905061010054811115611d8b5760405162461bcd60e51b815260206004820181905260248201527f5f637265617465546f6b656e3a3a6578636565646564206d6178546f6b656e73604482015260640161076d565b611d958582612424565b600081815260fe60205260409020849055600081815260fd6020526040902080546001600160a01b0319166001600160a01b038516179055949350505050565b6000836002811115611de957611de9612bda565b146108625760005b82518110156112c9578115611ed257611e61838281518110611e1557611e156133ac565b60200260200101516101076000876002811115611e3457611e34612bda565b6002811115611e4557611e45612bda565b815260200190815260200160002061243e90919063ffffffff16565b50836002811115611e7457611e74612bda565b838281518110611e8657611e866133ac565b60200260200101516001600160a01b0316336001600160a01b03167f14155f749dc3f9cd2bf890d6d3a47069f77ae35befcee11c8b1a3ba41cba153660405160405180910390a4611fa0565b611f33838281518110611ee757611ee76133ac565b60200260200101516101076000876002811115611f0657611f06612bda565b6002811115611f1757611f17612bda565b815260200190815260200160002061245390919063ffffffff16565b50836002811115611f4657611f46612bda565b838281518110611f5857611f586133ac565b60200260200101516001600160a01b0316336001600160a01b03167fc72e29af1b34de3dec3a764b4ca4d85b9c380ab33b9b268d29b6e7008bd0ed9560405160405180910390a45b80611faa816133c2565b915050611df1565b611b08338383612468565b610100548111156120105760405162461bcd60e51b815260206004820181905260248201527f5f707265706172654d696e743a3a6578636565646564206d6178546f6b656e73604482015260640161076d565b610103541561207b5760405162461bcd60e51b815260206004820152603160248201527f5f707265706172654d696e743a3a63616e206f6e6c792070726570617265206d604482015270696e742077697468203020746f6b656e7360781b606482015260840161076d565b604051806060016040528082815260200184848080601f0160208091040260200160405190810160405280939291908181526020018383808284376000920182905250938552505050602091820152815161010490815590820151610105906120e490826133db565b50604091820151600291909101805460ff19169115159190911790555181907f6f1d651e6e0c8f86bd32a20c22a644d1e34fabf72307ff95d51b9f5892ddba199061213290869086906131b0565b60405180910390a2505050565b61214a84848461189a565b61215684848484612536565b6112c95760405162461bcd60e51b815260040161076d9061349b565b6060816000036121995750506040805180820190915260018152600360fc1b602082015290565b8160005b81156121c357806121ad816133c2565b91506121bc9050600a836132ff565b915061219d565b60008167ffffffffffffffff8111156121de576121de612da6565b6040519080825280601f01601f191660200182016040528015612208576020820181803683370190505b5090505b84156118925761221d60018361329b565b915061222a600a866134ed565b6122359060306132b2565b60f81b81838151811061224a5761224a6133ac565b60200101906001600160f81b031916908160001a90535061226c600a866132ff565b945061220c565b6060816000018054806020026020016040519081016040528092919081815260200182805480156122c357602002820191906000526020600020905b8154815260200190600101908083116122af575b50505050509050919050565b6001600160e01b0319166301ffc9a760e01b1490565b60006001600160e01b0319821663152a902d60e11b14806106465750610646825b60006001600160e01b031982166380ac58cd60e01b148061233757506001600160e01b03198216635b5e139f60e01b145b806106465750610646826122cf565b6000818152609b6020526040902080546001600160a01b0319166001600160a01b038416908117909155819061237b82610d02565b6001600160a01b03167f8c5be1e5ebec7d5bd14f71427d1e84f3dd0314c0f7b2291e5b200ac8c7c3b92560405160405180910390a45050565b600054610100900460ff166123db5760405162461bcd60e51b815260040161076d90613361565b610e3333611cc7565b600054610100900460ff1661240b5760405162461bcd60e51b815260040161076d90613361565b609761241783826133db565b50609861086282826133db565b611b08828260405180602001604052806000815250612637565b6000611622836001600160a01b03841661266a565b6000611622836001600160a01b0384166126b9565b816001600160a01b0316836001600160a01b0316036124c95760405162461bcd60e51b815260206004820152601960248201527f4552433732313a20617070726f766520746f2063616c6c657200000000000000604482015260640161076d565b6001600160a01b038381166000818152609c6020908152604080832094871680845294825291829020805460ff191686151590811790915591519182527f17307eab39ab6107e8899845ad3d59bd9653f200f220920489ca2b5937696c31910160405180910390a3505050565b60006001600160a01b0384163b1561262c57604051630a85bd0160e11b81526001600160a01b0385169063150b7a029061257a903390899088908890600401613501565b6020604051808303816000875af19250505080156125b5575060408051601f3d908101601f191682019092526125b29181019061353e565b60015b612612573d8080156125e3576040519150601f19603f3d011682016040523d82523d6000602084013e6125e8565b606091505b50805160000361260a5760405162461bcd60e51b815260040161076d9061349b565b805181602001fd5b6001600160e01b031916630a85bd0160e11b149050611892565b506001949350505050565b61264183836127ac565b61264e6000848484612536565b6108625760405162461bcd60e51b815260040161076d9061349b565b60008181526001830160205260408120546126b157508154600181810184556000848152602080822090930184905584548482528286019093526040902091909155610646565b506000610646565b600081815260018301602052604081205480156127a25760006126dd60018361329b565b85549091506000906126f19060019061329b565b9050818114612756576000866000018281548110612711576127116133ac565b9060005260206000200154905080876000018481548110612734576127346133ac565b6000918252602080832090910192909255918252600188019052604090208390555b85548690806127675761276761355b565b600190038181906000526020600020016000905590558560010160008681526020019081526020016000206000905560019350505050610646565b6000915050610646565b6001600160a01b0382166128025760405162461bcd60e51b815260206004820181905260248201527f4552433732313a206d696e7420746f20746865207a65726f2061646472657373604482015260640161076d565b6000818152609960205260409020546001600160a01b0316156128675760405162461bcd60e51b815260206004820152601c60248201527f4552433732313a20746f6b656e20616c7265616479206d696e74656400000000604482015260640161076d565b6001600160a01b0382166000908152609a602052604081208054600192906128909084906132b2565b909155505060008181526099602052604080822080546001600160a01b0319166001600160a01b03861690811790915590518392907fddf252ad1be2c89b69c2b068fc378daa952ba7f163c4a11628f55a4df523b3ef908290a45050565b50805460008255906000526020600020908101906109cd91905b8082111561291c5760008155600101612908565b5090565b803560038110610f0657600080fd5b60006020828403121561294157600080fd5b61162282612920565b6020808252825182820181905260009190848201906040850190845b8181101561298b5783516001600160a01b031683529284019291840191600101612966565b50909695505050505050565b6001600160e01b0319811681146109cd57600080fd5b6000602082840312156129bf57600080fd5b813561162281612997565b60005b838110156129e55781810151838201526020016129cd565b838111156112c95750506000910152565b60008151808452612a0e8160208601602086016129ca565b601f01601f19169290920160200192915050565b60208152600061162260208301846129f6565b600060208284031215612a4757600080fd5b5035919050565b80356001600160a01b0381168114610f0657600080fd5b60008060408385031215612a7857600080fd5b612a8183612a4e565b946020939093013593505050565b600060208284031215612aa157600080fd5b61162282612a4e565b600080600060608486031215612abf57600080fd5b612ac884612a4e565b9250612ad660208501612a4e565b9150604084013590509250925092565b60008060408385031215612af957600080fd5b50508035926020909101359150565b60008083601f840112612b1a57600080fd5b50813567ffffffffffffffff811115612b3257600080fd5b602083019150836020828501011115612b4a57600080fd5b9250929050565b60008060008060008060808789031215612b6a57600080fd5b863567ffffffffffffffff80821115612b8257600080fd5b612b8e8a838b01612b08565b90985096506020890135915080821115612ba757600080fd5b50612bb489828a01612b08565b9095509350612bc7905060408801612a4e565b9150606087013590509295509295509295565b634e487b7160e01b600052602160045260246000fd5b6020810160038310612c1257634e487b7160e01b600052602160045260246000fd5b91905290565b60008060208385031215612c2b57600080fd5b823567ffffffffffffffff811115612c4257600080fd5b612c4e85828601612b08565b90969095509350505050565b60208152815160208201526000602083015160606040840152612c8060808401826129f6565b90506040840151151560608401528091505092915050565b600080600060408486031215612cad57600080fd5b612cb684612920565b9250602084013567ffffffffffffffff80821115612cd357600080fd5b818601915086601f830112612ce757600080fd5b813581811115612cf657600080fd5b8760208260051b8501011115612d0b57600080fd5b6020830194508093505050509250925092565b60008060408385031215612d3157600080fd5b612d3a83612a4e565b915060208301358015158114612d4f57600080fd5b809150509250929050565b600080600060408486031215612d6f57600080fd5b833567ffffffffffffffff811115612d8657600080fd5b612d9286828701612b08565b909790965060209590950135949350505050565b634e487b7160e01b600052604160045260246000fd5b60008060008060808587031215612dd257600080fd5b612ddb85612a4e565b9350612de960208601612a4e565b925060408501359150606085013567ffffffffffffffff80821115612e0d57600080fd5b818701915087601f830112612e2157600080fd5b813581811115612e3357612e33612da6565b604051601f8201601f19908116603f01168101908382118183101715612e5b57612e5b612da6565b816040528281528a6020848701011115612e7457600080fd5b82602086016020830137600060208483010152809550505050505092959194509250565b60008060008060608587031215612eae57600080fd5b843567ffffffffffffffff811115612ec557600080fd5b612ed187828801612b08565b90955093505060208501359150612eea60408601612a4e565b905092959194509250565b60008060408385031215612f0857600080fd5b612f1183612a4e565b915061096b60208401612a4e565b600181811c90821680612f3357607f821691505b602082108103612f5357634e487b7160e01b600052602260045260246000fd5b50919050565b60208082526031908201527f4552433732313a207472616e736665722063616c6c6572206973206e6f74206f6040820152701ddb995c881b9bdc88185c1c1c9bdd9959607a1b606082015260800190565b6020808252818101527f4f776e61626c653a2063616c6c6572206973206e6f7420746865206f776e6572604082015260600190565b6000602080835260008454612ff381612f1f565b80848701526040600180841660008114613014576001811461302e5761305c565b60ff1985168984015283151560051b89018301955061305c565b896000528660002060005b858110156130545781548b8201860152908301908801613039565b8a0184019650505b509398975050505050505050565b6020808252601e908201527f436f6e7472616374206d757374206e6f742062652064697361626c65642e0000604082015260600190565b601f82111561086257600081815260208120601f850160051c810160208610156130c85750805b601f850160051c820191505b818110156130e7578281556001016130d4565b505050505050565b67ffffffffffffffff83111561310757613107612da6565b61311b836131158354612f1f565b836130a1565b6000601f84116001811461314f57600085156131375750838201355b600019600387901b1c1916600186901b1783556131a9565b600083815260209020601f19861690835b828110156131805786850135825560209485019460019092019101613160565b508682101561319d5760001960f88860031b161c19848701351681555b505060018560011b0183555b5050505050565b60208152816020820152818360408301376000818301604090810191909152601f909201601f19160101919050565b60008084546131ed81612f1f565b60018281168015613205576001811461321a57613249565b60ff1984168752821515830287019450613249565b8860005260208060002060005b858110156132405781548a820152908401908201613227565b50505082870194505b50602f60f81b8452865192506132658382860160208a016129ca565b64173539b7b760d91b939092019182019290925260060195945050505050565b634e487b7160e01b600052601160045260246000fd5b6000828210156132ad576132ad613285565b500390565b600082198211156132c5576132c5613285565b500190565b60008160001904831182151516156132e4576132e4613285565b500290565b634e487b7160e01b600052601260045260246000fd5b60008261330e5761330e6132e9565b500490565b6020808252602e908201527f496e697469616c697a61626c653a20636f6e747261637420697320616c72656160408201526d191e481a5b9a5d1a585b1a5e995960921b606082015260800190565b6020808252602b908201527f496e697469616c697a61626c653a20636f6e7472616374206973206e6f74206960408201526a6e697469616c697a696e6760a81b606082015260800190565b634e487b7160e01b600052603260045260246000fd5b6000600182016133d4576133d4613285565b5060010190565b815167ffffffffffffffff8111156133f5576133f5612da6565b613409816134038454612f1f565b846130a1565b602080601f83116001811461343e57600084156134265750858301515b600019600386901b1c1916600185901b1785556130e7565b600085815260208120601f198616915b8281101561346d5788860151825594840194600190910190840161344e565b508582101561348b5787850151600019600388901b60f8161c191681555b5050505050600190811b01905550565b60208082526032908201527f4552433732313a207472616e7366657220746f206e6f6e20455243373231526560408201527131b2b4bb32b91034b6b83632b6b2b73a32b960711b606082015260800190565b6000826134fc576134fc6132e9565b500690565b6001600160a01b0385811682528416602082015260408101839052608060608201819052600090613534908301846129f6565b9695505050505050565b60006020828403121561355057600080fd5b815161162281612997565b634e487b7160e01b600052603160045260246000fdfea26469706673582212205d2cb6efbd3893db630b9d9a8b1cea6731c661c3212eeffe7a211528eb118abb64736f6c634300080f0033",
    "linkReferences": {}
  },
  "methodIdentifiers": {
    "approve(address,uint256)": "095ea7b3",
    "balanceOf(address)": "70a08231",
    "batchAddAddressToRoyaltyList(uint8,address[])": "ff6e8c8f",
    "batchRemoveAddressToRoyaltyList(uint8,address[])": "9e860f2a",
    "burn(uint256)": "42966c68",
    "clearList(uint8)": "bc719455",
    "deleteToken(uint256)": "6297c16c",
    "disableContract()": "894ba833",
    "disabled()": "ee070805",
    "getApproved(uint256)": "081812fc",
    "getDefaultRoyaltyPercentage()": "ab69607a",
    "getDefaultRoyaltyReceiver()": "3403c4e9",
    "getInUseList()": "2ce878da",
    "getList(uint8)": "012cf1e8",
    "getListType()": "87bc793f",
    "getMintConfig()": "9338bb5d",
    "hasAdminPermission(address)": "20427486",
    "init(string,string,address,uint256)": "5edc7c19",
    "isApprovedForAll(address,address)": "e985e9c5",
    "isApprovedMinter(address)": "3a3d146f",
    "isOperatorInList(address)": "eab85118",
    "lockBaseURI()": "53df5c7c",
    "maxTokens()": "e8315742",
    "mintTo(address)": "755edd17",
    "name()": "06fdde03",
    "owner()": "8da5cb5b",
    "ownerOf(uint256)": "6352211e",
    "prepareMint(string,uint256)": "b390ac25",
    "prepareMintWithMinter(string,uint256,address)": "b9fbd25c",
    "renounceOwnership()": "715018a6",
    "royaltyInfo(uint256,uint256)": "2a55205a",
    "safeTransferFrom(address,address,uint256)": "42842e0e",
    "safeTransferFrom(address,address,uint256,bytes)": "b88d4fde",
    "setApprovalForAll(address,bool)": "a22cb465",
    "setDefaultRoyaltyReceiver(address)": "3ebc82c5",
    "setRoyaltyReceiverForToken(address,uint256)": "efc32cd4",
    "supportsInterface(bytes4)": "01ffc9a7",
    "symbol()": "95d89b41",
    "toggleListType(uint8)": "472a6638",
    "tokenCreator(uint256)": "40c1a064",
    "tokenURI(uint256)": "c87b56dd",
    "totalSupply()": "18160ddd",
    "transferFrom(address,address,uint256)": "23b872dd",
    "transferOwnership(address)": "f2fde38b",
    "updateBaseURI(string)": "931688cb"
  },
  "id": 26
}