{
  "abi": [
    {
      "anonymous": false,
      "inputs": [
        {
          "indexed": true,
          "internalType": "address",
          "name": "owner",
          "type": "address"
        },
        {
          "indexed": true,
          "internalType": "address",
          "name": "approved",
          "type": "address"
        },
        {
          "indexed": true,
          "internalType": "uint256",
          "name": "tokenId",
          "type": "uint256"
        }
      ],
      "name": "Approval",
      "type": "event"
    },
    {
      "anonymous": false,
      "inputs": [
        {
          "indexed": true,
          "internalType": "address",
          "name": "owner",
          "type": "address"
        },
        {
          "indexed": true,
          "internalType": "address",
          "name": "operator",
          "type": "address"
        },
        {
          "indexed": false,
          "internalType": "bool",
          "name": "approved",
          "type": "bool"
        }
      ],
      "name": "ApprovalForAll",
      "type": "event"
    },
    {
      "anonymous": false,
      "inputs": [
        {
          "indexed": true,
          "internalType": "address",
          "name": "user",
          "type": "address"
        }
      ],
      "name": "ContractDisabled",
      "type": "event"
    },
    {
      "anonymous": false,
      "inputs": [
        {
          "indexed": false,
          "internalType": "uint8",
          "name": "version",
          "type": "uint8"
        }
      ],
      "name": "Initialized",
      "type": "event"
    },
    {
      "anonymous": false,
      "inputs": [
        {
          "indexed": false,
          "internalType": "string",
          "name": "baseURI",
          "type": "string"
        }
      ],
      "name": "MetadataLocked",
      "type": "event"
    },
    {
      "anonymous": false,
      "inputs": [
        {
          "indexed": false,
          "internalType": "string",
          "name": "baseURI",
          "type": "string"
        }
      ],
      "name": "MetadataUpdated",
      "type": "event"
    },
    {
      "anonymous": false,
      "inputs": [
        {
          "indexed": true,
          "internalType": "address",
          "name": "previousOwner",
          "type": "address"
        },
        {
          "indexed": true,
          "internalType": "address",
          "name": "newOwner",
          "type": "address"
        }
      ],
      "name": "OwnershipTransferred",
      "type": "event"
    },
    {
      "anonymous": false,
      "inputs": [
        {
          "indexed": true,
          "internalType": "uint256",
          "name": "numberOfTokens",
          "type": "uint256"
        },
        {
          "indexed": false,
          "internalType": "string",
          "name": "baseURI",
          "type": "string"
        }
      ],
      "name": "PrepareMint",
      "type": "event"
    },
    {
      "anonymous": false,
      "inputs": [
        {
          "indexed": true,
          "internalType": "address",
          "name": "from",
          "type": "address"
        },
        {
          "indexed": true,
          "internalType": "address",
          "name": "to",
          "type": "address"
        },
        {
          "indexed": true,
          "internalType": "uint256",
          "name": "tokenId",
          "type": "uint256"
        }
      ],
      "name": "Transfer",
      "type": "event"
    },
    {
      "inputs": [
        {
          "internalType": "address",
          "name": "to",
          "type": "address"
        },
        {
          "internalType": "uint256",
          "name": "tokenId",
          "type": "uint256"
        }
      ],
      "name": "approve",
      "outputs": [],
      "stateMutability": "nonpayable",
      "type": "function"
    },
    {
      "inputs": [
        {
          "internalType": "address",
          "name": "owner",
          "type": "address"
        }
      ],
      "name": "balanceOf",
      "outputs": [
        {
          "internalType": "uint256",
          "name": "",
          "type": "uint256"
        }
      ],
      "stateMutability": "view",
      "type": "function"
    },
    {
      "inputs": [
        {
          "internalType": "uint256",
          "name": "tokenId",
          "type": "uint256"
        }
      ],
      "name": "burn",
      "outputs": [],
      "stateMutability": "nonpayable",
      "type": "function"
    },
    {
      "inputs": [
        {
          "internalType": "uint256",
          "name": "_tokenId",
          "type": "uint256"
        }
      ],
      "name": "deleteToken",
      "outputs": [],
      "stateMutability": "nonpayable",
      "type": "function"
    },
    {
      "inputs": [],
      "name": "disableContract",
      "outputs": [],
      "stateMutability": "nonpayable",
      "type": "function"
    },
    {
      "inputs": [],
      "name": "disabled",
      "outputs": [
        {
          "internalType": "bool",
          "name": "",
          "type": "bool"
        }
      ],
      "stateMutability": "view",
      "type": "function"
    },
    {
      "inputs": [
        {
          "internalType": "uint256",
          "name": "tokenId",
          "type": "uint256"
        }
      ],
      "name": "getApproved",
      "outputs": [
        {
          "internalType": "address",
          "name": "",
          "type": "address"
        }
      ],
      "stateMutability": "view",
      "type": "function"
    },
    {
      "inputs": [],
      "name": "getDefaultRoyaltyPercentage",
      "outputs": [
        {
          "internalType": "uint256",
          "name": "",
          "type": "uint256"
        }
      ],
      "stateMutability": "view",
      "type": "function"
    },
    {
      "inputs": [],
      "name": "getDefaultRoyaltyReceiver",
      "outputs": [
        {
          "internalType": "address",
          "name": "",
          "type": "address"
        }
      ],
      "stateMutability": "view",
      "type": "function"
    },
    {
      "inputs": [],
      "name": "getMintConfig",
      "outputs": [
        {
          "components": [
            {
              "internalType": "uint256",
              "name": "numberOfTokens",
              "type": "uint256"
            },
            {
              "internalType": "string",
              "name": "baseURI",
              "type": "string"
            },
            {
              "internalType": "bool",
              "name": "lockedMetadata",
              "type": "bool"
            }
          ],
          "internalType": "struct LazySovereignNFT.MintConfig",
          "name": "",
          "type": "tuple"
        }
      ],
      "stateMutability": "view",
      "type": "function"
    },
    {
      "inputs": [
        {
          "internalType": "string",
          "name": "_name",
          "type": "string"
        },
        {
          "internalType": "string",
          "name": "_symbol",
          "type": "string"
        },
        {
          "internalType": "address",
          "name": "_creator",
          "type": "address"
        },
        {
          "internalType": "uint256",
          "name": "_maxTokens",
          "type": "uint256"
        }
      ],
      "name": "init",
      "outputs": [],
      "stateMutability": "nonpayable",
      "type": "function"
    },
    {
      "inputs": [
        {
          "internalType": "address",
          "name": "owner",
          "type": "address"
        },
        {
          "internalType": "address",
          "name": "operator",
          "type": "address"
        }
      ],
      "name": "isApprovedForAll",
      "outputs": [
        {
          "internalType": "bool",
          "name": "",
          "type": "bool"
        }
      ],
      "stateMutability": "view",
      "type": "function"
    },
    {
      "inputs": [
        {
          "internalType": "address",
          "name": "_address",
          "type": "address"
        }
      ],
      "name": "isApprovedMinter",
      "outputs": [
        {
          "internalType": "bool",
          "name": "",
          "type": "bool"
        }
      ],
      "stateMutability": "view",
      "type": "function"
    },
    {
      "inputs": [],
      "name": "lockBaseURI",
      "outputs": [],
      "stateMutability": "nonpayable",
      "type": "function"
    },
    {
      "inputs": [],
      "name": "maxTokens",
      "outputs": [
        {
          "internalType": "uint256",
          "name": "",
          "type": "uint256"
        }
      ],
      "stateMutability": "view",
      "type": "function"
    },
    {
      "inputs": [
        {
          "internalType": "address",
          "name": "_receiver",
          "type": "address"
        }
      ],
      "name": "mintTo",
      "outputs": [
        {
          "internalType": "uint256",
          "name": "",
          "type": "uint256"
        }
      ],
      "stateMutability": "nonpayable",
      "type": "function"
    },
    {
      "inputs": [],
      "name": "name",
      "outputs": [
        {
          "internalType": "string",
          "name": "",
          "type": "string"
        }
      ],
      "stateMutability": "view",
      "type": "function"
    },
    {
      "inputs": [],
      "name": "owner",
      "outputs": [
        {
          "internalType": "address",
          "name": "",
          "type": "address"
        }
      ],
      "stateMutability": "view",
      "type": "function"
    },
    {
      "inputs": [
        {
          "internalType": "uint256",
          "name": "tokenId",
          "type": "uint256"
        }
      ],
      "name": "ownerOf",
      "outputs": [
        {
          "internalType": "address",
          "name": "",
          "type": "address"
        }
      ],
      "stateMutability": "view",
      "type": "function"
    },
    {
      "inputs": [
        {
          "internalType": "string",
          "name": "_baseURI",
          "type": "string"
        },
        {
          "internalType": "uint256",
          "name": "_numberOfTokens",
          "type": "uint256"
        }
      ],
      "name": "prepareMint",
      "outputs": [],
      "stateMutability": "nonpayable",
      "type": "function"
    },
    {
      "inputs": [
        {
          "internalType": "string",
          "name": "_baseURI",
          "type": "string"
        },
        {
          "internalType": "uint256",
          "name": "_numberOfTokens",
          "type": "uint256"
        },
        {
          "internalType": "address",
          "name": "_minter",
          "type": "address"
        }
      ],
      "name": "prepareMintWithMinter",
      "outputs": [],
      "stateMutability": "nonpayable",
      "type": "function"
    },
    {
      "inputs": [],
      "name": "renounceOwnership",
      "outputs": [],
      "stateMutability": "nonpayable",
      "type": "function"
    },
    {
      "inputs": [
        {
          "internalType": "uint256",
          "name": "_tokenId",
          "type": "uint256"
        },
        {
          "internalType": "uint256",
          "name": "_salePrice",
          "type": "uint256"
        }
      ],
      "name": "royaltyInfo",
      "outputs": [
        {
          "internalType": "address",
          "name": "receiver",
          "type": "address"
        },
        {
          "internalType": "uint256",
          "name": "royaltyAmount",
          "type": "uint256"
        }
      ],
      "stateMutability": "view",
      "type": "function"
    },
    {
      "inputs": [
        {
          "internalType": "address",
          "name": "from",
          "type": "address"
        },
        {
          "internalType": "address",
          "name": "to",
          "type": "address"
        },
        {
          "internalType": "uint256",
          "name": "tokenId",
          "type": "uint256"
        }
      ],
      "name": "safeTransferFrom",
      "outputs": [],
      "stateMutability": "nonpayable",
      "type": "function"
    },
    {
      "inputs": [
        {
          "internalType": "address",
          "name": "from",
          "type": "address"
        },
        {
          "internalType": "address",
          "name": "to",
          "type": "address"
        },
        {
          "internalType": "uint256",
          "name": "tokenId",
          "type": "uint256"
        },
        {
          "internalType": "bytes",
          "name": "_data",
          "type": "bytes"
        }
      ],
      "name": "safeTransferFrom",
      "outputs": [],
      "stateMutability": "nonpayable",
      "type": "function"
    },
    {
      "inputs": [
        {
          "internalType": "address",
          "name": "operator",
          "type": "address"
        },
        {
          "internalType": "bool",
          "name": "approved",
          "type": "bool"
        }
      ],
      "name": "setApprovalForAll",
      "outputs": [],
      "stateMutability": "nonpayable",
      "type": "function"
    },
    {
      "inputs": [
        {
          "internalType": "address",
          "name": "_receiver",
          "type": "address"
        }
      ],
      "name": "setDefaultRoyaltyReceiver",
      "outputs": [],
      "stateMutability": "nonpayable",
      "type": "function"
    },
    {
      "inputs": [
        {
          "internalType": "address",
          "name": "_receiver",
          "type": "address"
        },
        {
          "internalType": "uint256",
          "name": "_tokenId",
          "type": "uint256"
        }
      ],
      "name": "setRoyaltyReceiverForToken",
      "outputs": [],
      "stateMutability": "nonpayable",
      "type": "function"
    },
    {
      "inputs": [
        {
          "internalType": "bytes4",
          "name": "interfaceId",
          "type": "bytes4"
        }
      ],
      "name": "supportsInterface",
      "outputs": [
        {
          "internalType": "bool",
          "name": "",
          "type": "bool"
        }
      ],
      "stateMutability": "view",
      "type": "function"
    },
    {
      "inputs": [],
      "name": "symbol",
      "outputs": [
        {
          "internalType": "string",
          "name": "",
          "type": "string"
        }
      ],
      "stateMutability": "view",
      "type": "function"
    },
    {
      "inputs": [
        {
          "internalType": "uint256",
          "name": "_tokenId",
          "type": "uint256"
        }
      ],
      "name": "tokenCreator",
      "outputs": [
        {
          "internalType": "address payable",
          "name": "",
          "type": "address"
        }
      ],
      "stateMutability": "view",
      "type": "function"
    },
    {
      "inputs": [
        {
          "internalType": "uint256",
          "name": "_tokenId",
          "type": "uint256"
        }
      ],
      "name": "tokenURI",
      "outputs": [
        {
          "internalType": "string",
          "name": "",
          "type": "string"
        }
      ],
      "stateMutability": "view",
      "type": "function"
    },
    {
      "inputs": [],
      "name": "totalSupply",
      "outputs": [
        {
          "internalType": "uint256",
          "name": "",
          "type": "uint256"
        }
      ],
      "stateMutability": "view",
      "type": "function"
    },
    {
      "inputs": [
        {
          "internalType": "address",
          "name": "from",
          "type": "address"
        },
        {
          "internalType": "address",
          "name": "to",
          "type": "address"
        },
        {
          "internalType": "uint256",
          "name": "tokenId",
          "type": "uint256"
        }
      ],
      "name": "transferFrom",
      "outputs": [],
      "stateMutability": "nonpayable",
      "type": "function"
    },
    {
      "inputs": [
        {
          "internalType": "address",
          "name": "newOwner",
          "type": "address"
        }
      ],
      "name": "transferOwnership",
      "outputs": [],
      "stateMutability": "nonpayable",
      "type": "function"
    },
    {
      "inputs": [
        {
          "internalType": "string",
          "name": "_baseURI",
          "type": "string"
        }
      ],
      "name": "updateBaseURI",
      "outputs": [],
      "stateMutability": "nonpayable",
      "type": "function"
    }
  ],
  "bytecode": {
    "object": "0x608060405234801561001057600080fd5b50612a8b806100206000396000f3fe608060405234801561001057600080fd5b506004361061021c5760003560e01c8063715018a611610125578063b390ac25116100ad578063e83157421161007c578063e8315742146104a2578063e985e9c5146104ac578063ee070805146104e8578063efc32cd4146104f4578063f2fde38b1461050757600080fd5b8063b390ac2514610456578063b88d4fde14610469578063b9fbd25c1461047c578063c87b56dd1461048f57600080fd5b8063931688cb116100f4578063931688cb1461040b5780639338bb5d1461041e57806395d89b4114610433578063a22cb4651461043b578063ab69607a1461044e57600080fd5b8063715018a6146103d7578063755edd17146103df578063894ba833146103f25780638da5cb5b146103fa57600080fd5b80633ebc82c5116101a857806353df5c7c1161017757806353df5c7c146103835780635edc7c191461038b5780636297c16c1461039e5780636352211e146103b157806370a08231146103c457600080fd5b80633ebc82c51461033757806340c1a0641461034a57806342842e0e1461035d57806342966c681461037057600080fd5b806318160ddd116101ef57806318160ddd1461029e57806323b872dd146102b45780632a55205a146102c75780633403c4e9146102f95780633a3d146f1461030a57600080fd5b806301ffc9a71461022157806306fdde0314610249578063081812fc1461025e578063095ea7b314610289575b600080fd5b61023461022f366004611f6b565b61051a565b60405190151581526020015b60405180910390f35b610251610563565b6040516102409190611fe0565b61027161026c366004611ff3565b6105f5565b6040516001600160a01b039091168152602001610240565b61029c610297366004612023565b61068f565b005b6102a66107a4565b604051908152602001610240565b61029c6102c236600461204d565b6107b5565b6102da6102d5366004612089565b6107e7565b604080516001600160a01b039093168352602083019190915201610240565b60fb546001600160a01b0316610271565b6102346103183660046120ab565b6001600160a01b03166000908152610102602052604090205460ff1690565b61029c6103453660046120ab565b610882565b610271610358366004611ff3565b6108b8565b61029c61036b36600461204d565b6108cc565b61029c61037e366004611ff3565b6108e7565b61029c61095e565b61029c61039936600461210f565b6109d2565b61029c6103ac366004611ff3565b610b52565b6102716103bf366004611ff3565b610bbb565b6102a66103d23660046120ab565b610c32565b61029c610cb8565b6102a66103ed3660046120ab565b610cee565b61029c610dc4565b6033546001600160a01b0316610271565b61029c610419366004612198565b610e28565b610426610efc565b60405161024091906121da565b610251610fe0565b61029c610449366004612218565b610fef565b60fc546102a6565b61029c610464366004612254565b610ffe565b61029c6104773660046122b6565b611055565b61029c61048a366004612392565b61108d565b61025161049d366004611ff3565b61110c565b6102a66101005481565b6102346104ba3660046123ef565b6001600160a01b039182166000908152609c6020908152604080832093909416825291909152205460ff1690565b60ff8054610234911681565b61029c610502366004612023565b611141565b61029c6105153660046120ab565b611199565b60006001600160e01b03198216631030681960e21b148061053f575061053f82611231565b8061054e575061054e82611247565b8061055d575061055d82611268565b92915050565b60606097805461057290612419565b80601f016020809104026020016040519081016040528092919081815260200182805461059e90612419565b80156105eb5780601f106105c0576101008083540402835291602001916105eb565b820191906000526020600020905b8154815290600101906020018083116105ce57829003601f168201915b5050505050905090565b6000818152609960205260408120546001600160a01b03166106735760405162461bcd60e51b815260206004820152602c60248201527f4552433732313a20617070726f76656420717565727920666f72206e6f6e657860448201526b34b9ba32b73a103a37b5b2b760a11b60648201526084015b60405180910390fd5b506000908152609b60205260409020546001600160a01b031690565b600061069a82610bbb565b9050806001600160a01b0316836001600160a01b0316036107075760405162461bcd60e51b815260206004820152602160248201527f4552433732313a20617070726f76616c20746f2063757272656e74206f776e656044820152603960f91b606482015260840161066a565b336001600160a01b0382161480610723575061072381336104ba565b6107955760405162461bcd60e51b815260206004820152603860248201527f4552433732313a20617070726f76652063616c6c6572206973206e6f74206f7760448201527f6e6572206e6f7220617070726f76656420666f7220616c6c0000000000000000606482015260840161066a565b61079f83836112a8565b505050565b60006107b06101035490565b905090565b6107c0335b82611316565b6107dc5760405162461bcd60e51b815260040161066a90612453565b61079f83838361140d565b600082815260fd602052604081205481906001600160a01b03166108165760fb546001600160a01b031661082f565b600084815260fd60205260409020546001600160a01b03165b9150610879606461087360fe60008881526020019081526020016000205460000361085c5760fc5461086c565b600087815260fe60205260409020545b86906115a9565b906115bc565b90509250929050565b6033546001600160a01b031633146108ac5760405162461bcd60e51b815260040161066a906124a4565b6108b5816115c8565b50565b600061055d6033546001600160a01b031690565b61079f83838360405180602001604052806000815250611055565b6108f0336107ba565b6109555760405162461bcd60e51b815260206004820152603060248201527f4552433732314275726e61626c653a2063616c6c6572206973206e6f74206f7760448201526f1b995c881b9bdc88185c1c1c9bdd995960821b606482015260840161066a565b6108b5816115ea565b6033546001600160a01b031633146109885760405162461bcd60e51b815260040161066a906124a4565b6040517fb634b0cb94234b05eabb1438717e0e645bfd84788ae1263682242327563cde5e906109ba90610105906124d9565b60405180910390a1610106805460ff19166001179055565b60006109de6001611685565b905080156109f6576000805461ff0019166101001790555b6001600160a01b038316610a4c5760405162461bcd60e51b815260206004820152601e60248201527f63726561746f722063616e6e6f74206265206e756c6c20616464726573730000604482015260640161066a565b610a56600a60fc55565b60ff805460ff19169055610100829055610a6e61170d565b610ae187878080601f01602080910402602001604051908101604052809392919081815260200183838082843760009201919091525050604080516020601f8b01819004810282018101909252898152925089915088908190840183828082843760009201919091525061173c92505050565b610ae961176d565b610af1611794565b610afa836115c8565b610b0383611199565b8015610b49576000805461ff0019169055604051600181527f7f26b83ff96e1f2b6a682f133852f6798a09c465da95921460cefb38474024989060200160405180910390a15b50505050505050565b33610b5c82610bbb565b6001600160a01b031614610bb25760405162461bcd60e51b815260206004820152601f60248201527f4d75737420626520746865206f776e6572206f662074686520746f6b656e2e00604482015260640161066a565b6108b5816108e7565b6000818152609960205260408120546001600160a01b03168061055d5760405162461bcd60e51b815260206004820152602960248201527f4552433732313a206f776e657220717565727920666f72206e6f6e657869737460448201526832b73a103a37b5b2b760b91b606482015260840161066a565b60006001600160a01b038216610c9c5760405162461bcd60e51b815260206004820152602960248201527f4552433732313a2061646472657373207a65726f206973206e6f7420612076616044820152683634b21037bbb732b960b91b606482015260840161066a565b506001600160a01b03166000908152609a602052604090205490565b6033546001600160a01b03163314610ce25760405162461bcd60e51b815260040161066a906124a4565b610cec60006117c3565b565b60ff80546000911615610d135760405162461bcd60e51b815260040161066a90612564565b6033546001600160a01b0316331480610d3c5750336000908152610102602052604090205460ff165b610da15760405162461bcd60e51b815260206004820152603060248201527f6c617a794d696e743a3a6f6e6c79206f776e6572206f7220617070726f76656460448201526f081b5a5b9d195c8818d85b881b5a5b9d60821b606482015260840161066a565b61055d82610dae60fc5490565b60fb546001600160a01b0316611815565b919050565b6033546001600160a01b03163314610dee5760405162461bcd60e51b815260040161066a906124a4565b60ff805460ff1916600117905560405133907f793bc6423dd0257d64f9d47db72fd4b2162f4541aa41740ba1c5fb5e2cd41bcd90600090a2565b6033546001600160a01b03163314610e525760405162461bcd60e51b815260040161066a906124a4565b6101065460ff1615610eb05760405162461bcd60e51b815260206004820152602160248201527f757064617465426173655552493a3a6d65746164617461206973206c6f636b656044820152601960fa1b606482015260840161066a565b610105610ebe8284836125e9565b507f1c306e70c05992619e2128ad1ef88df75f36c9476282e59f51401b2abaa42e4e8282604051610ef09291906126aa565b60405180910390a15050565b610f22604051806060016040528060008152602001606081526020016000151581525090565b6040805160608101909152610104805482526101058054602084019190610f4890612419565b80601f0160208091040260200160405190810160405280929190818152602001828054610f7490612419565b8015610fc15780601f10610f9657610100808354040283529160200191610fc1565b820191906000526020600020905b815481529060010190602001808311610fa457829003601f168201915b50505091835250506002919091015460ff161515602090910152919050565b60606098805461057290612419565b610ffa3383836118d1565b5050565b6033546001600160a01b031633146110285760405162461bcd60e51b815260040161066a906124a4565b60ff8054161561104a5760405162461bcd60e51b815260040161066a90612564565b61079f83838361199f565b61105f3383611316565b61107b5760405162461bcd60e51b815260040161066a90612453565b61108784848484611b21565b50505050565b6033546001600160a01b031633146110b75760405162461bcd60e51b815260040161066a906124a4565b60ff805416156110d95760405162461bcd60e51b815260040161066a90612564565b6110e484848461199f565b6001600160a01b0316600090815261010260205260409020805460ff19166001179055505050565b606061010561111a83611b54565b60405160200161112b9291906126d9565b6040516020818303038152906040529050919050565b6033546001600160a01b0316331461116b5760405162461bcd60e51b815260040161066a906124a4565b600090815260fd6020526040902080546001600160a01b0319166001600160a01b0392909216919091179055565b6033546001600160a01b031633146111c35760405162461bcd60e51b815260040161066a906124a4565b6001600160a01b0381166112285760405162461bcd60e51b815260206004820152602660248201527f4f776e61626c653a206e6577206f776e657220697320746865207a65726f206160448201526564647265737360d01b606482015260840161066a565b6108b5816117c3565b6001600160e01b0319166301ffc9a760e01b1490565b60006001600160e01b0319821663152a902d60e11b148061055d575061055d825b60006001600160e01b031982166380ac58cd60e01b148061129957506001600160e01b03198216635b5e139f60e01b145b8061055d575061055d82611231565b6000818152609b6020526040902080546001600160a01b0319166001600160a01b03841690811790915581906112dd82610bbb565b6001600160a01b03167f8c5be1e5ebec7d5bd14f71427d1e84f3dd0314c0f7b2291e5b200ac8c7c3b92560405160405180910390a45050565b6000818152609960205260408120546001600160a01b031661138f5760405162461bcd60e51b815260206004820152602c60248201527f4552433732313a206f70657261746f7220717565727920666f72206e6f6e657860448201526b34b9ba32b73a103a37b5b2b760a11b606482015260840161066a565b600061139a83610bbb565b9050806001600160a01b0316846001600160a01b031614806113e157506001600160a01b038082166000908152609c602090815260408083209388168352929052205460ff165b806114055750836001600160a01b03166113fa846105f5565b6001600160a01b0316145b949350505050565b826001600160a01b031661142082610bbb565b6001600160a01b0316146114845760405162461bcd60e51b815260206004820152602560248201527f4552433732313a207472616e736665722066726f6d20696e636f72726563742060448201526437bbb732b960d91b606482015260840161066a565b6001600160a01b0382166114e65760405162461bcd60e51b8152602060048201526024808201527f4552433732313a207472616e7366657220746f20746865207a65726f206164646044820152637265737360e01b606482015260840161066a565b6114f16000826112a8565b6001600160a01b0383166000908152609a6020526040812080546001929061151a908490612795565b90915550506001600160a01b0382166000908152609a602052604081208054600192906115489084906127ac565b909155505060008181526099602052604080822080546001600160a01b0319166001600160a01b0386811691821790925591518493918716917fddf252ad1be2c89b69c2b068fc378daa952ba7f163c4a11628f55a4df523b3ef91a4505050565b60006115b582846127c4565b9392505050565b60006115b582846127f9565b60fb80546001600160a01b0319166001600160a01b0392909216919091179055565b60006115f582610bbb565b90506116026000836112a8565b6001600160a01b0381166000908152609a6020526040812080546001929061162b908490612795565b909155505060008281526099602052604080822080546001600160a01b0319169055518391906001600160a01b038416907fddf252ad1be2c89b69c2b068fc378daa952ba7f163c4a11628f55a4df523b3ef908390a45050565b60008054610100900460ff16156116cc578160ff1660011480156116a85750303b155b6116c45760405162461bcd60e51b815260040161066a9061280d565b506000919050565b60005460ff8084169116106116f35760405162461bcd60e51b815260040161066a9061280d565b506000805460ff191660ff92909216919091179055600190565b600054610100900460ff166117345760405162461bcd60e51b815260040161066a9061285b565b610cec611c55565b600054610100900460ff166117635760405162461bcd60e51b815260040161066a9061285b565b610ffa8282611c85565b600054610100900460ff16610cec5760405162461bcd60e51b815260040161066a9061285b565b600054610100900460ff166117bb5760405162461bcd60e51b815260040161066a9061285b565b610cec61176d565b603380546001600160a01b038381166001600160a01b0319831681179093556040519116919082907f8be0079c531659141344cd1fd0a4f28419497f9722a3daafe3b4186f6b6457e090600090a35050565b600061182661010380546001019055565b60006118326101035490565b9050610100548111156118875760405162461bcd60e51b815260206004820181905260248201527f5f637265617465546f6b656e3a3a6578636565646564206d6178546f6b656e73604482015260640161066a565b6118918582611cc5565b600081815260fe60205260409020849055600081815260fd6020526040902080546001600160a01b0319166001600160a01b038516179055949350505050565b816001600160a01b0316836001600160a01b0316036119325760405162461bcd60e51b815260206004820152601960248201527f4552433732313a20617070726f766520746f2063616c6c657200000000000000604482015260640161066a565b6001600160a01b038381166000818152609c6020908152604080832094871680845294825291829020805460ff191686151590811790915591519182527f17307eab39ab6107e8899845ad3d59bd9653f200f220920489ca2b5937696c31910160405180910390a3505050565b610100548111156119f25760405162461bcd60e51b815260206004820181905260248201527f5f707265706172654d696e743a3a6578636565646564206d6178546f6b656e73604482015260640161066a565b6101035415611a5d5760405162461bcd60e51b815260206004820152603160248201527f5f707265706172654d696e743a3a63616e206f6e6c792070726570617265206d604482015270696e742077697468203020746f6b656e7360781b606482015260840161066a565b604051806060016040528082815260200184848080601f016020809104026020016040519081016040528093929190818152602001838380828437600092018290525093855250505060209182015281516101049081559082015161010590611ac690826128a6565b50604091820151600291909101805460ff19169115159190911790555181907f6f1d651e6e0c8f86bd32a20c22a644d1e34fabf72307ff95d51b9f5892ddba1990611b1490869086906126aa565b60405180910390a2505050565b611b2c84848461140d565b611b3884848484611cdf565b6110875760405162461bcd60e51b815260040161066a90612966565b606081600003611b7b5750506040805180820190915260018152600360fc1b602082015290565b8160005b8115611ba55780611b8f816129b8565b9150611b9e9050600a836127f9565b9150611b7f565b60008167ffffffffffffffff811115611bc057611bc06122a0565b6040519080825280601f01601f191660200182016040528015611bea576020820181803683370190505b5090505b841561140557611bff600183612795565b9150611c0c600a866129d1565b611c179060306127ac565b60f81b818381518110611c2c57611c2c6129e5565b60200101906001600160f81b031916908160001a905350611c4e600a866127f9565b9450611bee565b600054610100900460ff16611c7c5760405162461bcd60e51b815260040161066a9061285b565b610cec336117c3565b600054610100900460ff16611cac5760405162461bcd60e51b815260040161066a9061285b565b6097611cb883826128a6565b50609861079f82826128a6565b610ffa828260405180602001604052806000815250611de0565b60006001600160a01b0384163b15611dd557604051630a85bd0160e11b81526001600160a01b0385169063150b7a0290611d239033908990889088906004016129fb565b6020604051808303816000875af1925050508015611d5e575060408051601f3d908101601f19168201909252611d5b91810190612a38565b60015b611dbb573d808015611d8c576040519150601f19603f3d011682016040523d82523d6000602084013e611d91565b606091505b508051600003611db35760405162461bcd60e51b815260040161066a90612966565b805181602001fd5b6001600160e01b031916630a85bd0160e11b149050611405565b506001949350505050565b611dea8383611e13565b611df76000848484611cdf565b61079f5760405162461bcd60e51b815260040161066a90612966565b6001600160a01b038216611e695760405162461bcd60e51b815260206004820181905260248201527f4552433732313a206d696e7420746f20746865207a65726f2061646472657373604482015260640161066a565b6000818152609960205260409020546001600160a01b031615611ece5760405162461bcd60e51b815260206004820152601c60248201527f4552433732313a20746f6b656e20616c7265616479206d696e74656400000000604482015260640161066a565b6001600160a01b0382166000908152609a60205260408120805460019290611ef79084906127ac565b909155505060008181526099602052604080822080546001600160a01b0319166001600160a01b03861690811790915590518392907fddf252ad1be2c89b69c2b068fc378daa952ba7f163c4a11628f55a4df523b3ef908290a45050565b6001600160e01b0319811681146108b557600080fd5b600060208284031215611f7d57600080fd5b81356115b581611f55565b60005b83811015611fa3578181015183820152602001611f8b565b838111156110875750506000910152565b60008151808452611fcc816020860160208601611f88565b601f01601f19169290920160200192915050565b6020815260006115b56020830184611fb4565b60006020828403121561200557600080fd5b5035919050565b80356001600160a01b0381168114610dbf57600080fd5b6000806040838503121561203657600080fd5b61203f8361200c565b946020939093013593505050565b60008060006060848603121561206257600080fd5b61206b8461200c565b92506120796020850161200c565b9150604084013590509250925092565b6000806040838503121561209c57600080fd5b50508035926020909101359150565b6000602082840312156120bd57600080fd5b6115b58261200c565b60008083601f8401126120d857600080fd5b50813567ffffffffffffffff8111156120f057600080fd5b60208301915083602082850101111561210857600080fd5b9250929050565b6000806000806000806080878903121561212857600080fd5b863567ffffffffffffffff8082111561214057600080fd5b61214c8a838b016120c6565b9098509650602089013591508082111561216557600080fd5b5061217289828a016120c6565b909550935061218590506040880161200c565b9150606087013590509295509295509295565b600080602083850312156121ab57600080fd5b823567ffffffffffffffff8111156121c257600080fd5b6121ce858286016120c6565b90969095509350505050565b602081528151602082015260006020830151606060408401526122006080840182611fb4565b90506040840151151560608401528091505092915050565b6000806040838503121561222b57600080fd5b6122348361200c565b91506020830135801515811461224957600080fd5b809150509250929050565b60008060006040848603121561226957600080fd5b833567ffffffffffffffff81111561228057600080fd5b61228c868287016120c6565b909790965060209590950135949350505050565b634e487b7160e01b600052604160045260246000fd5b600080600080608085870312156122cc57600080fd5b6122d58561200c565b93506122e36020860161200c565b925060408501359150606085013567ffffffffffffffff8082111561230757600080fd5b818701915087601f83011261231b57600080fd5b81358181111561232d5761232d6122a0565b604051601f8201601f19908116603f01168101908382118183101715612355576123556122a0565b816040528281528a602084870101111561236e57600080fd5b82602086016020830137600060208483010152809550505050505092959194509250565b600080600080606085870312156123a857600080fd5b843567ffffffffffffffff8111156123bf57600080fd5b6123cb878288016120c6565b909550935050602085013591506123e46040860161200c565b905092959194509250565b6000806040838503121561240257600080fd5b61240b8361200c565b91506108796020840161200c565b600181811c9082168061242d57607f821691505b60208210810361244d57634e487b7160e01b600052602260045260246000fd5b50919050565b60208082526031908201527f4552433732313a207472616e736665722063616c6c6572206973206e6f74206f6040820152701ddb995c881b9bdc88185c1c1c9bdd9959607a1b606082015260800190565b6020808252818101527f4f776e61626c653a2063616c6c6572206973206e6f7420746865206f776e6572604082015260600190565b60006020808352600084546124ed81612419565b8084870152604060018084166000811461250e576001811461252857612556565b60ff1985168984015283151560051b890183019550612556565b896000528660002060005b8581101561254e5781548b8201860152908301908801612533565b8a0184019650505b509398975050505050505050565b6020808252601e908201527f436f6e7472616374206d757374206e6f742062652064697361626c65642e0000604082015260600190565b601f82111561079f57600081815260208120601f850160051c810160208610156125c25750805b601f850160051c820191505b818110156125e1578281556001016125ce565b505050505050565b67ffffffffffffffff831115612601576126016122a0565b6126158361260f8354612419565b8361259b565b6000601f84116001811461264957600085156126315750838201355b600019600387901b1c1916600186901b1783556126a3565b600083815260209020601f19861690835b8281101561267a578685013582556020948501946001909201910161265a565b50868210156126975760001960f88860031b161c19848701351681555b505060018560011b0183555b5050505050565b60208152816020820152818360408301376000818301604090810191909152601f909201601f19160101919050565b60008084546126e781612419565b600182811680156126ff576001811461271457612743565b60ff1984168752821515830287019450612743565b8860005260208060002060005b8581101561273a5781548a820152908401908201612721565b50505082870194505b50602f60f81b84528651925061275f8382860160208a01611f88565b64173539b7b760d91b939092019182019290925260060195945050505050565b634e487b7160e01b600052601160045260246000fd5b6000828210156127a7576127a761277f565b500390565b600082198211156127bf576127bf61277f565b500190565b60008160001904831182151516156127de576127de61277f565b500290565b634e487b7160e01b600052601260045260246000fd5b600082612808576128086127e3565b500490565b6020808252602e908201527f496e697469616c697a61626c653a20636f6e747261637420697320616c72656160408201526d191e481a5b9a5d1a585b1a5e995960921b606082015260800190565b6020808252602b908201527f496e697469616c697a61626c653a20636f6e7472616374206973206e6f74206960408201526a6e697469616c697a696e6760a81b606082015260800190565b815167ffffffffffffffff8111156128c0576128c06122a0565b6128d4816128ce8454612419565b8461259b565b602080601f83116001811461290957600084156128f15750858301515b600019600386901b1c1916600185901b1785556125e1565b600085815260208120601f198616915b8281101561293857888601518255948401946001909101908401612919565b50858210156129565787850151600019600388901b60f8161c191681555b5050505050600190811b01905550565b60208082526032908201527f4552433732313a207472616e7366657220746f206e6f6e20455243373231526560408201527131b2b4bb32b91034b6b83632b6b2b73a32b960711b606082015260800190565b6000600182016129ca576129ca61277f565b5060010190565b6000826129e0576129e06127e3565b500690565b634e487b7160e01b600052603260045260246000fd5b6001600160a01b0385811682528416602082015260408101839052608060608201819052600090612a2e90830184611fb4565b9695505050505050565b600060208284031215612a4a57600080fd5b81516115b581611f5556fea2646970667358221220481b5748c29385fe9b444e3fef3df38f4ea118ef3622f15add03bf5377fa15ac64736f6c634300080f0033",
    "linkReferences": {}
  },
  "methodIdentifiers": {
    "approve(address,uint256)": "095ea7b3",
    "balanceOf(address)": "70a08231",
    "burn(uint256)": "42966c68",
    "deleteToken(uint256)": "6297c16c",
    "disableContract()": "894ba833",
    "disabled()": "ee070805",
    "getApproved(uint256)": "081812fc",
    "getDefaultRoyaltyPercentage()": "ab69607a",
    "getDefaultRoyaltyReceiver()": "3403c4e9",
    "getMintConfig()": "9338bb5d",
    "init(string,string,address,uint256)": "5edc7c19",
    "isApprovedForAll(address,address)": "e985e9c5",
    "isApprovedMinter(address)": "3a3d146f",
    "lockBaseURI()": "53df5c7c",
    "maxTokens()": "e8315742",
    "mintTo(address)": "755edd17",
    "name()": "06fdde03",
    "owner()": "8da5cb5b",
    "ownerOf(uint256)": "6352211e",
    "prepareMint(string,uint256)": "b390ac25",
    "prepareMintWithMinter(string,uint256,address)": "b9fbd25c",
    "renounceOwnership()": "715018a6",
    "royaltyInfo(uint256,uint256)": "2a55205a",
    "safeTransferFrom(address,address,uint256)": "42842e0e",
    "safeTransferFrom(address,address,uint256,bytes)": "b88d4fde",
    "setApprovalForAll(address,bool)": "a22cb465",
    "setDefaultRoyaltyReceiver(address)": "3ebc82c5",
    "setRoyaltyReceiverForToken(address,uint256)": "efc32cd4",
    "supportsInterface(bytes4)": "01ffc9a7",
    "symbol()": "95d89b41",
    "tokenCreator(uint256)": "40c1a064",
    "tokenURI(uint256)": "c87b56dd",
    "totalSupply()": "18160ddd",
    "transferFrom(address,address,uint256)": "23b872dd",
    "transferOwnership(address)": "f2fde38b",
    "updateBaseURI(string)": "931688cb"
  },
  "id": 24
}