{
  "abi": [
    {
      "anonymous": false,
      "inputs": [
        {
          "indexed": true,
          "internalType": "address",
          "name": "owner",
          "type": "address"
        },
        {
          "indexed": true,
          "internalType": "address",
          "name": "approved",
          "type": "address"
        },
        {
          "indexed": true,
          "internalType": "uint256",
          "name": "tokenId",
          "type": "uint256"
        }
      ],
      "name": "Approval",
      "type": "event"
    },
    {
      "anonymous": false,
      "inputs": [
        {
          "indexed": true,
          "internalType": "address",
          "name": "owner",
          "type": "address"
        },
        {
          "indexed": true,
          "internalType": "address",
          "name": "operator",
          "type": "address"
        },
        {
          "indexed": false,
          "internalType": "bool",
          "name": "approved",
          "type": "bool"
        }
      ],
      "name": "ApprovalForAll",
      "type": "event"
    },
    {
      "anonymous": false,
      "inputs": [
        {
          "indexed": true,
          "internalType": "address",
          "name": "user",
          "type": "address"
        }
      ],
      "name": "ContractDisabled",
      "type": "event"
    },
    {
      "anonymous": false,
      "inputs": [
        {
          "indexed": false,
          "internalType": "uint8",
          "name": "version",
          "type": "uint8"
        }
      ],
      "name": "Initialized",
      "type": "event"
    },
    {
      "anonymous": false,
      "inputs": [
        {
          "indexed": false,
          "internalType": "string",
          "name": "baseURI",
          "type": "string"
        }
      ],
      "name": "MetadataLocked",
      "type": "event"
    },
    {
      "anonymous": false,
      "inputs": [
        {
          "indexed": false,
          "internalType": "string",
          "name": "baseURI",
          "type": "string"
        }
      ],
      "name": "MetadataUpdated",
      "type": "event"
    },
    {
      "anonymous": false,
      "inputs": [
        {
          "indexed": true,
          "internalType": "address",
          "name": "previousOwner",
          "type": "address"
        },
        {
          "indexed": true,
          "internalType": "address",
          "name": "newOwner",
          "type": "address"
        }
      ],
      "name": "OwnershipTransferred",
      "type": "event"
    },
    {
      "anonymous": false,
      "inputs": [
        {
          "indexed": true,
          "internalType": "uint256",
          "name": "numberOfTokens",
          "type": "uint256"
        },
        {
          "indexed": false,
          "internalType": "string",
          "name": "baseURI",
          "type": "string"
        }
      ],
      "name": "PrepareMint",
      "type": "event"
    },
    {
      "anonymous": false,
      "inputs": [
        {
          "indexed": true,
          "internalType": "uint256",
          "name": "tokenId",
          "type": "uint256"
        },
        {
          "indexed": false,
          "internalType": "string",
          "name": "metadataUri",
          "type": "string"
        }
      ],
      "name": "TokenURIUpdated",
      "type": "event"
    },
    {
      "anonymous": false,
      "inputs": [
        {
          "indexed": true,
          "internalType": "address",
          "name": "from",
          "type": "address"
        },
        {
          "indexed": true,
          "internalType": "address",
          "name": "to",
          "type": "address"
        },
        {
          "indexed": true,
          "internalType": "uint256",
          "name": "tokenId",
          "type": "uint256"
        }
      ],
      "name": "Transfer",
      "type": "event"
    },
    {
      "inputs": [
        {
          "internalType": "address",
          "name": "to",
          "type": "address"
        },
        {
          "internalType": "uint256",
          "name": "tokenId",
          "type": "uint256"
        }
      ],
      "name": "approve",
      "outputs": [],
      "stateMutability": "nonpayable",
      "type": "function"
    },
    {
      "inputs": [
        {
          "internalType": "address",
          "name": "owner",
          "type": "address"
        }
      ],
      "name": "balanceOf",
      "outputs": [
        {
          "internalType": "uint256",
          "name": "",
          "type": "uint256"
        }
      ],
      "stateMutability": "view",
      "type": "function"
    },
    {
      "inputs": [
        {
          "internalType": "uint256",
          "name": "tokenId",
          "type": "uint256"
        }
      ],
      "name": "burn",
      "outputs": [],
      "stateMutability": "nonpayable",
      "type": "function"
    },
    {
      "inputs": [
        {
          "internalType": "uint256",
          "name": "_tokenId",
          "type": "uint256"
        }
      ],
      "name": "deleteToken",
      "outputs": [],
      "stateMutability": "nonpayable",
      "type": "function"
    },
    {
      "inputs": [],
      "name": "disableContract",
      "outputs": [],
      "stateMutability": "nonpayable",
      "type": "function"
    },
    {
      "inputs": [],
      "name": "disabled",
      "outputs": [
        {
          "internalType": "bool",
          "name": "",
          "type": "bool"
        }
      ],
      "stateMutability": "view",
      "type": "function"
    },
    {
      "inputs": [
        {
          "internalType": "uint256",
          "name": "tokenId",
          "type": "uint256"
        }
      ],
      "name": "getApproved",
      "outputs": [
        {
          "internalType": "address",
          "name": "",
          "type": "address"
        }
      ],
      "stateMutability": "view",
      "type": "function"
    },
    {
      "inputs": [],
      "name": "getDefaultRoyaltyPercentage",
      "outputs": [
        {
          "internalType": "uint256",
          "name": "",
          "type": "uint256"
        }
      ],
      "stateMutability": "view",
      "type": "function"
    },
    {
      "inputs": [],
      "name": "getDefaultRoyaltyReceiver",
      "outputs": [
        {
          "internalType": "address",
          "name": "",
          "type": "address"
        }
      ],
      "stateMutability": "view",
      "type": "function"
    },
    {
      "inputs": [],
      "name": "getMintConfig",
      "outputs": [
        {
          "components": [
            {
              "internalType": "uint256",
              "name": "numberOfTokens",
              "type": "uint256"
            },
            {
              "internalType": "string",
              "name": "baseURI",
              "type": "string"
            },
            {
              "internalType": "bool",
              "name": "lockedMetadata",
              "type": "bool"
            }
          ],
          "internalType": "struct LazySovereignNFT.MintConfig",
          "name": "",
          "type": "tuple"
        }
      ],
      "stateMutability": "view",
      "type": "function"
    },
    {
      "inputs": [
        {
          "internalType": "string",
          "name": "_name",
          "type": "string"
        },
        {
          "internalType": "string",
          "name": "_symbol",
          "type": "string"
        },
        {
          "internalType": "address",
          "name": "_creator",
          "type": "address"
        },
        {
          "internalType": "uint256",
          "name": "_maxTokens",
          "type": "uint256"
        }
      ],
      "name": "init",
      "outputs": [],
      "stateMutability": "nonpayable",
      "type": "function"
    },
    {
      "inputs": [
        {
          "internalType": "address",
          "name": "owner",
          "type": "address"
        },
        {
          "internalType": "address",
          "name": "operator",
          "type": "address"
        }
      ],
      "name": "isApprovedForAll",
      "outputs": [
        {
          "internalType": "bool",
          "name": "",
          "type": "bool"
        }
      ],
      "stateMutability": "view",
      "type": "function"
    },
    {
      "inputs": [
        {
          "internalType": "address",
          "name": "_address",
          "type": "address"
        }
      ],
      "name": "isApprovedMinter",
      "outputs": [
        {
          "internalType": "bool",
          "name": "",
          "type": "bool"
        }
      ],
      "stateMutability": "view",
      "type": "function"
    },
    {
      "inputs": [],
      "name": "lockBaseURI",
      "outputs": [],
      "stateMutability": "nonpayable",
      "type": "function"
    },
    {
      "inputs": [],
      "name": "maxTokens",
      "outputs": [
        {
          "internalType": "uint256",
          "name": "",
          "type": "uint256"
        }
      ],
      "stateMutability": "view",
      "type": "function"
    },
    {
      "inputs": [
        {
          "internalType": "address",
          "name": "_receiver",
          "type": "address"
        }
      ],
      "name": "mintTo",
      "outputs": [
        {
          "internalType": "uint256",
          "name": "",
          "type": "uint256"
        }
      ],
      "stateMutability": "nonpayable",
      "type": "function"
    },
    {
      "inputs": [],
      "name": "name",
      "outputs": [
        {
          "internalType": "string",
          "name": "",
          "type": "string"
        }
      ],
      "stateMutability": "view",
      "type": "function"
    },
    {
      "inputs": [],
      "name": "owner",
      "outputs": [
        {
          "internalType": "address",
          "name": "",
          "type": "address"
        }
      ],
      "stateMutability": "view",
      "type": "function"
    },
    {
      "inputs": [
        {
          "internalType": "uint256",
          "name": "tokenId",
          "type": "uint256"
        }
      ],
      "name": "ownerOf",
      "outputs": [
        {
          "internalType": "address",
          "name": "",
          "type": "address"
        }
      ],
      "stateMutability": "view",
      "type": "function"
    },
    {
      "inputs": [
        {
          "internalType": "string",
          "name": "_baseURI",
          "type": "string"
        },
        {
          "internalType": "uint256",
          "name": "_numberOfTokens",
          "type": "uint256"
        }
      ],
      "name": "prepareMint",
      "outputs": [],
      "stateMutability": "nonpayable",
      "type": "function"
    },
    {
      "inputs": [
        {
          "internalType": "string",
          "name": "_baseURI",
          "type": "string"
        },
        {
          "internalType": "uint256",
          "name": "_numberOfTokens",
          "type": "uint256"
        },
        {
          "internalType": "address",
          "name": "_minter",
          "type": "address"
        }
      ],
      "name": "prepareMintWithMinter",
      "outputs": [],
      "stateMutability": "nonpayable",
      "type": "function"
    },
    {
      "inputs": [],
      "name": "renounceOwnership",
      "outputs": [],
      "stateMutability": "nonpayable",
      "type": "function"
    },
    {
      "inputs": [
        {
          "internalType": "uint256",
          "name": "_tokenId",
          "type": "uint256"
        },
        {
          "internalType": "uint256",
          "name": "_salePrice",
          "type": "uint256"
        }
      ],
      "name": "royaltyInfo",
      "outputs": [
        {
          "internalType": "address",
          "name": "receiver",
          "type": "address"
        },
        {
          "internalType": "uint256",
          "name": "royaltyAmount",
          "type": "uint256"
        }
      ],
      "stateMutability": "view",
      "type": "function"
    },
    {
      "inputs": [
        {
          "internalType": "address",
          "name": "from",
          "type": "address"
        },
        {
          "internalType": "address",
          "name": "to",
          "type": "address"
        },
        {
          "internalType": "uint256",
          "name": "tokenId",
          "type": "uint256"
        }
      ],
      "name": "safeTransferFrom",
      "outputs": [],
      "stateMutability": "nonpayable",
      "type": "function"
    },
    {
      "inputs": [
        {
          "internalType": "address",
          "name": "from",
          "type": "address"
        },
        {
          "internalType": "address",
          "name": "to",
          "type": "address"
        },
        {
          "internalType": "uint256",
          "name": "tokenId",
          "type": "uint256"
        },
        {
          "internalType": "bytes",
          "name": "_data",
          "type": "bytes"
        }
      ],
      "name": "safeTransferFrom",
      "outputs": [],
      "stateMutability": "nonpayable",
      "type": "function"
    },
    {
      "inputs": [
        {
          "internalType": "address",
          "name": "operator",
          "type": "address"
        },
        {
          "internalType": "bool",
          "name": "approved",
          "type": "bool"
        }
      ],
      "name": "setApprovalForAll",
      "outputs": [],
      "stateMutability": "nonpayable",
      "type": "function"
    },
    {
      "inputs": [
        {
          "internalType": "address",
          "name": "_receiver",
          "type": "address"
        }
      ],
      "name": "setDefaultRoyaltyReceiver",
      "outputs": [],
      "stateMutability": "nonpayable",
      "type": "function"
    },
    {
      "inputs": [
        {
          "internalType": "address",
          "name": "_minter",
          "type": "address"
        },
        {
          "internalType": "bool",
          "name": "_isMinter",
          "type": "bool"
        }
      ],
      "name": "setMinterApproval",
      "outputs": [],
      "stateMutability": "nonpayable",
      "type": "function"
    },
    {
      "inputs": [
        {
          "internalType": "address",
          "name": "_receiver",
          "type": "address"
        },
        {
          "internalType": "uint256",
          "name": "_tokenId",
          "type": "uint256"
        }
      ],
      "name": "setRoyaltyReceiverForToken",
      "outputs": [],
      "stateMutability": "nonpayable",
      "type": "function"
    },
    {
      "inputs": [
        {
          "internalType": "bytes4",
          "name": "interfaceId",
          "type": "bytes4"
        }
      ],
      "name": "supportsInterface",
      "outputs": [
        {
          "internalType": "bool",
          "name": "",
          "type": "bool"
        }
      ],
      "stateMutability": "view",
      "type": "function"
    },
    {
      "inputs": [],
      "name": "symbol",
      "outputs": [
        {
          "internalType": "string",
          "name": "",
          "type": "string"
        }
      ],
      "stateMutability": "view",
      "type": "function"
    },
    {
      "inputs": [
        {
          "internalType": "uint256",
          "name": "_tokenId",
          "type": "uint256"
        }
      ],
      "name": "tokenCreator",
      "outputs": [
        {
          "internalType": "address payable",
          "name": "",
          "type": "address"
        }
      ],
      "stateMutability": "view",
      "type": "function"
    },
    {
      "inputs": [
        {
          "internalType": "uint256",
          "name": "_tokenId",
          "type": "uint256"
        }
      ],
      "name": "tokenURI",
      "outputs": [
        {
          "internalType": "string",
          "name": "",
          "type": "string"
        }
      ],
      "stateMutability": "view",
      "type": "function"
    },
    {
      "inputs": [],
      "name": "totalSupply",
      "outputs": [
        {
          "internalType": "uint256",
          "name": "",
          "type": "uint256"
        }
      ],
      "stateMutability": "view",
      "type": "function"
    },
    {
      "inputs": [
        {
          "internalType": "address",
          "name": "from",
          "type": "address"
        },
        {
          "internalType": "address",
          "name": "to",
          "type": "address"
        },
        {
          "internalType": "uint256",
          "name": "tokenId",
          "type": "uint256"
        }
      ],
      "name": "transferFrom",
      "outputs": [],
      "stateMutability": "nonpayable",
      "type": "function"
    },
    {
      "inputs": [
        {
          "internalType": "address",
          "name": "newOwner",
          "type": "address"
        }
      ],
      "name": "transferOwnership",
      "outputs": [],
      "stateMutability": "nonpayable",
      "type": "function"
    },
    {
      "inputs": [
        {
          "internalType": "string",
          "name": "_baseURI",
          "type": "string"
        }
      ],
      "name": "updateBaseURI",
      "outputs": [],
      "stateMutability": "nonpayable",
      "type": "function"
    },
    {
      "inputs": [
        {
          "internalType": "uint256",
          "name": "_tokenId",
          "type": "uint256"
        },
        {
          "internalType": "string",
          "name": "_metadataUri",
          "type": "string"
        }
      ],
      "name": "updateTokenURI",
      "outputs": [],
      "stateMutability": "nonpayable",
      "type": "function"
    }
  ],
  "bytecode": {
    "object": "0x608060405234801561001057600080fd5b50612d25806100206000396000f3fe608060405234801561001057600080fd5b50600436106102325760003560e01c806370a0823111610130578063ab69607a116100b8578063e83157421161007c578063e8315742146104de578063e985e9c5146104e8578063ee07080514610524578063efc32cd414610530578063f2fde38b1461054357600080fd5b8063ab69607a1461048a578063b390ac2514610492578063b88d4fde146104a5578063b9fbd25c146104b8578063c87b56dd146104cb57600080fd5b80638da5cb5b116100ff5780638da5cb5b14610436578063931688cb146104475780639338bb5d1461045a57806395d89b411461046f578063a22cb4651461047757600080fd5b806370a0823114610400578063715018a614610413578063755edd171461041b578063894ba8331461042e57600080fd5b80633403c4e9116101be57806342966c681161018257806342966c68146103ac57806353df5c7c146103bf5780635edc7c19146103c75780636297c16c146103da5780636352211e146103ed57600080fd5b80633403c4e9146103355780633a3d146f146103465780633ebc82c51461037357806340c1a0641461038657806342842e0e1461039957600080fd5b80630de54ba0116102055780630de54ba0146102b457806318160ddd146102c757806318e97fd1146102dd57806323b872dd146102f05780632a55205a1461030357600080fd5b806301ffc9a71461023757806306fdde031461025f578063081812fc14610274578063095ea7b31461029f575b600080fd5b61024a6102453660046121b9565b610556565b60405190151581526020015b60405180910390f35b61026761059f565b604051610256919061222e565b610287610282366004612241565b610631565b6040516001600160a01b039091168152602001610256565b6102b26102ad366004612271565b6106cb565b005b6102b26102c236600461229b565b6107e0565b6102cf610858565b604051908152602001610256565b6102b26102eb366004612320565b610869565b6102b26102fe36600461236c565b61094c565b6103166103113660046123a8565b61097e565b604080516001600160a01b039093168352602083019190915201610256565b60fb546001600160a01b0316610287565b61024a6103543660046123ca565b6001600160a01b03166000908152610102602052604090205460ff1690565b6102b26103813660046123ca565b610a19565b610287610394366004612241565b610a4f565b6102b26103a736600461236c565b610a63565b6102b26103ba366004612241565b610a7e565b6102b2610af5565b6102b26103d53660046123e5565b610b69565b6102b26103e8366004612241565b610ce9565b6102876103fb366004612241565b610d52565b6102cf61040e3660046123ca565b610dc9565b6102b2610e4f565b6102cf6104293660046123ca565b610e85565b6102b2610f5b565b6033546001600160a01b0316610287565b6102b261045536600461246e565b610fbf565b610462611093565b60405161025691906124b0565b610267611177565b6102b261048536600461229b565b611186565b60fc546102cf565b6102b26104a03660046124ee565b611195565b6102b26104b3366004612550565b6111ec565b6102b26104c636600461262c565b611224565b6102676104d9366004612241565b6112a3565b6102cf6101005481565b61024a6104f6366004612689565b6001600160a01b039182166000908152609c6020908152604080832093909416825291909152205460ff1690565b60ff805461024a911681565b6102b261053e366004612271565b61139c565b6102b26105513660046123ca565b6113f4565b60006001600160e01b03198216631030681960e21b148061057b575061057b8261148c565b8061058a575061058a826114a2565b806105995750610599826114c3565b92915050565b6060609780546105ae906126b3565b80601f01602080910402602001604051908101604052809291908181526020018280546105da906126b3565b80156106275780601f106105fc57610100808354040283529160200191610627565b820191906000526020600020905b81548152906001019060200180831161060a57829003601f168201915b5050505050905090565b6000818152609960205260408120546001600160a01b03166106af5760405162461bcd60e51b815260206004820152602c60248201527f4552433732313a20617070726f76656420717565727920666f72206e6f6e657860448201526b34b9ba32b73a103a37b5b2b760a11b60648201526084015b60405180910390fd5b506000908152609b60205260409020546001600160a01b031690565b60006106d682610d52565b9050806001600160a01b0316836001600160a01b0316036107435760405162461bcd60e51b815260206004820152602160248201527f4552433732313a20617070726f76616c20746f2063757272656e74206f776e656044820152603960f91b60648201526084016106a6565b336001600160a01b038216148061075f575061075f81336104f6565b6107d15760405162461bcd60e51b815260206004820152603860248201527f4552433732313a20617070726f76652063616c6c6572206973206e6f74206f7760448201527f6e6572206e6f7220617070726f76656420666f7220616c6c000000000000000060648201526084016106a6565b6107db8383611503565b505050565b6033546001600160a01b0316331461080a5760405162461bcd60e51b81526004016106a6906126ed565b60ff8054161561082c5760405162461bcd60e51b81526004016106a690612722565b6001600160a01b0391909116600090815261010260205260409020805460ff1916911515919091179055565b60006108646101045490565b905090565b6033546001600160a01b031633146108935760405162461bcd60e51b81526004016106a6906126ed565b6101075460ff16156108f25760405162461bcd60e51b815260206004820152602260248201527f757064617465546f6b656e5552493a3a6d65746164617461206973206c6f636b604482015261195960f21b60648201526084016106a6565b60008381526101036020526040902061090c8284836127a7565b50827f931f495b9a8e5d8e61946ea5d61e021f636cfe213a801f97589c18c152e408bd838360405161093f929190612868565b60405180910390a2505050565b610957335b82611571565b6109735760405162461bcd60e51b81526004016106a690612897565b6107db838383611668565b600082815260fd602052604081205481906001600160a01b03166109ad5760fb546001600160a01b03166109c6565b600084815260fd60205260409020546001600160a01b03165b9150610a106064610a0a60fe6000888152602001908152602001600020546000036109f35760fc54610a03565b600087815260fe60205260409020545b8690611804565b90611817565b90509250929050565b6033546001600160a01b03163314610a435760405162461bcd60e51b81526004016106a6906126ed565b610a4c81611823565b50565b60006105996033546001600160a01b031690565b6107db838383604051806020016040528060008152506111ec565b610a8733610951565b610aec5760405162461bcd60e51b815260206004820152603060248201527f4552433732314275726e61626c653a2063616c6c6572206973206e6f74206f7760448201526f1b995c881b9bdc88185c1c1c9bdd995960821b60648201526084016106a6565b610a4c81611845565b6033546001600160a01b03163314610b1f5760405162461bcd60e51b81526004016106a6906126ed565b6040517fb634b0cb94234b05eabb1438717e0e645bfd84788ae1263682242327563cde5e90610b5190610106906128e8565b60405180910390a1610107805460ff19166001179055565b6000610b7560016118e0565b90508015610b8d576000805461ff0019166101001790555b6001600160a01b038316610be35760405162461bcd60e51b815260206004820152601e60248201527f63726561746f722063616e6e6f74206265206e756c6c2061646472657373000060448201526064016106a6565b610bed600a60fc55565b60ff805460ff19169055610100829055610c05611968565b610c7887878080601f01602080910402602001604051908101604052809392919081815260200183838082843760009201919091525050604080516020601f8b01819004810282018101909252898152925089915088908190840183828082843760009201919091525061199792505050565b610c806119c8565b610c886119ef565b610c9183611823565b610c9a836113f4565b8015610ce0576000805461ff0019169055604051600181527f7f26b83ff96e1f2b6a682f133852f6798a09c465da95921460cefb38474024989060200160405180910390a15b50505050505050565b33610cf382610d52565b6001600160a01b031614610d495760405162461bcd60e51b815260206004820152601f60248201527f4d75737420626520746865206f776e6572206f662074686520746f6b656e2e0060448201526064016106a6565b610a4c81610a7e565b6000818152609960205260408120546001600160a01b0316806105995760405162461bcd60e51b815260206004820152602960248201527f4552433732313a206f776e657220717565727920666f72206e6f6e657869737460448201526832b73a103a37b5b2b760b91b60648201526084016106a6565b60006001600160a01b038216610e335760405162461bcd60e51b815260206004820152602960248201527f4552433732313a2061646472657373207a65726f206973206e6f7420612076616044820152683634b21037bbb732b960b91b60648201526084016106a6565b506001600160a01b03166000908152609a602052604090205490565b6033546001600160a01b03163314610e795760405162461bcd60e51b81526004016106a6906126ed565b610e836000611a1e565b565b60ff80546000911615610eaa5760405162461bcd60e51b81526004016106a690612722565b6033546001600160a01b0316331480610ed35750336000908152610102602052604090205460ff165b610f385760405162461bcd60e51b815260206004820152603060248201527f6c617a794d696e743a3a6f6e6c79206f776e6572206f7220617070726f76656460448201526f081b5a5b9d195c8818d85b881b5a5b9d60821b60648201526084016106a6565b61059982610f4560fc5490565b60fb546001600160a01b0316611a70565b919050565b6033546001600160a01b03163314610f855760405162461bcd60e51b81526004016106a6906126ed565b60ff805460ff1916600117905560405133907f793bc6423dd0257d64f9d47db72fd4b2162f4541aa41740ba1c5fb5e2cd41bcd90600090a2565b6033546001600160a01b03163314610fe95760405162461bcd60e51b81526004016106a6906126ed565b6101075460ff16156110475760405162461bcd60e51b815260206004820152602160248201527f757064617465426173655552493a3a6d65746164617461206973206c6f636b656044820152601960fa1b60648201526084016106a6565b6101066110558284836127a7565b507f1c306e70c05992619e2128ad1ef88df75f36c9476282e59f51401b2abaa42e4e8282604051611087929190612868565b60405180910390a15050565b6110b9604051806060016040528060008152602001606081526020016000151581525090565b60408051606081019091526101058054825261010680546020840191906110df906126b3565b80601f016020809104026020016040519081016040528092919081815260200182805461110b906126b3565b80156111585780601f1061112d57610100808354040283529160200191611158565b820191906000526020600020905b81548152906001019060200180831161113b57829003601f168201915b50505091835250506002919091015460ff161515602090910152919050565b6060609880546105ae906126b3565b611191338383611b2c565b5050565b6033546001600160a01b031633146111bf5760405162461bcd60e51b81526004016106a6906126ed565b60ff805416156111e15760405162461bcd60e51b81526004016106a690612722565b6107db838383611bfa565b6111f63383611571565b6112125760405162461bcd60e51b81526004016106a690612897565b61121e84848484611d6f565b50505050565b6033546001600160a01b0316331461124e5760405162461bcd60e51b81526004016106a6906126ed565b60ff805416156112705760405162461bcd60e51b81526004016106a690612722565b61127b848484611bfa565b6001600160a01b0316600090815261010260205260409020805460ff19166001179055505050565b600081815261010360205260408120805460609291906112c2906126b3565b905011156113695760008281526101036020526040902080546112e4906126b3565b80601f0160208091040260200160405190810160405280929190818152602001828054611310906126b3565b801561135d5780601f106113325761010080835404028352916020019161135d565b820191906000526020600020905b81548152906001019060200180831161134057829003601f168201915b50505050509050919050565b61010661137583611da2565b604051602001611386929190612973565b6040516020818303038152906040529050919050565b6033546001600160a01b031633146113c65760405162461bcd60e51b81526004016106a6906126ed565b600090815260fd6020526040902080546001600160a01b0319166001600160a01b0392909216919091179055565b6033546001600160a01b0316331461141e5760405162461bcd60e51b81526004016106a6906126ed565b6001600160a01b0381166114835760405162461bcd60e51b815260206004820152602660248201527f4f776e61626c653a206e6577206f776e657220697320746865207a65726f206160448201526564647265737360d01b60648201526084016106a6565b610a4c81611a1e565b6001600160e01b0319166301ffc9a760e01b1490565b60006001600160e01b0319821663152a902d60e11b14806105995750610599825b60006001600160e01b031982166380ac58cd60e01b14806114f457506001600160e01b03198216635b5e139f60e01b145b8061059957506105998261148c565b6000818152609b6020526040902080546001600160a01b0319166001600160a01b038416908117909155819061153882610d52565b6001600160a01b03167f8c5be1e5ebec7d5bd14f71427d1e84f3dd0314c0f7b2291e5b200ac8c7c3b92560405160405180910390a45050565b6000818152609960205260408120546001600160a01b03166115ea5760405162461bcd60e51b815260206004820152602c60248201527f4552433732313a206f70657261746f7220717565727920666f72206e6f6e657860448201526b34b9ba32b73a103a37b5b2b760a11b60648201526084016106a6565b60006115f583610d52565b9050806001600160a01b0316846001600160a01b0316148061163c57506001600160a01b038082166000908152609c602090815260408083209388168352929052205460ff165b806116605750836001600160a01b031661165584610631565b6001600160a01b0316145b949350505050565b826001600160a01b031661167b82610d52565b6001600160a01b0316146116df5760405162461bcd60e51b815260206004820152602560248201527f4552433732313a207472616e736665722066726f6d20696e636f72726563742060448201526437bbb732b960d91b60648201526084016106a6565b6001600160a01b0382166117415760405162461bcd60e51b8152602060048201526024808201527f4552433732313a207472616e7366657220746f20746865207a65726f206164646044820152637265737360e01b60648201526084016106a6565b61174c600082611503565b6001600160a01b0383166000908152609a60205260408120805460019290611775908490612a2f565b90915550506001600160a01b0382166000908152609a602052604081208054600192906117a3908490612a46565b909155505060008181526099602052604080822080546001600160a01b0319166001600160a01b0386811691821790925591518493918716917fddf252ad1be2c89b69c2b068fc378daa952ba7f163c4a11628f55a4df523b3ef91a4505050565b60006118108284612a5e565b9392505050565b60006118108284612a93565b60fb80546001600160a01b0319166001600160a01b0392909216919091179055565b600061185082610d52565b905061185d600083611503565b6001600160a01b0381166000908152609a60205260408120805460019290611886908490612a2f565b909155505060008281526099602052604080822080546001600160a01b0319169055518391906001600160a01b038416907fddf252ad1be2c89b69c2b068fc378daa952ba7f163c4a11628f55a4df523b3ef908390a45050565b60008054610100900460ff1615611927578160ff1660011480156119035750303b155b61191f5760405162461bcd60e51b81526004016106a690612aa7565b506000919050565b60005460ff80841691161061194e5760405162461bcd60e51b81526004016106a690612aa7565b506000805460ff191660ff92909216919091179055600190565b600054610100900460ff1661198f5760405162461bcd60e51b81526004016106a690612af5565b610e83611ea3565b600054610100900460ff166119be5760405162461bcd60e51b81526004016106a690612af5565b6111918282611ed3565b600054610100900460ff16610e835760405162461bcd60e51b81526004016106a690612af5565b600054610100900460ff16611a165760405162461bcd60e51b81526004016106a690612af5565b610e836119c8565b603380546001600160a01b038381166001600160a01b0319831681179093556040519116919082907f8be0079c531659141344cd1fd0a4f28419497f9722a3daafe3b4186f6b6457e090600090a35050565b6000611a8161010480546001019055565b6000611a8d6101045490565b905061010054811115611ae25760405162461bcd60e51b815260206004820181905260248201527f5f637265617465546f6b656e3a3a6578636565646564206d6178546f6b656e7360448201526064016106a6565b611aec8582611f13565b600081815260fe60205260409020849055600081815260fd6020526040902080546001600160a01b0319166001600160a01b038516179055949350505050565b816001600160a01b0316836001600160a01b031603611b8d5760405162461bcd60e51b815260206004820152601960248201527f4552433732313a20617070726f766520746f2063616c6c65720000000000000060448201526064016106a6565b6001600160a01b038381166000818152609c6020908152604080832094871680845294825291829020805460ff191686151590811790915591519182527f17307eab39ab6107e8899845ad3d59bd9653f200f220920489ca2b5937696c31910160405180910390a3505050565b61010054811115611c4d5760405162461bcd60e51b815260206004820181905260248201527f5f707265706172654d696e743a3a6578636565646564206d6178546f6b656e7360448201526064016106a6565b6101045415611cb85760405162461bcd60e51b815260206004820152603160248201527f5f707265706172654d696e743a3a63616e206f6e6c792070726570617265206d604482015270696e742077697468203020746f6b656e7360781b60648201526084016106a6565b604051806060016040528082815260200184848080601f016020809104026020016040519081016040528093929190818152602001838380828437600092018290525093855250505060209182015281516101059081559082015161010690611d219082612b40565b50604091820151600291909101805460ff19169115159190911790555181907f6f1d651e6e0c8f86bd32a20c22a644d1e34fabf72307ff95d51b9f5892ddba199061093f9086908690612868565b611d7a848484611668565b611d8684848484611f2d565b61121e5760405162461bcd60e51b81526004016106a690612c00565b606081600003611dc95750506040805180820190915260018152600360fc1b602082015290565b8160005b8115611df35780611ddd81612c52565b9150611dec9050600a83612a93565b9150611dcd565b60008167ffffffffffffffff811115611e0e57611e0e61253a565b6040519080825280601f01601f191660200182016040528015611e38576020820181803683370190505b5090505b841561166057611e4d600183612a2f565b9150611e5a600a86612c6b565b611e65906030612a46565b60f81b818381518110611e7a57611e7a612c7f565b60200101906001600160f81b031916908160001a905350611e9c600a86612a93565b9450611e3c565b600054610100900460ff16611eca5760405162461bcd60e51b81526004016106a690612af5565b610e8333611a1e565b600054610100900460ff16611efa5760405162461bcd60e51b81526004016106a690612af5565b6097611f068382612b40565b5060986107db8282612b40565b61119182826040518060200160405280600081525061202e565b60006001600160a01b0384163b1561202357604051630a85bd0160e11b81526001600160a01b0385169063150b7a0290611f71903390899088908890600401612c95565b6020604051808303816000875af1925050508015611fac575060408051601f3d908101601f19168201909252611fa991810190612cd2565b60015b612009573d808015611fda576040519150601f19603f3d011682016040523d82523d6000602084013e611fdf565b606091505b5080516000036120015760405162461bcd60e51b81526004016106a690612c00565b805181602001fd5b6001600160e01b031916630a85bd0160e11b149050611660565b506001949350505050565b6120388383612061565b6120456000848484611f2d565b6107db5760405162461bcd60e51b81526004016106a690612c00565b6001600160a01b0382166120b75760405162461bcd60e51b815260206004820181905260248201527f4552433732313a206d696e7420746f20746865207a65726f206164647265737360448201526064016106a6565b6000818152609960205260409020546001600160a01b03161561211c5760405162461bcd60e51b815260206004820152601c60248201527f4552433732313a20746f6b656e20616c7265616479206d696e7465640000000060448201526064016106a6565b6001600160a01b0382166000908152609a60205260408120805460019290612145908490612a46565b909155505060008181526099602052604080822080546001600160a01b0319166001600160a01b03861690811790915590518392907fddf252ad1be2c89b69c2b068fc378daa952ba7f163c4a11628f55a4df523b3ef908290a45050565b6001600160e01b031981168114610a4c57600080fd5b6000602082840312156121cb57600080fd5b8135611810816121a3565b60005b838110156121f15781810151838201526020016121d9565b8381111561121e5750506000910152565b6000815180845261221a8160208601602086016121d6565b601f01601f19169290920160200192915050565b6020815260006118106020830184612202565b60006020828403121561225357600080fd5b5035919050565b80356001600160a01b0381168114610f5657600080fd5b6000806040838503121561228457600080fd5b61228d8361225a565b946020939093013593505050565b600080604083850312156122ae57600080fd5b6122b78361225a565b9150602083013580151581146122cc57600080fd5b809150509250929050565b60008083601f8401126122e957600080fd5b50813567ffffffffffffffff81111561230157600080fd5b60208301915083602082850101111561231957600080fd5b9250929050565b60008060006040848603121561233557600080fd5b83359250602084013567ffffffffffffffff81111561235357600080fd5b61235f868287016122d7565b9497909650939450505050565b60008060006060848603121561238157600080fd5b61238a8461225a565b92506123986020850161225a565b9150604084013590509250925092565b600080604083850312156123bb57600080fd5b50508035926020909101359150565b6000602082840312156123dc57600080fd5b6118108261225a565b600080600080600080608087890312156123fe57600080fd5b863567ffffffffffffffff8082111561241657600080fd5b6124228a838b016122d7565b9098509650602089013591508082111561243b57600080fd5b5061244889828a016122d7565b909550935061245b90506040880161225a565b9150606087013590509295509295509295565b6000806020838503121561248157600080fd5b823567ffffffffffffffff81111561249857600080fd5b6124a4858286016122d7565b90969095509350505050565b602081528151602082015260006020830151606060408401526124d66080840182612202565b90506040840151151560608401528091505092915050565b60008060006040848603121561250357600080fd5b833567ffffffffffffffff81111561251a57600080fd5b612526868287016122d7565b909790965060209590950135949350505050565b634e487b7160e01b600052604160045260246000fd5b6000806000806080858703121561256657600080fd5b61256f8561225a565b935061257d6020860161225a565b925060408501359150606085013567ffffffffffffffff808211156125a157600080fd5b818701915087601f8301126125b557600080fd5b8135818111156125c7576125c761253a565b604051601f8201601f19908116603f011681019083821181831017156125ef576125ef61253a565b816040528281528a602084870101111561260857600080fd5b82602086016020830137600060208483010152809550505050505092959194509250565b6000806000806060858703121561264257600080fd5b843567ffffffffffffffff81111561265957600080fd5b612665878288016122d7565b9095509350506020850135915061267e6040860161225a565b905092959194509250565b6000806040838503121561269c57600080fd5b6126a58361225a565b9150610a106020840161225a565b600181811c908216806126c757607f821691505b6020821081036126e757634e487b7160e01b600052602260045260246000fd5b50919050565b6020808252818101527f4f776e61626c653a2063616c6c6572206973206e6f7420746865206f776e6572604082015260600190565b6020808252601e908201527f436f6e7472616374206d757374206e6f742062652064697361626c65642e0000604082015260600190565b601f8211156107db57600081815260208120601f850160051c810160208610156127805750805b601f850160051c820191505b8181101561279f5782815560010161278c565b505050505050565b67ffffffffffffffff8311156127bf576127bf61253a565b6127d3836127cd83546126b3565b83612759565b6000601f84116001811461280757600085156127ef5750838201355b600019600387901b1c1916600186901b178355612861565b600083815260209020601f19861690835b828110156128385786850135825560209485019460019092019101612818565b50868210156128555760001960f88860031b161c19848701351681555b505060018560011b0183555b5050505050565b60208152816020820152818360408301376000818301604090810191909152601f909201601f19160101919050565b60208082526031908201527f4552433732313a207472616e736665722063616c6c6572206973206e6f74206f6040820152701ddb995c881b9bdc88185c1c1c9bdd9959607a1b606082015260800190565b60006020808352600084546128fc816126b3565b8084870152604060018084166000811461291d576001811461293757612965565b60ff1985168984015283151560051b890183019550612965565b896000528660002060005b8581101561295d5781548b8201860152908301908801612942565b8a0184019650505b509398975050505050505050565b6000808454612981816126b3565b6001828116801561299957600181146129ae576129dd565b60ff19841687528215158302870194506129dd565b8860005260208060002060005b858110156129d45781548a8201529084019082016129bb565b50505082870194505b50602f60f81b8452865192506129f98382860160208a016121d6565b64173539b7b760d91b939092019182019290925260060195945050505050565b634e487b7160e01b600052601160045260246000fd5b600082821015612a4157612a41612a19565b500390565b60008219821115612a5957612a59612a19565b500190565b6000816000190483118215151615612a7857612a78612a19565b500290565b634e487b7160e01b600052601260045260246000fd5b600082612aa257612aa2612a7d565b500490565b6020808252602e908201527f496e697469616c697a61626c653a20636f6e747261637420697320616c72656160408201526d191e481a5b9a5d1a585b1a5e995960921b606082015260800190565b6020808252602b908201527f496e697469616c697a61626c653a20636f6e7472616374206973206e6f74206960408201526a6e697469616c697a696e6760a81b606082015260800190565b815167ffffffffffffffff811115612b5a57612b5a61253a565b612b6e81612b6884546126b3565b84612759565b602080601f831160018114612ba35760008415612b8b5750858301515b600019600386901b1c1916600185901b17855561279f565b600085815260208120601f198616915b82811015612bd257888601518255948401946001909101908401612bb3565b5085821015612bf05787850151600019600388901b60f8161c191681555b5050505050600190811b01905550565b60208082526032908201527f4552433732313a207472616e7366657220746f206e6f6e20455243373231526560408201527131b2b4bb32b91034b6b83632b6b2b73a32b960711b606082015260800190565b600060018201612c6457612c64612a19565b5060010190565b600082612c7a57612c7a612a7d565b500690565b634e487b7160e01b600052603260045260246000fd5b6001600160a01b0385811682528416602082015260408101839052608060608201819052600090612cc890830184612202565b9695505050505050565b600060208284031215612ce457600080fd5b8151611810816121a356fea26469706673582212203ad60c5acc0ff04f869f53b97ed097eb310c45126ed03b9e44d45229f8b29f2764736f6c634300080f0033",
    "linkReferences": {}
  },
  "methodIdentifiers": {
    "approve(address,uint256)": "095ea7b3",
    "balanceOf(address)": "70a08231",
    "burn(uint256)": "42966c68",
    "deleteToken(uint256)": "6297c16c",
    "disableContract()": "894ba833",
    "disabled()": "ee070805",
    "getApproved(uint256)": "081812fc",
    "getDefaultRoyaltyPercentage()": "ab69607a",
    "getDefaultRoyaltyReceiver()": "3403c4e9",
    "getMintConfig()": "9338bb5d",
    "init(string,string,address,uint256)": "5edc7c19",
    "isApprovedForAll(address,address)": "e985e9c5",
    "isApprovedMinter(address)": "3a3d146f",
    "lockBaseURI()": "53df5c7c",
    "maxTokens()": "e8315742",
    "mintTo(address)": "755edd17",
    "name()": "06fdde03",
    "owner()": "8da5cb5b",
    "ownerOf(uint256)": "6352211e",
    "prepareMint(string,uint256)": "b390ac25",
    "prepareMintWithMinter(string,uint256,address)": "b9fbd25c",
    "renounceOwnership()": "715018a6",
    "royaltyInfo(uint256,uint256)": "2a55205a",
    "safeTransferFrom(address,address,uint256)": "42842e0e",
    "safeTransferFrom(address,address,uint256,bytes)": "b88d4fde",
    "setApprovalForAll(address,bool)": "a22cb465",
    "setDefaultRoyaltyReceiver(address)": "3ebc82c5",
    "setMinterApproval(address,bool)": "0de54ba0",
    "setRoyaltyReceiverForToken(address,uint256)": "efc32cd4",
    "supportsInterface(bytes4)": "01ffc9a7",
    "symbol()": "95d89b41",
    "tokenCreator(uint256)": "40c1a064",
    "tokenURI(uint256)": "c87b56dd",
    "totalSupply()": "18160ddd",
    "transferFrom(address,address,uint256)": "23b872dd",
    "transferOwnership(address)": "f2fde38b",
    "updateBaseURI(string)": "931688cb",
    "updateTokenURI(uint256,string)": "18e97fd1"
  },
  "id": 37
}