{
  "abi": [
    {
      "anonymous": false,
      "inputs": [
        {
          "indexed": true,
          "internalType": "address",
          "name": "owner",
          "type": "address"
        },
        {
          "indexed": true,
          "internalType": "address",
          "name": "approved",
          "type": "address"
        },
        {
          "indexed": true,
          "internalType": "uint256",
          "name": "tokenId",
          "type": "uint256"
        }
      ],
      "name": "Approval",
      "type": "event"
    },
    {
      "anonymous": false,
      "inputs": [
        {
          "indexed": true,
          "internalType": "address",
          "name": "owner",
          "type": "address"
        },
        {
          "indexed": true,
          "internalType": "address",
          "name": "operator",
          "type": "address"
        },
        {
          "indexed": false,
          "internalType": "bool",
          "name": "approved",
          "type": "bool"
        }
      ],
      "name": "ApprovalForAll",
      "type": "event"
    },
    {
      "anonymous": false,
      "inputs": [
        {
          "indexed": true,
          "internalType": "address",
          "name": "user",
          "type": "address"
        }
      ],
      "name": "ContractDisabled",
      "type": "event"
    },
    {
      "anonymous": false,
      "inputs": [
        {
          "indexed": false,
          "internalType": "uint8",
          "name": "version",
          "type": "uint8"
        }
      ],
      "name": "Initialized",
      "type": "event"
    },
    {
      "anonymous": false,
      "inputs": [
        {
          "indexed": false,
          "internalType": "string",
          "name": "baseURI",
          "type": "string"
        }
      ],
      "name": "MetadataLocked",
      "type": "event"
    },
    {
      "anonymous": false,
      "inputs": [
        {
          "indexed": false,
          "internalType": "string",
          "name": "baseURI",
          "type": "string"
        }
      ],
      "name": "MetadataUpdated",
      "type": "event"
    },
    {
      "anonymous": false,
      "inputs": [
        {
          "indexed": true,
          "internalType": "address",
          "name": "previousOwner",
          "type": "address"
        },
        {
          "indexed": true,
          "internalType": "address",
          "name": "newOwner",
          "type": "address"
        }
      ],
      "name": "OwnershipTransferred",
      "type": "event"
    },
    {
      "anonymous": false,
      "inputs": [
        {
          "indexed": true,
          "internalType": "uint256",
          "name": "numberOfTokens",
          "type": "uint256"
        },
        {
          "indexed": false,
          "internalType": "string",
          "name": "baseURI",
          "type": "string"
        }
      ],
      "name": "PrepareMint",
      "type": "event"
    },
    {
      "anonymous": false,
      "inputs": [
        {
          "indexed": true,
          "internalType": "address",
          "name": "from",
          "type": "address"
        },
        {
          "indexed": true,
          "internalType": "address",
          "name": "to",
          "type": "address"
        },
        {
          "indexed": true,
          "internalType": "uint256",
          "name": "tokenId",
          "type": "uint256"
        }
      ],
      "name": "Transfer",
      "type": "event"
    },
    {
      "inputs": [
        {
          "internalType": "address",
          "name": "to",
          "type": "address"
        },
        {
          "internalType": "uint256",
          "name": "tokenId",
          "type": "uint256"
        }
      ],
      "name": "approve",
      "outputs": [],
      "stateMutability": "nonpayable",
      "type": "function"
    },
    {
      "inputs": [
        {
          "internalType": "address",
          "name": "owner",
          "type": "address"
        }
      ],
      "name": "balanceOf",
      "outputs": [
        {
          "internalType": "uint256",
          "name": "",
          "type": "uint256"
        }
      ],
      "stateMutability": "view",
      "type": "function"
    },
    {
      "inputs": [
        {
          "internalType": "uint256",
          "name": "tokenId",
          "type": "uint256"
        }
      ],
      "name": "burn",
      "outputs": [],
      "stateMutability": "nonpayable",
      "type": "function"
    },
    {
      "inputs": [
        {
          "internalType": "uint256",
          "name": "_tokenId",
          "type": "uint256"
        }
      ],
      "name": "deleteToken",
      "outputs": [],
      "stateMutability": "nonpayable",
      "type": "function"
    },
    {
      "inputs": [],
      "name": "disableContract",
      "outputs": [],
      "stateMutability": "nonpayable",
      "type": "function"
    },
    {
      "inputs": [],
      "name": "disabled",
      "outputs": [
        {
          "internalType": "bool",
          "name": "",
          "type": "bool"
        }
      ],
      "stateMutability": "view",
      "type": "function"
    },
    {
      "inputs": [
        {
          "internalType": "uint256",
          "name": "tokenId",
          "type": "uint256"
        }
      ],
      "name": "getApproved",
      "outputs": [
        {
          "internalType": "address",
          "name": "",
          "type": "address"
        }
      ],
      "stateMutability": "view",
      "type": "function"
    },
    {
      "inputs": [],
      "name": "getDefaultRoyaltyPercentage",
      "outputs": [
        {
          "internalType": "uint256",
          "name": "",
          "type": "uint256"
        }
      ],
      "stateMutability": "view",
      "type": "function"
    },
    {
      "inputs": [],
      "name": "getDefaultRoyaltyReceiver",
      "outputs": [
        {
          "internalType": "address",
          "name": "",
          "type": "address"
        }
      ],
      "stateMutability": "view",
      "type": "function"
    },
    {
      "inputs": [],
      "name": "getMintConfig",
      "outputs": [
        {
          "components": [
            {
              "internalType": "uint256",
              "name": "numberOfTokens",
              "type": "uint256"
            },
            {
              "internalType": "string",
              "name": "baseURI",
              "type": "string"
            },
            {
              "internalType": "bool",
              "name": "lockedMetadata",
              "type": "bool"
            }
          ],
          "internalType": "struct LazySovereignNFT.MintConfig",
          "name": "",
          "type": "tuple"
        }
      ],
      "stateMutability": "view",
      "type": "function"
    },
    {
      "inputs": [
        {
          "internalType": "string",
          "name": "_name",
          "type": "string"
        },
        {
          "internalType": "string",
          "name": "_symbol",
          "type": "string"
        },
        {
          "internalType": "address",
          "name": "_creator",
          "type": "address"
        },
        {
          "internalType": "uint256",
          "name": "_maxTokens",
          "type": "uint256"
        }
      ],
      "name": "init",
      "outputs": [],
      "stateMutability": "nonpayable",
      "type": "function"
    },
    {
      "inputs": [
        {
          "internalType": "address",
          "name": "owner",
          "type": "address"
        },
        {
          "internalType": "address",
          "name": "operator",
          "type": "address"
        }
      ],
      "name": "isApprovedForAll",
      "outputs": [
        {
          "internalType": "bool",
          "name": "",
          "type": "bool"
        }
      ],
      "stateMutability": "view",
      "type": "function"
    },
    {
      "inputs": [
        {
          "internalType": "address",
          "name": "_address",
          "type": "address"
        }
      ],
      "name": "isApprovedMinter",
      "outputs": [
        {
          "internalType": "bool",
          "name": "",
          "type": "bool"
        }
      ],
      "stateMutability": "view",
      "type": "function"
    },
    {
      "inputs": [],
      "name": "lockBaseURI",
      "outputs": [],
      "stateMutability": "nonpayable",
      "type": "function"
    },
    {
      "inputs": [],
      "name": "maxTokens",
      "outputs": [
        {
          "internalType": "uint256",
          "name": "",
          "type": "uint256"
        }
      ],
      "stateMutability": "view",
      "type": "function"
    },
    {
      "inputs": [
        {
          "internalType": "address",
          "name": "_receiver",
          "type": "address"
        }
      ],
      "name": "mintTo",
      "outputs": [
        {
          "internalType": "uint256",
          "name": "",
          "type": "uint256"
        }
      ],
      "stateMutability": "nonpayable",
      "type": "function"
    },
    {
      "inputs": [],
      "name": "name",
      "outputs": [
        {
          "internalType": "string",
          "name": "",
          "type": "string"
        }
      ],
      "stateMutability": "view",
      "type": "function"
    },
    {
      "inputs": [],
      "name": "owner",
      "outputs": [
        {
          "internalType": "address",
          "name": "",
          "type": "address"
        }
      ],
      "stateMutability": "view",
      "type": "function"
    },
    {
      "inputs": [
        {
          "internalType": "uint256",
          "name": "tokenId",
          "type": "uint256"
        }
      ],
      "name": "ownerOf",
      "outputs": [
        {
          "internalType": "address",
          "name": "",
          "type": "address"
        }
      ],
      "stateMutability": "view",
      "type": "function"
    },
    {
      "inputs": [
        {
          "internalType": "string",
          "name": "_baseURI",
          "type": "string"
        },
        {
          "internalType": "uint256",
          "name": "_numberOfTokens",
          "type": "uint256"
        }
      ],
      "name": "prepareMint",
      "outputs": [],
      "stateMutability": "nonpayable",
      "type": "function"
    },
    {
      "inputs": [
        {
          "internalType": "string",
          "name": "_baseURI",
          "type": "string"
        },
        {
          "internalType": "uint256",
          "name": "_numberOfTokens",
          "type": "uint256"
        },
        {
          "internalType": "address",
          "name": "_minter",
          "type": "address"
        }
      ],
      "name": "prepareMintWithMinter",
      "outputs": [],
      "stateMutability": "nonpayable",
      "type": "function"
    },
    {
      "inputs": [],
      "name": "renounceOwnership",
      "outputs": [],
      "stateMutability": "nonpayable",
      "type": "function"
    },
    {
      "inputs": [
        {
          "internalType": "uint256",
          "name": "_tokenId",
          "type": "uint256"
        },
        {
          "internalType": "uint256",
          "name": "_salePrice",
          "type": "uint256"
        }
      ],
      "name": "royaltyInfo",
      "outputs": [
        {
          "internalType": "address",
          "name": "receiver",
          "type": "address"
        },
        {
          "internalType": "uint256",
          "name": "royaltyAmount",
          "type": "uint256"
        }
      ],
      "stateMutability": "view",
      "type": "function"
    },
    {
      "inputs": [
        {
          "internalType": "address",
          "name": "from",
          "type": "address"
        },
        {
          "internalType": "address",
          "name": "to",
          "type": "address"
        },
        {
          "internalType": "uint256",
          "name": "tokenId",
          "type": "uint256"
        }
      ],
      "name": "safeTransferFrom",
      "outputs": [],
      "stateMutability": "nonpayable",
      "type": "function"
    },
    {
      "inputs": [
        {
          "internalType": "address",
          "name": "from",
          "type": "address"
        },
        {
          "internalType": "address",
          "name": "to",
          "type": "address"
        },
        {
          "internalType": "uint256",
          "name": "tokenId",
          "type": "uint256"
        },
        {
          "internalType": "bytes",
          "name": "_data",
          "type": "bytes"
        }
      ],
      "name": "safeTransferFrom",
      "outputs": [],
      "stateMutability": "nonpayable",
      "type": "function"
    },
    {
      "inputs": [
        {
          "internalType": "address",
          "name": "operator",
          "type": "address"
        },
        {
          "internalType": "bool",
          "name": "approved",
          "type": "bool"
        }
      ],
      "name": "setApprovalForAll",
      "outputs": [],
      "stateMutability": "nonpayable",
      "type": "function"
    },
    {
      "inputs": [
        {
          "internalType": "address",
          "name": "_receiver",
          "type": "address"
        }
      ],
      "name": "setDefaultRoyaltyReceiver",
      "outputs": [],
      "stateMutability": "nonpayable",
      "type": "function"
    },
    {
      "inputs": [
        {
          "internalType": "address",
          "name": "_minter",
          "type": "address"
        },
        {
          "internalType": "bool",
          "name": "_isMinter",
          "type": "bool"
        }
      ],
      "name": "setMinterApproval",
      "outputs": [],
      "stateMutability": "nonpayable",
      "type": "function"
    },
    {
      "inputs": [
        {
          "internalType": "address",
          "name": "_receiver",
          "type": "address"
        },
        {
          "internalType": "uint256",
          "name": "_tokenId",
          "type": "uint256"
        }
      ],
      "name": "setRoyaltyReceiverForToken",
      "outputs": [],
      "stateMutability": "nonpayable",
      "type": "function"
    },
    {
      "inputs": [
        {
          "internalType": "bytes4",
          "name": "interfaceId",
          "type": "bytes4"
        }
      ],
      "name": "supportsInterface",
      "outputs": [
        {
          "internalType": "bool",
          "name": "",
          "type": "bool"
        }
      ],
      "stateMutability": "view",
      "type": "function"
    },
    {
      "inputs": [],
      "name": "symbol",
      "outputs": [
        {
          "internalType": "string",
          "name": "",
          "type": "string"
        }
      ],
      "stateMutability": "view",
      "type": "function"
    },
    {
      "inputs": [
        {
          "internalType": "uint256",
          "name": "_tokenId",
          "type": "uint256"
        }
      ],
      "name": "tokenCreator",
      "outputs": [
        {
          "internalType": "address payable",
          "name": "",
          "type": "address"
        }
      ],
      "stateMutability": "view",
      "type": "function"
    },
    {
      "inputs": [
        {
          "internalType": "uint256",
          "name": "_tokenId",
          "type": "uint256"
        }
      ],
      "name": "tokenURI",
      "outputs": [
        {
          "internalType": "string",
          "name": "",
          "type": "string"
        }
      ],
      "stateMutability": "view",
      "type": "function"
    },
    {
      "inputs": [],
      "name": "totalSupply",
      "outputs": [
        {
          "internalType": "uint256",
          "name": "",
          "type": "uint256"
        }
      ],
      "stateMutability": "view",
      "type": "function"
    },
    {
      "inputs": [
        {
          "internalType": "address",
          "name": "from",
          "type": "address"
        },
        {
          "internalType": "address",
          "name": "to",
          "type": "address"
        },
        {
          "internalType": "uint256",
          "name": "tokenId",
          "type": "uint256"
        }
      ],
      "name": "transferFrom",
      "outputs": [],
      "stateMutability": "nonpayable",
      "type": "function"
    },
    {
      "inputs": [
        {
          "internalType": "address",
          "name": "newOwner",
          "type": "address"
        }
      ],
      "name": "transferOwnership",
      "outputs": [],
      "stateMutability": "nonpayable",
      "type": "function"
    },
    {
      "inputs": [
        {
          "internalType": "string",
          "name": "_baseURI",
          "type": "string"
        }
      ],
      "name": "updateBaseURI",
      "outputs": [],
      "stateMutability": "nonpayable",
      "type": "function"
    }
  ],
  "bytecode": {
    "object": "0x608060405234801561001057600080fd5b50612b21806100206000396000f3fe608060405234801561001057600080fd5b50600436106102275760003560e01c806370a0823111610130578063ab69607a116100b8578063e83157421161007c578063e8315742146104c0578063e985e9c5146104ca578063ee07080514610506578063efc32cd414610512578063f2fde38b1461052557600080fd5b8063ab69607a1461046c578063b390ac2514610474578063b88d4fde14610487578063b9fbd25c1461049a578063c87b56dd146104ad57600080fd5b80638da5cb5b116100ff5780638da5cb5b14610418578063931688cb146104295780639338bb5d1461043c57806395d89b4114610451578063a22cb4651461045957600080fd5b806370a08231146103e2578063715018a6146103f5578063755edd17146103fd578063894ba8331461041057600080fd5b80633a3d146f116101b357806342966c681161018257806342966c681461038e57806353df5c7c146103a15780635edc7c19146103a95780636297c16c146103bc5780636352211e146103cf57600080fd5b80633a3d146f146103285780633ebc82c51461035557806340c1a0641461036857806342842e0e1461037b57600080fd5b80630de54ba0116101fa5780630de54ba0146102a957806318160ddd146102bc57806323b872dd146102d25780632a55205a146102e55780633403c4e91461031757600080fd5b806301ffc9a71461022c57806306fdde0314610254578063081812fc14610269578063095ea7b314610294575b600080fd5b61023f61023a366004612001565b610538565b60405190151581526020015b60405180910390f35b61025c610581565b60405161024b9190612076565b61027c610277366004612089565b610613565b6040516001600160a01b03909116815260200161024b565b6102a76102a23660046120b9565b6106ad565b005b6102a76102b73660046120e3565b6107c2565b6102c461083a565b60405190815260200161024b565b6102a76102e036600461211f565b61084b565b6102f86102f336600461215b565b61087d565b604080516001600160a01b03909316835260208301919091520161024b565b60fb546001600160a01b031661027c565b61023f61033636600461217d565b6001600160a01b03166000908152610102602052604090205460ff1690565b6102a761036336600461217d565b610918565b61027c610376366004612089565b61094e565b6102a761038936600461211f565b610962565b6102a761039c366004612089565b61097d565b6102a76109f4565b6102a76103b73660046121e1565b610a68565b6102a76103ca366004612089565b610be8565b61027c6103dd366004612089565b610c51565b6102c46103f036600461217d565b610cc8565b6102a7610d4e565b6102c461040b36600461217d565b610d84565b6102a7610e5a565b6033546001600160a01b031661027c565b6102a761043736600461226a565b610ebe565b610444610f92565b60405161024b91906122ac565b61025c611076565b6102a76104673660046120e3565b611085565b60fc546102c4565b6102a76104823660046122ea565b611094565b6102a761049536600461234c565b6110eb565b6102a76104a8366004612428565b611123565b61025c6104bb366004612089565b6111a2565b6102c46101005481565b61023f6104d8366004612485565b6001600160a01b039182166000908152609c6020908152604080832093909416825291909152205460ff1690565b60ff805461023f911681565b6102a76105203660046120b9565b6111d7565b6102a761053336600461217d565b61122f565b60006001600160e01b03198216631030681960e21b148061055d575061055d826112c7565b8061056c575061056c826112dd565b8061057b575061057b826112fe565b92915050565b606060978054610590906124af565b80601f01602080910402602001604051908101604052809291908181526020018280546105bc906124af565b80156106095780601f106105de57610100808354040283529160200191610609565b820191906000526020600020905b8154815290600101906020018083116105ec57829003601f168201915b5050505050905090565b6000818152609960205260408120546001600160a01b03166106915760405162461bcd60e51b815260206004820152602c60248201527f4552433732313a20617070726f76656420717565727920666f72206e6f6e657860448201526b34b9ba32b73a103a37b5b2b760a11b60648201526084015b60405180910390fd5b506000908152609b60205260409020546001600160a01b031690565b60006106b882610c51565b9050806001600160a01b0316836001600160a01b0316036107255760405162461bcd60e51b815260206004820152602160248201527f4552433732313a20617070726f76616c20746f2063757272656e74206f776e656044820152603960f91b6064820152608401610688565b336001600160a01b0382161480610741575061074181336104d8565b6107b35760405162461bcd60e51b815260206004820152603860248201527f4552433732313a20617070726f76652063616c6c6572206973206e6f74206f7760448201527f6e6572206e6f7220617070726f76656420666f7220616c6c00000000000000006064820152608401610688565b6107bd838361133e565b505050565b6033546001600160a01b031633146107ec5760405162461bcd60e51b8152600401610688906124e9565b60ff8054161561080e5760405162461bcd60e51b81526004016106889061251e565b6001600160a01b0391909116600090815261010260205260409020805460ff1916911515919091179055565b60006108466101035490565b905090565b610856335b826113ac565b6108725760405162461bcd60e51b815260040161068890612555565b6107bd8383836114a3565b600082815260fd602052604081205481906001600160a01b03166108ac5760fb546001600160a01b03166108c5565b600084815260fd60205260409020546001600160a01b03165b915061090f606461090960fe6000888152602001908152602001600020546000036108f25760fc54610902565b600087815260fe60205260409020545b869061163f565b90611652565b90509250929050565b6033546001600160a01b031633146109425760405162461bcd60e51b8152600401610688906124e9565b61094b8161165e565b50565b600061057b6033546001600160a01b031690565b6107bd838383604051806020016040528060008152506110eb565b61098633610850565b6109eb5760405162461bcd60e51b815260206004820152603060248201527f4552433732314275726e61626c653a2063616c6c6572206973206e6f74206f7760448201526f1b995c881b9bdc88185c1c1c9bdd995960821b6064820152608401610688565b61094b81611680565b6033546001600160a01b03163314610a1e5760405162461bcd60e51b8152600401610688906124e9565b6040517fb634b0cb94234b05eabb1438717e0e645bfd84788ae1263682242327563cde5e90610a5090610105906125a6565b60405180910390a1610106805460ff19166001179055565b6000610a74600161171b565b90508015610a8c576000805461ff0019166101001790555b6001600160a01b038316610ae25760405162461bcd60e51b815260206004820152601e60248201527f63726561746f722063616e6e6f74206265206e756c6c206164647265737300006044820152606401610688565b610aec600a60fc55565b60ff805460ff19169055610100829055610b046117a3565b610b7787878080601f01602080910402602001604051908101604052809392919081815260200183838082843760009201919091525050604080516020601f8b0181900481028201810190925289815292508991508890819084018382808284376000920191909152506117d292505050565b610b7f611803565b610b8761182a565b610b908361165e565b610b998361122f565b8015610bdf576000805461ff0019169055604051600181527f7f26b83ff96e1f2b6a682f133852f6798a09c465da95921460cefb38474024989060200160405180910390a15b50505050505050565b33610bf282610c51565b6001600160a01b031614610c485760405162461bcd60e51b815260206004820152601f60248201527f4d75737420626520746865206f776e6572206f662074686520746f6b656e2e006044820152606401610688565b61094b8161097d565b6000818152609960205260408120546001600160a01b03168061057b5760405162461bcd60e51b815260206004820152602960248201527f4552433732313a206f776e657220717565727920666f72206e6f6e657869737460448201526832b73a103a37b5b2b760b91b6064820152608401610688565b60006001600160a01b038216610d325760405162461bcd60e51b815260206004820152602960248201527f4552433732313a2061646472657373207a65726f206973206e6f7420612076616044820152683634b21037bbb732b960b91b6064820152608401610688565b506001600160a01b03166000908152609a602052604090205490565b6033546001600160a01b03163314610d785760405162461bcd60e51b8152600401610688906124e9565b610d826000611859565b565b60ff80546000911615610da95760405162461bcd60e51b81526004016106889061251e565b6033546001600160a01b0316331480610dd25750336000908152610102602052604090205460ff165b610e375760405162461bcd60e51b815260206004820152603060248201527f6c617a794d696e743a3a6f6e6c79206f776e6572206f7220617070726f76656460448201526f081b5a5b9d195c8818d85b881b5a5b9d60821b6064820152608401610688565b61057b82610e4460fc5490565b60fb546001600160a01b03166118ab565b919050565b6033546001600160a01b03163314610e845760405162461bcd60e51b8152600401610688906124e9565b60ff805460ff1916600117905560405133907f793bc6423dd0257d64f9d47db72fd4b2162f4541aa41740ba1c5fb5e2cd41bcd90600090a2565b6033546001600160a01b03163314610ee85760405162461bcd60e51b8152600401610688906124e9565b6101065460ff1615610f465760405162461bcd60e51b815260206004820152602160248201527f757064617465426173655552493a3a6d65746164617461206973206c6f636b656044820152601960fa1b6064820152608401610688565b610105610f5482848361267f565b507f1c306e70c05992619e2128ad1ef88df75f36c9476282e59f51401b2abaa42e4e8282604051610f86929190612740565b60405180910390a15050565b610fb8604051806060016040528060008152602001606081526020016000151581525090565b6040805160608101909152610104805482526101058054602084019190610fde906124af565b80601f016020809104026020016040519081016040528092919081815260200182805461100a906124af565b80156110575780601f1061102c57610100808354040283529160200191611057565b820191906000526020600020905b81548152906001019060200180831161103a57829003601f168201915b50505091835250506002919091015460ff161515602090910152919050565b606060988054610590906124af565b611090338383611967565b5050565b6033546001600160a01b031633146110be5760405162461bcd60e51b8152600401610688906124e9565b60ff805416156110e05760405162461bcd60e51b81526004016106889061251e565b6107bd838383611a35565b6110f533836113ac565b6111115760405162461bcd60e51b815260040161068890612555565b61111d84848484611bb7565b50505050565b6033546001600160a01b0316331461114d5760405162461bcd60e51b8152600401610688906124e9565b60ff8054161561116f5760405162461bcd60e51b81526004016106889061251e565b61117a848484611a35565b6001600160a01b0316600090815261010260205260409020805460ff19166001179055505050565b60606101056111b083611bea565b6040516020016111c192919061276f565b6040516020818303038152906040529050919050565b6033546001600160a01b031633146112015760405162461bcd60e51b8152600401610688906124e9565b600090815260fd6020526040902080546001600160a01b0319166001600160a01b0392909216919091179055565b6033546001600160a01b031633146112595760405162461bcd60e51b8152600401610688906124e9565b6001600160a01b0381166112be5760405162461bcd60e51b815260206004820152602660248201527f4f776e61626c653a206e6577206f776e657220697320746865207a65726f206160448201526564647265737360d01b6064820152608401610688565b61094b81611859565b6001600160e01b0319166301ffc9a760e01b1490565b60006001600160e01b0319821663152a902d60e11b148061057b575061057b825b60006001600160e01b031982166380ac58cd60e01b148061132f57506001600160e01b03198216635b5e139f60e01b145b8061057b575061057b826112c7565b6000818152609b6020526040902080546001600160a01b0319166001600160a01b038416908117909155819061137382610c51565b6001600160a01b03167f8c5be1e5ebec7d5bd14f71427d1e84f3dd0314c0f7b2291e5b200ac8c7c3b92560405160405180910390a45050565b6000818152609960205260408120546001600160a01b03166114255760405162461bcd60e51b815260206004820152602c60248201527f4552433732313a206f70657261746f7220717565727920666f72206e6f6e657860448201526b34b9ba32b73a103a37b5b2b760a11b6064820152608401610688565b600061143083610c51565b9050806001600160a01b0316846001600160a01b0316148061147757506001600160a01b038082166000908152609c602090815260408083209388168352929052205460ff165b8061149b5750836001600160a01b031661149084610613565b6001600160a01b0316145b949350505050565b826001600160a01b03166114b682610c51565b6001600160a01b03161461151a5760405162461bcd60e51b815260206004820152602560248201527f4552433732313a207472616e736665722066726f6d20696e636f72726563742060448201526437bbb732b960d91b6064820152608401610688565b6001600160a01b03821661157c5760405162461bcd60e51b8152602060048201526024808201527f4552433732313a207472616e7366657220746f20746865207a65726f206164646044820152637265737360e01b6064820152608401610688565b61158760008261133e565b6001600160a01b0383166000908152609a602052604081208054600192906115b090849061282b565b90915550506001600160a01b0382166000908152609a602052604081208054600192906115de908490612842565b909155505060008181526099602052604080822080546001600160a01b0319166001600160a01b0386811691821790925591518493918716917fddf252ad1be2c89b69c2b068fc378daa952ba7f163c4a11628f55a4df523b3ef91a4505050565b600061164b828461285a565b9392505050565b600061164b828461288f565b60fb80546001600160a01b0319166001600160a01b0392909216919091179055565b600061168b82610c51565b905061169860008361133e565b6001600160a01b0381166000908152609a602052604081208054600192906116c190849061282b565b909155505060008281526099602052604080822080546001600160a01b0319169055518391906001600160a01b038416907fddf252ad1be2c89b69c2b068fc378daa952ba7f163c4a11628f55a4df523b3ef908390a45050565b60008054610100900460ff1615611762578160ff16600114801561173e5750303b155b61175a5760405162461bcd60e51b8152600401610688906128a3565b506000919050565b60005460ff8084169116106117895760405162461bcd60e51b8152600401610688906128a3565b506000805460ff191660ff92909216919091179055600190565b600054610100900460ff166117ca5760405162461bcd60e51b8152600401610688906128f1565b610d82611ceb565b600054610100900460ff166117f95760405162461bcd60e51b8152600401610688906128f1565b6110908282611d1b565b600054610100900460ff16610d825760405162461bcd60e51b8152600401610688906128f1565b600054610100900460ff166118515760405162461bcd60e51b8152600401610688906128f1565b610d82611803565b603380546001600160a01b038381166001600160a01b0319831681179093556040519116919082907f8be0079c531659141344cd1fd0a4f28419497f9722a3daafe3b4186f6b6457e090600090a35050565b60006118bc61010380546001019055565b60006118c86101035490565b90506101005481111561191d5760405162461bcd60e51b815260206004820181905260248201527f5f637265617465546f6b656e3a3a6578636565646564206d6178546f6b656e736044820152606401610688565b6119278582611d5b565b600081815260fe60205260409020849055600081815260fd6020526040902080546001600160a01b0319166001600160a01b038516179055949350505050565b816001600160a01b0316836001600160a01b0316036119c85760405162461bcd60e51b815260206004820152601960248201527f4552433732313a20617070726f766520746f2063616c6c6572000000000000006044820152606401610688565b6001600160a01b038381166000818152609c6020908152604080832094871680845294825291829020805460ff191686151590811790915591519182527f17307eab39ab6107e8899845ad3d59bd9653f200f220920489ca2b5937696c31910160405180910390a3505050565b61010054811115611a885760405162461bcd60e51b815260206004820181905260248201527f5f707265706172654d696e743a3a6578636565646564206d6178546f6b656e736044820152606401610688565b6101035415611af35760405162461bcd60e51b815260206004820152603160248201527f5f707265706172654d696e743a3a63616e206f6e6c792070726570617265206d604482015270696e742077697468203020746f6b656e7360781b6064820152608401610688565b604051806060016040528082815260200184848080601f016020809104026020016040519081016040528093929190818152602001838380828437600092018290525093855250505060209182015281516101049081559082015161010590611b5c908261293c565b50604091820151600291909101805460ff19169115159190911790555181907f6f1d651e6e0c8f86bd32a20c22a644d1e34fabf72307ff95d51b9f5892ddba1990611baa9086908690612740565b60405180910390a2505050565b611bc28484846114a3565b611bce84848484611d75565b61111d5760405162461bcd60e51b8152600401610688906129fc565b606081600003611c115750506040805180820190915260018152600360fc1b602082015290565b8160005b8115611c3b5780611c2581612a4e565b9150611c349050600a8361288f565b9150611c15565b60008167ffffffffffffffff811115611c5657611c56612336565b6040519080825280601f01601f191660200182016040528015611c80576020820181803683370190505b5090505b841561149b57611c9560018361282b565b9150611ca2600a86612a67565b611cad906030612842565b60f81b818381518110611cc257611cc2612a7b565b60200101906001600160f81b031916908160001a905350611ce4600a8661288f565b9450611c84565b600054610100900460ff16611d125760405162461bcd60e51b8152600401610688906128f1565b610d8233611859565b600054610100900460ff16611d425760405162461bcd60e51b8152600401610688906128f1565b6097611d4e838261293c565b5060986107bd828261293c565b611090828260405180602001604052806000815250611e76565b60006001600160a01b0384163b15611e6b57604051630a85bd0160e11b81526001600160a01b0385169063150b7a0290611db9903390899088908890600401612a91565b6020604051808303816000875af1925050508015611df4575060408051601f3d908101601f19168201909252611df191810190612ace565b60015b611e51573d808015611e22576040519150601f19603f3d011682016040523d82523d6000602084013e611e27565b606091505b508051600003611e495760405162461bcd60e51b8152600401610688906129fc565b805181602001fd5b6001600160e01b031916630a85bd0160e11b14905061149b565b506001949350505050565b611e808383611ea9565b611e8d6000848484611d75565b6107bd5760405162461bcd60e51b8152600401610688906129fc565b6001600160a01b038216611eff5760405162461bcd60e51b815260206004820181905260248201527f4552433732313a206d696e7420746f20746865207a65726f20616464726573736044820152606401610688565b6000818152609960205260409020546001600160a01b031615611f645760405162461bcd60e51b815260206004820152601c60248201527f4552433732313a20746f6b656e20616c7265616479206d696e746564000000006044820152606401610688565b6001600160a01b0382166000908152609a60205260408120805460019290611f8d908490612842565b909155505060008181526099602052604080822080546001600160a01b0319166001600160a01b03861690811790915590518392907fddf252ad1be2c89b69c2b068fc378daa952ba7f163c4a11628f55a4df523b3ef908290a45050565b6001600160e01b03198116811461094b57600080fd5b60006020828403121561201357600080fd5b813561164b81611feb565b60005b83811015612039578181015183820152602001612021565b8381111561111d5750506000910152565b6000815180845261206281602086016020860161201e565b601f01601f19169290920160200192915050565b60208152600061164b602083018461204a565b60006020828403121561209b57600080fd5b5035919050565b80356001600160a01b0381168114610e5557600080fd5b600080604083850312156120cc57600080fd5b6120d5836120a2565b946020939093013593505050565b600080604083850312156120f657600080fd5b6120ff836120a2565b91506020830135801515811461211457600080fd5b809150509250929050565b60008060006060848603121561213457600080fd5b61213d846120a2565b925061214b602085016120a2565b9150604084013590509250925092565b6000806040838503121561216e57600080fd5b50508035926020909101359150565b60006020828403121561218f57600080fd5b61164b826120a2565b60008083601f8401126121aa57600080fd5b50813567ffffffffffffffff8111156121c257600080fd5b6020830191508360208285010111156121da57600080fd5b9250929050565b600080600080600080608087890312156121fa57600080fd5b863567ffffffffffffffff8082111561221257600080fd5b61221e8a838b01612198565b9098509650602089013591508082111561223757600080fd5b5061224489828a01612198565b90955093506122579050604088016120a2565b9150606087013590509295509295509295565b6000806020838503121561227d57600080fd5b823567ffffffffffffffff81111561229457600080fd5b6122a085828601612198565b90969095509350505050565b602081528151602082015260006020830151606060408401526122d2608084018261204a565b90506040840151151560608401528091505092915050565b6000806000604084860312156122ff57600080fd5b833567ffffffffffffffff81111561231657600080fd5b61232286828701612198565b909790965060209590950135949350505050565b634e487b7160e01b600052604160045260246000fd5b6000806000806080858703121561236257600080fd5b61236b856120a2565b9350612379602086016120a2565b925060408501359150606085013567ffffffffffffffff8082111561239d57600080fd5b818701915087601f8301126123b157600080fd5b8135818111156123c3576123c3612336565b604051601f8201601f19908116603f011681019083821181831017156123eb576123eb612336565b816040528281528a602084870101111561240457600080fd5b82602086016020830137600060208483010152809550505050505092959194509250565b6000806000806060858703121561243e57600080fd5b843567ffffffffffffffff81111561245557600080fd5b61246187828801612198565b9095509350506020850135915061247a604086016120a2565b905092959194509250565b6000806040838503121561249857600080fd5b6124a1836120a2565b915061090f602084016120a2565b600181811c908216806124c357607f821691505b6020821081036124e357634e487b7160e01b600052602260045260246000fd5b50919050565b6020808252818101527f4f776e61626c653a2063616c6c6572206973206e6f7420746865206f776e6572604082015260600190565b6020808252601e908201527f436f6e7472616374206d757374206e6f742062652064697361626c65642e0000604082015260600190565b60208082526031908201527f4552433732313a207472616e736665722063616c6c6572206973206e6f74206f6040820152701ddb995c881b9bdc88185c1c1c9bdd9959607a1b606082015260800190565b60006020808352600084546125ba816124af565b808487015260406001808416600081146125db57600181146125f557612623565b60ff1985168984015283151560051b890183019550612623565b896000528660002060005b8581101561261b5781548b8201860152908301908801612600565b8a0184019650505b509398975050505050505050565b601f8211156107bd57600081815260208120601f850160051c810160208610156126585750805b601f850160051c820191505b8181101561267757828155600101612664565b505050505050565b67ffffffffffffffff83111561269757612697612336565b6126ab836126a583546124af565b83612631565b6000601f8411600181146126df57600085156126c75750838201355b600019600387901b1c1916600186901b178355612739565b600083815260209020601f19861690835b8281101561271057868501358255602094850194600190920191016126f0565b508682101561272d5760001960f88860031b161c19848701351681555b505060018560011b0183555b5050505050565b60208152816020820152818360408301376000818301604090810191909152601f909201601f19160101919050565b600080845461277d816124af565b6001828116801561279557600181146127aa576127d9565b60ff19841687528215158302870194506127d9565b8860005260208060002060005b858110156127d05781548a8201529084019082016127b7565b50505082870194505b50602f60f81b8452865192506127f58382860160208a0161201e565b64173539b7b760d91b939092019182019290925260060195945050505050565b634e487b7160e01b600052601160045260246000fd5b60008282101561283d5761283d612815565b500390565b6000821982111561285557612855612815565b500190565b600081600019048311821515161561287457612874612815565b500290565b634e487b7160e01b600052601260045260246000fd5b60008261289e5761289e612879565b500490565b6020808252602e908201527f496e697469616c697a61626c653a20636f6e747261637420697320616c72656160408201526d191e481a5b9a5d1a585b1a5e995960921b606082015260800190565b6020808252602b908201527f496e697469616c697a61626c653a20636f6e7472616374206973206e6f74206960408201526a6e697469616c697a696e6760a81b606082015260800190565b815167ffffffffffffffff81111561295657612956612336565b61296a8161296484546124af565b84612631565b602080601f83116001811461299f57600084156129875750858301515b600019600386901b1c1916600185901b178555612677565b600085815260208120601f198616915b828110156129ce578886015182559484019460019091019084016129af565b50858210156129ec5787850151600019600388901b60f8161c191681555b5050505050600190811b01905550565b60208082526032908201527f4552433732313a207472616e7366657220746f206e6f6e20455243373231526560408201527131b2b4bb32b91034b6b83632b6b2b73a32b960711b606082015260800190565b600060018201612a6057612a60612815565b5060010190565b600082612a7657612a76612879565b500690565b634e487b7160e01b600052603260045260246000fd5b6001600160a01b0385811682528416602082015260408101839052608060608201819052600090612ac49083018461204a565b9695505050505050565b600060208284031215612ae057600080fd5b815161164b81611feb56fea2646970667358221220c98fa94911acc69f4888b4ce79165e5d513b88b682cd7393129d9d4db9c2729964736f6c634300080f0033",
    "linkReferences": {}
  },
  "methodIdentifiers": {
    "approve(address,uint256)": "095ea7b3",
    "balanceOf(address)": "70a08231",
    "burn(uint256)": "42966c68",
    "deleteToken(uint256)": "6297c16c",
    "disableContract()": "894ba833",
    "disabled()": "ee070805",
    "getApproved(uint256)": "081812fc",
    "getDefaultRoyaltyPercentage()": "ab69607a",
    "getDefaultRoyaltyReceiver()": "3403c4e9",
    "getMintConfig()": "9338bb5d",
    "init(string,string,address,uint256)": "5edc7c19",
    "isApprovedForAll(address,address)": "e985e9c5",
    "isApprovedMinter(address)": "3a3d146f",
    "lockBaseURI()": "53df5c7c",
    "maxTokens()": "e8315742",
    "mintTo(address)": "755edd17",
    "name()": "06fdde03",
    "owner()": "8da5cb5b",
    "ownerOf(uint256)": "6352211e",
    "prepareMint(string,uint256)": "b390ac25",
    "prepareMintWithMinter(string,uint256,address)": "b9fbd25c",
    "renounceOwnership()": "715018a6",
    "royaltyInfo(uint256,uint256)": "2a55205a",
    "safeTransferFrom(address,address,uint256)": "42842e0e",
    "safeTransferFrom(address,address,uint256,bytes)": "b88d4fde",
    "setApprovalForAll(address,bool)": "a22cb465",
    "setDefaultRoyaltyReceiver(address)": "3ebc82c5",
    "setMinterApproval(address,bool)": "0de54ba0",
    "setRoyaltyReceiverForToken(address,uint256)": "efc32cd4",
    "supportsInterface(bytes4)": "01ffc9a7",
    "symbol()": "95d89b41",
    "tokenCreator(uint256)": "40c1a064",
    "tokenURI(uint256)": "c87b56dd",
    "totalSupply()": "18160ddd",
    "transferFrom(address,address,uint256)": "23b872dd",
    "transferOwnership(address)": "f2fde38b",
    "updateBaseURI(string)": "931688cb"
  },
  "id": 63
}