{
  "abi": [
    {
      "inputs": [],
      "stateMutability": "nonpayable",
      "type": "constructor"
    },
    {
      "anonymous": false,
      "inputs": [
        {
          "indexed": true,
          "internalType": "address",
          "name": "previousOwner",
          "type": "address"
        },
        {
          "indexed": true,
          "internalType": "address",
          "name": "newOwner",
          "type": "address"
        }
      ],
      "name": "OwnershipTransferred",
      "type": "event"
    },
    {
      "anonymous": false,
      "inputs": [
        {
          "indexed": true,
          "internalType": "address",
          "name": "contractAddress",
          "type": "address"
        },
        {
          "indexed": true,
          "internalType": "address",
          "name": "owner",
          "type": "address"
        }
      ],
      "name": "SovereignNFTContractCreated",
      "type": "event"
    },
    {
      "anonymous": false,
      "inputs": [
        {
          "indexed": true,
          "internalType": "address",
          "name": "contractAddress",
          "type": "address"
        },
        {
          "indexed": true,
          "internalType": "address",
          "name": "owner",
          "type": "address"
        },
        {
          "indexed": true,
          "internalType": "bytes32",
          "name": "contractType",
          "type": "bytes32"
        }
      ],
      "name": "SovereignNFTContractCreated",
      "type": "event"
    },
    {
      "inputs": [],
      "name": "LAZY_ROYALTY_GUARD",
      "outputs": [
        {
          "internalType": "bytes32",
          "name": "",
          "type": "bytes32"
        }
      ],
      "stateMutability": "view",
      "type": "function"
    },
    {
      "inputs": [],
      "name": "LAZY_ROYALTY_GUARD_DEADMAN",
      "outputs": [
        {
          "internalType": "bytes32",
          "name": "",
          "type": "bytes32"
        }
      ],
      "stateMutability": "view",
      "type": "function"
    },
    {
      "inputs": [],
      "name": "LAZY_SOVEREIGN_NFT",
      "outputs": [
        {
          "internalType": "bytes32",
          "name": "",
          "type": "bytes32"
        }
      ],
      "stateMutability": "view",
      "type": "function"
    },
    {
      "inputs": [
        {
          "internalType": "string",
          "name": "_name",
          "type": "string"
        },
        {
          "internalType": "string",
          "name": "_symbol",
          "type": "string"
        },
        {
          "internalType": "uint256",
          "name": "_maxTokens",
          "type": "uint256"
        },
        {
          "internalType": "bytes32",
          "name": "_contractType",
          "type": "bytes32"
        }
      ],
      "name": "createSovereignNFTContract",
      "outputs": [
        {
          "internalType": "address",
          "name": "",
          "type": "address"
        }
      ],
      "stateMutability": "nonpayable",
      "type": "function"
    },
    {
      "inputs": [],
      "name": "lazySovereignNFT",
      "outputs": [
        {
          "internalType": "address",
          "name": "",
          "type": "address"
        }
      ],
      "stateMutability": "view",
      "type": "function"
    },
    {
      "inputs": [],
      "name": "lazySovereignNFTRoyaltyGuard",
      "outputs": [
        {
          "internalType": "address",
          "name": "",
          "type": "address"
        }
      ],
      "stateMutability": "view",
      "type": "function"
    },
    {
      "inputs": [],
      "name": "lazySovereignNFTRoyaltyGuardDeadmanTrigger",
      "outputs": [
        {
          "internalType": "address",
          "name": "",
          "type": "address"
        }
      ],
      "stateMutability": "view",
      "type": "function"
    },
    {
      "inputs": [],
      "name": "owner",
      "outputs": [
        {
          "internalType": "address",
          "name": "",
          "type": "address"
        }
      ],
      "stateMutability": "view",
      "type": "function"
    },
    {
      "inputs": [],
      "name": "renounceOwnership",
      "outputs": [],
      "stateMutability": "nonpayable",
      "type": "function"
    },
    {
      "inputs": [
        {
          "internalType": "address",
          "name": "_sovereignNFT",
          "type": "address"
        },
        {
          "internalType": "bytes32",
          "name": "_contractType",
          "type": "bytes32"
        }
      ],
      "name": "setSovereignNFT",
      "outputs": [],
      "stateMutability": "nonpayable",
      "type": "function"
    },
    {
      "inputs": [
        {
          "internalType": "address",
          "name": "newOwner",
          "type": "address"
        }
      ],
      "name": "transferOwnership",
      "outputs": [],
      "stateMutability": "nonpayable",
      "type": "function"
    }
  ],
  "bytecode": {
    "object": "0x608060405234801561001057600080fd5b5061001a33610102565b600060405161002890610152565b604051809103906000f080158015610044573d6000803e3d6000fd5b50600180546001600160a01b0319166001600160a01b03831617905560405190915060009061007290610160565b604051809103906000f08015801561008e573d6000803e3d6000fd5b50600280546001600160a01b0319166001600160a01b0383161790556040519091506000906100bc9061016e565b604051809103906000f0801580156100d8573d6000803e3d6000fd5b50600380546001600160a01b0319166001600160a01b03929092169190911790555061017c915050565b600080546001600160a01b038381166001600160a01b0319831681178455604051919092169283917f8be0079c531659141344cd1fd0a4f28419497f9722a3daafe3b4186f6b6457e09190a35050565b612aab8062000c6883390190565b6135c7806200371383390190565b6136f98062006cda83390190565b610adc806200018c6000396000f3fe608060405234801561001057600080fd5b50600436106100a85760003560e01c8063877ebf5111610071578063877ebf511461016a5780638da5cb5b1461017d578063a55b1c251461018e578063c4dca7ab146101a1578063f2fde38b146101b4578063f5e0e6df146101c757600080fd5b8062e8ece6146100ad57806322d60fcb146100e7578063637944f514610112578063715018a614610139578063740adf3114610143575b600080fd5b6100d47f5d53444d40ee2f466d1c91f96d7c4d4b6bcb514ac7911b9a6c947234a2f957c581565b6040519081526020015b60405180910390f35b6002546100fa906001600160a01b031681565b6040516001600160a01b0390911681526020016100de565b6100d47f8eae45f58440dde5634b0645eea1e0aa7e9dfd92d41ded6de63fc6498057dd6881565b6101416101da565b005b6100d47f6c556facba1fb001f8d830adc0dcceae3a683a8890dc3299db292ca0c662517081565b6100fa61017836600461090b565b610219565b6000546001600160a01b03166100fa565b61014161019c366004610996565b610576565b6003546100fa906001600160a01b031681565b6101416101c23660046109c0565b6106e1565b6001546100fa906001600160a01b031681565b6000546001600160a01b0316331461020d5760405162461bcd60e51b8152600401610204906109e2565b60405180910390fd5b610217600061077c565b565b6000826000036102875760405162461bcd60e51b815260206004820152603360248201527f637265617465536f7665726569676e4e4654436f6e74726163743a3a5f6d6178604482015272546f6b656e732063616e74206265207a65726f60681b6064820152608401610204565b60007f8eae45f58440dde5634b0645eea1e0aa7e9dfd92d41ded6de63fc6498057dd68830361032d576001546102c5906001600160a01b03166107cc565b604051635edc7c1960e01b81529091506001600160a01b03821690635edc7c19906102fa908990899033908a90600401610a64565b600060405180830381600087803b15801561031457600080fd5b505af1158015610328573d6000803e3d6000fd5b505050505b7f5d53444d40ee2f466d1c91f96d7c4d4b6bcb514ac7911b9a6c947234a2f957c583036103d157600254610369906001600160a01b03166107cc565b604051635edc7c1960e01b81529091506001600160a01b03821690635edc7c199061039e908990899033908a90600401610a64565b600060405180830381600087803b1580156103b857600080fd5b505af11580156103cc573d6000803e3d6000fd5b505050505b7f6c556facba1fb001f8d830adc0dcceae3a683a8890dc3299db292ca0c662517083036104755760035461040d906001600160a01b03166107cc565b604051635edc7c1960e01b81529091506001600160a01b03821690635edc7c1990610442908990899033908a90600401610a64565b600060405180830381600087803b15801561045c57600080fd5b505af1158015610470573d6000803e3d6000fd5b505050505b6001600160a01b0381166104ff5760405162461bcd60e51b8152602060048201526044602482018190527f637265617465536f7665726569676e4e4654436f6e74726163743a3a5f636f6e908201527f74726163745479706520756e737570706f7274656420636f6e747261637420746064820152633cb8329760e11b608482015260a401610204565b60405133906001600160a01b038316907f46dd19b0bfeba14ab8b9e9c9e4179a2f8a3ba70420a845ea8da585dd8e59eeec90600090a3604051839033906001600160a01b038416907feec8a411955d10f84b6b0e3110b206d0888593b71381b8ca931e8f131f7eb36590600090a495945050505050565b6000546001600160a01b031633146105a05760405162461bcd60e51b8152600401610204906109e2565b6001600160a01b0382166105b357600080fd5b7f8eae45f58440dde5634b0645eea1e0aa7e9dfd92d41ded6de63fc6498057dd6881036105f957600180546001600160a01b0319166001600160a01b0384161790555050565b7f5d53444d40ee2f466d1c91f96d7c4d4b6bcb514ac7911b9a6c947234a2f957c5810361063f57600280546001600160a01b0319166001600160a01b0384161790555050565b7f6c556facba1fb001f8d830adc0dcceae3a683a8890dc3299db292ca0c6625170810361068557600380546001600160a01b0319166001600160a01b0384161790555050565b60405162461bcd60e51b815260206004820152602b60248201527f736574536f7665726569676e4e46543a3a556e737570706f72746564205f636f60448201526a373a3930b1ba2a3cb8329760a91b6064820152608401610204565b6000546001600160a01b0316331461070b5760405162461bcd60e51b8152600401610204906109e2565b6001600160a01b0381166107705760405162461bcd60e51b815260206004820152602660248201527f4f776e61626c653a206e6577206f776e657220697320746865207a65726f206160448201526564647265737360d01b6064820152608401610204565b6107798161077c565b50565b600080546001600160a01b038381166001600160a01b0319831681178455604051919092169283917f8be0079c531659141344cd1fd0a4f28419497f9722a3daafe3b4186f6b6457e09190a35050565b600060405172602d8060093d393df3363d3d373d3d3d363d7360681b81528260601b60138201526e5af43d82803e903d91602b57fd5bf360881b60278201526036816000f09150506001600160a01b0381166108635760405162461bcd60e51b8152602060048201526016602482015275115490cc4c4d8dce8818dc99585d194819985a5b195960521b6044820152606401610204565b919050565b634e487b7160e01b600052604160045260246000fd5b600082601f83011261088f57600080fd5b813567ffffffffffffffff808211156108aa576108aa610868565b604051601f8301601f19908116603f011681019082821181831017156108d2576108d2610868565b816040528381528660208588010111156108eb57600080fd5b836020870160208301376000602085830101528094505050505092915050565b6000806000806080858703121561092157600080fd5b843567ffffffffffffffff8082111561093957600080fd5b6109458883890161087e565b9550602087013591508082111561095b57600080fd5b506109688782880161087e565b949794965050505060408301359260600135919050565b80356001600160a01b038116811461086357600080fd5b600080604083850312156109a957600080fd5b6109b28361097f565b946020939093013593505050565b6000602082840312156109d257600080fd5b6109db8261097f565b9392505050565b6020808252818101527f4f776e61626c653a2063616c6c6572206973206e6f7420746865206f776e6572604082015260600190565b6000815180845260005b81811015610a3d57602081850181015186830182015201610a21565b81811115610a4f576000602083870101525b50601f01601f19169290920160200192915050565b608081526000610a776080830187610a17565b8281036020840152610a898187610a17565b6001600160a01b039590951660408401525050606001529291505056fea2646970667358221220906090048b3f0a41192dec785c21159429bccfc1178bd9be581ee5514be1158064736f6c634300080f0033608060405234801561001057600080fd5b50612a8b806100206000396000f3fe608060405234801561001057600080fd5b506004361061021c5760003560e01c8063715018a611610125578063b390ac25116100ad578063e83157421161007c578063e8315742146104a2578063e985e9c5146104ac578063ee070805146104e8578063efc32cd4146104f4578063f2fde38b1461050757600080fd5b8063b390ac2514610456578063b88d4fde14610469578063b9fbd25c1461047c578063c87b56dd1461048f57600080fd5b8063931688cb116100f4578063931688cb1461040b5780639338bb5d1461041e57806395d89b4114610433578063a22cb4651461043b578063ab69607a1461044e57600080fd5b8063715018a6146103d7578063755edd17146103df578063894ba833146103f25780638da5cb5b146103fa57600080fd5b80633ebc82c5116101a857806353df5c7c1161017757806353df5c7c146103835780635edc7c191461038b5780636297c16c1461039e5780636352211e146103b157806370a08231146103c457600080fd5b80633ebc82c51461033757806340c1a0641461034a57806342842e0e1461035d57806342966c681461037057600080fd5b806318160ddd116101ef57806318160ddd1461029e57806323b872dd146102b45780632a55205a146102c75780633403c4e9146102f95780633a3d146f1461030a57600080fd5b806301ffc9a71461022157806306fdde0314610249578063081812fc1461025e578063095ea7b314610289575b600080fd5b61023461022f366004611f6b565b61051a565b60405190151581526020015b60405180910390f35b610251610563565b6040516102409190611fe0565b61027161026c366004611ff3565b6105f5565b6040516001600160a01b039091168152602001610240565b61029c610297366004612023565b61068f565b005b6102a66107a4565b604051908152602001610240565b61029c6102c236600461204d565b6107b5565b6102da6102d5366004612089565b6107e7565b604080516001600160a01b039093168352602083019190915201610240565b60fb546001600160a01b0316610271565b6102346103183660046120ab565b6001600160a01b03166000908152610102602052604090205460ff1690565b61029c6103453660046120ab565b610882565b610271610358366004611ff3565b6108b8565b61029c61036b36600461204d565b6108cc565b61029c61037e366004611ff3565b6108e7565b61029c61095e565b61029c61039936600461210f565b6109d2565b61029c6103ac366004611ff3565b610b52565b6102716103bf366004611ff3565b610bbb565b6102a66103d23660046120ab565b610c32565b61029c610cb8565b6102a66103ed3660046120ab565b610cee565b61029c610dc4565b6033546001600160a01b0316610271565b61029c610419366004612198565b610e28565b610426610efc565b60405161024091906121da565b610251610fe0565b61029c610449366004612218565b610fef565b60fc546102a6565b61029c610464366004612254565b610ffe565b61029c6104773660046122b6565b611055565b61029c61048a366004612392565b61108d565b61025161049d366004611ff3565b61110c565b6102a66101005481565b6102346104ba3660046123ef565b6001600160a01b039182166000908152609c6020908152604080832093909416825291909152205460ff1690565b60ff8054610234911681565b61029c610502366004612023565b611141565b61029c6105153660046120ab565b611199565b60006001600160e01b03198216631030681960e21b148061053f575061053f82611231565b8061054e575061054e82611247565b8061055d575061055d82611268565b92915050565b60606097805461057290612419565b80601f016020809104026020016040519081016040528092919081815260200182805461059e90612419565b80156105eb5780601f106105c0576101008083540402835291602001916105eb565b820191906000526020600020905b8154815290600101906020018083116105ce57829003601f168201915b5050505050905090565b6000818152609960205260408120546001600160a01b03166106735760405162461bcd60e51b815260206004820152602c60248201527f4552433732313a20617070726f76656420717565727920666f72206e6f6e657860448201526b34b9ba32b73a103a37b5b2b760a11b60648201526084015b60405180910390fd5b506000908152609b60205260409020546001600160a01b031690565b600061069a82610bbb565b9050806001600160a01b0316836001600160a01b0316036107075760405162461bcd60e51b815260206004820152602160248201527f4552433732313a20617070726f76616c20746f2063757272656e74206f776e656044820152603960f91b606482015260840161066a565b336001600160a01b0382161480610723575061072381336104ba565b6107955760405162461bcd60e51b815260206004820152603860248201527f4552433732313a20617070726f76652063616c6c6572206973206e6f74206f7760448201527f6e6572206e6f7220617070726f76656420666f7220616c6c0000000000000000606482015260840161066a565b61079f83836112a8565b505050565b60006107b06101035490565b905090565b6107c0335b82611316565b6107dc5760405162461bcd60e51b815260040161066a90612453565b61079f83838361140d565b600082815260fd602052604081205481906001600160a01b03166108165760fb546001600160a01b031661082f565b600084815260fd60205260409020546001600160a01b03165b9150610879606461087360fe60008881526020019081526020016000205460000361085c5760fc5461086c565b600087815260fe60205260409020545b86906115a9565b906115bc565b90509250929050565b6033546001600160a01b031633146108ac5760405162461bcd60e51b815260040161066a906124a4565b6108b5816115c8565b50565b600061055d6033546001600160a01b031690565b61079f83838360405180602001604052806000815250611055565b6108f0336107ba565b6109555760405162461bcd60e51b815260206004820152603060248201527f4552433732314275726e61626c653a2063616c6c6572206973206e6f74206f7760448201526f1b995c881b9bdc88185c1c1c9bdd995960821b606482015260840161066a565b6108b5816115ea565b6033546001600160a01b031633146109885760405162461bcd60e51b815260040161066a906124a4565b6040517fb634b0cb94234b05eabb1438717e0e645bfd84788ae1263682242327563cde5e906109ba90610105906124d9565b60405180910390a1610106805460ff19166001179055565b60006109de6001611685565b905080156109f6576000805461ff0019166101001790555b6001600160a01b038316610a4c5760405162461bcd60e51b815260206004820152601e60248201527f63726561746f722063616e6e6f74206265206e756c6c20616464726573730000604482015260640161066a565b610a56600a60fc55565b60ff805460ff19169055610100829055610a6e61170d565b610ae187878080601f01602080910402602001604051908101604052809392919081815260200183838082843760009201919091525050604080516020601f8b01819004810282018101909252898152925089915088908190840183828082843760009201919091525061173c92505050565b610ae961176d565b610af1611794565b610afa836115c8565b610b0383611199565b8015610b49576000805461ff0019169055604051600181527f7f26b83ff96e1f2b6a682f133852f6798a09c465da95921460cefb38474024989060200160405180910390a15b50505050505050565b33610b5c82610bbb565b6001600160a01b031614610bb25760405162461bcd60e51b815260206004820152601f60248201527f4d75737420626520746865206f776e6572206f662074686520746f6b656e2e00604482015260640161066a565b6108b5816108e7565b6000818152609960205260408120546001600160a01b03168061055d5760405162461bcd60e51b815260206004820152602960248201527f4552433732313a206f776e657220717565727920666f72206e6f6e657869737460448201526832b73a103a37b5b2b760b91b606482015260840161066a565b60006001600160a01b038216610c9c5760405162461bcd60e51b815260206004820152602960248201527f4552433732313a2061646472657373207a65726f206973206e6f7420612076616044820152683634b21037bbb732b960b91b606482015260840161066a565b506001600160a01b03166000908152609a602052604090205490565b6033546001600160a01b03163314610ce25760405162461bcd60e51b815260040161066a906124a4565b610cec60006117c3565b565b60ff80546000911615610d135760405162461bcd60e51b815260040161066a90612564565b6033546001600160a01b0316331480610d3c5750336000908152610102602052604090205460ff165b610da15760405162461bcd60e51b815260206004820152603060248201527f6c617a794d696e743a3a6f6e6c79206f776e6572206f7220617070726f76656460448201526f081b5a5b9d195c8818d85b881b5a5b9d60821b606482015260840161066a565b61055d82610dae60fc5490565b60fb546001600160a01b0316611815565b919050565b6033546001600160a01b03163314610dee5760405162461bcd60e51b815260040161066a906124a4565b60ff805460ff1916600117905560405133907f793bc6423dd0257d64f9d47db72fd4b2162f4541aa41740ba1c5fb5e2cd41bcd90600090a2565b6033546001600160a01b03163314610e525760405162461bcd60e51b815260040161066a906124a4565b6101065460ff1615610eb05760405162461bcd60e51b815260206004820152602160248201527f757064617465426173655552493a3a6d65746164617461206973206c6f636b656044820152601960fa1b606482015260840161066a565b610105610ebe8284836125e9565b507f1c306e70c05992619e2128ad1ef88df75f36c9476282e59f51401b2abaa42e4e8282604051610ef09291906126aa565b60405180910390a15050565b610f22604051806060016040528060008152602001606081526020016000151581525090565b6040805160608101909152610104805482526101058054602084019190610f4890612419565b80601f0160208091040260200160405190810160405280929190818152602001828054610f7490612419565b8015610fc15780601f10610f9657610100808354040283529160200191610fc1565b820191906000526020600020905b815481529060010190602001808311610fa457829003601f168201915b50505091835250506002919091015460ff161515602090910152919050565b60606098805461057290612419565b610ffa3383836118d1565b5050565b6033546001600160a01b031633146110285760405162461bcd60e51b815260040161066a906124a4565b60ff8054161561104a5760405162461bcd60e51b815260040161066a90612564565b61079f83838361199f565b61105f3383611316565b61107b5760405162461bcd60e51b815260040161066a90612453565b61108784848484611b21565b50505050565b6033546001600160a01b031633146110b75760405162461bcd60e51b815260040161066a906124a4565b60ff805416156110d95760405162461bcd60e51b815260040161066a90612564565b6110e484848461199f565b6001600160a01b0316600090815261010260205260409020805460ff19166001179055505050565b606061010561111a83611b54565b60405160200161112b9291906126d9565b6040516020818303038152906040529050919050565b6033546001600160a01b0316331461116b5760405162461bcd60e51b815260040161066a906124a4565b600090815260fd6020526040902080546001600160a01b0319166001600160a01b0392909216919091179055565b6033546001600160a01b031633146111c35760405162461bcd60e51b815260040161066a906124a4565b6001600160a01b0381166112285760405162461bcd60e51b815260206004820152602660248201527f4f776e61626c653a206e6577206f776e657220697320746865207a65726f206160448201526564647265737360d01b606482015260840161066a565b6108b5816117c3565b6001600160e01b0319166301ffc9a760e01b1490565b60006001600160e01b0319821663152a902d60e11b148061055d575061055d825b60006001600160e01b031982166380ac58cd60e01b148061129957506001600160e01b03198216635b5e139f60e01b145b8061055d575061055d82611231565b6000818152609b6020526040902080546001600160a01b0319166001600160a01b03841690811790915581906112dd82610bbb565b6001600160a01b03167f8c5be1e5ebec7d5bd14f71427d1e84f3dd0314c0f7b2291e5b200ac8c7c3b92560405160405180910390a45050565b6000818152609960205260408120546001600160a01b031661138f5760405162461bcd60e51b815260206004820152602c60248201527f4552433732313a206f70657261746f7220717565727920666f72206e6f6e657860448201526b34b9ba32b73a103a37b5b2b760a11b606482015260840161066a565b600061139a83610bbb565b9050806001600160a01b0316846001600160a01b031614806113e157506001600160a01b038082166000908152609c602090815260408083209388168352929052205460ff165b806114055750836001600160a01b03166113fa846105f5565b6001600160a01b0316145b949350505050565b826001600160a01b031661142082610bbb565b6001600160a01b0316146114845760405162461bcd60e51b815260206004820152602560248201527f4552433732313a207472616e736665722066726f6d20696e636f72726563742060448201526437bbb732b960d91b606482015260840161066a565b6001600160a01b0382166114e65760405162461bcd60e51b8152602060048201526024808201527f4552433732313a207472616e7366657220746f20746865207a65726f206164646044820152637265737360e01b606482015260840161066a565b6114f16000826112a8565b6001600160a01b0383166000908152609a6020526040812080546001929061151a908490612795565b90915550506001600160a01b0382166000908152609a602052604081208054600192906115489084906127ac565b909155505060008181526099602052604080822080546001600160a01b0319166001600160a01b0386811691821790925591518493918716917fddf252ad1be2c89b69c2b068fc378daa952ba7f163c4a11628f55a4df523b3ef91a4505050565b60006115b582846127c4565b9392505050565b60006115b582846127f9565b60fb80546001600160a01b0319166001600160a01b0392909216919091179055565b60006115f582610bbb565b90506116026000836112a8565b6001600160a01b0381166000908152609a6020526040812080546001929061162b908490612795565b909155505060008281526099602052604080822080546001600160a01b0319169055518391906001600160a01b038416907fddf252ad1be2c89b69c2b068fc378daa952ba7f163c4a11628f55a4df523b3ef908390a45050565b60008054610100900460ff16156116cc578160ff1660011480156116a85750303b155b6116c45760405162461bcd60e51b815260040161066a9061280d565b506000919050565b60005460ff8084169116106116f35760405162461bcd60e51b815260040161066a9061280d565b506000805460ff191660ff92909216919091179055600190565b600054610100900460ff166117345760405162461bcd60e51b815260040161066a9061285b565b610cec611c55565b600054610100900460ff166117635760405162461bcd60e51b815260040161066a9061285b565b610ffa8282611c85565b600054610100900460ff16610cec5760405162461bcd60e51b815260040161066a9061285b565b600054610100900460ff166117bb5760405162461bcd60e51b815260040161066a9061285b565b610cec61176d565b603380546001600160a01b038381166001600160a01b0319831681179093556040519116919082907f8be0079c531659141344cd1fd0a4f28419497f9722a3daafe3b4186f6b6457e090600090a35050565b600061182661010380546001019055565b60006118326101035490565b9050610100548111156118875760405162461bcd60e51b815260206004820181905260248201527f5f637265617465546f6b656e3a3a6578636565646564206d6178546f6b656e73604482015260640161066a565b6118918582611cc5565b600081815260fe60205260409020849055600081815260fd6020526040902080546001600160a01b0319166001600160a01b038516179055949350505050565b816001600160a01b0316836001600160a01b0316036119325760405162461bcd60e51b815260206004820152601960248201527f4552433732313a20617070726f766520746f2063616c6c657200000000000000604482015260640161066a565b6001600160a01b038381166000818152609c6020908152604080832094871680845294825291829020805460ff191686151590811790915591519182527f17307eab39ab6107e8899845ad3d59bd9653f200f220920489ca2b5937696c31910160405180910390a3505050565b610100548111156119f25760405162461bcd60e51b815260206004820181905260248201527f5f707265706172654d696e743a3a6578636565646564206d6178546f6b656e73604482015260640161066a565b6101035415611a5d5760405162461bcd60e51b815260206004820152603160248201527f5f707265706172654d696e743a3a63616e206f6e6c792070726570617265206d604482015270696e742077697468203020746f6b656e7360781b606482015260840161066a565b604051806060016040528082815260200184848080601f016020809104026020016040519081016040528093929190818152602001838380828437600092018290525093855250505060209182015281516101049081559082015161010590611ac690826128a6565b50604091820151600291909101805460ff19169115159190911790555181907f6f1d651e6e0c8f86bd32a20c22a644d1e34fabf72307ff95d51b9f5892ddba1990611b1490869086906126aa565b60405180910390a2505050565b611b2c84848461140d565b611b3884848484611cdf565b6110875760405162461bcd60e51b815260040161066a90612966565b606081600003611b7b5750506040805180820190915260018152600360fc1b602082015290565b8160005b8115611ba55780611b8f816129b8565b9150611b9e9050600a836127f9565b9150611b7f565b60008167ffffffffffffffff811115611bc057611bc06122a0565b6040519080825280601f01601f191660200182016040528015611bea576020820181803683370190505b5090505b841561140557611bff600183612795565b9150611c0c600a866129d1565b611c179060306127ac565b60f81b818381518110611c2c57611c2c6129e5565b60200101906001600160f81b031916908160001a905350611c4e600a866127f9565b9450611bee565b600054610100900460ff16611c7c5760405162461bcd60e51b815260040161066a9061285b565b610cec336117c3565b600054610100900460ff16611cac5760405162461bcd60e51b815260040161066a9061285b565b6097611cb883826128a6565b50609861079f82826128a6565b610ffa828260405180602001604052806000815250611de0565b60006001600160a01b0384163b15611dd557604051630a85bd0160e11b81526001600160a01b0385169063150b7a0290611d239033908990889088906004016129fb565b6020604051808303816000875af1925050508015611d5e575060408051601f3d908101601f19168201909252611d5b91810190612a38565b60015b611dbb573d808015611d8c576040519150601f19603f3d011682016040523d82523d6000602084013e611d91565b606091505b508051600003611db35760405162461bcd60e51b815260040161066a90612966565b805181602001fd5b6001600160e01b031916630a85bd0160e11b149050611405565b506001949350505050565b611dea8383611e13565b611df76000848484611cdf565b61079f5760405162461bcd60e51b815260040161066a90612966565b6001600160a01b038216611e695760405162461bcd60e51b815260206004820181905260248201527f4552433732313a206d696e7420746f20746865207a65726f2061646472657373604482015260640161066a565b6000818152609960205260409020546001600160a01b031615611ece5760405162461bcd60e51b815260206004820152601c60248201527f4552433732313a20746f6b656e20616c7265616479206d696e74656400000000604482015260640161066a565b6001600160a01b0382166000908152609a60205260408120805460019290611ef79084906127ac565b909155505060008181526099602052604080822080546001600160a01b0319166001600160a01b03861690811790915590518392907fddf252ad1be2c89b69c2b068fc378daa952ba7f163c4a11628f55a4df523b3ef908290a45050565b6001600160e01b0319811681146108b557600080fd5b600060208284031215611f7d57600080fd5b81356115b581611f55565b60005b83811015611fa3578181015183820152602001611f8b565b838111156110875750506000910152565b60008151808452611fcc816020860160208601611f88565b601f01601f19169290920160200192915050565b6020815260006115b56020830184611fb4565b60006020828403121561200557600080fd5b5035919050565b80356001600160a01b0381168114610dbf57600080fd5b6000806040838503121561203657600080fd5b61203f8361200c565b946020939093013593505050565b60008060006060848603121561206257600080fd5b61206b8461200c565b92506120796020850161200c565b9150604084013590509250925092565b6000806040838503121561209c57600080fd5b50508035926020909101359150565b6000602082840312156120bd57600080fd5b6115b58261200c565b60008083601f8401126120d857600080fd5b50813567ffffffffffffffff8111156120f057600080fd5b60208301915083602082850101111561210857600080fd5b9250929050565b6000806000806000806080878903121561212857600080fd5b863567ffffffffffffffff8082111561214057600080fd5b61214c8a838b016120c6565b9098509650602089013591508082111561216557600080fd5b5061217289828a016120c6565b909550935061218590506040880161200c565b9150606087013590509295509295509295565b600080602083850312156121ab57600080fd5b823567ffffffffffffffff8111156121c257600080fd5b6121ce858286016120c6565b90969095509350505050565b602081528151602082015260006020830151606060408401526122006080840182611fb4565b90506040840151151560608401528091505092915050565b6000806040838503121561222b57600080fd5b6122348361200c565b91506020830135801515811461224957600080fd5b809150509250929050565b60008060006040848603121561226957600080fd5b833567ffffffffffffffff81111561228057600080fd5b61228c868287016120c6565b909790965060209590950135949350505050565b634e487b7160e01b600052604160045260246000fd5b600080600080608085870312156122cc57600080fd5b6122d58561200c565b93506122e36020860161200c565b925060408501359150606085013567ffffffffffffffff8082111561230757600080fd5b818701915087601f83011261231b57600080fd5b81358181111561232d5761232d6122a0565b604051601f8201601f19908116603f01168101908382118183101715612355576123556122a0565b816040528281528a602084870101111561236e57600080fd5b82602086016020830137600060208483010152809550505050505092959194509250565b600080600080606085870312156123a857600080fd5b843567ffffffffffffffff8111156123bf57600080fd5b6123cb878288016120c6565b909550935050602085013591506123e46040860161200c565b905092959194509250565b6000806040838503121561240257600080fd5b61240b8361200c565b91506108796020840161200c565b600181811c9082168061242d57607f821691505b60208210810361244d57634e487b7160e01b600052602260045260246000fd5b50919050565b60208082526031908201527f4552433732313a207472616e736665722063616c6c6572206973206e6f74206f6040820152701ddb995c881b9bdc88185c1c1c9bdd9959607a1b606082015260800190565b6020808252818101527f4f776e61626c653a2063616c6c6572206973206e6f7420746865206f776e6572604082015260600190565b60006020808352600084546124ed81612419565b8084870152604060018084166000811461250e576001811461252857612556565b60ff1985168984015283151560051b890183019550612556565b896000528660002060005b8581101561254e5781548b8201860152908301908801612533565b8a0184019650505b509398975050505050505050565b6020808252601e908201527f436f6e7472616374206d757374206e6f742062652064697361626c65642e0000604082015260600190565b601f82111561079f57600081815260208120601f850160051c810160208610156125c25750805b601f850160051c820191505b818110156125e1578281556001016125ce565b505050505050565b67ffffffffffffffff831115612601576126016122a0565b6126158361260f8354612419565b8361259b565b6000601f84116001811461264957600085156126315750838201355b600019600387901b1c1916600186901b1783556126a3565b600083815260209020601f19861690835b8281101561267a578685013582556020948501946001909201910161265a565b50868210156126975760001960f88860031b161c19848701351681555b505060018560011b0183555b5050505050565b60208152816020820152818360408301376000818301604090810191909152601f909201601f19160101919050565b60008084546126e781612419565b600182811680156126ff576001811461271457612743565b60ff1984168752821515830287019450612743565b8860005260208060002060005b8581101561273a5781548a820152908401908201612721565b50505082870194505b50602f60f81b84528651925061275f8382860160208a01611f88565b64173539b7b760d91b939092019182019290925260060195945050505050565b634e487b7160e01b600052601160045260246000fd5b6000828210156127a7576127a761277f565b500390565b600082198211156127bf576127bf61277f565b500190565b60008160001904831182151516156127de576127de61277f565b500290565b634e487b7160e01b600052601260045260246000fd5b600082612808576128086127e3565b500490565b6020808252602e908201527f496e697469616c697a61626c653a20636f6e747261637420697320616c72656160408201526d191e481a5b9a5d1a585b1a5e995960921b606082015260800190565b6020808252602b908201527f496e697469616c697a61626c653a20636f6e7472616374206973206e6f74206960408201526a6e697469616c697a696e6760a81b606082015260800190565b815167ffffffffffffffff8111156128c0576128c06122a0565b6128d4816128ce8454612419565b8461259b565b602080601f83116001811461290957600084156128f15750858301515b600019600386901b1c1916600185901b1785556125e1565b600085815260208120601f198616915b8281101561293857888601518255948401946001909101908401612919565b50858210156129565787850151600019600388901b60f8161c191681555b5050505050600190811b01905550565b60208082526032908201527f4552433732313a207472616e7366657220746f206e6f6e20455243373231526560408201527131b2b4bb32b91034b6b83632b6b2b73a32b960711b606082015260800190565b6000600182016129ca576129ca61277f565b5060010190565b6000826129e0576129e06127e3565b500690565b634e487b7160e01b600052603260045260246000fd5b6001600160a01b0385811682528416602082015260408101839052608060608201819052600090612a2e90830184611fb4565b9695505050505050565b600060208284031215612a4a57600080fd5b81516115b581611f5556fea2646970667358221220481b5748c29385fe9b444e3fef3df38f4ea118ef3622f15add03bf5377fa15ac64736f6c634300080f0033608060405234801561001057600080fd5b506135a7806100206000396000f3fe608060405234801561001057600080fd5b506004361061027f5760003560e01c8063715018a61161015c578063b390ac25116100ce578063e985e9c511610087578063e985e9c51461059b578063eab85118146105ae578063ee070805146105c1578063efc32cd4146105cd578063f2fde38b146105e0578063ff6e8c8f146105f357600080fd5b8063b390ac2514610532578063b88d4fde14610545578063b9fbd25c14610558578063bc7194551461056b578063c87b56dd1461057e578063e83157421461059157600080fd5b8063931688cb11610120578063931688cb146104d45780639338bb5d146104e757806395d89b41146104fc5780639e860f2a14610504578063a22cb46514610517578063ab69607a1461052a57600080fd5b8063715018a61461048c578063755edd171461049457806387bc793f146104a7578063894ba833146104bb5780638da5cb5b146104c357600080fd5b80633a3d146f116101f5578063472a6638116101b9578063472a66381461042557806353df5c7c146104385780635edc7c19146104405780636297c16c146104535780636352211e1461046657806370a082311461047957600080fd5b80633a3d146f146103ac5780633ebc82c5146103d957806340c1a064146103ec57806342842e0e146103ff57806342966c681461041257600080fd5b806318160ddd1161024757806318160ddd14610325578063204274861461033b57806323b872dd1461034e5780632a55205a146103615780632ce878da146103935780633403c4e91461039b57600080fd5b8063012cf1e81461028457806301ffc9a7146102ad57806306fdde03146102d0578063081812fc146102e5578063095ea7b314610310575b600080fd5b61029761029236600461292f565b610606565b6040516102a4919061294a565b60405180910390f35b6102c06102bb3660046129ad565b61064c565b60405190151581526020016102a4565b6102d8610666565b6040516102a49190612a22565b6102f86102f3366004612a35565b6106f8565b6040516001600160a01b0390911681526020016102a4565b61032361031e366004612a65565b610792565b005b61032d610867565b6040519081526020016102a4565b6102c0610349366004612a8f565b610878565b61032361035c366004612aaa565b6108a7565b61037461036f366004612ae6565b6108d9565b604080516001600160a01b0390931683526020830191909152016102a4565b610297610974565b60fb546001600160a01b03166102f8565b6102c06103ba366004612a8f565b6001600160a01b03166000908152610102602052604090205460ff1690565b6103236103e7366004612a8f565b61099a565b6102f86103fa366004612a35565b6109d0565b61032361040d366004612aaa565b6109e4565b610323610420366004612a35565b6109ff565b61032361043336600461292f565b610a76565b610323610aa5565b61032361044e366004612b51565b610b19565b610323610461366004612a35565b610c99565b6102f8610474366004612a35565b610d02565b61032d610487366004612a8f565b610d79565b610323610dff565b61032d6104a2366004612a8f565b610e35565b6101085460ff166040516102a49190612bf0565b610323610f0b565b6033546001600160a01b03166102f8565b6103236104e2366004612c18565b610f6f565b6104ef611043565b6040516102a49190612c5a565b6102d8611127565b610323610512366004612c98565b611136565b610323610525366004612d1e565b611199565b60fc5461032d565b610323610540366004612d5a565b611240565b610323610553366004612dbc565b611297565b610323610566366004612e98565b6112cf565b61032361057936600461292f565b61134e565b6102d861058c366004612a35565b611403565b61032d6101005481565b6102c06105a9366004612ef5565b611438565b6102c06105bc366004612a8f565b611466565b60ff80546102c0911681565b6103236105db366004612a65565b61148d565b6103236105ee366004612a8f565b6114e5565b610323610601366004612c98565b61157d565b6060610646610107600084600281111561062257610622612bda565b600281111561063357610633612bda565b8152602001908152602001600020611615565b92915050565b600061065782611629565b8061064657506106468261164e565b60606097805461067590612f1f565b80601f01602080910402602001604051908101604052809291908181526020018280546106a190612f1f565b80156106ee5780601f106106c3576101008083540402835291602001916106ee565b820191906000526020600020905b8154815290600101906020018083116106d157829003601f168201915b5050505050905090565b6000818152609960205260408120546001600160a01b03166107765760405162461bcd60e51b815260206004820152602c60248201527f4552433732313a20617070726f76656420717565727920666f72206e6f6e657860448201526b34b9ba32b73a103a37b5b2b760a11b60648201526084015b60405180910390fd5b506000908152609b60205260409020546001600160a01b031690565b8160016101085460ff1660028111156107ad576107ad612bda565b0361080c576107eb81610107600060015b60028111156107cf576107cf612bda565b815260200190815260200160002061169190919063ffffffff16565b610807576040516282b42960e81b815260040160405180910390fd5b610858565b60026101085460ff16600281111561082657610826612bda565b036108585761083b81610107600060026107be565b15610858576040516282b42960e81b815260040160405180910390fd5b61086283836116b3565b505050565b60006108736101035490565b905090565b600061088c6033546001600160a01b031690565b6001600160a01b0316826001600160a01b0316149050919050565b6108b2335b826117c3565b6108ce5760405162461bcd60e51b815260040161076d90612f59565b61086283838361189a565b600082815260fd602052604081205481906001600160a01b03166109085760fb546001600160a01b0316610921565b600084815260fd60205260409020546001600160a01b03165b915061096b606461096560fe60008881526020019081526020016000205460000361094e5760fc5461095e565b600087815260fe60205260409020545b8690611a36565b90611a42565b90509250929050565b61010854606090610873906101079060009060ff16600281111561062257610622612bda565b6033546001600160a01b031633146109c45760405162461bcd60e51b815260040161076d90612faa565b6109cd81611a4e565b50565b60006106466033546001600160a01b031690565b61086283838360405180602001604052806000815250611297565b610a08336108ac565b610a6d5760405162461bcd60e51b815260206004820152603060248201527f4552433732314275726e61626c653a2063616c6c6572206973206e6f74206f7760448201526f1b995c881b9bdc88185c1c1c9bdd995960821b606482015260840161076d565b6109cd81611a70565b610a7f33610878565b610a9c57604051635c510c8360e11b815260040160405180910390fd5b6109cd81611b0c565b6033546001600160a01b03163314610acf5760405162461bcd60e51b815260040161076d90612faa565b6040517fb634b0cb94234b05eabb1438717e0e645bfd84788ae1263682242327563cde5e90610b019061010590612fdf565b60405180910390a1610106805460ff19166001179055565b6000610b256001611b89565b90508015610b3d576000805461ff0019166101001790555b6001600160a01b038316610b935760405162461bcd60e51b815260206004820152601e60248201527f63726561746f722063616e6e6f74206265206e756c6c20616464726573730000604482015260640161076d565b610b9d600a60fc55565b60ff805460ff19169055610100829055610bb5611c11565b610c2887878080601f01602080910402602001604051908101604052809392919081815260200183838082843760009201919091525050604080516020601f8b018190048102820181019092528981529250899150889081908401838280828437600092019190915250611c4092505050565b610c30611c71565b610c38611c98565b610c4183611a4e565b610c4a836114e5565b8015610c90576000805461ff0019169055604051600181527f7f26b83ff96e1f2b6a682f133852f6798a09c465da95921460cefb38474024989060200160405180910390a15b50505050505050565b33610ca382610d02565b6001600160a01b031614610cf95760405162461bcd60e51b815260206004820152601f60248201527f4d75737420626520746865206f776e6572206f662074686520746f6b656e2e00604482015260640161076d565b6109cd816109ff565b6000818152609960205260408120546001600160a01b0316806106465760405162461bcd60e51b815260206004820152602960248201527f4552433732313a206f776e657220717565727920666f72206e6f6e657869737460448201526832b73a103a37b5b2b760b91b606482015260840161076d565b60006001600160a01b038216610de35760405162461bcd60e51b815260206004820152602960248201527f4552433732313a2061646472657373207a65726f206973206e6f7420612076616044820152683634b21037bbb732b960b91b606482015260840161076d565b506001600160a01b03166000908152609a602052604090205490565b6033546001600160a01b03163314610e295760405162461bcd60e51b815260040161076d90612faa565b610e336000611cc7565b565b60ff80546000911615610e5a5760405162461bcd60e51b815260040161076d9061306a565b6033546001600160a01b0316331480610e835750336000908152610102602052604090205460ff165b610ee85760405162461bcd60e51b815260206004820152603060248201527f6c617a794d696e743a3a6f6e6c79206f776e6572206f7220617070726f76656460448201526f081b5a5b9d195c8818d85b881b5a5b9d60821b606482015260840161076d565b61064682610ef560fc5490565b60fb546001600160a01b0316611d19565b919050565b6033546001600160a01b03163314610f355760405162461bcd60e51b815260040161076d90612faa565b60ff805460ff1916600117905560405133907f793bc6423dd0257d64f9d47db72fd4b2162f4541aa41740ba1c5fb5e2cd41bcd90600090a2565b6033546001600160a01b03163314610f995760405162461bcd60e51b815260040161076d90612faa565b6101065460ff1615610ff75760405162461bcd60e51b815260206004820152602160248201527f757064617465426173655552493a3a6d65746164617461206973206c6f636b656044820152601960fa1b606482015260840161076d565b6101056110058284836130ef565b507f1c306e70c05992619e2128ad1ef88df75f36c9476282e59f51401b2abaa42e4e82826040516110379291906131b0565b60405180910390a15050565b611069604051806060016040528060008152602001606081526020016000151581525090565b604080516060810190915261010480548252610105805460208401919061108f90612f1f565b80601f01602080910402602001604051908101604052809291908181526020018280546110bb90612f1f565b80156111085780601f106110dd57610100808354040283529160200191611108565b820191906000526020600020905b8154815290600101906020018083116110eb57829003601f168201915b50505091835250506002919091015460ff161515602090910152919050565b60606098805461067590612f1f565b61113f33610878565b61115c57604051635c510c8360e11b815260040160405180910390fd5b6108628383838080602002602001604051908101604052809392919081815260200183836020028082843760009201829052509250611dd5915050565b8160016101085460ff1660028111156111b4576111b4612bda565b036111ea576111c981610107600060016107be565b6111e5576040516282b42960e81b815260040160405180910390fd5b611236565b60026101085460ff16600281111561120457611204612bda565b036112365761121981610107600060026107be565b15611236576040516282b42960e81b815260040160405180910390fd5b6108628383611fb2565b6033546001600160a01b0316331461126a5760405162461bcd60e51b815260040161076d90612faa565b60ff8054161561128c5760405162461bcd60e51b815260040161076d9061306a565b610862838383611fbd565b6112a133836117c3565b6112bd5760405162461bcd60e51b815260040161076d90612f59565b6112c98484848461213f565b50505050565b6033546001600160a01b031633146112f95760405162461bcd60e51b815260040161076d90612faa565b60ff8054161561131b5760405162461bcd60e51b815260040161076d9061306a565b611326848484611fbd565b6001600160a01b0316600090815261010260205260409020805460ff19166001179055505050565b61135733610878565b61137457604051635c510c8360e11b815260040160405180910390fd5b610107600082600281111561138b5761138b612bda565b600281111561139c5761139c612bda565b8152602081019190915260400160009081209081816113bb82826128ee565b50505050336001600160a01b03167f7efc19cf93d497a6a56103ea89a39d51c0cad74a817ed3cd0ecaff9823d4da24826040516113f89190612bf0565b60405180910390a250565b606061010561141183612172565b6040516020016114229291906131df565b6040516020818303038152906040529050919050565b6001600160a01b039182166000908152609c6020908152604080832093909416825291909152205460ff1690565b6101085460009061064690839061010790849060ff1660028111156107be576107be612bda565b6033546001600160a01b031633146114b75760405162461bcd60e51b815260040161076d90612faa565b600090815260fd6020526040902080546001600160a01b0319166001600160a01b0392909216919091179055565b6033546001600160a01b0316331461150f5760405162461bcd60e51b815260040161076d90612faa565b6001600160a01b0381166115745760405162461bcd60e51b815260206004820152602660248201527f4f776e61626c653a206e6577206f776e657220697320746865207a65726f206160448201526564647265737360d01b606482015260840161076d565b6109cd81611cc7565b61158633610878565b6115a357604051635c510c8360e11b815260040160405180910390fd5b60008360028111156115b7576115b7612bda565b036115d557604051632de777a160e11b815260040160405180910390fd5b6108628383838080602002602001604051908101604052809392919081815260200183836020028082843760009201919091525060019250611dd5915050565b6060600061162283612273565b9392505050565b60006001600160e01b0319821663fa31a45b60e01b14806106465750610646826122cf565b60006001600160e01b03198216631030681960e21b14806116735750611673826122cf565b806116825750611682826122e5565b80610646575061064682612306565b6001600160a01b03811660009081526001830160205260408120541515611622565b60006116be82610d02565b9050806001600160a01b0316836001600160a01b03160361172b5760405162461bcd60e51b815260206004820152602160248201527f4552433732313a20617070726f76616c20746f2063757272656e74206f776e656044820152603960f91b606482015260840161076d565b336001600160a01b038216148061174757506117478133611438565b6117b95760405162461bcd60e51b815260206004820152603860248201527f4552433732313a20617070726f76652063616c6c6572206973206e6f74206f7760448201527f6e6572206e6f7220617070726f76656420666f7220616c6c0000000000000000606482015260840161076d565b6108628383612346565b6000818152609960205260408120546001600160a01b031661183c5760405162461bcd60e51b815260206004820152602c60248201527f4552433732313a206f70657261746f7220717565727920666f72206e6f6e657860448201526b34b9ba32b73a103a37b5b2b760a11b606482015260840161076d565b600061184783610d02565b9050806001600160a01b0316846001600160a01b0316148061186e575061186e8185611438565b806118925750836001600160a01b0316611887846106f8565b6001600160a01b0316145b949350505050565b826001600160a01b03166118ad82610d02565b6001600160a01b0316146119115760405162461bcd60e51b815260206004820152602560248201527f4552433732313a207472616e736665722066726f6d20696e636f72726563742060448201526437bbb732b960d91b606482015260840161076d565b6001600160a01b0382166119735760405162461bcd60e51b8152602060048201526024808201527f4552433732313a207472616e7366657220746f20746865207a65726f206164646044820152637265737360e01b606482015260840161076d565b61197e600082612346565b6001600160a01b0383166000908152609a602052604081208054600192906119a790849061329b565b90915550506001600160a01b0382166000908152609a602052604081208054600192906119d59084906132b2565b909155505060008181526099602052604080822080546001600160a01b0319166001600160a01b0386811691821790925591518493918716917fddf252ad1be2c89b69c2b068fc378daa952ba7f163c4a11628f55a4df523b3ef91a4505050565b600061162282846132ca565b600061162282846132ff565b60fb80546001600160a01b0319166001600160a01b0392909216919091179055565b6000611a7b82610d02565b9050611a88600083612346565b6001600160a01b0381166000908152609a60205260408120805460019290611ab190849061329b565b909155505060008281526099602052604080822080546001600160a01b0319169055518391906001600160a01b038416907fddf252ad1be2c89b69c2b068fc378daa952ba7f163c4a11628f55a4df523b3ef908390a45b5050565b806002811115611b1e57611b1e612bda565b6101085460ff166002811115611b3657611b36612bda565b60405133907f12282389323caf08dd4e02c490ef05bc7edb56967c085742687aad3cc81aa15f90600090a4610108805482919060ff19166001836002811115611b8157611b81612bda565b021790555050565b60008054610100900460ff1615611bd0578160ff166001148015611bac5750303b155b611bc85760405162461bcd60e51b815260040161076d90613313565b506000919050565b60005460ff808416911610611bf75760405162461bcd60e51b815260040161076d90613313565b506000805460ff191660ff92909216919091179055600190565b600054610100900460ff16611c385760405162461bcd60e51b815260040161076d90613361565b610e336123b4565b600054610100900460ff16611c675760405162461bcd60e51b815260040161076d90613361565b611b0882826123e4565b600054610100900460ff16610e335760405162461bcd60e51b815260040161076d90613361565b600054610100900460ff16611cbf5760405162461bcd60e51b815260040161076d90613361565b610e33611c71565b603380546001600160a01b038381166001600160a01b0319831681179093556040519116919082907f8be0079c531659141344cd1fd0a4f28419497f9722a3daafe3b4186f6b6457e090600090a35050565b6000611d2a61010380546001019055565b6000611d366101035490565b905061010054811115611d8b5760405162461bcd60e51b815260206004820181905260248201527f5f637265617465546f6b656e3a3a6578636565646564206d6178546f6b656e73604482015260640161076d565b611d958582612424565b600081815260fe60205260409020849055600081815260fd6020526040902080546001600160a01b0319166001600160a01b038516179055949350505050565b6000836002811115611de957611de9612bda565b146108625760005b82518110156112c9578115611ed257611e61838281518110611e1557611e156133ac565b60200260200101516101076000876002811115611e3457611e34612bda565b6002811115611e4557611e45612bda565b815260200190815260200160002061243e90919063ffffffff16565b50836002811115611e7457611e74612bda565b838281518110611e8657611e866133ac565b60200260200101516001600160a01b0316336001600160a01b03167f14155f749dc3f9cd2bf890d6d3a47069f77ae35befcee11c8b1a3ba41cba153660405160405180910390a4611fa0565b611f33838281518110611ee757611ee76133ac565b60200260200101516101076000876002811115611f0657611f06612bda565b6002811115611f1757611f17612bda565b815260200190815260200160002061245390919063ffffffff16565b50836002811115611f4657611f46612bda565b838281518110611f5857611f586133ac565b60200260200101516001600160a01b0316336001600160a01b03167fc72e29af1b34de3dec3a764b4ca4d85b9c380ab33b9b268d29b6e7008bd0ed9560405160405180910390a45b80611faa816133c2565b915050611df1565b611b08338383612468565b610100548111156120105760405162461bcd60e51b815260206004820181905260248201527f5f707265706172654d696e743a3a6578636565646564206d6178546f6b656e73604482015260640161076d565b610103541561207b5760405162461bcd60e51b815260206004820152603160248201527f5f707265706172654d696e743a3a63616e206f6e6c792070726570617265206d604482015270696e742077697468203020746f6b656e7360781b606482015260840161076d565b604051806060016040528082815260200184848080601f0160208091040260200160405190810160405280939291908181526020018383808284376000920182905250938552505050602091820152815161010490815590820151610105906120e490826133db565b50604091820151600291909101805460ff19169115159190911790555181907f6f1d651e6e0c8f86bd32a20c22a644d1e34fabf72307ff95d51b9f5892ddba199061213290869086906131b0565b60405180910390a2505050565b61214a84848461189a565b61215684848484612536565b6112c95760405162461bcd60e51b815260040161076d9061349b565b6060816000036121995750506040805180820190915260018152600360fc1b602082015290565b8160005b81156121c357806121ad816133c2565b91506121bc9050600a836132ff565b915061219d565b60008167ffffffffffffffff8111156121de576121de612da6565b6040519080825280601f01601f191660200182016040528015612208576020820181803683370190505b5090505b84156118925761221d60018361329b565b915061222a600a866134ed565b6122359060306132b2565b60f81b81838151811061224a5761224a6133ac565b60200101906001600160f81b031916908160001a90535061226c600a866132ff565b945061220c565b6060816000018054806020026020016040519081016040528092919081815260200182805480156122c357602002820191906000526020600020905b8154815260200190600101908083116122af575b50505050509050919050565b6001600160e01b0319166301ffc9a760e01b1490565b60006001600160e01b0319821663152a902d60e11b14806106465750610646825b60006001600160e01b031982166380ac58cd60e01b148061233757506001600160e01b03198216635b5e139f60e01b145b806106465750610646826122cf565b6000818152609b6020526040902080546001600160a01b0319166001600160a01b038416908117909155819061237b82610d02565b6001600160a01b03167f8c5be1e5ebec7d5bd14f71427d1e84f3dd0314c0f7b2291e5b200ac8c7c3b92560405160405180910390a45050565b600054610100900460ff166123db5760405162461bcd60e51b815260040161076d90613361565b610e3333611cc7565b600054610100900460ff1661240b5760405162461bcd60e51b815260040161076d90613361565b609761241783826133db565b50609861086282826133db565b611b08828260405180602001604052806000815250612637565b6000611622836001600160a01b03841661266a565b6000611622836001600160a01b0384166126b9565b816001600160a01b0316836001600160a01b0316036124c95760405162461bcd60e51b815260206004820152601960248201527f4552433732313a20617070726f766520746f2063616c6c657200000000000000604482015260640161076d565b6001600160a01b038381166000818152609c6020908152604080832094871680845294825291829020805460ff191686151590811790915591519182527f17307eab39ab6107e8899845ad3d59bd9653f200f220920489ca2b5937696c31910160405180910390a3505050565b60006001600160a01b0384163b1561262c57604051630a85bd0160e11b81526001600160a01b0385169063150b7a029061257a903390899088908890600401613501565b6020604051808303816000875af19250505080156125b5575060408051601f3d908101601f191682019092526125b29181019061353e565b60015b612612573d8080156125e3576040519150601f19603f3d011682016040523d82523d6000602084013e6125e8565b606091505b50805160000361260a5760405162461bcd60e51b815260040161076d9061349b565b805181602001fd5b6001600160e01b031916630a85bd0160e11b149050611892565b506001949350505050565b61264183836127ac565b61264e6000848484612536565b6108625760405162461bcd60e51b815260040161076d9061349b565b60008181526001830160205260408120546126b157508154600181810184556000848152602080822090930184905584548482528286019093526040902091909155610646565b506000610646565b600081815260018301602052604081205480156127a25760006126dd60018361329b565b85549091506000906126f19060019061329b565b9050818114612756576000866000018281548110612711576127116133ac565b9060005260206000200154905080876000018481548110612734576127346133ac565b6000918252602080832090910192909255918252600188019052604090208390555b85548690806127675761276761355b565b600190038181906000526020600020016000905590558560010160008681526020019081526020016000206000905560019350505050610646565b6000915050610646565b6001600160a01b0382166128025760405162461bcd60e51b815260206004820181905260248201527f4552433732313a206d696e7420746f20746865207a65726f2061646472657373604482015260640161076d565b6000818152609960205260409020546001600160a01b0316156128675760405162461bcd60e51b815260206004820152601c60248201527f4552433732313a20746f6b656e20616c7265616479206d696e74656400000000604482015260640161076d565b6001600160a01b0382166000908152609a602052604081208054600192906128909084906132b2565b909155505060008181526099602052604080822080546001600160a01b0319166001600160a01b03861690811790915590518392907fddf252ad1be2c89b69c2b068fc378daa952ba7f163c4a11628f55a4df523b3ef908290a45050565b50805460008255906000526020600020908101906109cd91905b8082111561291c5760008155600101612908565b5090565b803560038110610f0657600080fd5b60006020828403121561294157600080fd5b61162282612920565b6020808252825182820181905260009190848201906040850190845b8181101561298b5783516001600160a01b031683529284019291840191600101612966565b50909695505050505050565b6001600160e01b0319811681146109cd57600080fd5b6000602082840312156129bf57600080fd5b813561162281612997565b60005b838110156129e55781810151838201526020016129cd565b838111156112c95750506000910152565b60008151808452612a0e8160208601602086016129ca565b601f01601f19169290920160200192915050565b60208152600061162260208301846129f6565b600060208284031215612a4757600080fd5b5035919050565b80356001600160a01b0381168114610f0657600080fd5b60008060408385031215612a7857600080fd5b612a8183612a4e565b946020939093013593505050565b600060208284031215612aa157600080fd5b61162282612a4e565b600080600060608486031215612abf57600080fd5b612ac884612a4e565b9250612ad660208501612a4e565b9150604084013590509250925092565b60008060408385031215612af957600080fd5b50508035926020909101359150565b60008083601f840112612b1a57600080fd5b50813567ffffffffffffffff811115612b3257600080fd5b602083019150836020828501011115612b4a57600080fd5b9250929050565b60008060008060008060808789031215612b6a57600080fd5b863567ffffffffffffffff80821115612b8257600080fd5b612b8e8a838b01612b08565b90985096506020890135915080821115612ba757600080fd5b50612bb489828a01612b08565b9095509350612bc7905060408801612a4e565b9150606087013590509295509295509295565b634e487b7160e01b600052602160045260246000fd5b6020810160038310612c1257634e487b7160e01b600052602160045260246000fd5b91905290565b60008060208385031215612c2b57600080fd5b823567ffffffffffffffff811115612c4257600080fd5b612c4e85828601612b08565b90969095509350505050565b60208152815160208201526000602083015160606040840152612c8060808401826129f6565b90506040840151151560608401528091505092915050565b600080600060408486031215612cad57600080fd5b612cb684612920565b9250602084013567ffffffffffffffff80821115612cd357600080fd5b818601915086601f830112612ce757600080fd5b813581811115612cf657600080fd5b8760208260051b8501011115612d0b57600080fd5b6020830194508093505050509250925092565b60008060408385031215612d3157600080fd5b612d3a83612a4e565b915060208301358015158114612d4f57600080fd5b809150509250929050565b600080600060408486031215612d6f57600080fd5b833567ffffffffffffffff811115612d8657600080fd5b612d9286828701612b08565b909790965060209590950135949350505050565b634e487b7160e01b600052604160045260246000fd5b60008060008060808587031215612dd257600080fd5b612ddb85612a4e565b9350612de960208601612a4e565b925060408501359150606085013567ffffffffffffffff80821115612e0d57600080fd5b818701915087601f830112612e2157600080fd5b813581811115612e3357612e33612da6565b604051601f8201601f19908116603f01168101908382118183101715612e5b57612e5b612da6565b816040528281528a6020848701011115612e7457600080fd5b82602086016020830137600060208483010152809550505050505092959194509250565b60008060008060608587031215612eae57600080fd5b843567ffffffffffffffff811115612ec557600080fd5b612ed187828801612b08565b90955093505060208501359150612eea60408601612a4e565b905092959194509250565b60008060408385031215612f0857600080fd5b612f1183612a4e565b915061096b60208401612a4e565b600181811c90821680612f3357607f821691505b602082108103612f5357634e487b7160e01b600052602260045260246000fd5b50919050565b60208082526031908201527f4552433732313a207472616e736665722063616c6c6572206973206e6f74206f6040820152701ddb995c881b9bdc88185c1c1c9bdd9959607a1b606082015260800190565b6020808252818101527f4f776e61626c653a2063616c6c6572206973206e6f7420746865206f776e6572604082015260600190565b6000602080835260008454612ff381612f1f565b80848701526040600180841660008114613014576001811461302e5761305c565b60ff1985168984015283151560051b89018301955061305c565b896000528660002060005b858110156130545781548b8201860152908301908801613039565b8a0184019650505b509398975050505050505050565b6020808252601e908201527f436f6e7472616374206d757374206e6f742062652064697361626c65642e0000604082015260600190565b601f82111561086257600081815260208120601f850160051c810160208610156130c85750805b601f850160051c820191505b818110156130e7578281556001016130d4565b505050505050565b67ffffffffffffffff83111561310757613107612da6565b61311b836131158354612f1f565b836130a1565b6000601f84116001811461314f57600085156131375750838201355b600019600387901b1c1916600186901b1783556131a9565b600083815260209020601f19861690835b828110156131805786850135825560209485019460019092019101613160565b508682101561319d5760001960f88860031b161c19848701351681555b505060018560011b0183555b5050505050565b60208152816020820152818360408301376000818301604090810191909152601f909201601f19160101919050565b60008084546131ed81612f1f565b60018281168015613205576001811461321a57613249565b60ff1984168752821515830287019450613249565b8860005260208060002060005b858110156132405781548a820152908401908201613227565b50505082870194505b50602f60f81b8452865192506132658382860160208a016129ca565b64173539b7b760d91b939092019182019290925260060195945050505050565b634e487b7160e01b600052601160045260246000fd5b6000828210156132ad576132ad613285565b500390565b600082198211156132c5576132c5613285565b500190565b60008160001904831182151516156132e4576132e4613285565b500290565b634e487b7160e01b600052601260045260246000fd5b60008261330e5761330e6132e9565b500490565b6020808252602e908201527f496e697469616c697a61626c653a20636f6e747261637420697320616c72656160408201526d191e481a5b9a5d1a585b1a5e995960921b606082015260800190565b6020808252602b908201527f496e697469616c697a61626c653a20636f6e7472616374206973206e6f74206960408201526a6e697469616c697a696e6760a81b606082015260800190565b634e487b7160e01b600052603260045260246000fd5b6000600182016133d4576133d4613285565b5060010190565b815167ffffffffffffffff8111156133f5576133f5612da6565b613409816134038454612f1f565b846130a1565b602080601f83116001811461343e57600084156134265750858301515b600019600386901b1c1916600185901b1785556130e7565b600085815260208120601f198616915b8281101561346d5788860151825594840194600190910190840161344e565b508582101561348b5787850151600019600388901b60f8161c191681555b5050505050600190811b01905550565b60208082526032908201527f4552433732313a207472616e7366657220746f206e6f6e20455243373231526560408201527131b2b4bb32b91034b6b83632b6b2b73a32b960711b606082015260800190565b6000826134fc576134fc6132e9565b500690565b6001600160a01b0385811682528416602082015260408101839052608060608201819052600090613534908301846129f6565b9695505050505050565b60006020828403121561355057600080fd5b815161162281612997565b634e487b7160e01b600052603160045260246000fdfea26469706673582212205d2cb6efbd3893db630b9d9a8b1cea6731c661c3212eeffe7a211528eb118abb64736f6c634300080f0033608060405234801561001057600080fd5b506136d9806100206000396000f3fe608060405234801561001057600080fd5b50600436106102a05760003560e01c8063715018a611610167578063b390ac25116100ce578063e985e9c511610087578063e985e9c5146105e0578063eab85118146105f3578063ee07080514610606578063efc32cd414610612578063f2fde38b14610625578063ff6e8c8f1461063857600080fd5b8063b390ac2514610577578063b88d4fde1461058a578063b9fbd25c1461059d578063bc719455146105b0578063c87b56dd146105c3578063e8315742146105d657600080fd5b8063931688cb11610120578063931688cb146105195780639338bb5d1461052c57806395d89b41146105415780639e860f2a14610549578063a22cb4651461055c578063ab69607a1461056f57600080fd5b8063715018a6146104c8578063717392ed146104d0578063755edd17146104d957806387bc793f146104ec578063894ba833146105005780638da5cb5b1461050857600080fd5b80633a3d146f1161020b57806353df5c7c116101c457806353df5c7c1461046c5780635aec8d62146104745780635edc7c191461047c5780636297c16c1461048f5780636352211e146104a257806370a08231146104b557600080fd5b80633a3d146f146103e05780633ebc82c51461040d57806340c1a0641461042057806342842e0e1461043357806342966c6814610446578063472a66381461045957600080fd5b8063204274861161025d578063204274861461035c57806321c4a5d81461036f57806323b872dd146103825780632a55205a146103955780632ce878da146103c75780633403c4e9146103cf57600080fd5b8063012cf1e8146102a557806301ffc9a7146102ce57806306fdde03146102f1578063081812fc14610306578063095ea7b31461033157806318160ddd14610346575b600080fd5b6102b86102b3366004612a61565b61064b565b6040516102c59190612a7c565b60405180910390f35b6102e16102dc366004612adf565b610691565b60405190151581526020016102c5565b6102f96106ab565b6040516102c59190612b54565b610319610314366004612b67565b61073d565b6040516001600160a01b0390911681526020016102c5565b61034461033f366004612b97565b6107d7565b005b61034e6108ac565b6040519081526020016102c5565b6102e161036a366004612bc1565b6108bd565b61034461037d366004612b67565b6108ec565b610344610390366004612bdc565b61091e565b6103a86103a3366004612c18565b610950565b604080516001600160a01b0390931683526020830191909152016102c5565b6102b86109eb565b60fb546001600160a01b0316610319565b6102e16103ee366004612bc1565b6001600160a01b03166000908152610102602052604090205460ff1690565b61034461041b366004612bc1565b610a11565b61031961042e366004612b67565b610a44565b610344610441366004612bdc565b610a58565b610344610454366004612b67565b610a73565b610344610467366004612a61565b610aea565b610344610b19565b610344610b8d565b61034461048a366004612c83565b610be8565b61034461049d366004612b67565b610d68565b6103196104b0366004612b67565b610dd1565b61034e6104c3366004612bc1565b610e48565b610344610ece565b6101095461034e565b61034e6104e7366004612bc1565b610f04565b6101085460ff166040516102c59190612d22565b610344610fda565b6033546001600160a01b0316610319565b610344610527366004612d4a565b61103e565b610534611112565b6040516102c59190612d8c565b6102f96111f6565b610344610557366004612dca565b611205565b61034461056a366004612e50565b611268565b60fc5461034e565b610344610585366004612e8c565b61130f565b610344610598366004612eee565b611366565b6103446105ab366004612fca565b61139e565b6103446105be366004612a61565b61141d565b6102f96105d1366004612b67565b6114d2565b61034e6101005481565b6102e16105ee366004613027565b611507565b6102e1610601366004612bc1565b611535565b60ff80546102e1911681565b610344610620366004612b97565b61155c565b610344610633366004612bc1565b6115b4565b610344610646366004612dca565b61164c565b606061068b610107600084600281111561066757610667612d0c565b600281111561067857610678612d0c565b81526020019081526020016000206116e4565b92915050565b600061069c826116f8565b8061068b575061068b8261171d565b6060609780546106ba90613051565b80601f01602080910402602001604051908101604052809291908181526020018280546106e690613051565b80156107335780601f1061070857610100808354040283529160200191610733565b820191906000526020600020905b81548152906001019060200180831161071657829003601f168201915b5050505050905090565b6000818152609960205260408120546001600160a01b03166107bb5760405162461bcd60e51b815260206004820152602c60248201527f4552433732313a20617070726f76656420717565727920666f72206e6f6e657860448201526b34b9ba32b73a103a37b5b2b760a11b60648201526084015b60405180910390fd5b506000908152609b60205260409020546001600160a01b031690565b8160016101085460ff1660028111156107f2576107f2612d0c565b036108515761083081610107600060015b600281111561081457610814612d0c565b815260200190815260200160002061176090919063ffffffff16565b61084c576040516282b42960e81b815260040160405180910390fd5b61089d565b60026101085460ff16600281111561086b5761086b612d0c565b0361089d576108808161010760006002610803565b1561089d576040516282b42960e81b815260040160405180910390fd5b6108a78383611782565b505050565b60006108b86101035490565b905090565b60006108d16033546001600160a01b031690565b6001600160a01b0316826001600160a01b0316149050919050565b6108f5336108bd565b61091257604051635c510c8360e11b815260040160405180910390fd5b61091b81611892565b50565b610929335b826118f5565b6109455760405162461bcd60e51b81526004016107b29061308b565b6108a78383836119cc565b600082815260fd602052604081205481906001600160a01b031661097f5760fb546001600160a01b0316610998565b600084815260fd60205260409020546001600160a01b03165b91506109e260646109dc60fe6000888152602001908152602001600020546000036109c55760fc546109d5565b600087815260fe60205260409020545b8690611b68565b90611b74565b90509250929050565b610108546060906108b8906101079060009060ff16600281111561066757610667612d0c565b6033546001600160a01b03163314610a3b5760405162461bcd60e51b81526004016107b2906130dc565b61091b81611b80565b600061068b6033546001600160a01b031690565b6108a783838360405180602001604052806000815250611366565b610a7c33610923565b610ae15760405162461bcd60e51b815260206004820152603060248201527f4552433732314275726e61626c653a2063616c6c6572206973206e6f74206f7760448201526f1b995c881b9bdc88185c1c1c9bdd995960821b60648201526084016107b2565b61091b81611ba2565b610af3336108bd565b610b1057604051635c510c8360e11b815260040160405180910390fd5b61091b81611c3e565b6033546001600160a01b03163314610b435760405162461bcd60e51b81526004016107b2906130dc565b6040517fb634b0cb94234b05eabb1438717e0e645bfd84788ae1263682242327563cde5e90610b759061010590613111565b60405180910390a1610106805460ff19166001179055565b42610109541115610bb15760405163807a684760e01b815260040160405180910390fd5b610bbb6000611c3e565b60405133907f60faf76514baf225c418dfc1e3c75bed0bd280f0436999e12cb0a73acb0f9a4690600090a2565b6000610bf46001611cbb565b90508015610c0c576000805461ff0019166101001790555b6001600160a01b038316610c625760405162461bcd60e51b815260206004820152601e60248201527f63726561746f722063616e6e6f74206265206e756c6c2061646472657373000060448201526064016107b2565b610c6c600a60fc55565b60ff805460ff19169055610100829055610c84611d43565b610cf787878080601f01602080910402602001604051908101604052809392919081815260200183838082843760009201919091525050604080516020601f8b018190048102820181019092528981529250899150889081908401838280828437600092019190915250611d7292505050565b610cff611da3565b610d07611dca565b610d1083611b80565b610d19836115b4565b8015610d5f576000805461ff0019169055604051600181527f7f26b83ff96e1f2b6a682f133852f6798a09c465da95921460cefb38474024989060200160405180910390a15b50505050505050565b33610d7282610dd1565b6001600160a01b031614610dc85760405162461bcd60e51b815260206004820152601f60248201527f4d75737420626520746865206f776e6572206f662074686520746f6b656e2e0060448201526064016107b2565b61091b81610a73565b6000818152609960205260408120546001600160a01b03168061068b5760405162461bcd60e51b815260206004820152602960248201527f4552433732313a206f776e657220717565727920666f72206e6f6e657869737460448201526832b73a103a37b5b2b760b91b60648201526084016107b2565b60006001600160a01b038216610eb25760405162461bcd60e51b815260206004820152602960248201527f4552433732313a2061646472657373207a65726f206973206e6f7420612076616044820152683634b21037bbb732b960b91b60648201526084016107b2565b506001600160a01b03166000908152609a602052604090205490565b6033546001600160a01b03163314610ef85760405162461bcd60e51b81526004016107b2906130dc565b610f026000611df9565b565b60ff80546000911615610f295760405162461bcd60e51b81526004016107b29061319c565b6033546001600160a01b0316331480610f525750336000908152610102602052604090205460ff165b610fb75760405162461bcd60e51b815260206004820152603060248201527f6c617a794d696e743a3a6f6e6c79206f776e6572206f7220617070726f76656460448201526f081b5a5b9d195c8818d85b881b5a5b9d60821b60648201526084016107b2565b61068b82610fc460fc5490565b60fb546001600160a01b0316611e4b565b919050565b6033546001600160a01b031633146110045760405162461bcd60e51b81526004016107b2906130dc565b60ff805460ff1916600117905560405133907f793bc6423dd0257d64f9d47db72fd4b2162f4541aa41740ba1c5fb5e2cd41bcd90600090a2565b6033546001600160a01b031633146110685760405162461bcd60e51b81526004016107b2906130dc565b6101065460ff16156110c65760405162461bcd60e51b815260206004820152602160248201527f757064617465426173655552493a3a6d65746164617461206973206c6f636b656044820152601960fa1b60648201526084016107b2565b6101056110d4828483613221565b507f1c306e70c05992619e2128ad1ef88df75f36c9476282e59f51401b2abaa42e4e82826040516111069291906132e2565b60405180910390a15050565b611138604051806060016040528060008152602001606081526020016000151581525090565b604080516060810190915261010480548252610105805460208401919061115e90613051565b80601f016020809104026020016040519081016040528092919081815260200182805461118a90613051565b80156111d75780601f106111ac576101008083540402835291602001916111d7565b820191906000526020600020905b8154815290600101906020018083116111ba57829003601f168201915b50505091835250506002919091015460ff161515602090910152919050565b6060609880546106ba90613051565b61120e336108bd565b61122b57604051635c510c8360e11b815260040160405180910390fd5b6108a78383838080602002602001604051908101604052809392919081815260200183836020028082843760009201829052509250611f07915050565b8160016101085460ff16600281111561128357611283612d0c565b036112b9576112988161010760006001610803565b6112b4576040516282b42960e81b815260040160405180910390fd5b611305565b60026101085460ff1660028111156112d3576112d3612d0c565b03611305576112e88161010760006002610803565b15611305576040516282b42960e81b815260040160405180910390fd5b6108a783836120e4565b6033546001600160a01b031633146113395760405162461bcd60e51b81526004016107b2906130dc565b60ff8054161561135b5760405162461bcd60e51b81526004016107b29061319c565b6108a78383836120ef565b61137033836118f5565b61138c5760405162461bcd60e51b81526004016107b29061308b565b61139884848484612271565b50505050565b6033546001600160a01b031633146113c85760405162461bcd60e51b81526004016107b2906130dc565b60ff805416156113ea5760405162461bcd60e51b81526004016107b29061319c565b6113f58484846120ef565b6001600160a01b0316600090815261010260205260409020805460ff19166001179055505050565b611426336108bd565b61144357604051635c510c8360e11b815260040160405180910390fd5b610107600082600281111561145a5761145a612d0c565b600281111561146b5761146b612d0c565b81526020810191909152604001600090812090818161148a8282612a20565b50505050336001600160a01b03167f7efc19cf93d497a6a56103ea89a39d51c0cad74a817ed3cd0ecaff9823d4da24826040516114c79190612d22565b60405180910390a250565b60606101056114e0836122a4565b6040516020016114f1929190613311565b6040516020818303038152906040529050919050565b6001600160a01b039182166000908152609c6020908152604080832093909416825291909152205460ff1690565b6101085460009061068b90839061010790849060ff16600281111561080357610803612d0c565b6033546001600160a01b031633146115865760405162461bcd60e51b81526004016107b2906130dc565b600090815260fd6020526040902080546001600160a01b0319166001600160a01b0392909216919091179055565b6033546001600160a01b031633146115de5760405162461bcd60e51b81526004016107b2906130dc565b6001600160a01b0381166116435760405162461bcd60e51b815260206004820152602660248201527f4f776e61626c653a206e6577206f776e657220697320746865207a65726f206160448201526564647265737360d01b60648201526084016107b2565b61091b81611df9565b611655336108bd565b61167257604051635c510c8360e11b815260040160405180910390fd5b600083600281111561168657611686612d0c565b036116a457604051632de777a160e11b815260040160405180910390fd5b6108a78383838080602002602001604051908101604052809392919081815260200183836020028082843760009201919091525060019250611f07915050565b606060006116f1836123a5565b9392505050565b60006001600160e01b0319821663fa31a45b60e01b148061068b575061068b82612401565b60006001600160e01b03198216631030681960e21b1480611742575061174282612401565b80611751575061175182612417565b8061068b575061068b82612438565b6001600160a01b038116600090815260018301602052604081205415156116f1565b600061178d82610dd1565b9050806001600160a01b0316836001600160a01b0316036117fa5760405162461bcd60e51b815260206004820152602160248201527f4552433732313a20617070726f76616c20746f2063757272656e74206f776e656044820152603960f91b60648201526084016107b2565b336001600160a01b038216148061181657506118168133611507565b6118885760405162461bcd60e51b815260206004820152603860248201527f4552433732313a20617070726f76652063616c6c6572206973206e6f74206f7760448201527f6e6572206e6f7220617070726f76656420666f7220616c6c000000000000000060648201526084016107b2565b6108a78383612478565b60006118a2826301e133806133cd565b6118ac90426133ec565b61010954604080519182526020820183905291925033917f6e948191a35d69000746799fef50c705bbdc93bd5a7577e9e9eb879c04bdebc9910160405180910390a26101095550565b6000818152609960205260408120546001600160a01b031661196e5760405162461bcd60e51b815260206004820152602c60248201527f4552433732313a206f70657261746f7220717565727920666f72206e6f6e657860448201526b34b9ba32b73a103a37b5b2b760a11b60648201526084016107b2565b600061197983610dd1565b9050806001600160a01b0316846001600160a01b031614806119a057506119a08185611507565b806119c45750836001600160a01b03166119b98461073d565b6001600160a01b0316145b949350505050565b826001600160a01b03166119df82610dd1565b6001600160a01b031614611a435760405162461bcd60e51b815260206004820152602560248201527f4552433732313a207472616e736665722066726f6d20696e636f72726563742060448201526437bbb732b960d91b60648201526084016107b2565b6001600160a01b038216611aa55760405162461bcd60e51b8152602060048201526024808201527f4552433732313a207472616e7366657220746f20746865207a65726f206164646044820152637265737360e01b60648201526084016107b2565b611ab0600082612478565b6001600160a01b0383166000908152609a60205260408120805460019290611ad9908490613404565b90915550506001600160a01b0382166000908152609a60205260408120805460019290611b079084906133ec565b909155505060008181526099602052604080822080546001600160a01b0319166001600160a01b0386811691821790925591518493918716917fddf252ad1be2c89b69c2b068fc378daa952ba7f163c4a11628f55a4df523b3ef91a4505050565b60006116f182846133cd565b60006116f18284613431565b60fb80546001600160a01b0319166001600160a01b0392909216919091179055565b6000611bad82610dd1565b9050611bba600083612478565b6001600160a01b0381166000908152609a60205260408120805460019290611be3908490613404565b909155505060008281526099602052604080822080546001600160a01b0319169055518391906001600160a01b038416907fddf252ad1be2c89b69c2b068fc378daa952ba7f163c4a11628f55a4df523b3ef908390a45b5050565b806002811115611c5057611c50612d0c565b6101085460ff166002811115611c6857611c68612d0c565b60405133907f12282389323caf08dd4e02c490ef05bc7edb56967c085742687aad3cc81aa15f90600090a4610108805482919060ff19166001836002811115611cb357611cb3612d0c565b021790555050565b60008054610100900460ff1615611d02578160ff166001148015611cde5750303b155b611cfa5760405162461bcd60e51b81526004016107b290613445565b506000919050565b60005460ff808416911610611d295760405162461bcd60e51b81526004016107b290613445565b506000805460ff191660ff92909216919091179055600190565b600054610100900460ff16611d6a5760405162461bcd60e51b81526004016107b290613493565b610f026124e6565b600054610100900460ff16611d995760405162461bcd60e51b81526004016107b290613493565b611c3a8282612516565b600054610100900460ff16610f025760405162461bcd60e51b81526004016107b290613493565b600054610100900460ff16611df15760405162461bcd60e51b81526004016107b290613493565b610f02611da3565b603380546001600160a01b038381166001600160a01b0319831681179093556040519116919082907f8be0079c531659141344cd1fd0a4f28419497f9722a3daafe3b4186f6b6457e090600090a35050565b6000611e5c61010380546001019055565b6000611e686101035490565b905061010054811115611ebd5760405162461bcd60e51b815260206004820181905260248201527f5f637265617465546f6b656e3a3a6578636565646564206d6178546f6b656e7360448201526064016107b2565b611ec78582612556565b600081815260fe60205260409020849055600081815260fd6020526040902080546001600160a01b0319166001600160a01b038516179055949350505050565b6000836002811115611f1b57611f1b612d0c565b146108a75760005b825181101561139857811561200457611f93838281518110611f4757611f476134de565b60200260200101516101076000876002811115611f6657611f66612d0c565b6002811115611f7757611f77612d0c565b815260200190815260200160002061257090919063ffffffff16565b50836002811115611fa657611fa6612d0c565b838281518110611fb857611fb86134de565b60200260200101516001600160a01b0316336001600160a01b03167f14155f749dc3f9cd2bf890d6d3a47069f77ae35befcee11c8b1a3ba41cba153660405160405180910390a46120d2565b612065838281518110612019576120196134de565b6020026020010151610107600087600281111561203857612038612d0c565b600281111561204957612049612d0c565b815260200190815260200160002061258590919063ffffffff16565b5083600281111561207857612078612d0c565b83828151811061208a5761208a6134de565b60200260200101516001600160a01b0316336001600160a01b03167fc72e29af1b34de3dec3a764b4ca4d85b9c380ab33b9b268d29b6e7008bd0ed9560405160405180910390a45b806120dc816134f4565b915050611f23565b611c3a33838361259a565b610100548111156121425760405162461bcd60e51b815260206004820181905260248201527f5f707265706172654d696e743a3a6578636565646564206d6178546f6b656e7360448201526064016107b2565b61010354156121ad5760405162461bcd60e51b815260206004820152603160248201527f5f707265706172654d696e743a3a63616e206f6e6c792070726570617265206d604482015270696e742077697468203020746f6b656e7360781b60648201526084016107b2565b604051806060016040528082815260200184848080601f016020809104026020016040519081016040528093929190818152602001838380828437600092018290525093855250505060209182015281516101049081559082015161010590612216908261350d565b50604091820151600291909101805460ff19169115159190911790555181907f6f1d651e6e0c8f86bd32a20c22a644d1e34fabf72307ff95d51b9f5892ddba199061226490869086906132e2565b60405180910390a2505050565b61227c8484846119cc565b61228884848484612668565b6113985760405162461bcd60e51b81526004016107b2906135cd565b6060816000036122cb5750506040805180820190915260018152600360fc1b602082015290565b8160005b81156122f557806122df816134f4565b91506122ee9050600a83613431565b91506122cf565b60008167ffffffffffffffff81111561231057612310612ed8565b6040519080825280601f01601f19166020018201604052801561233a576020820181803683370190505b5090505b84156119c45761234f600183613404565b915061235c600a8661361f565b6123679060306133ec565b60f81b81838151811061237c5761237c6134de565b60200101906001600160f81b031916908160001a90535061239e600a86613431565b945061233e565b6060816000018054806020026020016040519081016040528092919081815260200182805480156123f557602002820191906000526020600020905b8154815260200190600101908083116123e1575b50505050509050919050565b6001600160e01b0319166301ffc9a760e01b1490565b60006001600160e01b0319821663152a902d60e11b148061068b575061068b825b60006001600160e01b031982166380ac58cd60e01b148061246957506001600160e01b03198216635b5e139f60e01b145b8061068b575061068b82612401565b6000818152609b6020526040902080546001600160a01b0319166001600160a01b03841690811790915581906124ad82610dd1565b6001600160a01b03167f8c5be1e5ebec7d5bd14f71427d1e84f3dd0314c0f7b2291e5b200ac8c7c3b92560405160405180910390a45050565b600054610100900460ff1661250d5760405162461bcd60e51b81526004016107b290613493565b610f0233611df9565b600054610100900460ff1661253d5760405162461bcd60e51b81526004016107b290613493565b6097612549838261350d565b5060986108a7828261350d565b611c3a828260405180602001604052806000815250612769565b60006116f1836001600160a01b03841661279c565b60006116f1836001600160a01b0384166127eb565b816001600160a01b0316836001600160a01b0316036125fb5760405162461bcd60e51b815260206004820152601960248201527f4552433732313a20617070726f766520746f2063616c6c65720000000000000060448201526064016107b2565b6001600160a01b038381166000818152609c6020908152604080832094871680845294825291829020805460ff191686151590811790915591519182527f17307eab39ab6107e8899845ad3d59bd9653f200f220920489ca2b5937696c31910160405180910390a3505050565b60006001600160a01b0384163b1561275e57604051630a85bd0160e11b81526001600160a01b0385169063150b7a02906126ac903390899088908890600401613633565b6020604051808303816000875af19250505080156126e7575060408051601f3d908101601f191682019092526126e491810190613670565b60015b612744573d808015612715576040519150601f19603f3d011682016040523d82523d6000602084013e61271a565b606091505b50805160000361273c5760405162461bcd60e51b81526004016107b2906135cd565b805181602001fd5b6001600160e01b031916630a85bd0160e11b1490506119c4565b506001949350505050565b61277383836128de565b6127806000848484612668565b6108a75760405162461bcd60e51b81526004016107b2906135cd565b60008181526001830160205260408120546127e35750815460018181018455600084815260208082209093018490558454848252828601909352604090209190915561068b565b50600061068b565b600081815260018301602052604081205480156128d457600061280f600183613404565b855490915060009061282390600190613404565b9050818114612888576000866000018281548110612843576128436134de565b9060005260206000200154905080876000018481548110612866576128666134de565b6000918252602080832090910192909255918252600188019052604090208390555b85548690806128995761289961368d565b60019003818190600052602060002001600090559055856001016000868152602001908152602001600020600090556001935050505061068b565b600091505061068b565b6001600160a01b0382166129345760405162461bcd60e51b815260206004820181905260248201527f4552433732313a206d696e7420746f20746865207a65726f206164647265737360448201526064016107b2565b6000818152609960205260409020546001600160a01b0316156129995760405162461bcd60e51b815260206004820152601c60248201527f4552433732313a20746f6b656e20616c7265616479206d696e7465640000000060448201526064016107b2565b6001600160a01b0382166000908152609a602052604081208054600192906129c29084906133ec565b909155505060008181526099602052604080822080546001600160a01b0319166001600160a01b03861690811790915590518392907fddf252ad1be2c89b69c2b068fc378daa952ba7f163c4a11628f55a4df523b3ef908290a45050565b508054600082559060005260206000209081019061091b91905b80821115612a4e5760008155600101612a3a565b5090565b803560038110610fd557600080fd5b600060208284031215612a7357600080fd5b6116f182612a52565b6020808252825182820181905260009190848201906040850190845b81811015612abd5783516001600160a01b031683529284019291840191600101612a98565b50909695505050505050565b6001600160e01b03198116811461091b57600080fd5b600060208284031215612af157600080fd5b81356116f181612ac9565b60005b83811015612b17578181015183820152602001612aff565b838111156113985750506000910152565b60008151808452612b40816020860160208601612afc565b601f01601f19169290920160200192915050565b6020815260006116f16020830184612b28565b600060208284031215612b7957600080fd5b5035919050565b80356001600160a01b0381168114610fd557600080fd5b60008060408385031215612baa57600080fd5b612bb383612b80565b946020939093013593505050565b600060208284031215612bd357600080fd5b6116f182612b80565b600080600060608486031215612bf157600080fd5b612bfa84612b80565b9250612c0860208501612b80565b9150604084013590509250925092565b60008060408385031215612c2b57600080fd5b50508035926020909101359150565b60008083601f840112612c4c57600080fd5b50813567ffffffffffffffff811115612c6457600080fd5b602083019150836020828501011115612c7c57600080fd5b9250929050565b60008060008060008060808789031215612c9c57600080fd5b863567ffffffffffffffff80821115612cb457600080fd5b612cc08a838b01612c3a565b90985096506020890135915080821115612cd957600080fd5b50612ce689828a01612c3a565b9095509350612cf9905060408801612b80565b9150606087013590509295509295509295565b634e487b7160e01b600052602160045260246000fd5b6020810160038310612d4457634e487b7160e01b600052602160045260246000fd5b91905290565b60008060208385031215612d5d57600080fd5b823567ffffffffffffffff811115612d7457600080fd5b612d8085828601612c3a565b90969095509350505050565b60208152815160208201526000602083015160606040840152612db26080840182612b28565b90506040840151151560608401528091505092915050565b600080600060408486031215612ddf57600080fd5b612de884612a52565b9250602084013567ffffffffffffffff80821115612e0557600080fd5b818601915086601f830112612e1957600080fd5b813581811115612e2857600080fd5b8760208260051b8501011115612e3d57600080fd5b6020830194508093505050509250925092565b60008060408385031215612e6357600080fd5b612e6c83612b80565b915060208301358015158114612e8157600080fd5b809150509250929050565b600080600060408486031215612ea157600080fd5b833567ffffffffffffffff811115612eb857600080fd5b612ec486828701612c3a565b909790965060209590950135949350505050565b634e487b7160e01b600052604160045260246000fd5b60008060008060808587031215612f0457600080fd5b612f0d85612b80565b9350612f1b60208601612b80565b925060408501359150606085013567ffffffffffffffff80821115612f3f57600080fd5b818701915087601f830112612f5357600080fd5b813581811115612f6557612f65612ed8565b604051601f8201601f19908116603f01168101908382118183101715612f8d57612f8d612ed8565b816040528281528a6020848701011115612fa657600080fd5b82602086016020830137600060208483010152809550505050505092959194509250565b60008060008060608587031215612fe057600080fd5b843567ffffffffffffffff811115612ff757600080fd5b61300387828801612c3a565b9095509350506020850135915061301c60408601612b80565b905092959194509250565b6000806040838503121561303a57600080fd5b61304383612b80565b91506109e260208401612b80565b600181811c9082168061306557607f821691505b60208210810361308557634e487b7160e01b600052602260045260246000fd5b50919050565b60208082526031908201527f4552433732313a207472616e736665722063616c6c6572206973206e6f74206f6040820152701ddb995c881b9bdc88185c1c1c9bdd9959607a1b606082015260800190565b6020808252818101527f4f776e61626c653a2063616c6c6572206973206e6f7420746865206f776e6572604082015260600190565b600060208083526000845461312581613051565b8084870152604060018084166000811461314657600181146131605761318e565b60ff1985168984015283151560051b89018301955061318e565b896000528660002060005b858110156131865781548b820186015290830190880161316b565b8a0184019650505b509398975050505050505050565b6020808252601e908201527f436f6e7472616374206d757374206e6f742062652064697361626c65642e0000604082015260600190565b601f8211156108a757600081815260208120601f850160051c810160208610156131fa5750805b601f850160051c820191505b8181101561321957828155600101613206565b505050505050565b67ffffffffffffffff83111561323957613239612ed8565b61324d836132478354613051565b836131d3565b6000601f84116001811461328157600085156132695750838201355b600019600387901b1c1916600186901b1783556132db565b600083815260209020601f19861690835b828110156132b25786850135825560209485019460019092019101613292565b50868210156132cf5760001960f88860031b161c19848701351681555b505060018560011b0183555b5050505050565b60208152816020820152818360408301376000818301604090810191909152601f909201601f19160101919050565b600080845461331f81613051565b60018281168015613337576001811461334c5761337b565b60ff198416875282151583028701945061337b565b8860005260208060002060005b858110156133725781548a820152908401908201613359565b50505082870194505b50602f60f81b8452865192506133978382860160208a01612afc565b64173539b7b760d91b939092019182019290925260060195945050505050565b634e487b7160e01b600052601160045260246000fd5b60008160001904831182151516156133e7576133e76133b7565b500290565b600082198211156133ff576133ff6133b7565b500190565b600082821015613416576134166133b7565b500390565b634e487b7160e01b600052601260045260246000fd5b6000826134405761344061341b565b500490565b6020808252602e908201527f496e697469616c697a61626c653a20636f6e747261637420697320616c72656160408201526d191e481a5b9a5d1a585b1a5e995960921b606082015260800190565b6020808252602b908201527f496e697469616c697a61626c653a20636f6e7472616374206973206e6f74206960408201526a6e697469616c697a696e6760a81b606082015260800190565b634e487b7160e01b600052603260045260246000fd5b600060018201613506576135066133b7565b5060010190565b815167ffffffffffffffff81111561352757613527612ed8565b61353b816135358454613051565b846131d3565b602080601f83116001811461357057600084156135585750858301515b600019600386901b1c1916600185901b178555613219565b600085815260208120601f198616915b8281101561359f57888601518255948401946001909101908401613580565b50858210156135bd5787850151600019600388901b60f8161c191681555b5050505050600190811b01905550565b60208082526032908201527f4552433732313a207472616e7366657220746f206e6f6e20455243373231526560408201527131b2b4bb32b91034b6b83632b6b2b73a32b960711b606082015260800190565b60008261362e5761362e61341b565b500690565b6001600160a01b038581168252841660208201526040810183905260806060820181905260009061366690830184612b28565b9695505050505050565b60006020828403121561368257600080fd5b81516116f181612ac9565b634e487b7160e01b600052603160045260246000fdfea26469706673582212201578cb92f9d0b849d9a39fac543b36e3ac45105b744972da831f814a5e9dbdaf64736f6c634300080f0033",
    "linkReferences": {}
  },
  "methodIdentifiers": {
    "LAZY_ROYALTY_GUARD()": "00e8ece6",
    "LAZY_ROYALTY_GUARD_DEADMAN()": "740adf31",
    "LAZY_SOVEREIGN_NFT()": "637944f5",
    "createSovereignNFTContract(string,string,uint256,bytes32)": "877ebf51",
    "lazySovereignNFT()": "f5e0e6df",
    "lazySovereignNFTRoyaltyGuard()": "22d60fcb",
    "lazySovereignNFTRoyaltyGuardDeadmanTrigger()": "c4dca7ab",
    "owner()": "8da5cb5b",
    "renounceOwnership()": "715018a6",
    "setSovereignNFT(address,bytes32)": "a55b1c25",
    "transferOwnership(address)": "f2fde38b"
  },
  "id": 25
}