{
  "abi": [
    {
      "inputs": [
        {
          "internalType": "address",
          "name": "_marketplaceSettings",
          "type": "address"
        },
        {
          "internalType": "address",
          "name": "_spaceOperatorRegistry",
          "type": "address"
        }
      ],
      "stateMutability": "nonpayable",
      "type": "constructor"
    },
    {
      "anonymous": false,
      "inputs": [
        {
          "indexed": true,
          "internalType": "address",
          "name": "previousOwner",
          "type": "address"
        },
        {
          "indexed": true,
          "internalType": "address",
          "name": "newOwner",
          "type": "address"
        }
      ],
      "name": "OwnershipTransferred",
      "type": "event"
    },
    {
      "anonymous": false,
      "inputs": [
        {
          "indexed": true,
          "internalType": "address",
          "name": "_contractAddress",
          "type": "address"
        },
        {
          "indexed": true,
          "internalType": "address",
          "name": "_operator",
          "type": "address"
        }
      ],
      "name": "RareSpaceNFTContractCreated",
      "type": "event"
    },
    {
      "inputs": [
        {
          "internalType": "string",
          "name": "_name",
          "type": "string"
        },
        {
          "internalType": "string",
          "name": "_symbol",
          "type": "string"
        }
      ],
      "name": "createRareSpaceNFTContract",
      "outputs": [
        {
          "internalType": "address",
          "name": "",
          "type": "address"
        }
      ],
      "stateMutability": "nonpayable",
      "type": "function"
    },
    {
      "inputs": [],
      "name": "marketplaceSettings",
      "outputs": [
        {
          "internalType": "contract IMarketplaceSettings",
          "name": "",
          "type": "address"
        }
      ],
      "stateMutability": "view",
      "type": "function"
    },
    {
      "inputs": [],
      "name": "owner",
      "outputs": [
        {
          "internalType": "address",
          "name": "",
          "type": "address"
        }
      ],
      "stateMutability": "view",
      "type": "function"
    },
    {
      "inputs": [],
      "name": "rareSpaceNFT",
      "outputs": [
        {
          "internalType": "address",
          "name": "",
          "type": "address"
        }
      ],
      "stateMutability": "view",
      "type": "function"
    },
    {
      "inputs": [],
      "name": "renounceOwnership",
      "outputs": [],
      "stateMutability": "nonpayable",
      "type": "function"
    },
    {
      "inputs": [
        {
          "internalType": "address",
          "name": "_marketplaceSettings",
          "type": "address"
        }
      ],
      "name": "setIMarketplaceSettings",
      "outputs": [],
      "stateMutability": "nonpayable",
      "type": "function"
    },
    {
      "inputs": [
        {
          "internalType": "address",
          "name": "_rareSpaceNFT",
          "type": "address"
        }
      ],
      "name": "setRareSpaceNFT",
      "outputs": [],
      "stateMutability": "nonpayable",
      "type": "function"
    },
    {
      "inputs": [],
      "name": "spaceOperatorRegistry",
      "outputs": [
        {
          "internalType": "contract ISpaceOperatorRegistry",
          "name": "",
          "type": "address"
        }
      ],
      "stateMutability": "view",
      "type": "function"
    },
    {
      "inputs": [
        {
          "internalType": "address",
          "name": "newOwner",
          "type": "address"
        }
      ],
      "name": "transferOwnership",
      "outputs": [],
      "stateMutability": "nonpayable",
      "type": "function"
    }
  ],
  "bytecode": {
    "object": "0x608060405234801561001057600080fd5b50604051612d93380380612d9383398101604081905261002f9161015c565b610038336100e3565b6001600160a01b03821661004b57600080fd5b6001600160a01b03811661005e57600080fd5b600180546001600160a01b038085166001600160a01b031992831617909255600280549284169290911691909117905560405160009061009d90610133565b604051809103906000f0801580156100b9573d6000803e3d6000fd5b50600380546001600160a01b0319166001600160a01b03929092169190911790555061018f915050565b600080546001600160a01b038381166001600160a01b0319831681178455604051919092169283917f8be0079c531659141344cd1fd0a4f28419497f9722a3daafe3b4186f6b6457e09190a35050565b6124d5806108be83390190565b80516001600160a01b038116811461015757600080fd5b919050565b6000806040838503121561016f57600080fd5b61017883610140565b915061018660208401610140565b90509250929050565b6107208061019e6000396000f3fe608060405234801561001057600080fd5b50600436106100935760003560e01c80638da5cb5b116100665780638da5cb5b146100f7578063ba50b63214610108578063d0ba7ef81461011b578063f2fde38b1461012e578063f506ea791461014157600080fd5b8063030f3ee6146100985780630bcba09d146100ad578063715018a6146100dc57806374384883146100e4575b600080fd5b6100ab6100a6366004610565565b610154565b005b6002546100c0906001600160a01b031681565b6040516001600160a01b03909116815260200160405180910390f35b6100ab6101bc565b6100ab6100f2366004610565565b6101f2565b6000546001600160a01b03166100c0565b6001546100c0906001600160a01b031681565b6100c06101293660046105de565b610251565b6100ab61013c366004610565565b6103de565b6003546100c0906001600160a01b031681565b6000546001600160a01b031633146101875760405162461bcd60e51b815260040161017e9061064a565b60405180910390fd5b6001600160a01b03811661019a57600080fd5b600380546001600160a01b0319166001600160a01b0392909216919091179055565b6000546001600160a01b031633146101e65760405162461bcd60e51b815260040161017e9061064a565b6101f06000610479565b565b6000546001600160a01b0316331461021c5760405162461bcd60e51b815260040161017e9061064a565b6001600160a01b03811661022f57600080fd5b600180546001600160a01b0319166001600160a01b0392909216919091179055565b600354600090819061026b906001600160a01b03166104c9565b604051633772ba0d60e11b81529091506001600160a01b03821690636ee5741a906102a290899089908990899033906004016106a8565b600060405180830381600087803b1580156102bc57600080fd5b505af11580156102d0573d6000803e3d6000fd5b50506040513392506001600160a01b03841691507fabe0dd57947693bae591655c14bbe6fd911ea23c65899a1882a49ac2ce5f1f5590600090a360015460405163ae312a9760e01b81526001600160a01b038381166004830152600f60248301529091169063ae312a9790604401600060405180830381600087803b15801561035857600080fd5b505af115801561036c573d6000803e3d6000fd5b5050600254604051634623c80960e11b8152336004820152600560248201526001600160a01b039091169250638c4790129150604401600060405180830381600087803b1580156103bc57600080fd5b505af11580156103d0573d6000803e3d6000fd5b509298975050505050505050565b6000546001600160a01b031633146104085760405162461bcd60e51b815260040161017e9061064a565b6001600160a01b03811661046d5760405162461bcd60e51b815260206004820152602660248201527f4f776e61626c653a206e6577206f776e657220697320746865207a65726f206160448201526564647265737360d01b606482015260840161017e565b61047681610479565b50565b600080546001600160a01b038381166001600160a01b0319831681178455604051919092169283917f8be0079c531659141344cd1fd0a4f28419497f9722a3daafe3b4186f6b6457e09190a35050565b600060405172602d8060093d393df3363d3d373d3d3d363d7360681b81528260601b60138201526e5af43d82803e903d91602b57fd5bf360881b60278201526036816000f09150506001600160a01b0381166105605760405162461bcd60e51b8152602060048201526016602482015275115490cc4c4d8dce8818dc99585d194819985a5b195960521b604482015260640161017e565b919050565b60006020828403121561057757600080fd5b81356001600160a01b038116811461058e57600080fd5b9392505050565b60008083601f8401126105a757600080fd5b50813567ffffffffffffffff8111156105bf57600080fd5b6020830191508360208285010111156105d757600080fd5b9250929050565b600080600080604085870312156105f457600080fd5b843567ffffffffffffffff8082111561060c57600080fd5b61061888838901610595565b9096509450602087013591508082111561063157600080fd5b5061063e87828801610595565b95989497509550505050565b6020808252818101527f4f776e61626c653a2063616c6c6572206973206e6f7420746865206f776e6572604082015260600190565b81835281816020850137506000828201602090810191909152601f909101601f19169091010190565b6060815260006106bc60608301878961067f565b82810360208401526106cf81868861067f565b91505060018060a01b0383166040830152969550505050505056fea2646970667358221220fb08e051e1fa3b1b73393ff867a32f499cd4d4e7be27fad5b9c9ee0c7334c5e164736f6c634300080f00336080604052610101805460ff1916600117905534801561001e57600080fd5b506124a78061002e6000396000f3fe608060405234801561001057600080fd5b50600436106102115760003560e01c80636297c16c1161012557806395d89b41116100ad578063c87b56dd1161007c578063c87b56dd1461049f578063e43252d7146104b2578063e5cff487146104c5578063e985e9c5146104d8578063f2fde38b1461051457600080fd5b806395d89b4114610469578063a22cb46514610471578063ab69607a14610484578063b88d4fde1461048c57600080fd5b8063715018a6116100f4578063715018a61461040957806380e3f1ad1461041157806381b97161146104245780638ab1d681146104455780638da5cb5b1461045857600080fd5b80636297c16c146103bd5780636352211e146103d05780636ee5741a146103e357806370a08231146103f657600080fd5b80632a55205a116101a857806340c1a0641161017757806340c1a0641461034d57806342842e0e1461037657806342966c68146103895780634aa52c411461039c57806351fb012d146103af57600080fd5b80632a55205a146102e45780632d13f7d8146103165780633403c4e9146103295780633af32abf1461033a57600080fd5b80631029f467116101e45780631029f46714610293578063139d8325146102a65780631ef87a5d146102be57806323b872dd146102d157600080fd5b806301ffc9a71461021657806306fdde031461023e578063081812fc14610253578063095ea7b31461027e575b600080fd5b610229610224366004611b7b565b610527565b60405190151581526020015b60405180910390f35b610246610552565b6040516102359190611bf0565b610266610261366004611c03565b6105e4565b6040516001600160a01b039091168152602001610235565b61029161028c366004611c33565b61067e565b005b6102916102a1366004611c33565b610793565b6102b06101045481565b604051908152602001610235565b6102916102cc366004611ca9565b6107cb565b6102916102df366004611d15565b61086d565b6102f76102f2366004611d51565b61089f565b604080516001600160a01b039093168352602083019190915201610235565b6102b0610324366004611d73565b61093a565b60fc546001600160a01b0316610266565b610229610348366004611d73565b610974565b61026661035b366004611c03565b600090815260c960205260409020546001600160a01b031690565b610291610384366004611d15565b610995565b610291610397366004611c03565b6109b0565b6102916103aa366004611d8e565b610a2a565b610101546102299060ff1681565b6102916103cb366004611c03565b610a92565b6102666103de366004611c03565b610ab9565b6102916103f1366004611ecc565b610b30565b6102b0610404366004611d73565b610bd4565b610291610c5a565b61029161041f366004611f50565b610c90565b6102b0610432366004611d73565b6101006020526000908152604090205481565b610291610453366004611d73565b610ccc565b6033546001600160a01b0316610266565b610246610cff565b61029161047f366004611f6b565b610d0e565b60fd546102b0565b61029161049a366004611f95565b610d19565b6102466104ad366004611c03565b610d4b565b6102916104c0366004611d73565b610e33565b6102916104d3366004612011565b610e66565b6102296104e6366004612034565b6001600160a01b039182166000908152609c6020908152604080832093909416825291909152205460ff1690565b610291610522366004611d73565b610ec4565b6000631030681960e21b6001600160e01b03198316148061054c575061054c82610f5c565b92915050565b6060609780546105619061205e565b80601f016020809104026020016040519081016040528092919081815260200182805461058d9061205e565b80156105da5780601f106105af576101008083540402835291602001916105da565b820191906000526020600020905b8154815290600101906020018083116105bd57829003601f168201915b5050505050905090565b6000818152609960205260408120546001600160a01b03166106625760405162461bcd60e51b815260206004820152602c60248201527f4552433732313a20617070726f76656420717565727920666f72206e6f6e657860448201526b34b9ba32b73a103a37b5b2b760a11b60648201526084015b60405180910390fd5b506000908152609b60205260409020546001600160a01b031690565b600061068982610ab9565b9050806001600160a01b0316836001600160a01b0316036106f65760405162461bcd60e51b815260206004820152602160248201527f4552433732313a20617070726f76616c20746f2063757272656e74206f776e656044820152603960f91b6064820152608401610659565b336001600160a01b0382161480610712575061071281336104e6565b6107845760405162461bcd60e51b815260206004820152603860248201527f4552433732313a20617070726f76652063616c6c6572206973206e6f74206f7760448201527f6e6572206e6f7220617070726f76656420666f7220616c6c00000000000000006064820152608401610659565b61078e8383610f81565b505050565b6033546001600160a01b031633146107bd5760405162461bcd60e51b815260040161065990612098565b6107c78282610fef565b5050565b6033546001600160a01b031633146107f55760405162461bcd60e51b815260040161065990612098565b82811461080157600080fd5b60005b8381101561086657610854858583818110610821576108216120cd565b90506020020160208101906108369190611d73565b848484818110610848576108486120cd565b90506020020135610fef565b8061085e816120f9565b915050610804565b5050505050565b610878335b82611043565b6108945760405162461bcd60e51b815260040161065990612112565b61078e83838361113a565b600082815260fe602052604081205481906001600160a01b03166108ce5760fc546001600160a01b03166108e7565b600084815260fe60205260409020546001600160a01b03165b9150610931606461092b60ff6000888152602001908152602001600020546000036109145760fd54610924565b600087815260ff60205260409020545b86906112d6565b906112e2565b90509250929050565b6101015460009060ff161561096657506001600160a01b03166000908152610100602052604090205490565b50600019919050565b919050565b600061097f8261093a565b60000361098d57600061054c565b600192915050565b61078e83838360405180602001604052806000815250610d19565b6109b933610872565b610a1e5760405162461bcd60e51b815260206004820152603060248201527f4552433732314275726e61626c653a2063616c6c6572206973206e6f74206f7760448201526f1b995c881b9bdc88185c1c1c9bdd995960821b6064820152608401610659565b610a27816112ee565b50565b33600180610a378361093a565b1015610a4257600080fd5b610a8986868080601f016020809104026020016040519081016040528093929190818152602001838380828437600092019190915250506101045433925088915087611389565b50505050505050565b8033610a9d82610ab9565b6001600160a01b031614610ab057600080fd5b6107c7826109b0565b6000818152609960205260408120546001600160a01b03168061054c5760405162461bcd60e51b815260206004820152602960248201527f4552433732313a206f776e657220717565727920666f72206e6f6e657869737460448201526832b73a103a37b5b2b760b91b6064820152608401610659565b6000610b3c6001611434565b90508015610b54576000805461ff0019166101001790555b6001600160a01b038216610b6757600080fd5b600a61010455610b7784846114bc565b610b7f6114ed565b610b8882610ec4565b8015610bce576000805461ff0019169055604051600181527f7f26b83ff96e1f2b6a682f133852f6798a09c465da95921460cefb38474024989060200160405180910390a15b50505050565b60006001600160a01b038216610c3e5760405162461bcd60e51b815260206004820152602960248201527f4552433732313a2061646472657373207a65726f206973206e6f7420612076616044820152683634b21037bbb732b960b91b6064820152608401610659565b506001600160a01b03166000908152609a602052604090205490565b6033546001600160a01b03163314610c845760405162461bcd60e51b815260040161065990612098565b610c8e6000611514565b565b6033546001600160a01b03163314610cba5760405162461bcd60e51b815260040161065990612098565b610101805460ff191682151517905550565b6033546001600160a01b03163314610cf65760405162461bcd60e51b815260040161065990612098565b610a2781611566565b6060609880546105619061205e565b6107c73383836115b8565b610d233383611043565b610d3f5760405162461bcd60e51b815260040161065990612112565b610bce84848484611686565b6000818152609960205260409020546060906001600160a01b0316610dca5760405162461bcd60e51b815260206004820152602f60248201527f4552433732314d657461646174613a2055524920717565727920666f72206e6f60448201526e3732bc34b9ba32b73a103a37b5b2b760891b6064820152608401610659565b6000610de160408051602081019091526000815290565b90506000815111610e015760405180602001604052806000815250610e2c565b80610e0b846116b9565b604051602001610e1c929190612163565b6040516020818303038152906040525b9392505050565b6033546001600160a01b03163314610e5d5760405162461bcd60e51b815260040161065990612098565b610a27816117ba565b600082815260c960205260409020546001600160a01b03163314610eba5760405162461bcd60e51b815260206004820152600b60248201526a2737ba1031b932b0ba37b960a91b6044820152606401610659565b6107c78282611815565b6033546001600160a01b03163314610eee5760405162461bcd60e51b815260040161065990612098565b6001600160a01b038116610f535760405162461bcd60e51b815260206004820152602660248201527f4f776e61626c653a206e6577206f776e657220697320746865207a65726f206160448201526564647265737360d01b6064820152608401610659565b610a2781611514565b60006001600160e01b0319821663152a902d60e11b148061054c575061054c82611843565b6000818152609b6020526040902080546001600160a01b0319166001600160a01b0384169081179091558190610fb682610ab9565b6001600160a01b03167f8c5be1e5ebec7d5bd14f71427d1e84f3dd0314c0f7b2291e5b200ac8c7c3b92560405160405180910390a45050565b6001600160a01b0382166000818152610100602090815260409182902084905590518381527fbc6a3f008d10f4c6e9c2a833342ba74f94b2beb3479cfb358034d6e1bc7e5c3e910160405180910390a25050565b6000818152609960205260408120546001600160a01b03166110bc5760405162461bcd60e51b815260206004820152602c60248201527f4552433732313a206f70657261746f7220717565727920666f72206e6f6e657860448201526b34b9ba32b73a103a37b5b2b760a11b6064820152608401610659565b60006110c783610ab9565b9050806001600160a01b0316846001600160a01b0316148061110e57506001600160a01b038082166000908152609c602090815260408083209388168352929052205460ff165b806111325750836001600160a01b0316611127846105e4565b6001600160a01b0316145b949350505050565b826001600160a01b031661114d82610ab9565b6001600160a01b0316146111b15760405162461bcd60e51b815260206004820152602560248201527f4552433732313a207472616e736665722066726f6d20696e636f72726563742060448201526437bbb732b960d91b6064820152608401610659565b6001600160a01b0382166112135760405162461bcd60e51b8152602060048201526024808201527f4552433732313a207472616e7366657220746f20746865207a65726f206164646044820152637265737360e01b6064820152608401610659565b61121e600082610f81565b6001600160a01b0383166000908152609a60205260408120805460019290611247908490612192565b90915550506001600160a01b0382166000908152609a602052604081208054600192906112759084906121a9565b909155505060008181526099602052604080822080546001600160a01b0319166001600160a01b0386811691821790925591518493918716917fddf252ad1be2c89b69c2b068fc378daa952ba7f163c4a11628f55a4df523b3ef91a4505050565b6000610e2c82846121c1565b6000610e2c82846121f6565b60006112f982610ab9565b9050611306600083610f81565b6001600160a01b0381166000908152609a6020526040812080546001929061132f908490612192565b909155505060008281526099602052604080822080546001600160a01b0319169055518391906001600160a01b038416907fddf252ad1be2c89b69c2b068fc378daa952ba7f163c4a11628f55a4df523b3ef908390a45050565b61010380546000918261139b836120f9565b91905055506113ad8461010354611893565b610103546000908152610102602052604090206113ca8782612258565b5061010354600090815260c96020526040902080546001600160a01b0319166001600160a01b0387161790556114036101035483611815565b61141d6101035484600091825260ff602052604090912055565b611426336119d5565b506101035495945050505050565b60008054610100900460ff161561147b578160ff1660011480156114575750303b155b6114735760405162461bcd60e51b815260040161065990612318565b506000919050565b60005460ff8084169116106114a25760405162461bcd60e51b815260040161065990612318565b506000805460ff191660ff92909216919091179055600190565b600054610100900460ff166114e35760405162461bcd60e51b815260040161065990612366565b6107c78282611a24565b600054610100900460ff16610c8e5760405162461bcd60e51b815260040161065990612366565b603380546001600160a01b038381166001600160a01b0319831681179093556040519116919082907f8be0079c531659141344cd1fd0a4f28419497f9722a3daafe3b4186f6b6457e090600090a35050565b6001600160a01b038116600081815261010060209081526040808320839055519182527fbc6a3f008d10f4c6e9c2a833342ba74f94b2beb3479cfb358034d6e1bc7e5c3e91015b60405180910390a250565b816001600160a01b0316836001600160a01b0316036116195760405162461bcd60e51b815260206004820152601960248201527f4552433732313a20617070726f766520746f2063616c6c6572000000000000006044820152606401610659565b6001600160a01b038381166000818152609c6020908152604080832094871680845294825291829020805460ff191686151590811790915591519182527f17307eab39ab6107e8899845ad3d59bd9653f200f220920489ca2b5937696c31910160405180910390a3505050565b61169184848461113a565b61169d84848484611a64565b610bce5760405162461bcd60e51b8152600401610659906123b1565b6060816000036116e05750506040805180820190915260018152600360fc1b602082015290565b8160005b811561170a57806116f4816120f9565b91506117039050600a836121f6565b91506116e4565b60008167ffffffffffffffff81111561172557611725611e20565b6040519080825280601f01601f19166020018201604052801561174f576020820181803683370190505b5090505b841561113257611764600183612192565b9150611771600a86612403565b61177c9060306121a9565b60f81b818381518110611791576117916120cd565b60200101906001600160f81b031916908160001a9053506117b3600a866121f6565b9450611753565b6001600160a01b0381166000908152610100602052604090206000199055806001600160a01b03167fbc6a3f008d10f4c6e9c2a833342ba74f94b2beb3479cfb358034d6e1bc7e5c3e6000196040516115ad91815260200190565b600091825260fe602052604090912080546001600160a01b0319166001600160a01b03909216919091179055565b60006001600160e01b031982166380ac58cd60e01b148061187457506001600160e01b03198216635b5e139f60e01b145b8061054c57506301ffc9a760e01b6001600160e01b031983161461054c565b6001600160a01b0382166118e95760405162461bcd60e51b815260206004820181905260248201527f4552433732313a206d696e7420746f20746865207a65726f20616464726573736044820152606401610659565b6000818152609960205260409020546001600160a01b03161561194e5760405162461bcd60e51b815260206004820152601c60248201527f4552433732313a20746f6b656e20616c7265616479206d696e746564000000006044820152606401610659565b6001600160a01b0382166000908152609a602052604081208054600192906119779084906121a9565b909155505060008181526099602052604080822080546001600160a01b0319166001600160a01b03861690811790915590518392907fddf252ad1be2c89b69c2b068fc378daa952ba7f163c4a11628f55a4df523b3ef908290a45050565b6101015460ff1615610a27576001600160a01b03811660009081526101006020526040902054611a06600182612192565b6001600160a01b038316600090815261010060205260409020555050565b600054610100900460ff16611a4b5760405162461bcd60e51b815260040161065990612366565b6097611a578382612258565b50609861078e8282612258565b60006001600160a01b0384163b15611b5a57604051630a85bd0160e11b81526001600160a01b0385169063150b7a0290611aa8903390899088908890600401612417565b6020604051808303816000875af1925050508015611ae3575060408051601f3d908101601f19168201909252611ae091810190612454565b60015b611b40573d808015611b11576040519150601f19603f3d011682016040523d82523d6000602084013e611b16565b606091505b508051600003611b385760405162461bcd60e51b8152600401610659906123b1565b805181602001fd5b6001600160e01b031916630a85bd0160e11b149050611132565b506001949350505050565b6001600160e01b031981168114610a2757600080fd5b600060208284031215611b8d57600080fd5b8135610e2c81611b65565b60005b83811015611bb3578181015183820152602001611b9b565b83811115610bce5750506000910152565b60008151808452611bdc816020860160208601611b98565b601f01601f19169290920160200192915050565b602081526000610e2c6020830184611bc4565b600060208284031215611c1557600080fd5b5035919050565b80356001600160a01b038116811461096f57600080fd5b60008060408385031215611c4657600080fd5b611c4f83611c1c565b946020939093013593505050565b60008083601f840112611c6f57600080fd5b50813567ffffffffffffffff811115611c8757600080fd5b6020830191508360208260051b8501011115611ca257600080fd5b9250929050565b60008060008060408587031215611cbf57600080fd5b843567ffffffffffffffff80821115611cd757600080fd5b611ce388838901611c5d565b90965094506020870135915080821115611cfc57600080fd5b50611d0987828801611c5d565b95989497509550505050565b600080600060608486031215611d2a57600080fd5b611d3384611c1c565b9250611d4160208501611c1c565b9150604084013590509250925092565b60008060408385031215611d6457600080fd5b50508035926020909101359150565b600060208284031215611d8557600080fd5b610e2c82611c1c565b60008060008060608587031215611da457600080fd5b843567ffffffffffffffff80821115611dbc57600080fd5b818701915087601f830112611dd057600080fd5b813581811115611ddf57600080fd5b886020828501011115611df157600080fd5b602092830196509450611e079187019050611c1c565b9150611e1560408601611c1c565b905092959194509250565b634e487b7160e01b600052604160045260246000fd5b600067ffffffffffffffff80841115611e5157611e51611e20565b604051601f8501601f19908116603f01168101908282118183101715611e7957611e79611e20565b81604052809350858152868686011115611e9257600080fd5b858560208301376000602087830101525050509392505050565b600082601f830112611ebd57600080fd5b610e2c83833560208501611e36565b600080600060608486031215611ee157600080fd5b833567ffffffffffffffff80821115611ef957600080fd5b611f0587838801611eac565b94506020860135915080821115611f1b57600080fd5b50611f2886828701611eac565b925050611f3760408501611c1c565b90509250925092565b8035801515811461096f57600080fd5b600060208284031215611f6257600080fd5b610e2c82611f40565b60008060408385031215611f7e57600080fd5b611f8783611c1c565b915061093160208401611f40565b60008060008060808587031215611fab57600080fd5b611fb485611c1c565b9350611fc260208601611c1c565b925060408501359150606085013567ffffffffffffffff811115611fe557600080fd5b8501601f81018713611ff657600080fd5b61200587823560208401611e36565b91505092959194509250565b6000806040838503121561202457600080fd5b8235915061093160208401611c1c565b6000806040838503121561204757600080fd5b61205083611c1c565b915061093160208401611c1c565b600181811c9082168061207257607f821691505b60208210810361209257634e487b7160e01b600052602260045260246000fd5b50919050565b6020808252818101527f4f776e61626c653a2063616c6c6572206973206e6f7420746865206f776e6572604082015260600190565b634e487b7160e01b600052603260045260246000fd5b634e487b7160e01b600052601160045260246000fd5b60006001820161210b5761210b6120e3565b5060010190565b60208082526031908201527f4552433732313a207472616e736665722063616c6c6572206973206e6f74206f6040820152701ddb995c881b9bdc88185c1c1c9bdd9959607a1b606082015260800190565b60008351612175818460208801611b98565b835190830190612189818360208801611b98565b01949350505050565b6000828210156121a4576121a46120e3565b500390565b600082198211156121bc576121bc6120e3565b500190565b60008160001904831182151516156121db576121db6120e3565b500290565b634e487b7160e01b600052601260045260246000fd5b600082612205576122056121e0565b500490565b601f82111561078e57600081815260208120601f850160051c810160208610156122315750805b601f850160051c820191505b818110156122505782815560010161223d565b505050505050565b815167ffffffffffffffff81111561227257612272611e20565b61228681612280845461205e565b8461220a565b602080601f8311600181146122bb57600084156122a35750858301515b600019600386901b1c1916600185901b178555612250565b600085815260208120601f198616915b828110156122ea578886015182559484019460019091019084016122cb565b50858210156123085787850151600019600388901b60f8161c191681555b5050505050600190811b01905550565b6020808252602e908201527f496e697469616c697a61626c653a20636f6e747261637420697320616c72656160408201526d191e481a5b9a5d1a585b1a5e995960921b606082015260800190565b6020808252602b908201527f496e697469616c697a61626c653a20636f6e7472616374206973206e6f74206960408201526a6e697469616c697a696e6760a81b606082015260800190565b60208082526032908201527f4552433732313a207472616e7366657220746f206e6f6e20455243373231526560408201527131b2b4bb32b91034b6b83632b6b2b73a32b960711b606082015260800190565b600082612412576124126121e0565b500690565b6001600160a01b038581168252841660208201526040810183905260806060820181905260009061244a90830184611bc4565b9695505050505050565b60006020828403121561246657600080fd5b8151610e2c81611b6556fea264697066735822122037b70699f35e944fef8aac271f6a96ecc6de4cdc00d99c9a6836019f9694568b64736f6c634300080f0033",
    "linkReferences": {}
  },
  "methodIdentifiers": {
    "createRareSpaceNFTContract(string,string)": "d0ba7ef8",
    "marketplaceSettings()": "ba50b632",
    "owner()": "8da5cb5b",
    "rareSpaceNFT()": "f506ea79",
    "renounceOwnership()": "715018a6",
    "setIMarketplaceSettings(address)": "74384883",
    "setRareSpaceNFT(address)": "030f3ee6",
    "spaceOperatorRegistry()": "0bcba09d",
    "transferOwnership(address)": "f2fde38b"
  },
  "id": 50
}