{
  "abi": [
    {
      "inputs": [],
      "name": "CantAddToOFFList",
      "type": "error"
    },
    {
      "inputs": [],
      "name": "DeadmanTriggerStillActive",
      "type": "error"
    },
    {
      "inputs": [],
      "name": "MustBeAdmin",
      "type": "error"
    },
    {
      "inputs": [],
      "name": "Unauthorized",
      "type": "error"
    },
    {
      "anonymous": false,
      "inputs": [
        {
          "indexed": true,
          "internalType": "address",
          "name": "_updater",
          "type": "address"
        },
        {
          "indexed": true,
          "internalType": "address",
          "name": "_addedAddr",
          "type": "address"
        },
        {
          "indexed": true,
          "internalType": "enum IRoyaltyGuard.ListType",
          "name": "_ListType",
          "type": "uint8"
        }
      ],
      "name": "AddressAddedToList",
      "type": "event"
    },
    {
      "anonymous": false,
      "inputs": [
        {
          "indexed": true,
          "internalType": "address",
          "name": "_updater",
          "type": "address"
        },
        {
          "indexed": true,
          "internalType": "address",
          "name": "_removedAddr",
          "type": "address"
        },
        {
          "indexed": true,
          "internalType": "enum IRoyaltyGuard.ListType",
          "name": "_ListType",
          "type": "uint8"
        }
      ],
      "name": "AddressRemovedList",
      "type": "event"
    },
    {
      "anonymous": false,
      "inputs": [
        {
          "indexed": true,
          "internalType": "address",
          "name": "owner",
          "type": "address"
        },
        {
          "indexed": true,
          "internalType": "address",
          "name": "approved",
          "type": "address"
        },
        {
          "indexed": true,
          "internalType": "uint256",
          "name": "tokenId",
          "type": "uint256"
        }
      ],
      "name": "Approval",
      "type": "event"
    },
    {
      "anonymous": false,
      "inputs": [
        {
          "indexed": true,
          "internalType": "address",
          "name": "owner",
          "type": "address"
        },
        {
          "indexed": true,
          "internalType": "address",
          "name": "operator",
          "type": "address"
        },
        {
          "indexed": false,
          "internalType": "bool",
          "name": "approved",
          "type": "bool"
        }
      ],
      "name": "ApprovalForAll",
      "type": "event"
    },
    {
      "anonymous": false,
      "inputs": [
        {
          "indexed": true,
          "internalType": "uint256",
          "name": "fromTokenId",
          "type": "uint256"
        },
        {
          "indexed": false,
          "internalType": "uint256",
          "name": "toTokenId",
          "type": "uint256"
        },
        {
          "indexed": true,
          "internalType": "address",
          "name": "fromAddress",
          "type": "address"
        },
        {
          "indexed": true,
          "internalType": "address",
          "name": "toAddress",
          "type": "address"
        }
      ],
      "name": "ConsecutiveTransfer",
      "type": "event"
    },
    {
      "anonymous": false,
      "inputs": [
        {
          "indexed": true,
          "internalType": "address",
          "name": "user",
          "type": "address"
        }
      ],
      "name": "ContractDisabled",
      "type": "event"
    },
    {
      "anonymous": false,
      "inputs": [
        {
          "indexed": true,
          "internalType": "address",
          "name": "_activator",
          "type": "address"
        }
      ],
      "name": "DeadmanTriggerActivated",
      "type": "event"
    },
    {
      "anonymous": false,
      "inputs": [
        {
          "indexed": true,
          "internalType": "address",
          "name": "_updater",
          "type": "address"
        },
        {
          "indexed": false,
          "internalType": "uint256",
          "name": "_oldDatetime",
          "type": "uint256"
        },
        {
          "indexed": false,
          "internalType": "uint256",
          "name": "_newDatetime",
          "type": "uint256"
        }
      ],
      "name": "DeadmanTriggerDatetimeUpdated",
      "type": "event"
    },
    {
      "anonymous": false,
      "inputs": [
        {
          "indexed": false,
          "internalType": "uint8",
          "name": "version",
          "type": "uint8"
        }
      ],
      "name": "Initialized",
      "type": "event"
    },
    {
      "anonymous": false,
      "inputs": [
        {
          "indexed": true,
          "internalType": "address",
          "name": "_updater",
          "type": "address"
        },
        {
          "indexed": false,
          "internalType": "enum IRoyaltyGuard.ListType",
          "name": "_listType",
          "type": "uint8"
        }
      ],
      "name": "ListCleared",
      "type": "event"
    },
    {
      "anonymous": false,
      "inputs": [
        {
          "indexed": true,
          "internalType": "address",
          "name": "_updater",
          "type": "address"
        },
        {
          "indexed": true,
          "internalType": "enum IRoyaltyGuard.ListType",
          "name": "_oldListType",
          "type": "uint8"
        },
        {
          "indexed": true,
          "internalType": "enum IRoyaltyGuard.ListType",
          "name": "_newListType",
          "type": "uint8"
        }
      ],
      "name": "ListTypeUpdated",
      "type": "event"
    },
    {
      "anonymous": false,
      "inputs": [
        {
          "indexed": true,
          "internalType": "address",
          "name": "previousOwner",
          "type": "address"
        },
        {
          "indexed": true,
          "internalType": "address",
          "name": "newOwner",
          "type": "address"
        }
      ],
      "name": "OwnershipTransferred",
      "type": "event"
    },
    {
      "anonymous": false,
      "inputs": [
        {
          "indexed": true,
          "internalType": "address",
          "name": "from",
          "type": "address"
        },
        {
          "indexed": true,
          "internalType": "address",
          "name": "to",
          "type": "address"
        },
        {
          "indexed": true,
          "internalType": "uint256",
          "name": "tokenId",
          "type": "uint256"
        }
      ],
      "name": "Transfer",
      "type": "event"
    },
    {
      "inputs": [],
      "name": "activateDeadmanListTrigger",
      "outputs": [],
      "stateMutability": "nonpayable",
      "type": "function"
    },
    {
      "inputs": [
        {
          "internalType": "string",
          "name": "_uri",
          "type": "string"
        }
      ],
      "name": "addNewToken",
      "outputs": [],
      "stateMutability": "nonpayable",
      "type": "function"
    },
    {
      "inputs": [
        {
          "internalType": "address",
          "name": "_spender",
          "type": "address"
        },
        {
          "internalType": "uint256",
          "name": "_id",
          "type": "uint256"
        }
      ],
      "name": "approve",
      "outputs": [],
      "stateMutability": "nonpayable",
      "type": "function"
    },
    {
      "inputs": [
        {
          "internalType": "address",
          "name": "owner",
          "type": "address"
        }
      ],
      "name": "balanceOf",
      "outputs": [
        {
          "internalType": "uint256",
          "name": "",
          "type": "uint256"
        }
      ],
      "stateMutability": "view",
      "type": "function"
    },
    {
      "inputs": [
        {
          "internalType": "enum IRoyaltyGuard.ListType",
          "name": "_listType",
          "type": "uint8"
        },
        {
          "internalType": "address[]",
          "name": "_addrs",
          "type": "address[]"
        }
      ],
      "name": "batchAddAddressToRoyaltyList",
      "outputs": [],
      "stateMutability": "nonpayable",
      "type": "function"
    },
    {
      "inputs": [
        {
          "internalType": "string",
          "name": "_baseURI",
          "type": "string"
        },
        {
          "internalType": "uint256",
          "name": "_numberOfTokens",
          "type": "uint256"
        }
      ],
      "name": "batchMint",
      "outputs": [],
      "stateMutability": "nonpayable",
      "type": "function"
    },
    {
      "inputs": [
        {
          "internalType": "enum IRoyaltyGuard.ListType",
          "name": "_listType",
          "type": "uint8"
        },
        {
          "internalType": "address[]",
          "name": "_addrs",
          "type": "address[]"
        }
      ],
      "name": "batchRemoveAddressToRoyaltyList",
      "outputs": [],
      "stateMutability": "nonpayable",
      "type": "function"
    },
    {
      "inputs": [
        {
          "internalType": "uint256",
          "name": "_tokenId",
          "type": "uint256"
        }
      ],
      "name": "burn",
      "outputs": [],
      "stateMutability": "nonpayable",
      "type": "function"
    },
    {
      "inputs": [
        {
          "internalType": "enum IRoyaltyGuard.ListType",
          "name": "_listType",
          "type": "uint8"
        }
      ],
      "name": "clearList",
      "outputs": [],
      "stateMutability": "nonpayable",
      "type": "function"
    },
    {
      "inputs": [
        {
          "internalType": "uint256",
          "name": "_tokenId",
          "type": "uint256"
        }
      ],
      "name": "deleteToken",
      "outputs": [],
      "stateMutability": "nonpayable",
      "type": "function"
    },
    {
      "inputs": [],
      "name": "disableContract",
      "outputs": [],
      "stateMutability": "nonpayable",
      "type": "function"
    },
    {
      "inputs": [],
      "name": "disabled",
      "outputs": [
        {
          "internalType": "bool",
          "name": "",
          "type": "bool"
        }
      ],
      "stateMutability": "view",
      "type": "function"
    },
    {
      "inputs": [
        {
          "internalType": "uint256",
          "name": "_tokenId",
          "type": "uint256"
        }
      ],
      "name": "getApproved",
      "outputs": [
        {
          "internalType": "address",
          "name": "",
          "type": "address"
        }
      ],
      "stateMutability": "view",
      "type": "function"
    },
    {
      "inputs": [],
      "name": "getDeadmanTriggerAvailableDatetime",
      "outputs": [
        {
          "internalType": "uint256",
          "name": "",
          "type": "uint256"
        }
      ],
      "stateMutability": "view",
      "type": "function"
    },
    {
      "inputs": [],
      "name": "getDefaultRoyaltyPercentage",
      "outputs": [
        {
          "internalType": "uint256",
          "name": "",
          "type": "uint256"
        }
      ],
      "stateMutability": "view",
      "type": "function"
    },
    {
      "inputs": [],
      "name": "getDefaultRoyaltyReceiver",
      "outputs": [
        {
          "internalType": "address",
          "name": "",
          "type": "address"
        }
      ],
      "stateMutability": "view",
      "type": "function"
    },
    {
      "inputs": [],
      "name": "getInUseList",
      "outputs": [
        {
          "internalType": "address[]",
          "name": "",
          "type": "address[]"
        }
      ],
      "stateMutability": "view",
      "type": "function"
    },
    {
      "inputs": [
        {
          "internalType": "enum IRoyaltyGuard.ListType",
          "name": "_listType",
          "type": "uint8"
        }
      ],
      "name": "getList",
      "outputs": [
        {
          "internalType": "address[]",
          "name": "",
          "type": "address[]"
        }
      ],
      "stateMutability": "view",
      "type": "function"
    },
    {
      "inputs": [],
      "name": "getListType",
      "outputs": [
        {
          "internalType": "enum IRoyaltyGuard.ListType",
          "name": "",
          "type": "uint8"
        }
      ],
      "stateMutability": "view",
      "type": "function"
    },
    {
      "inputs": [
        {
          "internalType": "address",
          "name": "_addr",
          "type": "address"
        }
      ],
      "name": "hasAdminPermission",
      "outputs": [
        {
          "internalType": "bool",
          "name": "",
          "type": "bool"
        }
      ],
      "stateMutability": "view",
      "type": "function"
    },
    {
      "inputs": [
        {
          "internalType": "string",
          "name": "_name",
          "type": "string"
        },
        {
          "internalType": "string",
          "name": "_symbol",
          "type": "string"
        },
        {
          "internalType": "address",
          "name": "_creator",
          "type": "address"
        },
        {
          "internalType": "uint256",
          "name": "_maxTokens",
          "type": "uint256"
        }
      ],
      "name": "init",
      "outputs": [],
      "stateMutability": "nonpayable",
      "type": "function"
    },
    {
      "inputs": [
        {
          "internalType": "address",
          "name": "owner",
          "type": "address"
        },
        {
          "internalType": "address",
          "name": "operator",
          "type": "address"
        }
      ],
      "name": "isApprovedForAll",
      "outputs": [
        {
          "internalType": "bool",
          "name": "",
          "type": "bool"
        }
      ],
      "stateMutability": "view",
      "type": "function"
    },
    {
      "inputs": [
        {
          "internalType": "address",
          "name": "_operator",
          "type": "address"
        }
      ],
      "name": "isOperatorInList",
      "outputs": [
        {
          "internalType": "bool",
          "name": "",
          "type": "bool"
        }
      ],
      "stateMutability": "view",
      "type": "function"
    },
    {
      "inputs": [],
      "name": "maxTokens",
      "outputs": [
        {
          "internalType": "uint256",
          "name": "",
          "type": "uint256"
        }
      ],
      "stateMutability": "view",
      "type": "function"
    },
    {
      "inputs": [
        {
          "internalType": "string",
          "name": "_uri",
          "type": "string"
        },
        {
          "internalType": "address",
          "name": "_receiver",
          "type": "address"
        },
        {
          "internalType": "address",
          "name": "_royaltyReceiver",
          "type": "address"
        }
      ],
      "name": "mintTo",
      "outputs": [],
      "stateMutability": "nonpayable",
      "type": "function"
    },
    {
      "inputs": [],
      "name": "name",
      "outputs": [
        {
          "internalType": "string",
          "name": "",
          "type": "string"
        }
      ],
      "stateMutability": "view",
      "type": "function"
    },
    {
      "inputs": [],
      "name": "owner",
      "outputs": [
        {
          "internalType": "address",
          "name": "",
          "type": "address"
        }
      ],
      "stateMutability": "view",
      "type": "function"
    },
    {
      "inputs": [
        {
          "internalType": "uint256",
          "name": "_tokenId",
          "type": "uint256"
        }
      ],
      "name": "ownerOf",
      "outputs": [
        {
          "internalType": "address",
          "name": "",
          "type": "address"
        }
      ],
      "stateMutability": "view",
      "type": "function"
    },
    {
      "inputs": [],
      "name": "renounceOwnership",
      "outputs": [],
      "stateMutability": "nonpayable",
      "type": "function"
    },
    {
      "inputs": [
        {
          "internalType": "uint256",
          "name": "_tokenId",
          "type": "uint256"
        },
        {
          "internalType": "uint256",
          "name": "_salePrice",
          "type": "uint256"
        }
      ],
      "name": "royaltyInfo",
      "outputs": [
        {
          "internalType": "address",
          "name": "receiver",
          "type": "address"
        },
        {
          "internalType": "uint256",
          "name": "royaltyAmount",
          "type": "uint256"
        }
      ],
      "stateMutability": "view",
      "type": "function"
    },
    {
      "inputs": [
        {
          "internalType": "address",
          "name": "from",
          "type": "address"
        },
        {
          "internalType": "address",
          "name": "to",
          "type": "address"
        },
        {
          "internalType": "uint256",
          "name": "tokenId",
          "type": "uint256"
        }
      ],
      "name": "safeTransferFrom",
      "outputs": [],
      "stateMutability": "nonpayable",
      "type": "function"
    },
    {
      "inputs": [
        {
          "internalType": "address",
          "name": "from",
          "type": "address"
        },
        {
          "internalType": "address",
          "name": "to",
          "type": "address"
        },
        {
          "internalType": "uint256",
          "name": "tokenId",
          "type": "uint256"
        },
        {
          "internalType": "bytes",
          "name": "_data",
          "type": "bytes"
        }
      ],
      "name": "safeTransferFrom",
      "outputs": [],
      "stateMutability": "nonpayable",
      "type": "function"
    },
    {
      "inputs": [
        {
          "internalType": "address",
          "name": "_operator",
          "type": "address"
        },
        {
          "internalType": "bool",
          "name": "_approved",
          "type": "bool"
        }
      ],
      "name": "setApprovalForAll",
      "outputs": [],
      "stateMutability": "nonpayable",
      "type": "function"
    },
    {
      "inputs": [
        {
          "internalType": "uint256",
          "name": "_numYears",
          "type": "uint256"
        }
      ],
      "name": "setDeadmanListTriggerRenewalDuration",
      "outputs": [],
      "stateMutability": "nonpayable",
      "type": "function"
    },
    {
      "inputs": [
        {
          "internalType": "address",
          "name": "_receiver",
          "type": "address"
        }
      ],
      "name": "setDefaultRoyaltyReceiver",
      "outputs": [],
      "stateMutability": "nonpayable",
      "type": "function"
    },
    {
      "inputs": [
        {
          "internalType": "address",
          "name": "_receiver",
          "type": "address"
        },
        {
          "internalType": "uint256",
          "name": "_tokenId",
          "type": "uint256"
        }
      ],
      "name": "setRoyaltyReceiverForToken",
      "outputs": [],
      "stateMutability": "nonpayable",
      "type": "function"
    },
    {
      "inputs": [
        {
          "internalType": "bytes4",
          "name": "_interfaceId",
          "type": "bytes4"
        }
      ],
      "name": "supportsInterface",
      "outputs": [
        {
          "internalType": "bool",
          "name": "",
          "type": "bool"
        }
      ],
      "stateMutability": "view",
      "type": "function"
    },
    {
      "inputs": [],
      "name": "symbol",
      "outputs": [
        {
          "internalType": "string",
          "name": "",
          "type": "string"
        }
      ],
      "stateMutability": "view",
      "type": "function"
    },
    {
      "inputs": [
        {
          "internalType": "enum IRoyaltyGuard.ListType",
          "name": "_newListType",
          "type": "uint8"
        }
      ],
      "name": "toggleListType",
      "outputs": [],
      "stateMutability": "nonpayable",
      "type": "function"
    },
    {
      "inputs": [
        {
          "internalType": "uint256",
          "name": "",
          "type": "uint256"
        }
      ],
      "name": "tokenCreator",
      "outputs": [
        {
          "internalType": "address payable",
          "name": "",
          "type": "address"
        }
      ],
      "stateMutability": "view",
      "type": "function"
    },
    {
      "inputs": [
        {
          "internalType": "uint256",
          "name": "_tokenId",
          "type": "uint256"
        }
      ],
      "name": "tokenURI",
      "outputs": [
        {
          "internalType": "string",
          "name": "",
          "type": "string"
        }
      ],
      "stateMutability": "view",
      "type": "function"
    },
    {
      "inputs": [],
      "name": "totalSupply",
      "outputs": [
        {
          "internalType": "uint256",
          "name": "",
          "type": "uint256"
        }
      ],
      "stateMutability": "view",
      "type": "function"
    },
    {
      "inputs": [
        {
          "internalType": "address",
          "name": "from",
          "type": "address"
        },
        {
          "internalType": "address",
          "name": "to",
          "type": "address"
        },
        {
          "internalType": "uint256",
          "name": "tokenId",
          "type": "uint256"
        }
      ],
      "name": "transferFrom",
      "outputs": [],
      "stateMutability": "nonpayable",
      "type": "function"
    },
    {
      "inputs": [
        {
          "internalType": "address",
          "name": "newOwner",
          "type": "address"
        }
      ],
      "name": "transferOwnership",
      "outputs": [],
      "stateMutability": "nonpayable",
      "type": "function"
    }
  ],
  "bytecode": {
    "object": "0x608060405234801561001057600080fd5b5061355b806100206000396000f3fe608060405234801561001057600080fd5b50600436106102745760003560e01c806370a0823111610151578063b88d4fde116100c3578063e985e9c511610087578063e985e9c514610557578063eab851181461056a578063ee0708051461057d578063efc32cd414610589578063f2fde38b1461059c578063ff6e8c8f146105af57600080fd5b8063b88d4fde14610501578063bc71945514610514578063c87b56dd14610527578063d9856c211461053a578063e83157421461054d57600080fd5b8063894ba83311610115578063894ba833146104b25780638da5cb5b146104ba57806395d89b41146104cb5780639e860f2a146104d3578063a22cb465146104e6578063ab69607a146104f957600080fd5b806370a0823114610467578063715018a61461047a578063717392ed146104825780637cc918d11461048b57806387bc793f1461049e57600080fd5b80633403c4e9116101ea578063472a6638116101ae578063472a6638146104005780634aa52c41146104135780635aec8d62146104265780635edc7c191461042e5780636297c16c146104415780636352211e1461045457600080fd5b80633403c4e9146103a35780633ebc82c5146103b457806340c1a064146103c757806342842e0e146103da57806342966c68146103ed57600080fd5b806318160ddd1161023c57806318160ddd1461031a578063204274861461033057806321c4a5d81461034357806323b872dd146103565780632a55205a146103695780632ce878da1461039b57600080fd5b8063012cf1e81461027957806301ffc9a7146102a257806306fdde03146102c5578063081812fc146102da578063095ea7b314610305575b600080fd5b61028c610287366004612adf565b6105c2565b6040516102999190612afa565b60405180910390f35b6102b56102b0366004612b5d565b610608565b6040519015158152602001610299565b6102cd610622565b6040516102999190612bd2565b6102ed6102e8366004612be5565b6106b4565b6040516001600160a01b039091168152602001610299565b610318610313366004612c15565b610795565b005b61032261086a565b604051908152602001610299565b6102b561033e366004612c3f565b61087b565b610318610351366004612be5565b6108aa565b610318610364366004612c5a565b6108dc565b61037c610377366004612c96565b61090e565b604080516001600160a01b039093168352602083019190915201610299565b61028c6109a9565b60fb546001600160a01b03166102ed565b6103186103c2366004612c3f565b6109cf565b6102ed6103d5366004612be5565b610a02565b6103186103e8366004612c5a565b610a16565b6103186103fb366004612be5565b610a31565b61031861040e366004612adf565b610a92565b610318610421366004612d01565b610ac1565b610318610b5a565b61031861043c366004612d66565b610bb5565b61031861044f366004612be5565b610d35565b6102ed610462366004612be5565b610d9f565b610322610475366004612c3f565b610e21565b610318610ea7565b61010954610322565b610318610499366004612def565b610edd565b6101085460ff166040516102999190612e51565b6103186110c0565b6033546001600160a01b03166102ed565b6102cd611124565b6103186104e1366004612e79565b611133565b6103186104f4366004612eff565b611196565b60fc54610322565b61031861050f366004612fc7565b61123d565b610318610522366004612adf565b611275565b6102cd610535366004612be5565b61132a565b610318610548366004613043565b611416565b6103226101005481565b6102b561056536600461308c565b611477565b6102b5610578366004612c3f565b6114a5565b60ff80546102b5911681565b610318610597366004612c15565b6114cc565b6103186105aa366004612c3f565b611524565b6103186105bd366004612e79565b6115bc565b606061060261010760008460028111156105de576105de612e3b565b60028111156105ef576105ef612e3b565b8152602001908152602001600020611654565b92915050565b600061061382611661565b80610602575061060282611686565b606060978054610631906130b6565b80601f016020809104026020016040519081016040528092919081815260200182805461065d906130b6565b80156106aa5780601f1061067f576101008083540402835291602001916106aa565b820191906000526020600020905b81548152906001019060200180831161068d57829003601f168201915b5050505050905090565b600081815260fd60205260408120546001600160a01b0316816106d6846116c9565b50509050600081806106f057506001600160a01b03831615155b801561070c57506000858152610102602052604090205460ff16155b9050806107755760405162461bcd60e51b815260206004820152602c60248201527f4552433732313a20617070726f76656420717565727920666f72206e6f6e657860448201526b34b9ba32b73a103a37b5b2b760a11b60648201526084015b60405180910390fd5b50505060009182525061010360205260409020546001600160a01b031690565b8160016101085460ff1660028111156107b0576107b0612e3b565b0361080f576107ee81610107600060015b60028111156107d2576107d2612e3b565b815260200190815260200160002061182c90919063ffffffff16565b61080a576040516282b42960e81b815260040160405180910390fd5b61085b565b60026101085460ff16600281111561082957610829612e3b565b0361085b5761083e81610107600060026107c1565b1561085b576040516282b42960e81b815260040160405180910390fd5b610865838361184e565b505050565b60006108766101045490565b905090565b600061088f6033546001600160a01b031690565b6001600160a01b0316826001600160a01b0316149050919050565b6108b33361087b565b6108d057604051635c510c8360e11b815260040160405180910390fd5b6108d98161195e565b50565b6108e7335b826119c1565b6109035760405162461bcd60e51b815260040161076c906130ea565b610865838383611a20565b600082815260fd602052604081205481906001600160a01b031661093d5760fb546001600160a01b0316610956565b600084815260fd60205260409020546001600160a01b03165b91506109a0606461099a60fe6000888152602001908152602001600020546000036109835760fc54610993565b600087815260fe60205260409020545b8690611a94565b90611aa0565b90509250929050565b61010854606090610876906101079060009060ff1660028111156105de576105de612e3b565b6033546001600160a01b031633146109f95760405162461bcd60e51b815260040161076c9061313b565b6108d981611aac565b60006106026033546001600160a01b031690565b6108658383836040518060200160405280600081525061123d565b6000610a3c826116c9565b5050600083815261010260205260409020805460ff191660011790559050808015610a7c57506000828152609960205260409020546001600160a01b0316155b15610a85575050565b610a8e82611ace565b5050565b610a9b3361087b565b610ab857604051635c510c8360e11b815260040160405180910390fd5b6108d981611b45565b6033546001600160a01b03163314610aeb5760405162461bcd60e51b815260040161076c9061313b565b60ff80541615610b0d5760405162461bcd60e51b815260040161076c90613170565b610b5384848080601f0160208091040260200160405190810160405280939291908181526020018383808284376000920191909152505060fc5433925086915085611bc2565b5050505050565b42610109541115610b7e5760405163807a684760e01b815260040160405180910390fd5b610b886000611b45565b60405133907f60faf76514baf225c418dfc1e3c75bed0bd280f0436999e12cb0a73acb0f9a4690600090a2565b6000610bc16001611cc3565b90508015610bd9576000805461ff0019166101001790555b6001600160a01b038316610c2f5760405162461bcd60e51b815260206004820152601e60248201527f63726561746f722063616e6e6f74206265206e756c6c20616464726573730000604482015260640161076c565b610c39600a60fc55565b60ff805460ff19169055610100829055610c51611d50565b610cc487878080601f01602080910402602001604051908101604052809392919081815260200183838082843760009201919091525050604080516020601f8b018190048102820181019092528981529250899150889081908401838280828437600092019190915250611d7f92505050565b610ccc611db0565b610cd4611dd7565b610cdd83611aac565b610ce683611524565b8015610d2c576000805461ff0019169055604051600181527f7f26b83ff96e1f2b6a682f133852f6798a09c465da95921460cefb38474024989060200160405180910390a15b50505050505050565b8033610d4082610d9f565b6001600160a01b031614610d965760405162461bcd60e51b815260206004820152601760248201527f4d757374206265206f776e6572206f6620746f6b656e2e000000000000000000604482015260640161076c565b610a8e82610a31565b600080610dab836116c9565b5050905080610dc457610dbd83611e06565b9392505050565b6000838152610102602052604090205460ff1615610de557610dbd83611e06565b6000838152609960205260409020546001600160a01b0316610e12576033546001600160a01b0316610dbd565b610dbd83611e06565b50919050565b60006001600160a01b038216610e8b5760405162461bcd60e51b815260206004820152602960248201527f4552433732313a2061646472657373207a65726f206973206e6f7420612076616044820152683634b21037bbb732b960b91b606482015260840161076c565b506001600160a01b03166000908152609a602052604090205490565b6033546001600160a01b03163314610ed15760405162461bcd60e51b815260040161076c9061313b565b610edb6000611e7d565b565b6033546001600160a01b03163314610f075760405162461bcd60e51b815260040161076c9061313b565b60ff80541615610f295760405162461bcd60e51b815260040161076c90613170565b6000610f356101045490565b610f409060016131bd565b905060006001610f5084846131bd565b610f5a91906131d5565b604080516020810190915281905261010481905561010054909150811115610fc45760405162461bcd60e51b815260206004820152601d60248201527f62617463684d696e743a3a6578636565646564206d6178546f6b656e73000000604482015260640161076c565b610105604051806060016040528084815260200183815260200187878080601f0160208091040260200160405190810160405280939291908181526020018383808284376000920182905250939094525050835460018181018655948252602091829020845160039092020190815590830151938101939093555060408101519091906002820190611056908261323a565b50505061106b6033546001600160a01b031690565b6001600160a01b031660006001600160a01b0316837fdeaa91b6123d068f5821d0fb0678463d1a8a6079fe8af5de3ce5e896dcf9133d846040516110b191815260200190565b60405180910390a45050505050565b6033546001600160a01b031633146110ea5760405162461bcd60e51b815260040161076c9061313b565b60ff805460ff1916600117905560405133907f793bc6423dd0257d64f9d47db72fd4b2162f4541aa41740ba1c5fb5e2cd41bcd90600090a2565b606060988054610631906130b6565b61113c3361087b565b61115957604051635c510c8360e11b815260040160405180910390fd5b6108658383838080602002602001604051908101604052809392919081815260200183836020028082843760009201829052509250611ecf915050565b8160016101085460ff1660028111156111b1576111b1612e3b565b036111e7576111c681610107600060016107c1565b6111e2576040516282b42960e81b815260040160405180910390fd5b611233565b60026101085460ff16600281111561120157611201612e3b565b036112335761121681610107600060026107c1565b15611233576040516282b42960e81b815260040160405180910390fd5b61086583836120ac565b61124733836119c1565b6112635760405162461bcd60e51b815260040161076c906130ea565b61126f848484846120b7565b50505050565b61127e3361087b565b61129b57604051635c510c8360e11b815260040160405180910390fd5b61010760008260028111156112b2576112b2612e3b565b60028111156112c3576112c3612e3b565b8152602081019190915260400160009081209081816112e28282612a9e565b50505050336001600160a01b03167f7efc19cf93d497a6a56103ea89a39d51c0cad74a817ed3cd0ecaff9823d4da248260405161131f9190612e51565b60405180910390a250565b6060600080611338846116c9565b9250509150816113e357600084815261010660205260409020805461135c906130b6565b80601f0160208091040260200160405190810160405280929190818152602001828054611388906130b6565b80156113d55780601f106113aa576101008083540402835291602001916113d5565b820191906000526020600020905b8154815290600101906020018083116113b857829003601f168201915b505050505092505050919050565b806113ed856120ea565b6040516020016113fe9291906132fa565b60405160208183030381529060405292505050919050565b6033546001600160a01b031633146114405760405162461bcd60e51b815260040161076c9061313b565b60ff805416156114625760405162461bcd60e51b815260040161076c90613170565b610a8e81333361147160fc5490565b33611bc2565b6001600160a01b039182166000908152609c6020908152604080832093909416825291909152205460ff1690565b6101085460009061060290839061010790849060ff1660028111156107c1576107c1612e3b565b6033546001600160a01b031633146114f65760405162461bcd60e51b815260040161076c9061313b565b600090815260fd6020526040902080546001600160a01b0319166001600160a01b0392909216919091179055565b6033546001600160a01b0316331461154e5760405162461bcd60e51b815260040161076c9061313b565b6001600160a01b0381166115b35760405162461bcd60e51b815260206004820152602660248201527f4f776e61626c653a206e6577206f776e657220697320746865207a65726f206160448201526564647265737360d01b606482015260840161076c565b6108d981611e7d565b6115c53361087b565b6115e257604051635c510c8360e11b815260040160405180910390fd5b60008360028111156115f6576115f6612e3b565b0361161457604051632de777a160e11b815260040160405180910390fd5b6108658383838080602002602001604051908101604052809392919081815260200183836020028082843760009201919091525060019250611ecf915050565b60606000610dbd836121eb565b60006001600160e01b0319821663fa31a45b60e01b1480610602575061060282612247565b60006001600160e01b03198216631030681960e21b14806116ab57506116ab82612247565b806116ba57506116ba8261225d565b8061060257506106028261227e565b600080606060005b6101055481101561180d5761010581815481106116f0576116f0613348565b90600052602060002090600302016000015485101580156117365750610105818154811061172057611720613348565b9060005260206000209060030201600101548511155b156117fb57600181610105838154811061175257611752613348565b906000526020600020906003020160020180805461176f906130b6565b80601f016020809104026020016040519081016040528092919081815260200182805461179b906130b6565b80156117e85780601f106117bd576101008083540402835291602001916117e8565b820191906000526020600020905b8154815290600101906020018083116117cb57829003601f168201915b5050505050905093509350935050611825565b806118058161335e565b9150506116d1565b50506040805160208101909152600080825292508291505b9193909250565b6001600160a01b03811660009081526001830160205260408120541515610dbd565b600061185982610d9f565b9050806001600160a01b0316836001600160a01b0316036118c65760405162461bcd60e51b815260206004820152602160248201527f4552433732313a20617070726f76616c20746f2063757272656e74206f776e656044820152603960f91b606482015260840161076c565b336001600160a01b03821614806118e257506118e28133611477565b6119545760405162461bcd60e51b815260206004820152603860248201527f4552433732313a20617070726f76652063616c6c6572206973206e6f74206f7760448201527f6e6572206e6f7220617070726f76656420666f7220616c6c0000000000000000606482015260840161076c565b61086583836122be565b600061196e826301e13380613377565b61197890426131bd565b61010954604080519182526020820183905291925033917f6e948191a35d69000746799fef50c705bbdc93bd5a7577e9e9eb879c04bdebc9910160405180910390a26101095550565b6000806119cd83610d9f565b9050806001600160a01b0316846001600160a01b03161480611a085750836001600160a01b03166119fd846106b4565b6001600160a01b0316145b80611a185750611a188185611477565b949350505050565b80600003611a2d57600080fd5b6000611a38826116c9565b50509050808015611a5e57506000828152609960205260409020546001600160a01b0316155b8015611a7a57506000828152610102602052604090205460ff16155b15611a8957611a89848361232d565b61126f84848461246f565b6000610dbd8284613377565b6000610dbd82846133ac565b60fb80546001600160a01b0319166001600160a01b0392909216919091179055565b611ad7336108e1565b611b3c5760405162461bcd60e51b815260206004820152603060248201527f4552433732314275726e61626c653a2063616c6c6572206973206e6f74206f7760448201526f1b995c881b9bdc88185c1c1c9bdd995960821b606482015260840161076c565b6108d98161260b565b806002811115611b5757611b57612e3b565b6101085460ff166002811115611b6f57611b6f612e3b565b60405133907f12282389323caf08dd4e02c490ef05bc7edb56967c085742687aad3cc81aa15f90600090a4610108805482919060ff19166001836002811115611bba57611bba612e3b565b021790555050565b6000611bd361010480546001019055565b6000611bdf6101045490565b905061010054811115611c345760405162461bcd60e51b815260206004820181905260248201527f5f637265617465546f6b656e3a3a6578636565646564206d6178546f6b656e73604482015260640161076c565b611c3e85826126a6565b600081815261010660205260409020611c57888261323a565b5060008181526101016020526040902080546001600160a01b0319166001600160a01b038816179055600081815260fe60205260409020849055600081815260fd6020526040902080546001600160a01b0319166001600160a01b0385161790555b9695505050505050565b60008054610100900460ff1615611d0a578160ff166001148015611ce65750303b155b611d025760405162461bcd60e51b815260040161076c906133c0565b506000919050565b60005460ff808416911610611d315760405162461bcd60e51b815260040161076c906133c0565b506000805460ff191660ff92909216919091179055600190565b919050565b600054610100900460ff16611d775760405162461bcd60e51b815260040161076c9061340e565b610edb6126c0565b600054610100900460ff16611da65760405162461bcd60e51b815260040161076c9061340e565b610a8e82826126f0565b600054610100900460ff16610edb5760405162461bcd60e51b815260040161076c9061340e565b600054610100900460ff16611dfe5760405162461bcd60e51b815260040161076c9061340e565b610edb611db0565b6000818152609960205260408120546001600160a01b0316806106025760405162461bcd60e51b815260206004820152602960248201527f4552433732313a206f776e657220717565727920666f72206e6f6e657869737460448201526832b73a103a37b5b2b760b91b606482015260840161076c565b603380546001600160a01b038381166001600160a01b0319831681179093556040519116919082907f8be0079c531659141344cd1fd0a4f28419497f9722a3daafe3b4186f6b6457e090600090a35050565b6000836002811115611ee357611ee3612e3b565b146108655760005b825181101561126f578115611fcc57611f5b838281518110611f0f57611f0f613348565b60200260200101516101076000876002811115611f2e57611f2e612e3b565b6002811115611f3f57611f3f612e3b565b815260200190815260200160002061273090919063ffffffff16565b50836002811115611f6e57611f6e612e3b565b838281518110611f8057611f80613348565b60200260200101516001600160a01b0316336001600160a01b03167f14155f749dc3f9cd2bf890d6d3a47069f77ae35befcee11c8b1a3ba41cba153660405160405180910390a461209a565b61202d838281518110611fe157611fe1613348565b6020026020010151610107600087600281111561200057612000612e3b565b600281111561201157612011612e3b565b815260200190815260200160002061274590919063ffffffff16565b5083600281111561204057612040612e3b565b83828151811061205257612052613348565b60200260200101516001600160a01b0316336001600160a01b03167fc72e29af1b34de3dec3a764b4ca4d85b9c380ab33b9b268d29b6e7008bd0ed9560405160405180910390a45b806120a48161335e565b915050611eeb565b610a8e33838361275a565b6120c2848484611a20565b6120ce84848484612828565b61126f5760405162461bcd60e51b815260040161076c90613459565b6060816000036121115750506040805180820190915260018152600360fc1b602082015290565b8160005b811561213b57806121258161335e565b91506121349050600a836133ac565b9150612115565b60008167ffffffffffffffff81111561215657612156612f3b565b6040519080825280601f01601f191660200182016040528015612180576020820181803683370190505b5090505b8415611a18576121956001836131d5565b91506121a2600a866134ab565b6121ad9060306131bd565b60f81b8183815181106121c2576121c2613348565b60200101906001600160f81b031916908160001a9053506121e4600a866133ac565b9450612184565b60608160000180548060200260200160405190810160405280929190818152602001828054801561223b57602002820191906000526020600020905b815481526020019060010190808311612227575b50505050509050919050565b6001600160e01b0319166301ffc9a760e01b1490565b60006001600160e01b0319821663152a902d60e11b14806106025750610602825b60006001600160e01b031982166380ac58cd60e01b14806122af57506001600160e01b03198216635b5e139f60e01b145b80610602575061060282612247565b60008181526101036020526040902080546001600160a01b0319166001600160a01b03841690811790915581906122f482611e06565b6001600160a01b03167f8c5be1e5ebec7d5bd14f71427d1e84f3dd0314c0f7b2291e5b200ac8c7c3b92560405160405180910390a45050565b6001600160a01b0382166123835760405162461bcd60e51b815260206004820181905260248201527f4552433732313a206d696e7420746f20746865207a65726f2061646472657373604482015260640161076c565b6000818152609960205260409020546001600160a01b0316156123e85760405162461bcd60e51b815260206004820152601c60248201527f4552433732313a20746f6b656e20616c7265616479206d696e74656400000000604482015260640161076c565b6001600160a01b0382166000908152609a602052604081208054600192906124119084906131bd565b909155505060008181526099602052604080822080546001600160a01b0319166001600160a01b03861690811790915590518392907fddf252ad1be2c89b69c2b068fc378daa952ba7f163c4a11628f55a4df523b3ef908290a45050565b826001600160a01b031661248282611e06565b6001600160a01b0316146124e65760405162461bcd60e51b815260206004820152602560248201527f4552433732313a207472616e736665722066726f6d20696e636f72726563742060448201526437bbb732b960d91b606482015260840161076c565b6001600160a01b0382166125485760405162461bcd60e51b8152602060048201526024808201527f4552433732313a207472616e7366657220746f20746865207a65726f206164646044820152637265737360e01b606482015260840161076c565b6125536000826122be565b6001600160a01b0383166000908152609a6020526040812080546001929061257c9084906131d5565b90915550506001600160a01b0382166000908152609a602052604081208054600192906125aa9084906131bd565b909155505060008181526099602052604080822080546001600160a01b0319166001600160a01b0386811691821790925591518493918716917fddf252ad1be2c89b69c2b068fc378daa952ba7f163c4a11628f55a4df523b3ef91a4505050565b600061261682611e06565b90506126236000836122be565b6001600160a01b0381166000908152609a6020526040812080546001929061264c9084906131d5565b909155505060008281526099602052604080822080546001600160a01b0319169055518391906001600160a01b038416907fddf252ad1be2c89b69c2b068fc378daa952ba7f163c4a11628f55a4df523b3ef908390a45050565b610a8e828260405180602001604052806000815250612929565b600054610100900460ff166126e75760405162461bcd60e51b815260040161076c9061340e565b610edb33611e7d565b600054610100900460ff166127175760405162461bcd60e51b815260040161076c9061340e565b6097612723838261323a565b506098610865828261323a565b6000610dbd836001600160a01b03841661295c565b6000610dbd836001600160a01b0384166129ab565b816001600160a01b0316836001600160a01b0316036127bb5760405162461bcd60e51b815260206004820152601960248201527f4552433732313a20617070726f766520746f2063616c6c657200000000000000604482015260640161076c565b6001600160a01b038381166000818152609c6020908152604080832094871680845294825291829020805460ff191686151590811790915591519182527f17307eab39ab6107e8899845ad3d59bd9653f200f220920489ca2b5937696c31910160405180910390a3505050565b60006001600160a01b0384163b1561291e57604051630a85bd0160e11b81526001600160a01b0385169063150b7a029061286c9033908990889088906004016134bf565b6020604051808303816000875af19250505080156128a7575060408051601f3d908101601f191682019092526128a4918101906134f2565b60015b612904573d8080156128d5576040519150601f19603f3d011682016040523d82523d6000602084013e6128da565b606091505b5080516000036128fc5760405162461bcd60e51b815260040161076c90613459565b805181602001fd5b6001600160e01b031916630a85bd0160e11b149050611a18565b506001949350505050565b612933838361232d565b6129406000848484612828565b6108655760405162461bcd60e51b815260040161076c90613459565b60008181526001830160205260408120546129a357508154600181810184556000848152602080822090930184905584548482528286019093526040902091909155610602565b506000610602565b60008181526001830160205260408120548015612a945760006129cf6001836131d5565b85549091506000906129e3906001906131d5565b9050818114612a48576000866000018281548110612a0357612a03613348565b9060005260206000200154905080876000018481548110612a2657612a26613348565b6000918252602080832090910192909255918252600188019052604090208390555b8554869080612a5957612a5961350f565b600190038181906000526020600020016000905590558560010160008681526020019081526020016000206000905560019350505050610602565b6000915050610602565b50805460008255906000526020600020908101906108d991905b80821115612acc5760008155600101612ab8565b5090565b803560038110611d4b57600080fd5b600060208284031215612af157600080fd5b610dbd82612ad0565b6020808252825182820181905260009190848201906040850190845b81811015612b3b5783516001600160a01b031683529284019291840191600101612b16565b50909695505050505050565b6001600160e01b0319811681146108d957600080fd5b600060208284031215612b6f57600080fd5b8135610dbd81612b47565b60005b83811015612b95578181015183820152602001612b7d565b8381111561126f5750506000910152565b60008151808452612bbe816020860160208601612b7a565b601f01601f19169290920160200192915050565b602081526000610dbd6020830184612ba6565b600060208284031215612bf757600080fd5b5035919050565b80356001600160a01b0381168114611d4b57600080fd5b60008060408385031215612c2857600080fd5b612c3183612bfe565b946020939093013593505050565b600060208284031215612c5157600080fd5b610dbd82612bfe565b600080600060608486031215612c6f57600080fd5b612c7884612bfe565b9250612c8660208501612bfe565b9150604084013590509250925092565b60008060408385031215612ca957600080fd5b50508035926020909101359150565b60008083601f840112612cca57600080fd5b50813567ffffffffffffffff811115612ce257600080fd5b602083019150836020828501011115612cfa57600080fd5b9250929050565b60008060008060608587031215612d1757600080fd5b843567ffffffffffffffff811115612d2e57600080fd5b612d3a87828801612cb8565b9095509350612d4d905060208601612bfe565b9150612d5b60408601612bfe565b905092959194509250565b60008060008060008060808789031215612d7f57600080fd5b863567ffffffffffffffff80821115612d9757600080fd5b612da38a838b01612cb8565b90985096506020890135915080821115612dbc57600080fd5b50612dc989828a01612cb8565b9095509350612ddc905060408801612bfe565b9150606087013590509295509295509295565b600080600060408486031215612e0457600080fd5b833567ffffffffffffffff811115612e1b57600080fd5b612e2786828701612cb8565b909790965060209590950135949350505050565b634e487b7160e01b600052602160045260246000fd5b6020810160038310612e7357634e487b7160e01b600052602160045260246000fd5b91905290565b600080600060408486031215612e8e57600080fd5b612e9784612ad0565b9250602084013567ffffffffffffffff80821115612eb457600080fd5b818601915086601f830112612ec857600080fd5b813581811115612ed757600080fd5b8760208260051b8501011115612eec57600080fd5b6020830194508093505050509250925092565b60008060408385031215612f1257600080fd5b612f1b83612bfe565b915060208301358015158114612f3057600080fd5b809150509250929050565b634e487b7160e01b600052604160045260246000fd5b600067ffffffffffffffff80841115612f6c57612f6c612f3b565b604051601f8501601f19908116603f01168101908282118183101715612f9457612f94612f3b565b81604052809350858152868686011115612fad57600080fd5b858560208301376000602087830101525050509392505050565b60008060008060808587031215612fdd57600080fd5b612fe685612bfe565b9350612ff460208601612bfe565b925060408501359150606085013567ffffffffffffffff81111561301757600080fd5b8501601f8101871361302857600080fd5b61303787823560208401612f51565b91505092959194509250565b60006020828403121561305557600080fd5b813567ffffffffffffffff81111561306c57600080fd5b8201601f8101841361307d57600080fd5b611a1884823560208401612f51565b6000806040838503121561309f57600080fd5b6130a883612bfe565b91506109a060208401612bfe565b600181811c908216806130ca57607f821691505b602082108103610e1b57634e487b7160e01b600052602260045260246000fd5b60208082526031908201527f4552433732313a207472616e736665722063616c6c6572206973206e6f74206f6040820152701ddb995c881b9bdc88185c1c1c9bdd9959607a1b606082015260800190565b6020808252818101527f4f776e61626c653a2063616c6c6572206973206e6f7420746865206f776e6572604082015260600190565b6020808252601e908201527f436f6e7472616374206d757374206e6f742062652064697361626c65642e0000604082015260600190565b634e487b7160e01b600052601160045260246000fd5b600082198211156131d0576131d06131a7565b500190565b6000828210156131e7576131e76131a7565b500390565b601f82111561086557600081815260208120601f850160051c810160208610156132135750805b601f850160051c820191505b818110156132325782815560010161321f565b505050505050565b815167ffffffffffffffff81111561325457613254612f3b565b6132688161326284546130b6565b846131ec565b602080601f83116001811461329d57600084156132855750858301515b600019600386901b1c1916600185901b178555613232565b600085815260208120601f198616915b828110156132cc578886015182559484019460019091019084016132ad565b50858210156132ea5787850151600019600388901b60f8161c191681555b5050505050600190811b01905550565b6000835161330c818460208801612b7a565b602f60f81b908301908152835161332a816001840160208801612b7a565b64173539b7b760d91b60019290910191820152600601949350505050565b634e487b7160e01b600052603260045260246000fd5b600060018201613370576133706131a7565b5060010190565b6000816000190483118215151615613391576133916131a7565b500290565b634e487b7160e01b600052601260045260246000fd5b6000826133bb576133bb613396565b500490565b6020808252602e908201527f496e697469616c697a61626c653a20636f6e747261637420697320616c72656160408201526d191e481a5b9a5d1a585b1a5e995960921b606082015260800190565b6020808252602b908201527f496e697469616c697a61626c653a20636f6e7472616374206973206e6f74206960408201526a6e697469616c697a696e6760a81b606082015260800190565b60208082526032908201527f4552433732313a207472616e7366657220746f206e6f6e20455243373231526560408201527131b2b4bb32b91034b6b83632b6b2b73a32b960711b606082015260800190565b6000826134ba576134ba613396565b500690565b6001600160a01b0385811682528416602082015260408101839052608060608201819052600090611cb990830184612ba6565b60006020828403121561350457600080fd5b8151610dbd81612b47565b634e487b7160e01b600052603160045260246000fdfea26469706673582212206c9333f611af818dfc9bd40a27c875d4d2b0bf5e040a755155019b4a2656673c64736f6c634300080f0033",
    "linkReferences": {}
  },
  "methodIdentifiers": {
    "activateDeadmanListTrigger()": "5aec8d62",
    "addNewToken(string)": "d9856c21",
    "approve(address,uint256)": "095ea7b3",
    "balanceOf(address)": "70a08231",
    "batchAddAddressToRoyaltyList(uint8,address[])": "ff6e8c8f",
    "batchMint(string,uint256)": "7cc918d1",
    "batchRemoveAddressToRoyaltyList(uint8,address[])": "9e860f2a",
    "burn(uint256)": "42966c68",
    "clearList(uint8)": "bc719455",
    "deleteToken(uint256)": "6297c16c",
    "disableContract()": "894ba833",
    "disabled()": "ee070805",
    "getApproved(uint256)": "081812fc",
    "getDeadmanTriggerAvailableDatetime()": "717392ed",
    "getDefaultRoyaltyPercentage()": "ab69607a",
    "getDefaultRoyaltyReceiver()": "3403c4e9",
    "getInUseList()": "2ce878da",
    "getList(uint8)": "012cf1e8",
    "getListType()": "87bc793f",
    "hasAdminPermission(address)": "20427486",
    "init(string,string,address,uint256)": "5edc7c19",
    "isApprovedForAll(address,address)": "e985e9c5",
    "isOperatorInList(address)": "eab85118",
    "maxTokens()": "e8315742",
    "mintTo(string,address,address)": "4aa52c41",
    "name()": "06fdde03",
    "owner()": "8da5cb5b",
    "ownerOf(uint256)": "6352211e",
    "renounceOwnership()": "715018a6",
    "royaltyInfo(uint256,uint256)": "2a55205a",
    "safeTransferFrom(address,address,uint256)": "42842e0e",
    "safeTransferFrom(address,address,uint256,bytes)": "b88d4fde",
    "setApprovalForAll(address,bool)": "a22cb465",
    "setDeadmanListTriggerRenewalDuration(uint256)": "21c4a5d8",
    "setDefaultRoyaltyReceiver(address)": "3ebc82c5",
    "setRoyaltyReceiverForToken(address,uint256)": "efc32cd4",
    "supportsInterface(bytes4)": "01ffc9a7",
    "symbol()": "95d89b41",
    "toggleListType(uint8)": "472a6638",
    "tokenCreator(uint256)": "40c1a064",
    "tokenURI(uint256)": "c87b56dd",
    "totalSupply()": "18160ddd",
    "transferFrom(address,address,uint256)": "23b872dd",
    "transferOwnership(address)": "f2fde38b"
  },
  "id": 62
}