{
  "abi": [
    {
      "inputs": [],
      "name": "CantAddToOFFList",
      "type": "error"
    },
    {
      "inputs": [],
      "name": "MustBeAdmin",
      "type": "error"
    },
    {
      "inputs": [],
      "name": "Unauthorized",
      "type": "error"
    },
    {
      "anonymous": false,
      "inputs": [
        {
          "indexed": true,
          "internalType": "address",
          "name": "_updater",
          "type": "address"
        },
        {
          "indexed": true,
          "internalType": "address",
          "name": "_addedAddr",
          "type": "address"
        },
        {
          "indexed": true,
          "internalType": "enum IRoyaltyGuard.ListType",
          "name": "_ListType",
          "type": "uint8"
        }
      ],
      "name": "AddressAddedToList",
      "type": "event"
    },
    {
      "anonymous": false,
      "inputs": [
        {
          "indexed": true,
          "internalType": "address",
          "name": "_updater",
          "type": "address"
        },
        {
          "indexed": true,
          "internalType": "address",
          "name": "_removedAddr",
          "type": "address"
        },
        {
          "indexed": true,
          "internalType": "enum IRoyaltyGuard.ListType",
          "name": "_ListType",
          "type": "uint8"
        }
      ],
      "name": "AddressRemovedList",
      "type": "event"
    },
    {
      "anonymous": false,
      "inputs": [
        {
          "indexed": true,
          "internalType": "address",
          "name": "owner",
          "type": "address"
        },
        {
          "indexed": true,
          "internalType": "address",
          "name": "approved",
          "type": "address"
        },
        {
          "indexed": true,
          "internalType": "uint256",
          "name": "tokenId",
          "type": "uint256"
        }
      ],
      "name": "Approval",
      "type": "event"
    },
    {
      "anonymous": false,
      "inputs": [
        {
          "indexed": true,
          "internalType": "address",
          "name": "owner",
          "type": "address"
        },
        {
          "indexed": true,
          "internalType": "address",
          "name": "operator",
          "type": "address"
        },
        {
          "indexed": false,
          "internalType": "bool",
          "name": "approved",
          "type": "bool"
        }
      ],
      "name": "ApprovalForAll",
      "type": "event"
    },
    {
      "anonymous": false,
      "inputs": [
        {
          "indexed": true,
          "internalType": "uint256",
          "name": "fromTokenId",
          "type": "uint256"
        },
        {
          "indexed": false,
          "internalType": "uint256",
          "name": "toTokenId",
          "type": "uint256"
        },
        {
          "indexed": true,
          "internalType": "address",
          "name": "fromAddress",
          "type": "address"
        },
        {
          "indexed": true,
          "internalType": "address",
          "name": "toAddress",
          "type": "address"
        }
      ],
      "name": "ConsecutiveTransfer",
      "type": "event"
    },
    {
      "anonymous": false,
      "inputs": [
        {
          "indexed": true,
          "internalType": "address",
          "name": "user",
          "type": "address"
        }
      ],
      "name": "ContractDisabled",
      "type": "event"
    },
    {
      "anonymous": false,
      "inputs": [
        {
          "indexed": false,
          "internalType": "uint8",
          "name": "version",
          "type": "uint8"
        }
      ],
      "name": "Initialized",
      "type": "event"
    },
    {
      "anonymous": false,
      "inputs": [
        {
          "indexed": true,
          "internalType": "address",
          "name": "_updater",
          "type": "address"
        },
        {
          "indexed": false,
          "internalType": "enum IRoyaltyGuard.ListType",
          "name": "_listType",
          "type": "uint8"
        }
      ],
      "name": "ListCleared",
      "type": "event"
    },
    {
      "anonymous": false,
      "inputs": [
        {
          "indexed": true,
          "internalType": "address",
          "name": "_updater",
          "type": "address"
        },
        {
          "indexed": true,
          "internalType": "enum IRoyaltyGuard.ListType",
          "name": "_oldListType",
          "type": "uint8"
        },
        {
          "indexed": true,
          "internalType": "enum IRoyaltyGuard.ListType",
          "name": "_newListType",
          "type": "uint8"
        }
      ],
      "name": "ListTypeUpdated",
      "type": "event"
    },
    {
      "anonymous": false,
      "inputs": [
        {
          "indexed": true,
          "internalType": "address",
          "name": "previousOwner",
          "type": "address"
        },
        {
          "indexed": true,
          "internalType": "address",
          "name": "newOwner",
          "type": "address"
        }
      ],
      "name": "OwnershipTransferred",
      "type": "event"
    },
    {
      "anonymous": false,
      "inputs": [
        {
          "indexed": true,
          "internalType": "address",
          "name": "from",
          "type": "address"
        },
        {
          "indexed": true,
          "internalType": "address",
          "name": "to",
          "type": "address"
        },
        {
          "indexed": true,
          "internalType": "uint256",
          "name": "tokenId",
          "type": "uint256"
        }
      ],
      "name": "Transfer",
      "type": "event"
    },
    {
      "inputs": [
        {
          "internalType": "string",
          "name": "_uri",
          "type": "string"
        }
      ],
      "name": "addNewToken",
      "outputs": [],
      "stateMutability": "nonpayable",
      "type": "function"
    },
    {
      "inputs": [
        {
          "internalType": "address",
          "name": "_spender",
          "type": "address"
        },
        {
          "internalType": "uint256",
          "name": "_id",
          "type": "uint256"
        }
      ],
      "name": "approve",
      "outputs": [],
      "stateMutability": "nonpayable",
      "type": "function"
    },
    {
      "inputs": [
        {
          "internalType": "address",
          "name": "owner",
          "type": "address"
        }
      ],
      "name": "balanceOf",
      "outputs": [
        {
          "internalType": "uint256",
          "name": "",
          "type": "uint256"
        }
      ],
      "stateMutability": "view",
      "type": "function"
    },
    {
      "inputs": [
        {
          "internalType": "enum IRoyaltyGuard.ListType",
          "name": "_listType",
          "type": "uint8"
        },
        {
          "internalType": "address[]",
          "name": "_addrs",
          "type": "address[]"
        }
      ],
      "name": "batchAddAddressToRoyaltyList",
      "outputs": [],
      "stateMutability": "nonpayable",
      "type": "function"
    },
    {
      "inputs": [
        {
          "internalType": "string",
          "name": "_baseURI",
          "type": "string"
        },
        {
          "internalType": "uint256",
          "name": "_numberOfTokens",
          "type": "uint256"
        }
      ],
      "name": "batchMint",
      "outputs": [],
      "stateMutability": "nonpayable",
      "type": "function"
    },
    {
      "inputs": [
        {
          "internalType": "enum IRoyaltyGuard.ListType",
          "name": "_listType",
          "type": "uint8"
        },
        {
          "internalType": "address[]",
          "name": "_addrs",
          "type": "address[]"
        }
      ],
      "name": "batchRemoveAddressToRoyaltyList",
      "outputs": [],
      "stateMutability": "nonpayable",
      "type": "function"
    },
    {
      "inputs": [
        {
          "internalType": "uint256",
          "name": "_tokenId",
          "type": "uint256"
        }
      ],
      "name": "burn",
      "outputs": [],
      "stateMutability": "nonpayable",
      "type": "function"
    },
    {
      "inputs": [
        {
          "internalType": "enum IRoyaltyGuard.ListType",
          "name": "_listType",
          "type": "uint8"
        }
      ],
      "name": "clearList",
      "outputs": [],
      "stateMutability": "nonpayable",
      "type": "function"
    },
    {
      "inputs": [
        {
          "internalType": "uint256",
          "name": "_tokenId",
          "type": "uint256"
        }
      ],
      "name": "deleteToken",
      "outputs": [],
      "stateMutability": "nonpayable",
      "type": "function"
    },
    {
      "inputs": [],
      "name": "disableContract",
      "outputs": [],
      "stateMutability": "nonpayable",
      "type": "function"
    },
    {
      "inputs": [],
      "name": "disabled",
      "outputs": [
        {
          "internalType": "bool",
          "name": "",
          "type": "bool"
        }
      ],
      "stateMutability": "view",
      "type": "function"
    },
    {
      "inputs": [
        {
          "internalType": "uint256",
          "name": "_tokenId",
          "type": "uint256"
        }
      ],
      "name": "getApproved",
      "outputs": [
        {
          "internalType": "address",
          "name": "",
          "type": "address"
        }
      ],
      "stateMutability": "view",
      "type": "function"
    },
    {
      "inputs": [],
      "name": "getDefaultRoyaltyPercentage",
      "outputs": [
        {
          "internalType": "uint256",
          "name": "",
          "type": "uint256"
        }
      ],
      "stateMutability": "view",
      "type": "function"
    },
    {
      "inputs": [],
      "name": "getDefaultRoyaltyReceiver",
      "outputs": [
        {
          "internalType": "address",
          "name": "",
          "type": "address"
        }
      ],
      "stateMutability": "view",
      "type": "function"
    },
    {
      "inputs": [],
      "name": "getInUseList",
      "outputs": [
        {
          "internalType": "address[]",
          "name": "",
          "type": "address[]"
        }
      ],
      "stateMutability": "view",
      "type": "function"
    },
    {
      "inputs": [
        {
          "internalType": "enum IRoyaltyGuard.ListType",
          "name": "_listType",
          "type": "uint8"
        }
      ],
      "name": "getList",
      "outputs": [
        {
          "internalType": "address[]",
          "name": "",
          "type": "address[]"
        }
      ],
      "stateMutability": "view",
      "type": "function"
    },
    {
      "inputs": [],
      "name": "getListType",
      "outputs": [
        {
          "internalType": "enum IRoyaltyGuard.ListType",
          "name": "",
          "type": "uint8"
        }
      ],
      "stateMutability": "view",
      "type": "function"
    },
    {
      "inputs": [
        {
          "internalType": "address",
          "name": "_addr",
          "type": "address"
        }
      ],
      "name": "hasAdminPermission",
      "outputs": [
        {
          "internalType": "bool",
          "name": "",
          "type": "bool"
        }
      ],
      "stateMutability": "view",
      "type": "function"
    },
    {
      "inputs": [
        {
          "internalType": "string",
          "name": "_name",
          "type": "string"
        },
        {
          "internalType": "string",
          "name": "_symbol",
          "type": "string"
        },
        {
          "internalType": "address",
          "name": "_creator",
          "type": "address"
        },
        {
          "internalType": "uint256",
          "name": "_maxTokens",
          "type": "uint256"
        }
      ],
      "name": "init",
      "outputs": [],
      "stateMutability": "nonpayable",
      "type": "function"
    },
    {
      "inputs": [
        {
          "internalType": "address",
          "name": "owner",
          "type": "address"
        },
        {
          "internalType": "address",
          "name": "operator",
          "type": "address"
        }
      ],
      "name": "isApprovedForAll",
      "outputs": [
        {
          "internalType": "bool",
          "name": "",
          "type": "bool"
        }
      ],
      "stateMutability": "view",
      "type": "function"
    },
    {
      "inputs": [
        {
          "internalType": "address",
          "name": "_operator",
          "type": "address"
        }
      ],
      "name": "isOperatorInList",
      "outputs": [
        {
          "internalType": "bool",
          "name": "",
          "type": "bool"
        }
      ],
      "stateMutability": "view",
      "type": "function"
    },
    {
      "inputs": [],
      "name": "maxTokens",
      "outputs": [
        {
          "internalType": "uint256",
          "name": "",
          "type": "uint256"
        }
      ],
      "stateMutability": "view",
      "type": "function"
    },
    {
      "inputs": [
        {
          "internalType": "string",
          "name": "_uri",
          "type": "string"
        },
        {
          "internalType": "address",
          "name": "_receiver",
          "type": "address"
        },
        {
          "internalType": "address",
          "name": "_royaltyReceiver",
          "type": "address"
        }
      ],
      "name": "mintTo",
      "outputs": [],
      "stateMutability": "nonpayable",
      "type": "function"
    },
    {
      "inputs": [],
      "name": "name",
      "outputs": [
        {
          "internalType": "string",
          "name": "",
          "type": "string"
        }
      ],
      "stateMutability": "view",
      "type": "function"
    },
    {
      "inputs": [],
      "name": "owner",
      "outputs": [
        {
          "internalType": "address",
          "name": "",
          "type": "address"
        }
      ],
      "stateMutability": "view",
      "type": "function"
    },
    {
      "inputs": [
        {
          "internalType": "uint256",
          "name": "_tokenId",
          "type": "uint256"
        }
      ],
      "name": "ownerOf",
      "outputs": [
        {
          "internalType": "address",
          "name": "",
          "type": "address"
        }
      ],
      "stateMutability": "view",
      "type": "function"
    },
    {
      "inputs": [],
      "name": "renounceOwnership",
      "outputs": [],
      "stateMutability": "nonpayable",
      "type": "function"
    },
    {
      "inputs": [
        {
          "internalType": "uint256",
          "name": "_tokenId",
          "type": "uint256"
        },
        {
          "internalType": "uint256",
          "name": "_salePrice",
          "type": "uint256"
        }
      ],
      "name": "royaltyInfo",
      "outputs": [
        {
          "internalType": "address",
          "name": "receiver",
          "type": "address"
        },
        {
          "internalType": "uint256",
          "name": "royaltyAmount",
          "type": "uint256"
        }
      ],
      "stateMutability": "view",
      "type": "function"
    },
    {
      "inputs": [
        {
          "internalType": "address",
          "name": "from",
          "type": "address"
        },
        {
          "internalType": "address",
          "name": "to",
          "type": "address"
        },
        {
          "internalType": "uint256",
          "name": "tokenId",
          "type": "uint256"
        }
      ],
      "name": "safeTransferFrom",
      "outputs": [],
      "stateMutability": "nonpayable",
      "type": "function"
    },
    {
      "inputs": [
        {
          "internalType": "address",
          "name": "from",
          "type": "address"
        },
        {
          "internalType": "address",
          "name": "to",
          "type": "address"
        },
        {
          "internalType": "uint256",
          "name": "tokenId",
          "type": "uint256"
        },
        {
          "internalType": "bytes",
          "name": "_data",
          "type": "bytes"
        }
      ],
      "name": "safeTransferFrom",
      "outputs": [],
      "stateMutability": "nonpayable",
      "type": "function"
    },
    {
      "inputs": [
        {
          "internalType": "address",
          "name": "_operator",
          "type": "address"
        },
        {
          "internalType": "bool",
          "name": "_approved",
          "type": "bool"
        }
      ],
      "name": "setApprovalForAll",
      "outputs": [],
      "stateMutability": "nonpayable",
      "type": "function"
    },
    {
      "inputs": [
        {
          "internalType": "address",
          "name": "_receiver",
          "type": "address"
        }
      ],
      "name": "setDefaultRoyaltyReceiver",
      "outputs": [],
      "stateMutability": "nonpayable",
      "type": "function"
    },
    {
      "inputs": [
        {
          "internalType": "address",
          "name": "_receiver",
          "type": "address"
        },
        {
          "internalType": "uint256",
          "name": "_tokenId",
          "type": "uint256"
        }
      ],
      "name": "setRoyaltyReceiverForToken",
      "outputs": [],
      "stateMutability": "nonpayable",
      "type": "function"
    },
    {
      "inputs": [
        {
          "internalType": "bytes4",
          "name": "_interfaceId",
          "type": "bytes4"
        }
      ],
      "name": "supportsInterface",
      "outputs": [
        {
          "internalType": "bool",
          "name": "",
          "type": "bool"
        }
      ],
      "stateMutability": "view",
      "type": "function"
    },
    {
      "inputs": [],
      "name": "symbol",
      "outputs": [
        {
          "internalType": "string",
          "name": "",
          "type": "string"
        }
      ],
      "stateMutability": "view",
      "type": "function"
    },
    {
      "inputs": [
        {
          "internalType": "enum IRoyaltyGuard.ListType",
          "name": "_newListType",
          "type": "uint8"
        }
      ],
      "name": "toggleListType",
      "outputs": [],
      "stateMutability": "nonpayable",
      "type": "function"
    },
    {
      "inputs": [
        {
          "internalType": "uint256",
          "name": "",
          "type": "uint256"
        }
      ],
      "name": "tokenCreator",
      "outputs": [
        {
          "internalType": "address payable",
          "name": "",
          "type": "address"
        }
      ],
      "stateMutability": "view",
      "type": "function"
    },
    {
      "inputs": [
        {
          "internalType": "uint256",
          "name": "_tokenId",
          "type": "uint256"
        }
      ],
      "name": "tokenURI",
      "outputs": [
        {
          "internalType": "string",
          "name": "",
          "type": "string"
        }
      ],
      "stateMutability": "view",
      "type": "function"
    },
    {
      "inputs": [],
      "name": "totalSupply",
      "outputs": [
        {
          "internalType": "uint256",
          "name": "",
          "type": "uint256"
        }
      ],
      "stateMutability": "view",
      "type": "function"
    },
    {
      "inputs": [
        {
          "internalType": "address",
          "name": "from",
          "type": "address"
        },
        {
          "internalType": "address",
          "name": "to",
          "type": "address"
        },
        {
          "internalType": "uint256",
          "name": "tokenId",
          "type": "uint256"
        }
      ],
      "name": "transferFrom",
      "outputs": [],
      "stateMutability": "nonpayable",
      "type": "function"
    },
    {
      "inputs": [
        {
          "internalType": "address",
          "name": "newOwner",
          "type": "address"
        }
      ],
      "name": "transferOwnership",
      "outputs": [],
      "stateMutability": "nonpayable",
      "type": "function"
    }
  ],
  "bytecode": {
    "object": "0x608060405234801561001057600080fd5b50613429806100206000396000f3fe608060405234801561001057600080fd5b50600436106102535760003560e01c806370a0823111610146578063b88d4fde116100c3578063e985e9c511610087578063e985e9c514610512578063eab8511814610525578063ee07080514610538578063efc32cd414610544578063f2fde38b14610557578063ff6e8c8f1461056a57600080fd5b8063b88d4fde146104bc578063bc719455146104cf578063c87b56dd146104e2578063d9856c21146104f5578063e83157421461050857600080fd5b80638da5cb5b1161010a5780638da5cb5b1461047557806395d89b41146104865780639e860f2a1461048e578063a22cb465146104a1578063ab69607a146104b457600080fd5b806370a082311461042b578063715018a61461043e5780637cc918d11461044657806387bc793f14610459578063894ba8331461046d57600080fd5b80633403c4e9116101d4578063472a663811610198578063472a6638146103cc5780634aa52c41146103df5780635edc7c19146103f25780636297c16c146104055780636352211e1461041857600080fd5b80633403c4e91461036f5780633ebc82c51461038057806340c1a0641461039357806342842e0e146103a657806342966c68146103b957600080fd5b806318160ddd1161021b57806318160ddd146102f9578063204274861461030f57806323b872dd146103225780632a55205a146103355780632ce878da1461036757600080fd5b8063012cf1e81461025857806301ffc9a71461028157806306fdde03146102a4578063081812fc146102b9578063095ea7b3146102e4575b600080fd5b61026b6102663660046129ad565b61057d565b60405161027891906129c8565b60405180910390f35b61029461028f366004612a2b565b6105c3565b6040519015158152602001610278565b6102ac6105dd565b6040516102789190612aa0565b6102cc6102c7366004612ab3565b61066f565b6040516001600160a01b039091168152602001610278565b6102f76102f2366004612ae3565b610750565b005b610301610825565b604051908152602001610278565b61029461031d366004612b0d565b610836565b6102f7610330366004612b28565b610865565b610348610343366004612b64565b610897565b604080516001600160a01b039093168352602083019190915201610278565b61026b610932565b60fb546001600160a01b03166102cc565b6102f761038e366004612b0d565b610958565b6102cc6103a1366004612ab3565b61098e565b6102f76103b4366004612b28565b6109a2565b6102f76103c7366004612ab3565b6109bd565b6102f76103da3660046129ad565b610a1e565b6102f76103ed366004612bcf565b610a4d565b6102f7610400366004612c34565b610ae6565b6102f7610413366004612ab3565b610c66565b6102cc610426366004612ab3565b610cd0565b610301610439366004612b0d565b610d52565b6102f7610dd8565b6102f7610454366004612cbd565b610e0e565b6101085460ff166040516102789190612d1f565b6102f7610ff1565b6033546001600160a01b03166102cc565b6102ac611055565b6102f761049c366004612d47565b611064565b6102f76104af366004612dcd565b6110c7565b60fc54610301565b6102f76104ca366004612e95565b61116e565b6102f76104dd3660046129ad565b6111a6565b6102ac6104f0366004612ab3565b61125b565b6102f7610503366004612f11565b611347565b6103016101005481565b610294610520366004612f5a565b6113a8565b610294610533366004612b0d565b6113d6565b60ff8054610294911681565b6102f7610552366004612ae3565b6113fd565b6102f7610565366004612b0d565b611455565b6102f7610578366004612d47565b6114ed565b60606105bd610107600084600281111561059957610599612d09565b60028111156105aa576105aa612d09565b8152602001908152602001600020611585565b92915050565b60006105ce82611592565b806105bd57506105bd826115b7565b6060609780546105ec90612f84565b80601f016020809104026020016040519081016040528092919081815260200182805461061890612f84565b80156106655780601f1061063a57610100808354040283529160200191610665565b820191906000526020600020905b81548152906001019060200180831161064857829003601f168201915b5050505050905090565b600081815260fd60205260408120546001600160a01b031681610691846115fa565b50509050600081806106ab57506001600160a01b03831615155b80156106c757506000858152610102602052604090205460ff16155b9050806107305760405162461bcd60e51b815260206004820152602c60248201527f4552433732313a20617070726f76656420717565727920666f72206e6f6e657860448201526b34b9ba32b73a103a37b5b2b760a11b60648201526084015b60405180910390fd5b50505060009182525061010360205260409020546001600160a01b031690565b8160016101085460ff16600281111561076b5761076b612d09565b036107ca576107a981610107600060015b600281111561078d5761078d612d09565b815260200190815260200160002061175d90919063ffffffff16565b6107c5576040516282b42960e81b815260040160405180910390fd5b610816565b60026101085460ff1660028111156107e4576107e4612d09565b03610816576107f9816101076000600261077c565b15610816576040516282b42960e81b815260040160405180910390fd5b610820838361177f565b505050565b60006108316101045490565b905090565b600061084a6033546001600160a01b031690565b6001600160a01b0316826001600160a01b0316149050919050565b610870335b8261188f565b61088c5760405162461bcd60e51b815260040161072790612fb8565b6108208383836118ee565b600082815260fd602052604081205481906001600160a01b03166108c65760fb546001600160a01b03166108df565b600084815260fd60205260409020546001600160a01b03165b9150610929606461092360fe60008881526020019081526020016000205460000361090c5760fc5461091c565b600087815260fe60205260409020545b8690611962565b9061196e565b90509250929050565b61010854606090610831906101079060009060ff16600281111561059957610599612d09565b6033546001600160a01b031633146109825760405162461bcd60e51b815260040161072790613009565b61098b8161197a565b50565b60006105bd6033546001600160a01b031690565b6108208383836040518060200160405280600081525061116e565b60006109c8826115fa565b5050600083815261010260205260409020805460ff191660011790559050808015610a0857506000828152609960205260409020546001600160a01b0316155b15610a11575050565b610a1a8261199c565b5050565b610a2733610836565b610a4457604051635c510c8360e11b815260040160405180910390fd5b61098b81611a13565b6033546001600160a01b03163314610a775760405162461bcd60e51b815260040161072790613009565b60ff80541615610a995760405162461bcd60e51b81526004016107279061303e565b610adf84848080601f0160208091040260200160405190810160405280939291908181526020018383808284376000920191909152505060fc5433925086915085611a90565b5050505050565b6000610af26001611b91565b90508015610b0a576000805461ff0019166101001790555b6001600160a01b038316610b605760405162461bcd60e51b815260206004820152601e60248201527f63726561746f722063616e6e6f74206265206e756c6c206164647265737300006044820152606401610727565b610b6a600a60fc55565b60ff805460ff19169055610100829055610b82611c1e565b610bf587878080601f01602080910402602001604051908101604052809392919081815260200183838082843760009201919091525050604080516020601f8b018190048102820181019092528981529250899150889081908401838280828437600092019190915250611c4d92505050565b610bfd611c7e565b610c05611ca5565b610c0e8361197a565b610c1783611455565b8015610c5d576000805461ff0019169055604051600181527f7f26b83ff96e1f2b6a682f133852f6798a09c465da95921460cefb38474024989060200160405180910390a15b50505050505050565b8033610c7182610cd0565b6001600160a01b031614610cc75760405162461bcd60e51b815260206004820152601760248201527f4d757374206265206f776e6572206f6620746f6b656e2e0000000000000000006044820152606401610727565b610a1a826109bd565b600080610cdc836115fa565b5050905080610cf557610cee83611cd4565b9392505050565b6000838152610102602052604090205460ff1615610d1657610cee83611cd4565b6000838152609960205260409020546001600160a01b0316610d43576033546001600160a01b0316610cee565b610cee83611cd4565b50919050565b60006001600160a01b038216610dbc5760405162461bcd60e51b815260206004820152602960248201527f4552433732313a2061646472657373207a65726f206973206e6f7420612076616044820152683634b21037bbb732b960b91b6064820152608401610727565b506001600160a01b03166000908152609a602052604090205490565b6033546001600160a01b03163314610e025760405162461bcd60e51b815260040161072790613009565b610e0c6000611d4b565b565b6033546001600160a01b03163314610e385760405162461bcd60e51b815260040161072790613009565b60ff80541615610e5a5760405162461bcd60e51b81526004016107279061303e565b6000610e666101045490565b610e7190600161308b565b905060006001610e81848461308b565b610e8b91906130a3565b604080516020810190915281905261010481905561010054909150811115610ef55760405162461bcd60e51b815260206004820152601d60248201527f62617463684d696e743a3a6578636565646564206d6178546f6b656e730000006044820152606401610727565b610105604051806060016040528084815260200183815260200187878080601f0160208091040260200160405190810160405280939291908181526020018383808284376000920182905250939094525050835460018181018655948252602091829020845160039092020190815590830151938101939093555060408101519091906002820190610f879082613108565b505050610f9c6033546001600160a01b031690565b6001600160a01b031660006001600160a01b0316837fdeaa91b6123d068f5821d0fb0678463d1a8a6079fe8af5de3ce5e896dcf9133d84604051610fe291815260200190565b60405180910390a45050505050565b6033546001600160a01b0316331461101b5760405162461bcd60e51b815260040161072790613009565b60ff805460ff1916600117905560405133907f793bc6423dd0257d64f9d47db72fd4b2162f4541aa41740ba1c5fb5e2cd41bcd90600090a2565b6060609880546105ec90612f84565b61106d33610836565b61108a57604051635c510c8360e11b815260040160405180910390fd5b6108208383838080602002602001604051908101604052809392919081815260200183836020028082843760009201829052509250611d9d915050565b8160016101085460ff1660028111156110e2576110e2612d09565b03611118576110f7816101076000600161077c565b611113576040516282b42960e81b815260040160405180910390fd5b611164565b60026101085460ff16600281111561113257611132612d09565b0361116457611147816101076000600261077c565b15611164576040516282b42960e81b815260040160405180910390fd5b6108208383611f7a565b611178338361188f565b6111945760405162461bcd60e51b815260040161072790612fb8565b6111a084848484611f85565b50505050565b6111af33610836565b6111cc57604051635c510c8360e11b815260040160405180910390fd5b61010760008260028111156111e3576111e3612d09565b60028111156111f4576111f4612d09565b815260208101919091526040016000908120908181611213828261296c565b50505050336001600160a01b03167f7efc19cf93d497a6a56103ea89a39d51c0cad74a817ed3cd0ecaff9823d4da24826040516112509190612d1f565b60405180910390a250565b6060600080611269846115fa565b92505091508161131457600084815261010660205260409020805461128d90612f84565b80601f01602080910402602001604051908101604052809291908181526020018280546112b990612f84565b80156113065780601f106112db57610100808354040283529160200191611306565b820191906000526020600020905b8154815290600101906020018083116112e957829003601f168201915b505050505092505050919050565b8061131e85611fb8565b60405160200161132f9291906131c8565b60405160208183030381529060405292505050919050565b6033546001600160a01b031633146113715760405162461bcd60e51b815260040161072790613009565b60ff805416156113935760405162461bcd60e51b81526004016107279061303e565b610a1a8133336113a260fc5490565b33611a90565b6001600160a01b039182166000908152609c6020908152604080832093909416825291909152205460ff1690565b610108546000906105bd90839061010790849060ff16600281111561077c5761077c612d09565b6033546001600160a01b031633146114275760405162461bcd60e51b815260040161072790613009565b600090815260fd6020526040902080546001600160a01b0319166001600160a01b0392909216919091179055565b6033546001600160a01b0316331461147f5760405162461bcd60e51b815260040161072790613009565b6001600160a01b0381166114e45760405162461bcd60e51b815260206004820152602660248201527f4f776e61626c653a206e6577206f776e657220697320746865207a65726f206160448201526564647265737360d01b6064820152608401610727565b61098b81611d4b565b6114f633610836565b61151357604051635c510c8360e11b815260040160405180910390fd5b600083600281111561152757611527612d09565b0361154557604051632de777a160e11b815260040160405180910390fd5b6108208383838080602002602001604051908101604052809392919081815260200183836020028082843760009201919091525060019250611d9d915050565b60606000610cee836120b9565b60006001600160e01b0319821663fa31a45b60e01b14806105bd57506105bd82612115565b60006001600160e01b03198216631030681960e21b14806115dc57506115dc82612115565b806115eb57506115eb8261212b565b806105bd57506105bd8261214c565b600080606060005b6101055481101561173e57610105818154811061162157611621613216565b90600052602060002090600302016000015485101580156116675750610105818154811061165157611651613216565b9060005260206000209060030201600101548511155b1561172c57600181610105838154811061168357611683613216565b90600052602060002090600302016002018080546116a090612f84565b80601f01602080910402602001604051908101604052809291908181526020018280546116cc90612f84565b80156117195780601f106116ee57610100808354040283529160200191611719565b820191906000526020600020905b8154815290600101906020018083116116fc57829003601f168201915b5050505050905093509350935050611756565b806117368161322c565b915050611602565b50506040805160208101909152600080825292508291505b9193909250565b6001600160a01b03811660009081526001830160205260408120541515610cee565b600061178a82610cd0565b9050806001600160a01b0316836001600160a01b0316036117f75760405162461bcd60e51b815260206004820152602160248201527f4552433732313a20617070726f76616c20746f2063757272656e74206f776e656044820152603960f91b6064820152608401610727565b336001600160a01b0382161480611813575061181381336113a8565b6118855760405162461bcd60e51b815260206004820152603860248201527f4552433732313a20617070726f76652063616c6c6572206973206e6f74206f7760448201527f6e6572206e6f7220617070726f76656420666f7220616c6c00000000000000006064820152608401610727565b610820838361218c565b60008061189b83610cd0565b9050806001600160a01b0316846001600160a01b031614806118d65750836001600160a01b03166118cb8461066f565b6001600160a01b0316145b806118e657506118e681856113a8565b949350505050565b806000036118fb57600080fd5b6000611906826115fa565b5050905080801561192c57506000828152609960205260409020546001600160a01b0316155b801561194857506000828152610102602052604090205460ff16155b156119575761195784836121fb565b6111a084848461233d565b6000610cee8284613245565b6000610cee828461327a565b60fb80546001600160a01b0319166001600160a01b0392909216919091179055565b6119a53361086a565b611a0a5760405162461bcd60e51b815260206004820152603060248201527f4552433732314275726e61626c653a2063616c6c6572206973206e6f74206f7760448201526f1b995c881b9bdc88185c1c1c9bdd995960821b6064820152608401610727565b61098b816124d9565b806002811115611a2557611a25612d09565b6101085460ff166002811115611a3d57611a3d612d09565b60405133907f12282389323caf08dd4e02c490ef05bc7edb56967c085742687aad3cc81aa15f90600090a4610108805482919060ff19166001836002811115611a8857611a88612d09565b021790555050565b6000611aa161010480546001019055565b6000611aad6101045490565b905061010054811115611b025760405162461bcd60e51b815260206004820181905260248201527f5f637265617465546f6b656e3a3a6578636565646564206d6178546f6b656e736044820152606401610727565b611b0c8582612574565b600081815261010660205260409020611b258882613108565b5060008181526101016020526040902080546001600160a01b0319166001600160a01b038816179055600081815260fe60205260409020849055600081815260fd6020526040902080546001600160a01b0319166001600160a01b0385161790555b9695505050505050565b60008054610100900460ff1615611bd8578160ff166001148015611bb45750303b155b611bd05760405162461bcd60e51b81526004016107279061328e565b506000919050565b60005460ff808416911610611bff5760405162461bcd60e51b81526004016107279061328e565b506000805460ff191660ff92909216919091179055600190565b919050565b600054610100900460ff16611c455760405162461bcd60e51b8152600401610727906132dc565b610e0c61258e565b600054610100900460ff16611c745760405162461bcd60e51b8152600401610727906132dc565b610a1a82826125be565b600054610100900460ff16610e0c5760405162461bcd60e51b8152600401610727906132dc565b600054610100900460ff16611ccc5760405162461bcd60e51b8152600401610727906132dc565b610e0c611c7e565b6000818152609960205260408120546001600160a01b0316806105bd5760405162461bcd60e51b815260206004820152602960248201527f4552433732313a206f776e657220717565727920666f72206e6f6e657869737460448201526832b73a103a37b5b2b760b91b6064820152608401610727565b603380546001600160a01b038381166001600160a01b0319831681179093556040519116919082907f8be0079c531659141344cd1fd0a4f28419497f9722a3daafe3b4186f6b6457e090600090a35050565b6000836002811115611db157611db1612d09565b146108205760005b82518110156111a0578115611e9a57611e29838281518110611ddd57611ddd613216565b60200260200101516101076000876002811115611dfc57611dfc612d09565b6002811115611e0d57611e0d612d09565b81526020019081526020016000206125fe90919063ffffffff16565b50836002811115611e3c57611e3c612d09565b838281518110611e4e57611e4e613216565b60200260200101516001600160a01b0316336001600160a01b03167f14155f749dc3f9cd2bf890d6d3a47069f77ae35befcee11c8b1a3ba41cba153660405160405180910390a4611f68565b611efb838281518110611eaf57611eaf613216565b60200260200101516101076000876002811115611ece57611ece612d09565b6002811115611edf57611edf612d09565b815260200190815260200160002061261390919063ffffffff16565b50836002811115611f0e57611f0e612d09565b838281518110611f2057611f20613216565b60200260200101516001600160a01b0316336001600160a01b03167fc72e29af1b34de3dec3a764b4ca4d85b9c380ab33b9b268d29b6e7008bd0ed9560405160405180910390a45b80611f728161322c565b915050611db9565b610a1a338383612628565b611f908484846118ee565b611f9c848484846126f6565b6111a05760405162461bcd60e51b815260040161072790613327565b606081600003611fdf5750506040805180820190915260018152600360fc1b602082015290565b8160005b81156120095780611ff38161322c565b91506120029050600a8361327a565b9150611fe3565b60008167ffffffffffffffff81111561202457612024612e09565b6040519080825280601f01601f19166020018201604052801561204e576020820181803683370190505b5090505b84156118e6576120636001836130a3565b9150612070600a86613379565b61207b90603061308b565b60f81b81838151811061209057612090613216565b60200101906001600160f81b031916908160001a9053506120b2600a8661327a565b9450612052565b60608160000180548060200260200160405190810160405280929190818152602001828054801561210957602002820191906000526020600020905b8154815260200190600101908083116120f5575b50505050509050919050565b6001600160e01b0319166301ffc9a760e01b1490565b60006001600160e01b0319821663152a902d60e11b14806105bd57506105bd825b60006001600160e01b031982166380ac58cd60e01b148061217d57506001600160e01b03198216635b5e139f60e01b145b806105bd57506105bd82612115565b60008181526101036020526040902080546001600160a01b0319166001600160a01b03841690811790915581906121c282611cd4565b6001600160a01b03167f8c5be1e5ebec7d5bd14f71427d1e84f3dd0314c0f7b2291e5b200ac8c7c3b92560405160405180910390a45050565b6001600160a01b0382166122515760405162461bcd60e51b815260206004820181905260248201527f4552433732313a206d696e7420746f20746865207a65726f20616464726573736044820152606401610727565b6000818152609960205260409020546001600160a01b0316156122b65760405162461bcd60e51b815260206004820152601c60248201527f4552433732313a20746f6b656e20616c7265616479206d696e746564000000006044820152606401610727565b6001600160a01b0382166000908152609a602052604081208054600192906122df90849061308b565b909155505060008181526099602052604080822080546001600160a01b0319166001600160a01b03861690811790915590518392907fddf252ad1be2c89b69c2b068fc378daa952ba7f163c4a11628f55a4df523b3ef908290a45050565b826001600160a01b031661235082611cd4565b6001600160a01b0316146123b45760405162461bcd60e51b815260206004820152602560248201527f4552433732313a207472616e736665722066726f6d20696e636f72726563742060448201526437bbb732b960d91b6064820152608401610727565b6001600160a01b0382166124165760405162461bcd60e51b8152602060048201526024808201527f4552433732313a207472616e7366657220746f20746865207a65726f206164646044820152637265737360e01b6064820152608401610727565b61242160008261218c565b6001600160a01b0383166000908152609a6020526040812080546001929061244a9084906130a3565b90915550506001600160a01b0382166000908152609a6020526040812080546001929061247890849061308b565b909155505060008181526099602052604080822080546001600160a01b0319166001600160a01b0386811691821790925591518493918716917fddf252ad1be2c89b69c2b068fc378daa952ba7f163c4a11628f55a4df523b3ef91a4505050565b60006124e482611cd4565b90506124f160008361218c565b6001600160a01b0381166000908152609a6020526040812080546001929061251a9084906130a3565b909155505060008281526099602052604080822080546001600160a01b0319169055518391906001600160a01b038416907fddf252ad1be2c89b69c2b068fc378daa952ba7f163c4a11628f55a4df523b3ef908390a45050565b610a1a8282604051806020016040528060008152506127f7565b600054610100900460ff166125b55760405162461bcd60e51b8152600401610727906132dc565b610e0c33611d4b565b600054610100900460ff166125e55760405162461bcd60e51b8152600401610727906132dc565b60976125f18382613108565b5060986108208282613108565b6000610cee836001600160a01b03841661282a565b6000610cee836001600160a01b038416612879565b816001600160a01b0316836001600160a01b0316036126895760405162461bcd60e51b815260206004820152601960248201527f4552433732313a20617070726f766520746f2063616c6c6572000000000000006044820152606401610727565b6001600160a01b038381166000818152609c6020908152604080832094871680845294825291829020805460ff191686151590811790915591519182527f17307eab39ab6107e8899845ad3d59bd9653f200f220920489ca2b5937696c31910160405180910390a3505050565b60006001600160a01b0384163b156127ec57604051630a85bd0160e11b81526001600160a01b0385169063150b7a029061273a90339089908890889060040161338d565b6020604051808303816000875af1925050508015612775575060408051601f3d908101601f19168201909252612772918101906133c0565b60015b6127d2573d8080156127a3576040519150601f19603f3d011682016040523d82523d6000602084013e6127a8565b606091505b5080516000036127ca5760405162461bcd60e51b815260040161072790613327565b805181602001fd5b6001600160e01b031916630a85bd0160e11b1490506118e6565b506001949350505050565b61280183836121fb565b61280e60008484846126f6565b6108205760405162461bcd60e51b815260040161072790613327565b6000818152600183016020526040812054612871575081546001818101845560008481526020808220909301849055845484825282860190935260409020919091556105bd565b5060006105bd565b6000818152600183016020526040812054801561296257600061289d6001836130a3565b85549091506000906128b1906001906130a3565b90508181146129165760008660000182815481106128d1576128d1613216565b90600052602060002001549050808760000184815481106128f4576128f4613216565b6000918252602080832090910192909255918252600188019052604090208390555b8554869080612927576129276133dd565b6001900381819060005260206000200160009055905585600101600086815260200190815260200160002060009055600193505050506105bd565b60009150506105bd565b508054600082559060005260206000209081019061098b91905b8082111561299a5760008155600101612986565b5090565b803560038110611c1957600080fd5b6000602082840312156129bf57600080fd5b610cee8261299e565b6020808252825182820181905260009190848201906040850190845b81811015612a095783516001600160a01b0316835292840192918401916001016129e4565b50909695505050505050565b6001600160e01b03198116811461098b57600080fd5b600060208284031215612a3d57600080fd5b8135610cee81612a15565b60005b83811015612a63578181015183820152602001612a4b565b838111156111a05750506000910152565b60008151808452612a8c816020860160208601612a48565b601f01601f19169290920160200192915050565b602081526000610cee6020830184612a74565b600060208284031215612ac557600080fd5b5035919050565b80356001600160a01b0381168114611c1957600080fd5b60008060408385031215612af657600080fd5b612aff83612acc565b946020939093013593505050565b600060208284031215612b1f57600080fd5b610cee82612acc565b600080600060608486031215612b3d57600080fd5b612b4684612acc565b9250612b5460208501612acc565b9150604084013590509250925092565b60008060408385031215612b7757600080fd5b50508035926020909101359150565b60008083601f840112612b9857600080fd5b50813567ffffffffffffffff811115612bb057600080fd5b602083019150836020828501011115612bc857600080fd5b9250929050565b60008060008060608587031215612be557600080fd5b843567ffffffffffffffff811115612bfc57600080fd5b612c0887828801612b86565b9095509350612c1b905060208601612acc565b9150612c2960408601612acc565b905092959194509250565b60008060008060008060808789031215612c4d57600080fd5b863567ffffffffffffffff80821115612c6557600080fd5b612c718a838b01612b86565b90985096506020890135915080821115612c8a57600080fd5b50612c9789828a01612b86565b9095509350612caa905060408801612acc565b9150606087013590509295509295509295565b600080600060408486031215612cd257600080fd5b833567ffffffffffffffff811115612ce957600080fd5b612cf586828701612b86565b909790965060209590950135949350505050565b634e487b7160e01b600052602160045260246000fd5b6020810160038310612d4157634e487b7160e01b600052602160045260246000fd5b91905290565b600080600060408486031215612d5c57600080fd5b612d658461299e565b9250602084013567ffffffffffffffff80821115612d8257600080fd5b818601915086601f830112612d9657600080fd5b813581811115612da557600080fd5b8760208260051b8501011115612dba57600080fd5b6020830194508093505050509250925092565b60008060408385031215612de057600080fd5b612de983612acc565b915060208301358015158114612dfe57600080fd5b809150509250929050565b634e487b7160e01b600052604160045260246000fd5b600067ffffffffffffffff80841115612e3a57612e3a612e09565b604051601f8501601f19908116603f01168101908282118183101715612e6257612e62612e09565b81604052809350858152868686011115612e7b57600080fd5b858560208301376000602087830101525050509392505050565b60008060008060808587031215612eab57600080fd5b612eb485612acc565b9350612ec260208601612acc565b925060408501359150606085013567ffffffffffffffff811115612ee557600080fd5b8501601f81018713612ef657600080fd5b612f0587823560208401612e1f565b91505092959194509250565b600060208284031215612f2357600080fd5b813567ffffffffffffffff811115612f3a57600080fd5b8201601f81018413612f4b57600080fd5b6118e684823560208401612e1f565b60008060408385031215612f6d57600080fd5b612f7683612acc565b915061092960208401612acc565b600181811c90821680612f9857607f821691505b602082108103610d4c57634e487b7160e01b600052602260045260246000fd5b60208082526031908201527f4552433732313a207472616e736665722063616c6c6572206973206e6f74206f6040820152701ddb995c881b9bdc88185c1c1c9bdd9959607a1b606082015260800190565b6020808252818101527f4f776e61626c653a2063616c6c6572206973206e6f7420746865206f776e6572604082015260600190565b6020808252601e908201527f436f6e7472616374206d757374206e6f742062652064697361626c65642e0000604082015260600190565b634e487b7160e01b600052601160045260246000fd5b6000821982111561309e5761309e613075565b500190565b6000828210156130b5576130b5613075565b500390565b601f82111561082057600081815260208120601f850160051c810160208610156130e15750805b601f850160051c820191505b81811015613100578281556001016130ed565b505050505050565b815167ffffffffffffffff81111561312257613122612e09565b613136816131308454612f84565b846130ba565b602080601f83116001811461316b57600084156131535750858301515b600019600386901b1c1916600185901b178555613100565b600085815260208120601f198616915b8281101561319a5788860151825594840194600190910190840161317b565b50858210156131b85787850151600019600388901b60f8161c191681555b5050505050600190811b01905550565b600083516131da818460208801612a48565b602f60f81b90830190815283516131f8816001840160208801612a48565b64173539b7b760d91b60019290910191820152600601949350505050565b634e487b7160e01b600052603260045260246000fd5b60006001820161323e5761323e613075565b5060010190565b600081600019048311821515161561325f5761325f613075565b500290565b634e487b7160e01b600052601260045260246000fd5b60008261328957613289613264565b500490565b6020808252602e908201527f496e697469616c697a61626c653a20636f6e747261637420697320616c72656160408201526d191e481a5b9a5d1a585b1a5e995960921b606082015260800190565b6020808252602b908201527f496e697469616c697a61626c653a20636f6e7472616374206973206e6f74206960408201526a6e697469616c697a696e6760a81b606082015260800190565b60208082526032908201527f4552433732313a207472616e7366657220746f206e6f6e20455243373231526560408201527131b2b4bb32b91034b6b83632b6b2b73a32b960711b606082015260800190565b60008261338857613388613264565b500690565b6001600160a01b0385811682528416602082015260408101839052608060608201819052600090611b8790830184612a74565b6000602082840312156133d257600080fd5b8151610cee81612a15565b634e487b7160e01b600052603160045260246000fdfea2646970667358221220938ce2757d4bf31de29a45d48be70d84d733bd4e1e833fb2c0faa8e73438ddf164736f6c634300080f0033",
    "linkReferences": {}
  },
  "methodIdentifiers": {
    "addNewToken(string)": "d9856c21",
    "approve(address,uint256)": "095ea7b3",
    "balanceOf(address)": "70a08231",
    "batchAddAddressToRoyaltyList(uint8,address[])": "ff6e8c8f",
    "batchMint(string,uint256)": "7cc918d1",
    "batchRemoveAddressToRoyaltyList(uint8,address[])": "9e860f2a",
    "burn(uint256)": "42966c68",
    "clearList(uint8)": "bc719455",
    "deleteToken(uint256)": "6297c16c",
    "disableContract()": "894ba833",
    "disabled()": "ee070805",
    "getApproved(uint256)": "081812fc",
    "getDefaultRoyaltyPercentage()": "ab69607a",
    "getDefaultRoyaltyReceiver()": "3403c4e9",
    "getInUseList()": "2ce878da",
    "getList(uint8)": "012cf1e8",
    "getListType()": "87bc793f",
    "hasAdminPermission(address)": "20427486",
    "init(string,string,address,uint256)": "5edc7c19",
    "isApprovedForAll(address,address)": "e985e9c5",
    "isOperatorInList(address)": "eab85118",
    "maxTokens()": "e8315742",
    "mintTo(string,address,address)": "4aa52c41",
    "name()": "06fdde03",
    "owner()": "8da5cb5b",
    "ownerOf(uint256)": "6352211e",
    "renounceOwnership()": "715018a6",
    "royaltyInfo(uint256,uint256)": "2a55205a",
    "safeTransferFrom(address,address,uint256)": "42842e0e",
    "safeTransferFrom(address,address,uint256,bytes)": "b88d4fde",
    "setApprovalForAll(address,bool)": "a22cb465",
    "setDefaultRoyaltyReceiver(address)": "3ebc82c5",
    "setRoyaltyReceiverForToken(address,uint256)": "efc32cd4",
    "supportsInterface(bytes4)": "01ffc9a7",
    "symbol()": "95d89b41",
    "toggleListType(uint8)": "472a6638",
    "tokenCreator(uint256)": "40c1a064",
    "tokenURI(uint256)": "c87b56dd",
    "totalSupply()": "18160ddd",
    "transferFrom(address,address,uint256)": "23b872dd",
    "transferOwnership(address)": "f2fde38b"
  },
  "id": 47
}