{
  "abi": [
    {
      "anonymous": false,
      "inputs": [
        {
          "indexed": true,
          "internalType": "address",
          "name": "owner",
          "type": "address"
        },
        {
          "indexed": true,
          "internalType": "address",
          "name": "approved",
          "type": "address"
        },
        {
          "indexed": true,
          "internalType": "uint256",
          "name": "tokenId",
          "type": "uint256"
        }
      ],
      "name": "Approval",
      "type": "event"
    },
    {
      "anonymous": false,
      "inputs": [
        {
          "indexed": true,
          "internalType": "address",
          "name": "owner",
          "type": "address"
        },
        {
          "indexed": true,
          "internalType": "address",
          "name": "operator",
          "type": "address"
        },
        {
          "indexed": false,
          "internalType": "bool",
          "name": "approved",
          "type": "bool"
        }
      ],
      "name": "ApprovalForAll",
      "type": "event"
    },
    {
      "anonymous": false,
      "inputs": [
        {
          "indexed": true,
          "internalType": "uint256",
          "name": "fromTokenId",
          "type": "uint256"
        },
        {
          "indexed": false,
          "internalType": "uint256",
          "name": "toTokenId",
          "type": "uint256"
        },
        {
          "indexed": true,
          "internalType": "address",
          "name": "fromAddress",
          "type": "address"
        },
        {
          "indexed": true,
          "internalType": "address",
          "name": "toAddress",
          "type": "address"
        }
      ],
      "name": "ConsecutiveTransfer",
      "type": "event"
    },
    {
      "anonymous": false,
      "inputs": [
        {
          "indexed": true,
          "internalType": "address",
          "name": "user",
          "type": "address"
        }
      ],
      "name": "ContractDisabled",
      "type": "event"
    },
    {
      "anonymous": false,
      "inputs": [
        {
          "indexed": false,
          "internalType": "uint8",
          "name": "version",
          "type": "uint8"
        }
      ],
      "name": "Initialized",
      "type": "event"
    },
    {
      "anonymous": false,
      "inputs": [
        {
          "indexed": true,
          "internalType": "address",
          "name": "previousOwner",
          "type": "address"
        },
        {
          "indexed": true,
          "internalType": "address",
          "name": "newOwner",
          "type": "address"
        }
      ],
      "name": "OwnershipTransferred",
      "type": "event"
    },
    {
      "anonymous": false,
      "inputs": [
        {
          "indexed": true,
          "internalType": "address",
          "name": "from",
          "type": "address"
        },
        {
          "indexed": true,
          "internalType": "address",
          "name": "to",
          "type": "address"
        },
        {
          "indexed": true,
          "internalType": "uint256",
          "name": "tokenId",
          "type": "uint256"
        }
      ],
      "name": "Transfer",
      "type": "event"
    },
    {
      "inputs": [
        {
          "internalType": "string",
          "name": "_uri",
          "type": "string"
        }
      ],
      "name": "addNewToken",
      "outputs": [],
      "stateMutability": "nonpayable",
      "type": "function"
    },
    {
      "inputs": [
        {
          "internalType": "address",
          "name": "to",
          "type": "address"
        },
        {
          "internalType": "uint256",
          "name": "tokenId",
          "type": "uint256"
        }
      ],
      "name": "approve",
      "outputs": [],
      "stateMutability": "nonpayable",
      "type": "function"
    },
    {
      "inputs": [
        {
          "internalType": "address",
          "name": "owner",
          "type": "address"
        }
      ],
      "name": "balanceOf",
      "outputs": [
        {
          "internalType": "uint256",
          "name": "",
          "type": "uint256"
        }
      ],
      "stateMutability": "view",
      "type": "function"
    },
    {
      "inputs": [
        {
          "internalType": "string",
          "name": "_baseURI",
          "type": "string"
        },
        {
          "internalType": "uint256",
          "name": "_numberOfTokens",
          "type": "uint256"
        }
      ],
      "name": "batchMint",
      "outputs": [],
      "stateMutability": "nonpayable",
      "type": "function"
    },
    {
      "inputs": [
        {
          "internalType": "uint256",
          "name": "_tokenId",
          "type": "uint256"
        }
      ],
      "name": "burn",
      "outputs": [],
      "stateMutability": "nonpayable",
      "type": "function"
    },
    {
      "inputs": [
        {
          "internalType": "uint256",
          "name": "_tokenId",
          "type": "uint256"
        }
      ],
      "name": "deleteToken",
      "outputs": [],
      "stateMutability": "nonpayable",
      "type": "function"
    },
    {
      "inputs": [],
      "name": "disableContract",
      "outputs": [],
      "stateMutability": "nonpayable",
      "type": "function"
    },
    {
      "inputs": [],
      "name": "disabled",
      "outputs": [
        {
          "internalType": "bool",
          "name": "",
          "type": "bool"
        }
      ],
      "stateMutability": "view",
      "type": "function"
    },
    {
      "inputs": [
        {
          "internalType": "uint256",
          "name": "_tokenId",
          "type": "uint256"
        }
      ],
      "name": "getApproved",
      "outputs": [
        {
          "internalType": "address",
          "name": "",
          "type": "address"
        }
      ],
      "stateMutability": "view",
      "type": "function"
    },
    {
      "inputs": [],
      "name": "getDefaultRoyaltyPercentage",
      "outputs": [
        {
          "internalType": "uint256",
          "name": "",
          "type": "uint256"
        }
      ],
      "stateMutability": "view",
      "type": "function"
    },
    {
      "inputs": [],
      "name": "getDefaultRoyaltyReceiver",
      "outputs": [
        {
          "internalType": "address",
          "name": "",
          "type": "address"
        }
      ],
      "stateMutability": "view",
      "type": "function"
    },
    {
      "inputs": [
        {
          "internalType": "string",
          "name": "_name",
          "type": "string"
        },
        {
          "internalType": "string",
          "name": "_symbol",
          "type": "string"
        },
        {
          "internalType": "address",
          "name": "_creator",
          "type": "address"
        },
        {
          "internalType": "uint256",
          "name": "_maxTokens",
          "type": "uint256"
        }
      ],
      "name": "init",
      "outputs": [],
      "stateMutability": "nonpayable",
      "type": "function"
    },
    {
      "inputs": [
        {
          "internalType": "address",
          "name": "owner",
          "type": "address"
        },
        {
          "internalType": "address",
          "name": "operator",
          "type": "address"
        }
      ],
      "name": "isApprovedForAll",
      "outputs": [
        {
          "internalType": "bool",
          "name": "",
          "type": "bool"
        }
      ],
      "stateMutability": "view",
      "type": "function"
    },
    {
      "inputs": [],
      "name": "maxTokens",
      "outputs": [
        {
          "internalType": "uint256",
          "name": "",
          "type": "uint256"
        }
      ],
      "stateMutability": "view",
      "type": "function"
    },
    {
      "inputs": [
        {
          "internalType": "string",
          "name": "_uri",
          "type": "string"
        },
        {
          "internalType": "address",
          "name": "_receiver",
          "type": "address"
        },
        {
          "internalType": "address",
          "name": "_royaltyReceiver",
          "type": "address"
        }
      ],
      "name": "mintTo",
      "outputs": [],
      "stateMutability": "nonpayable",
      "type": "function"
    },
    {
      "inputs": [],
      "name": "name",
      "outputs": [
        {
          "internalType": "string",
          "name": "",
          "type": "string"
        }
      ],
      "stateMutability": "view",
      "type": "function"
    },
    {
      "inputs": [],
      "name": "owner",
      "outputs": [
        {
          "internalType": "address",
          "name": "",
          "type": "address"
        }
      ],
      "stateMutability": "view",
      "type": "function"
    },
    {
      "inputs": [
        {
          "internalType": "uint256",
          "name": "_tokenId",
          "type": "uint256"
        }
      ],
      "name": "ownerOf",
      "outputs": [
        {
          "internalType": "address",
          "name": "",
          "type": "address"
        }
      ],
      "stateMutability": "view",
      "type": "function"
    },
    {
      "inputs": [],
      "name": "renounceOwnership",
      "outputs": [],
      "stateMutability": "nonpayable",
      "type": "function"
    },
    {
      "inputs": [
        {
          "internalType": "uint256",
          "name": "_tokenId",
          "type": "uint256"
        },
        {
          "internalType": "uint256",
          "name": "_salePrice",
          "type": "uint256"
        }
      ],
      "name": "royaltyInfo",
      "outputs": [
        {
          "internalType": "address",
          "name": "receiver",
          "type": "address"
        },
        {
          "internalType": "uint256",
          "name": "royaltyAmount",
          "type": "uint256"
        }
      ],
      "stateMutability": "view",
      "type": "function"
    },
    {
      "inputs": [
        {
          "internalType": "address",
          "name": "from",
          "type": "address"
        },
        {
          "internalType": "address",
          "name": "to",
          "type": "address"
        },
        {
          "internalType": "uint256",
          "name": "tokenId",
          "type": "uint256"
        }
      ],
      "name": "safeTransferFrom",
      "outputs": [],
      "stateMutability": "nonpayable",
      "type": "function"
    },
    {
      "inputs": [
        {
          "internalType": "address",
          "name": "from",
          "type": "address"
        },
        {
          "internalType": "address",
          "name": "to",
          "type": "address"
        },
        {
          "internalType": "uint256",
          "name": "tokenId",
          "type": "uint256"
        },
        {
          "internalType": "bytes",
          "name": "_data",
          "type": "bytes"
        }
      ],
      "name": "safeTransferFrom",
      "outputs": [],
      "stateMutability": "nonpayable",
      "type": "function"
    },
    {
      "inputs": [
        {
          "internalType": "address",
          "name": "operator",
          "type": "address"
        },
        {
          "internalType": "bool",
          "name": "approved",
          "type": "bool"
        }
      ],
      "name": "setApprovalForAll",
      "outputs": [],
      "stateMutability": "nonpayable",
      "type": "function"
    },
    {
      "inputs": [
        {
          "internalType": "address",
          "name": "_receiver",
          "type": "address"
        }
      ],
      "name": "setDefaultRoyaltyReceiver",
      "outputs": [],
      "stateMutability": "nonpayable",
      "type": "function"
    },
    {
      "inputs": [
        {
          "internalType": "address",
          "name": "_receiver",
          "type": "address"
        },
        {
          "internalType": "uint256",
          "name": "_tokenId",
          "type": "uint256"
        }
      ],
      "name": "setRoyaltyReceiverForToken",
      "outputs": [],
      "stateMutability": "nonpayable",
      "type": "function"
    },
    {
      "inputs": [
        {
          "internalType": "bytes4",
          "name": "interfaceId",
          "type": "bytes4"
        }
      ],
      "name": "supportsInterface",
      "outputs": [
        {
          "internalType": "bool",
          "name": "",
          "type": "bool"
        }
      ],
      "stateMutability": "view",
      "type": "function"
    },
    {
      "inputs": [],
      "name": "symbol",
      "outputs": [
        {
          "internalType": "string",
          "name": "",
          "type": "string"
        }
      ],
      "stateMutability": "view",
      "type": "function"
    },
    {
      "inputs": [
        {
          "internalType": "uint256",
          "name": "",
          "type": "uint256"
        }
      ],
      "name": "tokenCreator",
      "outputs": [
        {
          "internalType": "address payable",
          "name": "",
          "type": "address"
        }
      ],
      "stateMutability": "view",
      "type": "function"
    },
    {
      "inputs": [
        {
          "internalType": "uint256",
          "name": "_tokenId",
          "type": "uint256"
        }
      ],
      "name": "tokenURI",
      "outputs": [
        {
          "internalType": "string",
          "name": "",
          "type": "string"
        }
      ],
      "stateMutability": "view",
      "type": "function"
    },
    {
      "inputs": [],
      "name": "totalSupply",
      "outputs": [
        {
          "internalType": "uint256",
          "name": "",
          "type": "uint256"
        }
      ],
      "stateMutability": "view",
      "type": "function"
    },
    {
      "inputs": [
        {
          "internalType": "address",
          "name": "from",
          "type": "address"
        },
        {
          "internalType": "address",
          "name": "to",
          "type": "address"
        },
        {
          "internalType": "uint256",
          "name": "tokenId",
          "type": "uint256"
        }
      ],
      "name": "transferFrom",
      "outputs": [],
      "stateMutability": "nonpayable",
      "type": "function"
    },
    {
      "inputs": [
        {
          "internalType": "address",
          "name": "newOwner",
          "type": "address"
        }
      ],
      "name": "transferOwnership",
      "outputs": [],
      "stateMutability": "nonpayable",
      "type": "function"
    }
  ],
  "bytecode": {
    "object": "0x608060405234801561001057600080fd5b5061290a806100206000396000f3fe608060405234801561001057600080fd5b50600436106101f05760003560e01c806370a082311161010f578063b88d4fde116100a2578063e985e9c511610071578063e985e9c514610423578063ee0708051461045f578063efc32cd41461046b578063f2fde38b1461047e57600080fd5b8063b88d4fde146103e0578063c87b56dd146103f3578063d9856c2114610406578063e83157421461041957600080fd5b80638da5cb5b116100de5780638da5cb5b146103ac57806395d89b41146103bd578063a22cb465146103c5578063ab69607a146103d857600080fd5b806370a0823114610376578063715018a6146103895780637cc918d114610391578063894ba833146103a457600080fd5b80633ebc82c5116101875780634aa52c41116101565780634aa52c411461032a5780635edc7c191461033d5780636297c16c146103505780636352211e1461036357600080fd5b80633ebc82c5146102de57806340c1a064146102f157806342842e0e1461030457806342966c681461031757600080fd5b806318160ddd116101c357806318160ddd1461027257806323b872dd146102885780632a55205a1461029b5780633403c4e9146102cd57600080fd5b806301ffc9a7146101f557806306fdde031461021d578063081812fc14610232578063095ea7b31461025d575b600080fd5b610208610203366004611fe6565b610491565b60405190151581526020015b60405180910390f35b6102256104da565b604051610214919061205b565b61024561024036600461206e565b61056c565b6040516001600160a01b039091168152602001610214565b61027061026b36600461209e565b61064d565b005b61027a610762565b604051908152602001610214565b6102706102963660046120c8565b610773565b6102ae6102a9366004612104565b6107a5565b604080516001600160a01b039093168352602083019190915201610214565b60fb546001600160a01b0316610245565b6102706102ec366004612126565b610840565b6102456102ff36600461206e565b610876565b6102706103123660046120c8565b61088a565b61027061032536600461206e565b6108a5565b61027061033836600461218a565b610906565b61027061034b3660046121ef565b61099f565b61027061035e36600461206e565b610b1f565b61024561037136600461206e565b610b89565b61027a610384366004612126565b610c0b565b610270610c91565b61027061039f366004612278565b610cc7565b610270610eaa565b6033546001600160a01b0316610245565b610225610f0e565b6102706103d33660046122c4565b610f1d565b60fc5461027a565b6102706103ee36600461238c565b610f28565b61022561040136600461206e565b610f60565b610270610414366004612408565b61104c565b61027a6101005481565b610208610431366004612451565b6001600160a01b039182166000908152609c6020908152604080832093909416825291909152205460ff1690565b60ff8054610208911681565b61027061047936600461209e565b6110ad565b61027061048c366004612126565b611105565b60006001600160e01b03198216631030681960e21b14806104b657506104b68261119d565b806104c557506104c5826111b3565b806104d457506104d4826111d4565b92915050565b6060609780546104e99061247b565b80601f01602080910402602001604051908101604052809291908181526020018280546105159061247b565b80156105625780601f1061053757610100808354040283529160200191610562565b820191906000526020600020905b81548152906001019060200180831161054557829003601f168201915b5050505050905090565b600081815260fd60205260408120546001600160a01b03168161058e84611214565b50509050600081806105a857506001600160a01b03831615155b80156105c457506000858152610102602052604090205460ff16155b90508061062d5760405162461bcd60e51b815260206004820152602c60248201527f4552433732313a20617070726f76656420717565727920666f72206e6f6e657860448201526b34b9ba32b73a103a37b5b2b760a11b60648201526084015b60405180910390fd5b50505060009182525061010360205260409020546001600160a01b031690565b600061065882610b89565b9050806001600160a01b0316836001600160a01b0316036106c55760405162461bcd60e51b815260206004820152602160248201527f4552433732313a20617070726f76616c20746f2063757272656e74206f776e656044820152603960f91b6064820152608401610624565b336001600160a01b03821614806106e157506106e18133610431565b6107535760405162461bcd60e51b815260206004820152603860248201527f4552433732313a20617070726f76652063616c6c6572206973206e6f74206f7760448201527f6e6572206e6f7220617070726f76656420666f7220616c6c00000000000000006064820152608401610624565b61075d8383611377565b505050565b600061076e6101045490565b905090565b61077e335b826113e6565b61079a5760405162461bcd60e51b8152600401610624906124af565b61075d838383611465565b600082815260fd602052604081205481906001600160a01b03166107d45760fb546001600160a01b03166107ed565b600084815260fd60205260409020546001600160a01b03165b9150610837606461083160fe60008881526020019081526020016000205460000361081a5760fc5461082a565b600087815260fe60205260409020545b86906114d9565b906114e5565b90509250929050565b6033546001600160a01b0316331461086a5760405162461bcd60e51b815260040161062490612500565b610873816114f1565b50565b60006104d46033546001600160a01b031690565b61075d83838360405180602001604052806000815250610f28565b60006108b082611214565b5050600083815261010260205260409020805460ff1916600117905590508080156108f057506000828152609960205260409020546001600160a01b0316155b156108f9575050565b61090282611513565b5050565b6033546001600160a01b031633146109305760405162461bcd60e51b815260040161062490612500565b60ff805416156109525760405162461bcd60e51b815260040161062490612535565b61099884848080601f0160208091040260200160405190810160405280939291908181526020018383808284376000920191909152505060fc543392508691508561158a565b5050505050565b60006109ab600161168b565b905080156109c3576000805461ff0019166101001790555b6001600160a01b038316610a195760405162461bcd60e51b815260206004820152601e60248201527f63726561746f722063616e6e6f74206265206e756c6c206164647265737300006044820152606401610624565b610a23600a60fc55565b60ff805460ff19169055610100829055610a3b611718565b610aae87878080601f01602080910402602001604051908101604052809392919081815260200183838082843760009201919091525050604080516020601f8b01819004810282018101909252898152925089915088908190840183828082843760009201919091525061174792505050565b610ab6611778565b610abe61179f565b610ac7836114f1565b610ad083611105565b8015610b16576000805461ff0019169055604051600181527f7f26b83ff96e1f2b6a682f133852f6798a09c465da95921460cefb38474024989060200160405180910390a15b50505050505050565b8033610b2a82610b89565b6001600160a01b031614610b805760405162461bcd60e51b815260206004820152601760248201527f4d757374206265206f776e6572206f6620746f6b656e2e0000000000000000006044820152606401610624565b610902826108a5565b600080610b9583611214565b5050905080610bae57610ba7836117ce565b9392505050565b6000838152610102602052604090205460ff1615610bcf57610ba7836117ce565b6000838152609960205260409020546001600160a01b0316610bfc576033546001600160a01b0316610ba7565b610ba7836117ce565b50919050565b60006001600160a01b038216610c755760405162461bcd60e51b815260206004820152602960248201527f4552433732313a2061646472657373207a65726f206973206e6f7420612076616044820152683634b21037bbb732b960b91b6064820152608401610624565b506001600160a01b03166000908152609a602052604090205490565b6033546001600160a01b03163314610cbb5760405162461bcd60e51b815260040161062490612500565b610cc56000611845565b565b6033546001600160a01b03163314610cf15760405162461bcd60e51b815260040161062490612500565b60ff80541615610d135760405162461bcd60e51b815260040161062490612535565b6000610d1f6101045490565b610d2a906001612582565b905060006001610d3a8484612582565b610d44919061259a565b604080516020810190915281905261010481905561010054909150811115610dae5760405162461bcd60e51b815260206004820152601d60248201527f62617463684d696e743a3a6578636565646564206d6178546f6b656e730000006044820152606401610624565b610105604051806060016040528084815260200183815260200187878080601f0160208091040260200160405190810160405280939291908181526020018383808284376000920182905250939094525050835460018181018655948252602091829020845160039092020190815590830151938101939093555060408101519091906002820190610e4090826125ff565b505050610e556033546001600160a01b031690565b6001600160a01b031660006001600160a01b0316837fdeaa91b6123d068f5821d0fb0678463d1a8a6079fe8af5de3ce5e896dcf9133d84604051610e9b91815260200190565b60405180910390a45050505050565b6033546001600160a01b03163314610ed45760405162461bcd60e51b815260040161062490612500565b60ff805460ff1916600117905560405133907f793bc6423dd0257d64f9d47db72fd4b2162f4541aa41740ba1c5fb5e2cd41bcd90600090a2565b6060609880546104e99061247b565b610902338383611897565b610f3233836113e6565b610f4e5760405162461bcd60e51b8152600401610624906124af565b610f5a84848484611965565b50505050565b6060600080610f6e84611214565b925050915081611019576000848152610106602052604090208054610f929061247b565b80601f0160208091040260200160405190810160405280929190818152602001828054610fbe9061247b565b801561100b5780601f10610fe05761010080835404028352916020019161100b565b820191906000526020600020905b815481529060010190602001808311610fee57829003601f168201915b505050505092505050919050565b8061102385611998565b6040516020016110349291906126bf565b60405160208183030381529060405292505050919050565b6033546001600160a01b031633146110765760405162461bcd60e51b815260040161062490612500565b60ff805416156110985760405162461bcd60e51b815260040161062490612535565b6109028133336110a760fc5490565b3361158a565b6033546001600160a01b031633146110d75760405162461bcd60e51b815260040161062490612500565b600090815260fd6020526040902080546001600160a01b0319166001600160a01b0392909216919091179055565b6033546001600160a01b0316331461112f5760405162461bcd60e51b815260040161062490612500565b6001600160a01b0381166111945760405162461bcd60e51b815260206004820152602660248201527f4f776e61626c653a206e6577206f776e657220697320746865207a65726f206160448201526564647265737360d01b6064820152608401610624565b61087381611845565b6001600160e01b0319166301ffc9a760e01b1490565b60006001600160e01b0319821663152a902d60e11b14806104d457506104d4825b60006001600160e01b031982166380ac58cd60e01b148061120557506001600160e01b03198216635b5e139f60e01b145b806104d457506104d48261119d565b600080606060005b6101055481101561135857610105818154811061123b5761123b61270d565b90600052602060002090600302016000015485101580156112815750610105818154811061126b5761126b61270d565b9060005260206000209060030201600101548511155b1561134657600181610105838154811061129d5761129d61270d565b90600052602060002090600302016002018080546112ba9061247b565b80601f01602080910402602001604051908101604052809291908181526020018280546112e69061247b565b80156113335780601f1061130857610100808354040283529160200191611333565b820191906000526020600020905b81548152906001019060200180831161131657829003601f168201915b5050505050905093509350935050611370565b8061135081612723565b91505061121c565b50506040805160208101909152600080825292508291505b9193909250565b60008181526101036020526040902080546001600160a01b0319166001600160a01b03841690811790915581906113ad826117ce565b6001600160a01b03167f8c5be1e5ebec7d5bd14f71427d1e84f3dd0314c0f7b2291e5b200ac8c7c3b92560405160405180910390a45050565b6000806113f283610b89565b9050806001600160a01b0316846001600160a01b0316148061142d5750836001600160a01b03166114228461056c565b6001600160a01b0316145b8061145d57506001600160a01b038082166000908152609c602090815260408083209388168352929052205460ff165b949350505050565b8060000361147257600080fd5b600061147d82611214565b505090508080156114a357506000828152609960205260409020546001600160a01b0316155b80156114bf57506000828152610102602052604090205460ff16155b156114ce576114ce8483611a99565b610f5a848484611bdb565b6000610ba7828461273c565b6000610ba78284612771565b60fb80546001600160a01b0319166001600160a01b0392909216919091179055565b61151c33610778565b6115815760405162461bcd60e51b815260206004820152603060248201527f4552433732314275726e61626c653a2063616c6c6572206973206e6f74206f7760448201526f1b995c881b9bdc88185c1c1c9bdd995960821b6064820152608401610624565b61087381611d77565b600061159b61010480546001019055565b60006115a76101045490565b9050610100548111156115fc5760405162461bcd60e51b815260206004820181905260248201527f5f637265617465546f6b656e3a3a6578636565646564206d6178546f6b656e736044820152606401610624565b6116068582611e12565b60008181526101066020526040902061161f88826125ff565b5060008181526101016020526040902080546001600160a01b0319166001600160a01b038816179055600081815260fe60205260409020849055600081815260fd6020526040902080546001600160a01b0319166001600160a01b0385161790555b9695505050505050565b60008054610100900460ff16156116d2578160ff1660011480156116ae5750303b155b6116ca5760405162461bcd60e51b815260040161062490612785565b506000919050565b60005460ff8084169116106116f95760405162461bcd60e51b815260040161062490612785565b506000805460ff191660ff92909216919091179055600190565b919050565b600054610100900460ff1661173f5760405162461bcd60e51b8152600401610624906127d3565b610cc5611e2c565b600054610100900460ff1661176e5760405162461bcd60e51b8152600401610624906127d3565b6109028282611e5c565b600054610100900460ff16610cc55760405162461bcd60e51b8152600401610624906127d3565b600054610100900460ff166117c65760405162461bcd60e51b8152600401610624906127d3565b610cc5611778565b6000818152609960205260408120546001600160a01b0316806104d45760405162461bcd60e51b815260206004820152602960248201527f4552433732313a206f776e657220717565727920666f72206e6f6e657869737460448201526832b73a103a37b5b2b760b91b6064820152608401610624565b603380546001600160a01b038381166001600160a01b0319831681179093556040519116919082907f8be0079c531659141344cd1fd0a4f28419497f9722a3daafe3b4186f6b6457e090600090a35050565b816001600160a01b0316836001600160a01b0316036118f85760405162461bcd60e51b815260206004820152601960248201527f4552433732313a20617070726f766520746f2063616c6c6572000000000000006044820152606401610624565b6001600160a01b038381166000818152609c6020908152604080832094871680845294825291829020805460ff191686151590811790915591519182527f17307eab39ab6107e8899845ad3d59bd9653f200f220920489ca2b5937696c31910160405180910390a3505050565b611970848484611465565b61197c84848484611e9c565b610f5a5760405162461bcd60e51b81526004016106249061281e565b6060816000036119bf5750506040805180820190915260018152600360fc1b602082015290565b8160005b81156119e957806119d381612723565b91506119e29050600a83612771565b91506119c3565b60008167ffffffffffffffff811115611a0457611a04612300565b6040519080825280601f01601f191660200182016040528015611a2e576020820181803683370190505b5090505b841561145d57611a4360018361259a565b9150611a50600a86612870565b611a5b906030612582565b60f81b818381518110611a7057611a7061270d565b60200101906001600160f81b031916908160001a905350611a92600a86612771565b9450611a32565b6001600160a01b038216611aef5760405162461bcd60e51b815260206004820181905260248201527f4552433732313a206d696e7420746f20746865207a65726f20616464726573736044820152606401610624565b6000818152609960205260409020546001600160a01b031615611b545760405162461bcd60e51b815260206004820152601c60248201527f4552433732313a20746f6b656e20616c7265616479206d696e746564000000006044820152606401610624565b6001600160a01b0382166000908152609a60205260408120805460019290611b7d908490612582565b909155505060008181526099602052604080822080546001600160a01b0319166001600160a01b03861690811790915590518392907fddf252ad1be2c89b69c2b068fc378daa952ba7f163c4a11628f55a4df523b3ef908290a45050565b826001600160a01b0316611bee826117ce565b6001600160a01b031614611c525760405162461bcd60e51b815260206004820152602560248201527f4552433732313a207472616e736665722066726f6d20696e636f72726563742060448201526437bbb732b960d91b6064820152608401610624565b6001600160a01b038216611cb45760405162461bcd60e51b8152602060048201526024808201527f4552433732313a207472616e7366657220746f20746865207a65726f206164646044820152637265737360e01b6064820152608401610624565b611cbf600082611377565b6001600160a01b0383166000908152609a60205260408120805460019290611ce890849061259a565b90915550506001600160a01b0382166000908152609a60205260408120805460019290611d16908490612582565b909155505060008181526099602052604080822080546001600160a01b0319166001600160a01b0386811691821790925591518493918716917fddf252ad1be2c89b69c2b068fc378daa952ba7f163c4a11628f55a4df523b3ef91a4505050565b6000611d82826117ce565b9050611d8f600083611377565b6001600160a01b0381166000908152609a60205260408120805460019290611db890849061259a565b909155505060008281526099602052604080822080546001600160a01b0319169055518391906001600160a01b038416907fddf252ad1be2c89b69c2b068fc378daa952ba7f163c4a11628f55a4df523b3ef908390a45050565b610902828260405180602001604052806000815250611f9d565b600054610100900460ff16611e535760405162461bcd60e51b8152600401610624906127d3565b610cc533611845565b600054610100900460ff16611e835760405162461bcd60e51b8152600401610624906127d3565b6097611e8f83826125ff565b50609861075d82826125ff565b60006001600160a01b0384163b15611f9257604051630a85bd0160e11b81526001600160a01b0385169063150b7a0290611ee0903390899088908890600401612884565b6020604051808303816000875af1925050508015611f1b575060408051601f3d908101601f19168201909252611f18918101906128b7565b60015b611f78573d808015611f49576040519150601f19603f3d011682016040523d82523d6000602084013e611f4e565b606091505b508051600003611f705760405162461bcd60e51b81526004016106249061281e565b805181602001fd5b6001600160e01b031916630a85bd0160e11b14905061145d565b506001949350505050565b611fa78383611a99565b611fb46000848484611e9c565b61075d5760405162461bcd60e51b81526004016106249061281e565b6001600160e01b03198116811461087357600080fd5b600060208284031215611ff857600080fd5b8135610ba781611fd0565b60005b8381101561201e578181015183820152602001612006565b83811115610f5a5750506000910152565b60008151808452612047816020860160208601612003565b601f01601f19169290920160200192915050565b602081526000610ba7602083018461202f565b60006020828403121561208057600080fd5b5035919050565b80356001600160a01b038116811461171357600080fd5b600080604083850312156120b157600080fd5b6120ba83612087565b946020939093013593505050565b6000806000606084860312156120dd57600080fd5b6120e684612087565b92506120f460208501612087565b9150604084013590509250925092565b6000806040838503121561211757600080fd5b50508035926020909101359150565b60006020828403121561213857600080fd5b610ba782612087565b60008083601f84011261215357600080fd5b50813567ffffffffffffffff81111561216b57600080fd5b60208301915083602082850101111561218357600080fd5b9250929050565b600080600080606085870312156121a057600080fd5b843567ffffffffffffffff8111156121b757600080fd5b6121c387828801612141565b90955093506121d6905060208601612087565b91506121e460408601612087565b905092959194509250565b6000806000806000806080878903121561220857600080fd5b863567ffffffffffffffff8082111561222057600080fd5b61222c8a838b01612141565b9098509650602089013591508082111561224557600080fd5b5061225289828a01612141565b9095509350612265905060408801612087565b9150606087013590509295509295509295565b60008060006040848603121561228d57600080fd5b833567ffffffffffffffff8111156122a457600080fd5b6122b086828701612141565b909790965060209590950135949350505050565b600080604083850312156122d757600080fd5b6122e083612087565b9150602083013580151581146122f557600080fd5b809150509250929050565b634e487b7160e01b600052604160045260246000fd5b600067ffffffffffffffff8084111561233157612331612300565b604051601f8501601f19908116603f0116810190828211818310171561235957612359612300565b8160405280935085815286868601111561237257600080fd5b858560208301376000602087830101525050509392505050565b600080600080608085870312156123a257600080fd5b6123ab85612087565b93506123b960208601612087565b925060408501359150606085013567ffffffffffffffff8111156123dc57600080fd5b8501601f810187136123ed57600080fd5b6123fc87823560208401612316565b91505092959194509250565b60006020828403121561241a57600080fd5b813567ffffffffffffffff81111561243157600080fd5b8201601f8101841361244257600080fd5b61145d84823560208401612316565b6000806040838503121561246457600080fd5b61246d83612087565b915061083760208401612087565b600181811c9082168061248f57607f821691505b602082108103610c0557634e487b7160e01b600052602260045260246000fd5b60208082526031908201527f4552433732313a207472616e736665722063616c6c6572206973206e6f74206f6040820152701ddb995c881b9bdc88185c1c1c9bdd9959607a1b606082015260800190565b6020808252818101527f4f776e61626c653a2063616c6c6572206973206e6f7420746865206f776e6572604082015260600190565b6020808252601e908201527f436f6e7472616374206d757374206e6f742062652064697361626c65642e0000604082015260600190565b634e487b7160e01b600052601160045260246000fd5b600082198211156125955761259561256c565b500190565b6000828210156125ac576125ac61256c565b500390565b601f82111561075d57600081815260208120601f850160051c810160208610156125d85750805b601f850160051c820191505b818110156125f7578281556001016125e4565b505050505050565b815167ffffffffffffffff81111561261957612619612300565b61262d81612627845461247b565b846125b1565b602080601f831160018114612662576000841561264a5750858301515b600019600386901b1c1916600185901b1785556125f7565b600085815260208120601f198616915b8281101561269157888601518255948401946001909101908401612672565b50858210156126af5787850151600019600388901b60f8161c191681555b5050505050600190811b01905550565b600083516126d1818460208801612003565b602f60f81b90830190815283516126ef816001840160208801612003565b64173539b7b760d91b60019290910191820152600601949350505050565b634e487b7160e01b600052603260045260246000fd5b6000600182016127355761273561256c565b5060010190565b60008160001904831182151516156127565761275661256c565b500290565b634e487b7160e01b600052601260045260246000fd5b6000826127805761278061275b565b500490565b6020808252602e908201527f496e697469616c697a61626c653a20636f6e747261637420697320616c72656160408201526d191e481a5b9a5d1a585b1a5e995960921b606082015260800190565b6020808252602b908201527f496e697469616c697a61626c653a20636f6e7472616374206973206e6f74206960408201526a6e697469616c697a696e6760a81b606082015260800190565b60208082526032908201527f4552433732313a207472616e7366657220746f206e6f6e20455243373231526560408201527131b2b4bb32b91034b6b83632b6b2b73a32b960711b606082015260800190565b60008261287f5761287f61275b565b500690565b6001600160a01b03858116825284166020820152604081018390526080606082018190526000906116819083018461202f565b6000602082840312156128c957600080fd5b8151610ba781611fd056fea264697066735822122014f81705c9f0ffc17ea64790d7023ee26d60862cd9e94c2a934ac560aeab1a1764736f6c634300080f0033",
    "linkReferences": {}
  },
  "methodIdentifiers": {
    "addNewToken(string)": "d9856c21",
    "approve(address,uint256)": "095ea7b3",
    "balanceOf(address)": "70a08231",
    "batchMint(string,uint256)": "7cc918d1",
    "burn(uint256)": "42966c68",
    "deleteToken(uint256)": "6297c16c",
    "disableContract()": "894ba833",
    "disabled()": "ee070805",
    "getApproved(uint256)": "081812fc",
    "getDefaultRoyaltyPercentage()": "ab69607a",
    "getDefaultRoyaltyReceiver()": "3403c4e9",
    "init(string,string,address,uint256)": "5edc7c19",
    "isApprovedForAll(address,address)": "e985e9c5",
    "maxTokens()": "e8315742",
    "mintTo(string,address,address)": "4aa52c41",
    "name()": "06fdde03",
    "owner()": "8da5cb5b",
    "ownerOf(uint256)": "6352211e",
    "renounceOwnership()": "715018a6",
    "royaltyInfo(uint256,uint256)": "2a55205a",
    "safeTransferFrom(address,address,uint256)": "42842e0e",
    "safeTransferFrom(address,address,uint256,bytes)": "b88d4fde",
    "setApprovalForAll(address,bool)": "a22cb465",
    "setDefaultRoyaltyReceiver(address)": "3ebc82c5",
    "setRoyaltyReceiverForToken(address,uint256)": "efc32cd4",
    "supportsInterface(bytes4)": "01ffc9a7",
    "symbol()": "95d89b41",
    "tokenCreator(uint256)": "40c1a064",
    "tokenURI(uint256)": "c87b56dd",
    "totalSupply()": "18160ddd",
    "transferFrom(address,address,uint256)": "23b872dd",
    "transferOwnership(address)": "f2fde38b"
  },
  "id": 59
}