{
  "abi": [
    {
      "inputs": [
        {
          "internalType": "address",
          "name": "_marketplaceSettings",
          "type": "address"
        }
      ],
      "stateMutability": "nonpayable",
      "type": "constructor"
    },
    {
      "anonymous": false,
      "inputs": [
        {
          "indexed": true,
          "internalType": "address",
          "name": "previousOwner",
          "type": "address"
        },
        {
          "indexed": true,
          "internalType": "address",
          "name": "newOwner",
          "type": "address"
        }
      ],
      "name": "OwnershipTransferred",
      "type": "event"
    },
    {
      "anonymous": false,
      "inputs": [
        {
          "indexed": true,
          "internalType": "address",
          "name": "contractAddress",
          "type": "address"
        },
        {
          "indexed": true,
          "internalType": "address",
          "name": "owner",
          "type": "address"
        }
      ],
      "name": "SovereignNFTContractCreated",
      "type": "event"
    },
    {
      "inputs": [],
      "name": "ROYALTY_GUARD",
      "outputs": [
        {
          "internalType": "bytes32",
          "name": "",
          "type": "bytes32"
        }
      ],
      "stateMutability": "view",
      "type": "function"
    },
    {
      "inputs": [],
      "name": "ROYALTY_GUARD_DEADMAN",
      "outputs": [
        {
          "internalType": "bytes32",
          "name": "",
          "type": "bytes32"
        }
      ],
      "stateMutability": "view",
      "type": "function"
    },
    {
      "inputs": [],
      "name": "SOVEREIGN_NFT",
      "outputs": [
        {
          "internalType": "bytes32",
          "name": "",
          "type": "bytes32"
        }
      ],
      "stateMutability": "view",
      "type": "function"
    },
    {
      "inputs": [
        {
          "internalType": "string",
          "name": "_name",
          "type": "string"
        },
        {
          "internalType": "string",
          "name": "_symbol",
          "type": "string"
        }
      ],
      "name": "createSovereignNFTContract",
      "outputs": [
        {
          "internalType": "address",
          "name": "",
          "type": "address"
        }
      ],
      "stateMutability": "nonpayable",
      "type": "function"
    },
    {
      "inputs": [
        {
          "internalType": "string",
          "name": "_name",
          "type": "string"
        },
        {
          "internalType": "string",
          "name": "_symbol",
          "type": "string"
        },
        {
          "internalType": "uint256",
          "name": "_maxTokens",
          "type": "uint256"
        },
        {
          "internalType": "bytes32",
          "name": "_contractType",
          "type": "bytes32"
        }
      ],
      "name": "createSovereignNFTContract",
      "outputs": [
        {
          "internalType": "address",
          "name": "",
          "type": "address"
        }
      ],
      "stateMutability": "nonpayable",
      "type": "function"
    },
    {
      "inputs": [
        {
          "internalType": "string",
          "name": "_name",
          "type": "string"
        },
        {
          "internalType": "string",
          "name": "_symbol",
          "type": "string"
        },
        {
          "internalType": "uint256",
          "name": "_maxTokens",
          "type": "uint256"
        }
      ],
      "name": "createSovereignNFTContract",
      "outputs": [
        {
          "internalType": "address",
          "name": "",
          "type": "address"
        }
      ],
      "stateMutability": "nonpayable",
      "type": "function"
    },
    {
      "inputs": [],
      "name": "marketplaceSettings",
      "outputs": [
        {
          "internalType": "contract IMarketplaceSettings",
          "name": "",
          "type": "address"
        }
      ],
      "stateMutability": "view",
      "type": "function"
    },
    {
      "inputs": [],
      "name": "owner",
      "outputs": [
        {
          "internalType": "address",
          "name": "",
          "type": "address"
        }
      ],
      "stateMutability": "view",
      "type": "function"
    },
    {
      "inputs": [],
      "name": "renounceOwnership",
      "outputs": [],
      "stateMutability": "nonpayable",
      "type": "function"
    },
    {
      "inputs": [
        {
          "internalType": "address",
          "name": "_marketplaceSettings",
          "type": "address"
        }
      ],
      "name": "setMarketplaceSettings",
      "outputs": [],
      "stateMutability": "nonpayable",
      "type": "function"
    },
    {
      "inputs": [
        {
          "internalType": "address",
          "name": "_sovereignNFT",
          "type": "address"
        }
      ],
      "name": "setSovereignNFT",
      "outputs": [],
      "stateMutability": "nonpayable",
      "type": "function"
    },
    {
      "inputs": [
        {
          "internalType": "address",
          "name": "_sovereignNFT",
          "type": "address"
        },
        {
          "internalType": "bytes32",
          "name": "_contractType",
          "type": "bytes32"
        }
      ],
      "name": "setSovereignNFT",
      "outputs": [],
      "stateMutability": "nonpayable",
      "type": "function"
    },
    {
      "inputs": [],
      "name": "sovereignNFT",
      "outputs": [
        {
          "internalType": "address",
          "name": "",
          "type": "address"
        }
      ],
      "stateMutability": "view",
      "type": "function"
    },
    {
      "inputs": [],
      "name": "sovereignNFTRoyaltyGuard",
      "outputs": [
        {
          "internalType": "address",
          "name": "",
          "type": "address"
        }
      ],
      "stateMutability": "view",
      "type": "function"
    },
    {
      "inputs": [],
      "name": "sovereignNFTRoyaltyGuardDeadmanTrigger",
      "outputs": [
        {
          "internalType": "address",
          "name": "",
          "type": "address"
        }
      ],
      "stateMutability": "view",
      "type": "function"
    },
    {
      "inputs": [
        {
          "internalType": "address",
          "name": "newOwner",
          "type": "address"
        }
      ],
      "name": "transferOwnership",
      "outputs": [],
      "stateMutability": "nonpayable",
      "type": "function"
    }
  ],
  "bytecode": {
    "object": "0x60806040523480156200001157600080fd5b506040516200a4de3803806200a4de833981016040819052620000349162000249565b6200003f33620001cf565b6001600160a01b038116620000c05760405162461bcd60e51b815260206004820152603960248201527f636f6e7374727563746f723a3a5f6d61726b6574706c61636553657474696e6760448201527f732063616e6e6f74206265207a65726f20616464726573732e00000000000000606482015260840160405180910390fd5b600180546001600160a01b0319166001600160a01b038316179055604051600090620000ec906200021f565b604051809103906000f08015801562000109573d6000803e3d6000fd5b50600280546001600160a01b0319166001600160a01b03831617905560405190915060009062000139906200022d565b604051809103906000f08015801562000156573d6000803e3d6000fd5b50600380546001600160a01b0319166001600160a01b03831617905560405190915060009062000186906200023b565b604051809103906000f080158015620001a3573d6000803e3d6000fd5b50600480546001600160a01b0319166001600160a01b0392909216919091179055506200027b92505050565b600080546001600160a01b038381166001600160a01b0319831681178455604051919092169283917f8be0079c531659141344cd1fd0a4f28419497f9722a3daafe3b4186f6b6457e09190a35050565b61292a80620011f083390190565b6134498062003b1a83390190565b61357b8062006f6383390190565b6000602082840312156200025c57600080fd5b81516001600160a01b03811681146200027457600080fd5b9392505050565b610f65806200028b6000396000f3fe608060405234801561001057600080fd5b50600436106101005760003560e01c8063ba50b63211610097578063da8d79f311610066578063da8d79f31461020d578063ea14289f14610220578063ef6fde5b14610237578063f2fde38b1461025657600080fd5b8063ba50b632146101c1578063c9be0590146101d4578063d05df883146101e7578063d1e0f700146101fa57600080fd5b8063877ebf51116100d3578063877ebf51146101775780638da5cb5b1461018a5780639607cb491461019b578063a55b1c25146101ae57600080fd5b8063176ab440146101055780633cebcf411461011a578063715018a61461014a5780637de4c08214610152575b600080fd5b610118610113366004610be4565b610269565b005b61012d610128366004610ca9565b6102d1565b6040516001600160a01b0390911681526020015b60405180910390f35b610118610404565b6101696c1493d65053151657d1d5505491609a1b81565b604051908152602001610141565b61012d610185366004610d0d565b61043a565b6000546001600160a01b031661012d565b6101186101a9366004610be4565b610752565b6101186101bc366004610d81565b6107b1565b60015461012d906001600160a01b031681565b60035461012d906001600160a01b031681565b60025461012d906001600160a01b031681565b60045461012d906001600160a01b031681565b61012d61021b366004610dab565b6108f4565b6101696c14d3d59154915251d397d39195609a1b81565b610169742927aca0a62a2cafa3aaa0a9222fa222a0a226a0a760591b81565b610118610264366004610be4565b610a46565b6000546001600160a01b0316331461029c5760405162461bcd60e51b815260040161029390610e18565b60405180910390fd5b6001600160a01b0381166102af57600080fd5b600180546001600160a01b0319166001600160a01b0392909216919091179055565b60025460009081906102eb906001600160a01b0316610ae1565b604051635edc7c1960e01b81529091506001600160a01b03821690635edc7c19906103229087908790339060001990600401610e9a565b600060405180830381600087803b15801561033c57600080fd5b505af1158015610350573d6000803e3d6000fd5b50506040513392506001600160a01b03841691507f46dd19b0bfeba14ab8b9e9c9e4179a2f8a3ba70420a845ea8da585dd8e59eeec90600090a360015460405163ae312a9760e01b81526001600160a01b038381166004830152600f60248301529091169063ae312a9790604401600060405180830381600087803b1580156103d857600080fd5b505af11580156103ec573d6000803e3d6000fd5b50506002546001600160a01b03169695505050505050565b6000546001600160a01b0316331461042e5760405162461bcd60e51b815260040161029390610e18565b6104386000610b7d565b565b60008260000361045c5760405162461bcd60e51b815260040161029390610edc565b60006c14d3d59154915251d397d39195609a1b83036104f25760025461048a906001600160a01b0316610ae1565b604051635edc7c1960e01b81529091506001600160a01b03821690635edc7c19906104bf908990899033908a90600401610e9a565b600060405180830381600087803b1580156104d957600080fd5b505af11580156104ed573d6000803e3d6000fd5b505050505b6c1493d65053151657d1d5505491609a1b83036105865760035461051e906001600160a01b0316610ae1565b604051635edc7c1960e01b81529091506001600160a01b03821690635edc7c1990610553908990899033908a90600401610e9a565b600060405180830381600087803b15801561056d57600080fd5b505af1158015610581573d6000803e3d6000fd5b505050505b742927aca0a62a2cafa3aaa0a9222fa222a0a226a0a760591b8303610622576004546105ba906001600160a01b0316610ae1565b604051635edc7c1960e01b81529091506001600160a01b03821690635edc7c19906105ef908990899033908a90600401610e9a565b600060405180830381600087803b15801561060957600080fd5b505af115801561061d573d6000803e3d6000fd5b505050505b6001600160a01b0381166106ac5760405162461bcd60e51b8152602060048201526044602482018190527f637265617465536f7665726569676e4e4654436f6e74726163743a3a5f636f6e908201527f74726163745479706520756e737570706f7274656420636f6e747261637420746064820152633cb8329760e11b608482015260a401610293565b60405133906001600160a01b038316907f46dd19b0bfeba14ab8b9e9c9e4179a2f8a3ba70420a845ea8da585dd8e59eeec90600090a360015460405163ae312a9760e01b81526001600160a01b038381166004830152600f60248301529091169063ae312a9790604401600060405180830381600087803b15801561073057600080fd5b505af1158015610744573d6000803e3d6000fd5b509298975050505050505050565b6000546001600160a01b0316331461077c5760405162461bcd60e51b815260040161029390610e18565b6001600160a01b03811661078f57600080fd5b600280546001600160a01b0319166001600160a01b0392909216919091179055565b6000546001600160a01b031633146107db5760405162461bcd60e51b815260040161029390610e18565b6001600160a01b0382166107ee57600080fd5b6c14d3d59154915251d397d39195609a1b810361082457600280546001600160a01b0319166001600160a01b0384161790555050565b6c1493d65053151657d1d5505491609a1b810361085a57600380546001600160a01b0319166001600160a01b0384161790555050565b742927aca0a62a2cafa3aaa0a9222fa222a0a226a0a760591b810361089857600480546001600160a01b0319166001600160a01b0384161790555050565b60405162461bcd60e51b815260206004820152602b60248201527f736574536f7665726569676e4e46543a3a556e737570706f72746564205f636f60448201526a373a3930b1ba2a3cb8329760a91b6064820152608401610293565b6000816000036109165760405162461bcd60e51b815260040161029390610edc565b60025460009061092e906001600160a01b0316610ae1565b604051635edc7c1960e01b81529091506001600160a01b03821690635edc7c1990610963908890889033908990600401610e9a565b600060405180830381600087803b15801561097d57600080fd5b505af1158015610991573d6000803e3d6000fd5b50506040513392506001600160a01b03841691507f46dd19b0bfeba14ab8b9e9c9e4179a2f8a3ba70420a845ea8da585dd8e59eeec90600090a360015460405163ae312a9760e01b81526001600160a01b038381166004830152600f60248301529091169063ae312a9790604401600060405180830381600087803b158015610a1957600080fd5b505af1158015610a2d573d6000803e3d6000fd5b50506002546001600160a01b0316979650505050505050565b6000546001600160a01b03163314610a705760405162461bcd60e51b815260040161029390610e18565b6001600160a01b038116610ad55760405162461bcd60e51b815260206004820152602660248201527f4f776e61626c653a206e6577206f776e657220697320746865207a65726f206160448201526564647265737360d01b6064820152608401610293565b610ade81610b7d565b50565b600060405172602d8060093d393df3363d3d373d3d3d363d7360681b81528260601b60138201526e5af43d82803e903d91602b57fd5bf360881b60278201526036816000f09150506001600160a01b038116610b785760405162461bcd60e51b8152602060048201526016602482015275115490cc4c4d8dce8818dc99585d194819985a5b195960521b6044820152606401610293565b919050565b600080546001600160a01b038381166001600160a01b0319831681178455604051919092169283917f8be0079c531659141344cd1fd0a4f28419497f9722a3daafe3b4186f6b6457e09190a35050565b80356001600160a01b0381168114610b7857600080fd5b600060208284031215610bf657600080fd5b610bff82610bcd565b9392505050565b634e487b7160e01b600052604160045260246000fd5b600082601f830112610c2d57600080fd5b813567ffffffffffffffff80821115610c4857610c48610c06565b604051601f8301601f19908116603f01168101908282118183101715610c7057610c70610c06565b81604052838152866020858801011115610c8957600080fd5b836020870160208301376000602085830101528094505050505092915050565b60008060408385031215610cbc57600080fd5b823567ffffffffffffffff80821115610cd457600080fd5b610ce086838701610c1c565b93506020850135915080821115610cf657600080fd5b50610d0385828601610c1c565b9150509250929050565b60008060008060808587031215610d2357600080fd5b843567ffffffffffffffff80821115610d3b57600080fd5b610d4788838901610c1c565b95506020870135915080821115610d5d57600080fd5b50610d6a87828801610c1c565b949794965050505060408301359260600135919050565b60008060408385031215610d9457600080fd5b610d9d83610bcd565b946020939093013593505050565b600080600060608486031215610dc057600080fd5b833567ffffffffffffffff80821115610dd857600080fd5b610de487838801610c1c565b94506020860135915080821115610dfa57600080fd5b50610e0786828701610c1c565b925050604084013590509250925092565b6020808252818101527f4f776e61626c653a2063616c6c6572206973206e6f7420746865206f776e6572604082015260600190565b6000815180845260005b81811015610e7357602081850181015186830182015201610e57565b81811115610e85576000602083870101525b50601f01601f19169290920160200192915050565b608081526000610ead6080830187610e4d565b8281036020840152610ebf8187610e4d565b6001600160a01b0395909516604084015250506060015292915050565b60208082526033908201527f637265617465536f7665726569676e4e4654436f6e74726163743a3a5f6d6178604082015272546f6b656e732063616e74206265207a65726f60681b60608201526080019056fea2646970667358221220879b31feef61fe49b423a03ff2ce2d0f0afff7fef169979b6a6d045c5372029564736f6c634300080f0033608060405234801561001057600080fd5b5061290a806100206000396000f3fe608060405234801561001057600080fd5b50600436106101f05760003560e01c806370a082311161010f578063b88d4fde116100a2578063e985e9c511610071578063e985e9c514610423578063ee0708051461045f578063efc32cd41461046b578063f2fde38b1461047e57600080fd5b8063b88d4fde146103e0578063c87b56dd146103f3578063d9856c2114610406578063e83157421461041957600080fd5b80638da5cb5b116100de5780638da5cb5b146103ac57806395d89b41146103bd578063a22cb465146103c5578063ab69607a146103d857600080fd5b806370a0823114610376578063715018a6146103895780637cc918d114610391578063894ba833146103a457600080fd5b80633ebc82c5116101875780634aa52c41116101565780634aa52c411461032a5780635edc7c191461033d5780636297c16c146103505780636352211e1461036357600080fd5b80633ebc82c5146102de57806340c1a064146102f157806342842e0e1461030457806342966c681461031757600080fd5b806318160ddd116101c357806318160ddd1461027257806323b872dd146102885780632a55205a1461029b5780633403c4e9146102cd57600080fd5b806301ffc9a7146101f557806306fdde031461021d578063081812fc14610232578063095ea7b31461025d575b600080fd5b610208610203366004611fe6565b610491565b60405190151581526020015b60405180910390f35b6102256104da565b604051610214919061205b565b61024561024036600461206e565b61056c565b6040516001600160a01b039091168152602001610214565b61027061026b36600461209e565b61064d565b005b61027a610762565b604051908152602001610214565b6102706102963660046120c8565b610773565b6102ae6102a9366004612104565b6107a5565b604080516001600160a01b039093168352602083019190915201610214565b60fb546001600160a01b0316610245565b6102706102ec366004612126565b610840565b6102456102ff36600461206e565b610876565b6102706103123660046120c8565b61088a565b61027061032536600461206e565b6108a5565b61027061033836600461218a565b610906565b61027061034b3660046121ef565b61099f565b61027061035e36600461206e565b610b1f565b61024561037136600461206e565b610b89565b61027a610384366004612126565b610c0b565b610270610c91565b61027061039f366004612278565b610cc7565b610270610eaa565b6033546001600160a01b0316610245565b610225610f0e565b6102706103d33660046122c4565b610f1d565b60fc5461027a565b6102706103ee36600461238c565b610f28565b61022561040136600461206e565b610f60565b610270610414366004612408565b61104c565b61027a6101005481565b610208610431366004612451565b6001600160a01b039182166000908152609c6020908152604080832093909416825291909152205460ff1690565b60ff8054610208911681565b61027061047936600461209e565b6110ad565b61027061048c366004612126565b611105565b60006001600160e01b03198216631030681960e21b14806104b657506104b68261119d565b806104c557506104c5826111b3565b806104d457506104d4826111d4565b92915050565b6060609780546104e99061247b565b80601f01602080910402602001604051908101604052809291908181526020018280546105159061247b565b80156105625780601f1061053757610100808354040283529160200191610562565b820191906000526020600020905b81548152906001019060200180831161054557829003601f168201915b5050505050905090565b600081815260fd60205260408120546001600160a01b03168161058e84611214565b50509050600081806105a857506001600160a01b03831615155b80156105c457506000858152610102602052604090205460ff16155b90508061062d5760405162461bcd60e51b815260206004820152602c60248201527f4552433732313a20617070726f76656420717565727920666f72206e6f6e657860448201526b34b9ba32b73a103a37b5b2b760a11b60648201526084015b60405180910390fd5b50505060009182525061010360205260409020546001600160a01b031690565b600061065882610b89565b9050806001600160a01b0316836001600160a01b0316036106c55760405162461bcd60e51b815260206004820152602160248201527f4552433732313a20617070726f76616c20746f2063757272656e74206f776e656044820152603960f91b6064820152608401610624565b336001600160a01b03821614806106e157506106e18133610431565b6107535760405162461bcd60e51b815260206004820152603860248201527f4552433732313a20617070726f76652063616c6c6572206973206e6f74206f7760448201527f6e6572206e6f7220617070726f76656420666f7220616c6c00000000000000006064820152608401610624565b61075d8383611377565b505050565b600061076e6101045490565b905090565b61077e335b826113e6565b61079a5760405162461bcd60e51b8152600401610624906124af565b61075d838383611465565b600082815260fd602052604081205481906001600160a01b03166107d45760fb546001600160a01b03166107ed565b600084815260fd60205260409020546001600160a01b03165b9150610837606461083160fe60008881526020019081526020016000205460000361081a5760fc5461082a565b600087815260fe60205260409020545b86906114d9565b906114e5565b90509250929050565b6033546001600160a01b0316331461086a5760405162461bcd60e51b815260040161062490612500565b610873816114f1565b50565b60006104d46033546001600160a01b031690565b61075d83838360405180602001604052806000815250610f28565b60006108b082611214565b5050600083815261010260205260409020805460ff1916600117905590508080156108f057506000828152609960205260409020546001600160a01b0316155b156108f9575050565b61090282611513565b5050565b6033546001600160a01b031633146109305760405162461bcd60e51b815260040161062490612500565b60ff805416156109525760405162461bcd60e51b815260040161062490612535565b61099884848080601f0160208091040260200160405190810160405280939291908181526020018383808284376000920191909152505060fc543392508691508561158a565b5050505050565b60006109ab600161168b565b905080156109c3576000805461ff0019166101001790555b6001600160a01b038316610a195760405162461bcd60e51b815260206004820152601e60248201527f63726561746f722063616e6e6f74206265206e756c6c206164647265737300006044820152606401610624565b610a23600a60fc55565b60ff805460ff19169055610100829055610a3b611718565b610aae87878080601f01602080910402602001604051908101604052809392919081815260200183838082843760009201919091525050604080516020601f8b01819004810282018101909252898152925089915088908190840183828082843760009201919091525061174792505050565b610ab6611778565b610abe61179f565b610ac7836114f1565b610ad083611105565b8015610b16576000805461ff0019169055604051600181527f7f26b83ff96e1f2b6a682f133852f6798a09c465da95921460cefb38474024989060200160405180910390a15b50505050505050565b8033610b2a82610b89565b6001600160a01b031614610b805760405162461bcd60e51b815260206004820152601760248201527f4d757374206265206f776e6572206f6620746f6b656e2e0000000000000000006044820152606401610624565b610902826108a5565b600080610b9583611214565b5050905080610bae57610ba7836117ce565b9392505050565b6000838152610102602052604090205460ff1615610bcf57610ba7836117ce565b6000838152609960205260409020546001600160a01b0316610bfc576033546001600160a01b0316610ba7565b610ba7836117ce565b50919050565b60006001600160a01b038216610c755760405162461bcd60e51b815260206004820152602960248201527f4552433732313a2061646472657373207a65726f206973206e6f7420612076616044820152683634b21037bbb732b960b91b6064820152608401610624565b506001600160a01b03166000908152609a602052604090205490565b6033546001600160a01b03163314610cbb5760405162461bcd60e51b815260040161062490612500565b610cc56000611845565b565b6033546001600160a01b03163314610cf15760405162461bcd60e51b815260040161062490612500565b60ff80541615610d135760405162461bcd60e51b815260040161062490612535565b6000610d1f6101045490565b610d2a906001612582565b905060006001610d3a8484612582565b610d44919061259a565b604080516020810190915281905261010481905561010054909150811115610dae5760405162461bcd60e51b815260206004820152601d60248201527f62617463684d696e743a3a6578636565646564206d6178546f6b656e730000006044820152606401610624565b610105604051806060016040528084815260200183815260200187878080601f0160208091040260200160405190810160405280939291908181526020018383808284376000920182905250939094525050835460018181018655948252602091829020845160039092020190815590830151938101939093555060408101519091906002820190610e4090826125ff565b505050610e556033546001600160a01b031690565b6001600160a01b031660006001600160a01b0316837fdeaa91b6123d068f5821d0fb0678463d1a8a6079fe8af5de3ce5e896dcf9133d84604051610e9b91815260200190565b60405180910390a45050505050565b6033546001600160a01b03163314610ed45760405162461bcd60e51b815260040161062490612500565b60ff805460ff1916600117905560405133907f793bc6423dd0257d64f9d47db72fd4b2162f4541aa41740ba1c5fb5e2cd41bcd90600090a2565b6060609880546104e99061247b565b610902338383611897565b610f3233836113e6565b610f4e5760405162461bcd60e51b8152600401610624906124af565b610f5a84848484611965565b50505050565b6060600080610f6e84611214565b925050915081611019576000848152610106602052604090208054610f929061247b565b80601f0160208091040260200160405190810160405280929190818152602001828054610fbe9061247b565b801561100b5780601f10610fe05761010080835404028352916020019161100b565b820191906000526020600020905b815481529060010190602001808311610fee57829003601f168201915b505050505092505050919050565b8061102385611998565b6040516020016110349291906126bf565b60405160208183030381529060405292505050919050565b6033546001600160a01b031633146110765760405162461bcd60e51b815260040161062490612500565b60ff805416156110985760405162461bcd60e51b815260040161062490612535565b6109028133336110a760fc5490565b3361158a565b6033546001600160a01b031633146110d75760405162461bcd60e51b815260040161062490612500565b600090815260fd6020526040902080546001600160a01b0319166001600160a01b0392909216919091179055565b6033546001600160a01b0316331461112f5760405162461bcd60e51b815260040161062490612500565b6001600160a01b0381166111945760405162461bcd60e51b815260206004820152602660248201527f4f776e61626c653a206e6577206f776e657220697320746865207a65726f206160448201526564647265737360d01b6064820152608401610624565b61087381611845565b6001600160e01b0319166301ffc9a760e01b1490565b60006001600160e01b0319821663152a902d60e11b14806104d457506104d4825b60006001600160e01b031982166380ac58cd60e01b148061120557506001600160e01b03198216635b5e139f60e01b145b806104d457506104d48261119d565b600080606060005b6101055481101561135857610105818154811061123b5761123b61270d565b90600052602060002090600302016000015485101580156112815750610105818154811061126b5761126b61270d565b9060005260206000209060030201600101548511155b1561134657600181610105838154811061129d5761129d61270d565b90600052602060002090600302016002018080546112ba9061247b565b80601f01602080910402602001604051908101604052809291908181526020018280546112e69061247b565b80156113335780601f1061130857610100808354040283529160200191611333565b820191906000526020600020905b81548152906001019060200180831161131657829003601f168201915b5050505050905093509350935050611370565b8061135081612723565b91505061121c565b50506040805160208101909152600080825292508291505b9193909250565b60008181526101036020526040902080546001600160a01b0319166001600160a01b03841690811790915581906113ad826117ce565b6001600160a01b03167f8c5be1e5ebec7d5bd14f71427d1e84f3dd0314c0f7b2291e5b200ac8c7c3b92560405160405180910390a45050565b6000806113f283610b89565b9050806001600160a01b0316846001600160a01b0316148061142d5750836001600160a01b03166114228461056c565b6001600160a01b0316145b8061145d57506001600160a01b038082166000908152609c602090815260408083209388168352929052205460ff165b949350505050565b8060000361147257600080fd5b600061147d82611214565b505090508080156114a357506000828152609960205260409020546001600160a01b0316155b80156114bf57506000828152610102602052604090205460ff16155b156114ce576114ce8483611a99565b610f5a848484611bdb565b6000610ba7828461273c565b6000610ba78284612771565b60fb80546001600160a01b0319166001600160a01b0392909216919091179055565b61151c33610778565b6115815760405162461bcd60e51b815260206004820152603060248201527f4552433732314275726e61626c653a2063616c6c6572206973206e6f74206f7760448201526f1b995c881b9bdc88185c1c1c9bdd995960821b6064820152608401610624565b61087381611d77565b600061159b61010480546001019055565b60006115a76101045490565b9050610100548111156115fc5760405162461bcd60e51b815260206004820181905260248201527f5f637265617465546f6b656e3a3a6578636565646564206d6178546f6b656e736044820152606401610624565b6116068582611e12565b60008181526101066020526040902061161f88826125ff565b5060008181526101016020526040902080546001600160a01b0319166001600160a01b038816179055600081815260fe60205260409020849055600081815260fd6020526040902080546001600160a01b0319166001600160a01b0385161790555b9695505050505050565b60008054610100900460ff16156116d2578160ff1660011480156116ae5750303b155b6116ca5760405162461bcd60e51b815260040161062490612785565b506000919050565b60005460ff8084169116106116f95760405162461bcd60e51b815260040161062490612785565b506000805460ff191660ff92909216919091179055600190565b919050565b600054610100900460ff1661173f5760405162461bcd60e51b8152600401610624906127d3565b610cc5611e2c565b600054610100900460ff1661176e5760405162461bcd60e51b8152600401610624906127d3565b6109028282611e5c565b600054610100900460ff16610cc55760405162461bcd60e51b8152600401610624906127d3565b600054610100900460ff166117c65760405162461bcd60e51b8152600401610624906127d3565b610cc5611778565b6000818152609960205260408120546001600160a01b0316806104d45760405162461bcd60e51b815260206004820152602960248201527f4552433732313a206f776e657220717565727920666f72206e6f6e657869737460448201526832b73a103a37b5b2b760b91b6064820152608401610624565b603380546001600160a01b038381166001600160a01b0319831681179093556040519116919082907f8be0079c531659141344cd1fd0a4f28419497f9722a3daafe3b4186f6b6457e090600090a35050565b816001600160a01b0316836001600160a01b0316036118f85760405162461bcd60e51b815260206004820152601960248201527f4552433732313a20617070726f766520746f2063616c6c6572000000000000006044820152606401610624565b6001600160a01b038381166000818152609c6020908152604080832094871680845294825291829020805460ff191686151590811790915591519182527f17307eab39ab6107e8899845ad3d59bd9653f200f220920489ca2b5937696c31910160405180910390a3505050565b611970848484611465565b61197c84848484611e9c565b610f5a5760405162461bcd60e51b81526004016106249061281e565b6060816000036119bf5750506040805180820190915260018152600360fc1b602082015290565b8160005b81156119e957806119d381612723565b91506119e29050600a83612771565b91506119c3565b60008167ffffffffffffffff811115611a0457611a04612300565b6040519080825280601f01601f191660200182016040528015611a2e576020820181803683370190505b5090505b841561145d57611a4360018361259a565b9150611a50600a86612870565b611a5b906030612582565b60f81b818381518110611a7057611a7061270d565b60200101906001600160f81b031916908160001a905350611a92600a86612771565b9450611a32565b6001600160a01b038216611aef5760405162461bcd60e51b815260206004820181905260248201527f4552433732313a206d696e7420746f20746865207a65726f20616464726573736044820152606401610624565b6000818152609960205260409020546001600160a01b031615611b545760405162461bcd60e51b815260206004820152601c60248201527f4552433732313a20746f6b656e20616c7265616479206d696e746564000000006044820152606401610624565b6001600160a01b0382166000908152609a60205260408120805460019290611b7d908490612582565b909155505060008181526099602052604080822080546001600160a01b0319166001600160a01b03861690811790915590518392907fddf252ad1be2c89b69c2b068fc378daa952ba7f163c4a11628f55a4df523b3ef908290a45050565b826001600160a01b0316611bee826117ce565b6001600160a01b031614611c525760405162461bcd60e51b815260206004820152602560248201527f4552433732313a207472616e736665722066726f6d20696e636f72726563742060448201526437bbb732b960d91b6064820152608401610624565b6001600160a01b038216611cb45760405162461bcd60e51b8152602060048201526024808201527f4552433732313a207472616e7366657220746f20746865207a65726f206164646044820152637265737360e01b6064820152608401610624565b611cbf600082611377565b6001600160a01b0383166000908152609a60205260408120805460019290611ce890849061259a565b90915550506001600160a01b0382166000908152609a60205260408120805460019290611d16908490612582565b909155505060008181526099602052604080822080546001600160a01b0319166001600160a01b0386811691821790925591518493918716917fddf252ad1be2c89b69c2b068fc378daa952ba7f163c4a11628f55a4df523b3ef91a4505050565b6000611d82826117ce565b9050611d8f600083611377565b6001600160a01b0381166000908152609a60205260408120805460019290611db890849061259a565b909155505060008281526099602052604080822080546001600160a01b0319169055518391906001600160a01b038416907fddf252ad1be2c89b69c2b068fc378daa952ba7f163c4a11628f55a4df523b3ef908390a45050565b610902828260405180602001604052806000815250611f9d565b600054610100900460ff16611e535760405162461bcd60e51b8152600401610624906127d3565b610cc533611845565b600054610100900460ff16611e835760405162461bcd60e51b8152600401610624906127d3565b6097611e8f83826125ff565b50609861075d82826125ff565b60006001600160a01b0384163b15611f9257604051630a85bd0160e11b81526001600160a01b0385169063150b7a0290611ee0903390899088908890600401612884565b6020604051808303816000875af1925050508015611f1b575060408051601f3d908101601f19168201909252611f18918101906128b7565b60015b611f78573d808015611f49576040519150601f19603f3d011682016040523d82523d6000602084013e611f4e565b606091505b508051600003611f705760405162461bcd60e51b81526004016106249061281e565b805181602001fd5b6001600160e01b031916630a85bd0160e11b14905061145d565b506001949350505050565b611fa78383611a99565b611fb46000848484611e9c565b61075d5760405162461bcd60e51b81526004016106249061281e565b6001600160e01b03198116811461087357600080fd5b600060208284031215611ff857600080fd5b8135610ba781611fd0565b60005b8381101561201e578181015183820152602001612006565b83811115610f5a5750506000910152565b60008151808452612047816020860160208601612003565b601f01601f19169290920160200192915050565b602081526000610ba7602083018461202f565b60006020828403121561208057600080fd5b5035919050565b80356001600160a01b038116811461171357600080fd5b600080604083850312156120b157600080fd5b6120ba83612087565b946020939093013593505050565b6000806000606084860312156120dd57600080fd5b6120e684612087565b92506120f460208501612087565b9150604084013590509250925092565b6000806040838503121561211757600080fd5b50508035926020909101359150565b60006020828403121561213857600080fd5b610ba782612087565b60008083601f84011261215357600080fd5b50813567ffffffffffffffff81111561216b57600080fd5b60208301915083602082850101111561218357600080fd5b9250929050565b600080600080606085870312156121a057600080fd5b843567ffffffffffffffff8111156121b757600080fd5b6121c387828801612141565b90955093506121d6905060208601612087565b91506121e460408601612087565b905092959194509250565b6000806000806000806080878903121561220857600080fd5b863567ffffffffffffffff8082111561222057600080fd5b61222c8a838b01612141565b9098509650602089013591508082111561224557600080fd5b5061225289828a01612141565b9095509350612265905060408801612087565b9150606087013590509295509295509295565b60008060006040848603121561228d57600080fd5b833567ffffffffffffffff8111156122a457600080fd5b6122b086828701612141565b909790965060209590950135949350505050565b600080604083850312156122d757600080fd5b6122e083612087565b9150602083013580151581146122f557600080fd5b809150509250929050565b634e487b7160e01b600052604160045260246000fd5b600067ffffffffffffffff8084111561233157612331612300565b604051601f8501601f19908116603f0116810190828211818310171561235957612359612300565b8160405280935085815286868601111561237257600080fd5b858560208301376000602087830101525050509392505050565b600080600080608085870312156123a257600080fd5b6123ab85612087565b93506123b960208601612087565b925060408501359150606085013567ffffffffffffffff8111156123dc57600080fd5b8501601f810187136123ed57600080fd5b6123fc87823560208401612316565b91505092959194509250565b60006020828403121561241a57600080fd5b813567ffffffffffffffff81111561243157600080fd5b8201601f8101841361244257600080fd5b61145d84823560208401612316565b6000806040838503121561246457600080fd5b61246d83612087565b915061083760208401612087565b600181811c9082168061248f57607f821691505b602082108103610c0557634e487b7160e01b600052602260045260246000fd5b60208082526031908201527f4552433732313a207472616e736665722063616c6c6572206973206e6f74206f6040820152701ddb995c881b9bdc88185c1c1c9bdd9959607a1b606082015260800190565b6020808252818101527f4f776e61626c653a2063616c6c6572206973206e6f7420746865206f776e6572604082015260600190565b6020808252601e908201527f436f6e7472616374206d757374206e6f742062652064697361626c65642e0000604082015260600190565b634e487b7160e01b600052601160045260246000fd5b600082198211156125955761259561256c565b500190565b6000828210156125ac576125ac61256c565b500390565b601f82111561075d57600081815260208120601f850160051c810160208610156125d85750805b601f850160051c820191505b818110156125f7578281556001016125e4565b505050505050565b815167ffffffffffffffff81111561261957612619612300565b61262d81612627845461247b565b846125b1565b602080601f831160018114612662576000841561264a5750858301515b600019600386901b1c1916600185901b1785556125f7565b600085815260208120601f198616915b8281101561269157888601518255948401946001909101908401612672565b50858210156126af5787850151600019600388901b60f8161c191681555b5050505050600190811b01905550565b600083516126d1818460208801612003565b602f60f81b90830190815283516126ef816001840160208801612003565b64173539b7b760d91b60019290910191820152600601949350505050565b634e487b7160e01b600052603260045260246000fd5b6000600182016127355761273561256c565b5060010190565b60008160001904831182151516156127565761275661256c565b500290565b634e487b7160e01b600052601260045260246000fd5b6000826127805761278061275b565b500490565b6020808252602e908201527f496e697469616c697a61626c653a20636f6e747261637420697320616c72656160408201526d191e481a5b9a5d1a585b1a5e995960921b606082015260800190565b6020808252602b908201527f496e697469616c697a61626c653a20636f6e7472616374206973206e6f74206960408201526a6e697469616c697a696e6760a81b606082015260800190565b60208082526032908201527f4552433732313a207472616e7366657220746f206e6f6e20455243373231526560408201527131b2b4bb32b91034b6b83632b6b2b73a32b960711b606082015260800190565b60008261287f5761287f61275b565b500690565b6001600160a01b03858116825284166020820152604081018390526080606082018190526000906116819083018461202f565b6000602082840312156128c957600080fd5b8151610ba781611fd056fea264697066735822122014f81705c9f0ffc17ea64790d7023ee26d60862cd9e94c2a934ac560aeab1a1764736f6c634300080f0033608060405234801561001057600080fd5b50613429806100206000396000f3fe608060405234801561001057600080fd5b50600436106102535760003560e01c806370a0823111610146578063b88d4fde116100c3578063e985e9c511610087578063e985e9c514610512578063eab8511814610525578063ee07080514610538578063efc32cd414610544578063f2fde38b14610557578063ff6e8c8f1461056a57600080fd5b8063b88d4fde146104bc578063bc719455146104cf578063c87b56dd146104e2578063d9856c21146104f5578063e83157421461050857600080fd5b80638da5cb5b1161010a5780638da5cb5b1461047557806395d89b41146104865780639e860f2a1461048e578063a22cb465146104a1578063ab69607a146104b457600080fd5b806370a082311461042b578063715018a61461043e5780637cc918d11461044657806387bc793f14610459578063894ba8331461046d57600080fd5b80633403c4e9116101d4578063472a663811610198578063472a6638146103cc5780634aa52c41146103df5780635edc7c19146103f25780636297c16c146104055780636352211e1461041857600080fd5b80633403c4e91461036f5780633ebc82c51461038057806340c1a0641461039357806342842e0e146103a657806342966c68146103b957600080fd5b806318160ddd1161021b57806318160ddd146102f9578063204274861461030f57806323b872dd146103225780632a55205a146103355780632ce878da1461036757600080fd5b8063012cf1e81461025857806301ffc9a71461028157806306fdde03146102a4578063081812fc146102b9578063095ea7b3146102e4575b600080fd5b61026b6102663660046129ad565b61057d565b60405161027891906129c8565b60405180910390f35b61029461028f366004612a2b565b6105c3565b6040519015158152602001610278565b6102ac6105dd565b6040516102789190612aa0565b6102cc6102c7366004612ab3565b61066f565b6040516001600160a01b039091168152602001610278565b6102f76102f2366004612ae3565b610750565b005b610301610825565b604051908152602001610278565b61029461031d366004612b0d565b610836565b6102f7610330366004612b28565b610865565b610348610343366004612b64565b610897565b604080516001600160a01b039093168352602083019190915201610278565b61026b610932565b60fb546001600160a01b03166102cc565b6102f761038e366004612b0d565b610958565b6102cc6103a1366004612ab3565b61098e565b6102f76103b4366004612b28565b6109a2565b6102f76103c7366004612ab3565b6109bd565b6102f76103da3660046129ad565b610a1e565b6102f76103ed366004612bcf565b610a4d565b6102f7610400366004612c34565b610ae6565b6102f7610413366004612ab3565b610c66565b6102cc610426366004612ab3565b610cd0565b610301610439366004612b0d565b610d52565b6102f7610dd8565b6102f7610454366004612cbd565b610e0e565b6101085460ff166040516102789190612d1f565b6102f7610ff1565b6033546001600160a01b03166102cc565b6102ac611055565b6102f761049c366004612d47565b611064565b6102f76104af366004612dcd565b6110c7565b60fc54610301565b6102f76104ca366004612e95565b61116e565b6102f76104dd3660046129ad565b6111a6565b6102ac6104f0366004612ab3565b61125b565b6102f7610503366004612f11565b611347565b6103016101005481565b610294610520366004612f5a565b6113a8565b610294610533366004612b0d565b6113d6565b60ff8054610294911681565b6102f7610552366004612ae3565b6113fd565b6102f7610565366004612b0d565b611455565b6102f7610578366004612d47565b6114ed565b60606105bd610107600084600281111561059957610599612d09565b60028111156105aa576105aa612d09565b8152602001908152602001600020611585565b92915050565b60006105ce82611592565b806105bd57506105bd826115b7565b6060609780546105ec90612f84565b80601f016020809104026020016040519081016040528092919081815260200182805461061890612f84565b80156106655780601f1061063a57610100808354040283529160200191610665565b820191906000526020600020905b81548152906001019060200180831161064857829003601f168201915b5050505050905090565b600081815260fd60205260408120546001600160a01b031681610691846115fa565b50509050600081806106ab57506001600160a01b03831615155b80156106c757506000858152610102602052604090205460ff16155b9050806107305760405162461bcd60e51b815260206004820152602c60248201527f4552433732313a20617070726f76656420717565727920666f72206e6f6e657860448201526b34b9ba32b73a103a37b5b2b760a11b60648201526084015b60405180910390fd5b50505060009182525061010360205260409020546001600160a01b031690565b8160016101085460ff16600281111561076b5761076b612d09565b036107ca576107a981610107600060015b600281111561078d5761078d612d09565b815260200190815260200160002061175d90919063ffffffff16565b6107c5576040516282b42960e81b815260040160405180910390fd5b610816565b60026101085460ff1660028111156107e4576107e4612d09565b03610816576107f9816101076000600261077c565b15610816576040516282b42960e81b815260040160405180910390fd5b610820838361177f565b505050565b60006108316101045490565b905090565b600061084a6033546001600160a01b031690565b6001600160a01b0316826001600160a01b0316149050919050565b610870335b8261188f565b61088c5760405162461bcd60e51b815260040161072790612fb8565b6108208383836118ee565b600082815260fd602052604081205481906001600160a01b03166108c65760fb546001600160a01b03166108df565b600084815260fd60205260409020546001600160a01b03165b9150610929606461092360fe60008881526020019081526020016000205460000361090c5760fc5461091c565b600087815260fe60205260409020545b8690611962565b9061196e565b90509250929050565b61010854606090610831906101079060009060ff16600281111561059957610599612d09565b6033546001600160a01b031633146109825760405162461bcd60e51b815260040161072790613009565b61098b8161197a565b50565b60006105bd6033546001600160a01b031690565b6108208383836040518060200160405280600081525061116e565b60006109c8826115fa565b5050600083815261010260205260409020805460ff191660011790559050808015610a0857506000828152609960205260409020546001600160a01b0316155b15610a11575050565b610a1a8261199c565b5050565b610a2733610836565b610a4457604051635c510c8360e11b815260040160405180910390fd5b61098b81611a13565b6033546001600160a01b03163314610a775760405162461bcd60e51b815260040161072790613009565b60ff80541615610a995760405162461bcd60e51b81526004016107279061303e565b610adf84848080601f0160208091040260200160405190810160405280939291908181526020018383808284376000920191909152505060fc5433925086915085611a90565b5050505050565b6000610af26001611b91565b90508015610b0a576000805461ff0019166101001790555b6001600160a01b038316610b605760405162461bcd60e51b815260206004820152601e60248201527f63726561746f722063616e6e6f74206265206e756c6c206164647265737300006044820152606401610727565b610b6a600a60fc55565b60ff805460ff19169055610100829055610b82611c1e565b610bf587878080601f01602080910402602001604051908101604052809392919081815260200183838082843760009201919091525050604080516020601f8b018190048102820181019092528981529250899150889081908401838280828437600092019190915250611c4d92505050565b610bfd611c7e565b610c05611ca5565b610c0e8361197a565b610c1783611455565b8015610c5d576000805461ff0019169055604051600181527f7f26b83ff96e1f2b6a682f133852f6798a09c465da95921460cefb38474024989060200160405180910390a15b50505050505050565b8033610c7182610cd0565b6001600160a01b031614610cc75760405162461bcd60e51b815260206004820152601760248201527f4d757374206265206f776e6572206f6620746f6b656e2e0000000000000000006044820152606401610727565b610a1a826109bd565b600080610cdc836115fa565b5050905080610cf557610cee83611cd4565b9392505050565b6000838152610102602052604090205460ff1615610d1657610cee83611cd4565b6000838152609960205260409020546001600160a01b0316610d43576033546001600160a01b0316610cee565b610cee83611cd4565b50919050565b60006001600160a01b038216610dbc5760405162461bcd60e51b815260206004820152602960248201527f4552433732313a2061646472657373207a65726f206973206e6f7420612076616044820152683634b21037bbb732b960b91b6064820152608401610727565b506001600160a01b03166000908152609a602052604090205490565b6033546001600160a01b03163314610e025760405162461bcd60e51b815260040161072790613009565b610e0c6000611d4b565b565b6033546001600160a01b03163314610e385760405162461bcd60e51b815260040161072790613009565b60ff80541615610e5a5760405162461bcd60e51b81526004016107279061303e565b6000610e666101045490565b610e7190600161308b565b905060006001610e81848461308b565b610e8b91906130a3565b604080516020810190915281905261010481905561010054909150811115610ef55760405162461bcd60e51b815260206004820152601d60248201527f62617463684d696e743a3a6578636565646564206d6178546f6b656e730000006044820152606401610727565b610105604051806060016040528084815260200183815260200187878080601f0160208091040260200160405190810160405280939291908181526020018383808284376000920182905250939094525050835460018181018655948252602091829020845160039092020190815590830151938101939093555060408101519091906002820190610f879082613108565b505050610f9c6033546001600160a01b031690565b6001600160a01b031660006001600160a01b0316837fdeaa91b6123d068f5821d0fb0678463d1a8a6079fe8af5de3ce5e896dcf9133d84604051610fe291815260200190565b60405180910390a45050505050565b6033546001600160a01b0316331461101b5760405162461bcd60e51b815260040161072790613009565b60ff805460ff1916600117905560405133907f793bc6423dd0257d64f9d47db72fd4b2162f4541aa41740ba1c5fb5e2cd41bcd90600090a2565b6060609880546105ec90612f84565b61106d33610836565b61108a57604051635c510c8360e11b815260040160405180910390fd5b6108208383838080602002602001604051908101604052809392919081815260200183836020028082843760009201829052509250611d9d915050565b8160016101085460ff1660028111156110e2576110e2612d09565b03611118576110f7816101076000600161077c565b611113576040516282b42960e81b815260040160405180910390fd5b611164565b60026101085460ff16600281111561113257611132612d09565b0361116457611147816101076000600261077c565b15611164576040516282b42960e81b815260040160405180910390fd5b6108208383611f7a565b611178338361188f565b6111945760405162461bcd60e51b815260040161072790612fb8565b6111a084848484611f85565b50505050565b6111af33610836565b6111cc57604051635c510c8360e11b815260040160405180910390fd5b61010760008260028111156111e3576111e3612d09565b60028111156111f4576111f4612d09565b815260208101919091526040016000908120908181611213828261296c565b50505050336001600160a01b03167f7efc19cf93d497a6a56103ea89a39d51c0cad74a817ed3cd0ecaff9823d4da24826040516112509190612d1f565b60405180910390a250565b6060600080611269846115fa565b92505091508161131457600084815261010660205260409020805461128d90612f84565b80601f01602080910402602001604051908101604052809291908181526020018280546112b990612f84565b80156113065780601f106112db57610100808354040283529160200191611306565b820191906000526020600020905b8154815290600101906020018083116112e957829003601f168201915b505050505092505050919050565b8061131e85611fb8565b60405160200161132f9291906131c8565b60405160208183030381529060405292505050919050565b6033546001600160a01b031633146113715760405162461bcd60e51b815260040161072790613009565b60ff805416156113935760405162461bcd60e51b81526004016107279061303e565b610a1a8133336113a260fc5490565b33611a90565b6001600160a01b039182166000908152609c6020908152604080832093909416825291909152205460ff1690565b610108546000906105bd90839061010790849060ff16600281111561077c5761077c612d09565b6033546001600160a01b031633146114275760405162461bcd60e51b815260040161072790613009565b600090815260fd6020526040902080546001600160a01b0319166001600160a01b0392909216919091179055565b6033546001600160a01b0316331461147f5760405162461bcd60e51b815260040161072790613009565b6001600160a01b0381166114e45760405162461bcd60e51b815260206004820152602660248201527f4f776e61626c653a206e6577206f776e657220697320746865207a65726f206160448201526564647265737360d01b6064820152608401610727565b61098b81611d4b565b6114f633610836565b61151357604051635c510c8360e11b815260040160405180910390fd5b600083600281111561152757611527612d09565b0361154557604051632de777a160e11b815260040160405180910390fd5b6108208383838080602002602001604051908101604052809392919081815260200183836020028082843760009201919091525060019250611d9d915050565b60606000610cee836120b9565b60006001600160e01b0319821663fa31a45b60e01b14806105bd57506105bd82612115565b60006001600160e01b03198216631030681960e21b14806115dc57506115dc82612115565b806115eb57506115eb8261212b565b806105bd57506105bd8261214c565b600080606060005b6101055481101561173e57610105818154811061162157611621613216565b90600052602060002090600302016000015485101580156116675750610105818154811061165157611651613216565b9060005260206000209060030201600101548511155b1561172c57600181610105838154811061168357611683613216565b90600052602060002090600302016002018080546116a090612f84565b80601f01602080910402602001604051908101604052809291908181526020018280546116cc90612f84565b80156117195780601f106116ee57610100808354040283529160200191611719565b820191906000526020600020905b8154815290600101906020018083116116fc57829003601f168201915b5050505050905093509350935050611756565b806117368161322c565b915050611602565b50506040805160208101909152600080825292508291505b9193909250565b6001600160a01b03811660009081526001830160205260408120541515610cee565b600061178a82610cd0565b9050806001600160a01b0316836001600160a01b0316036117f75760405162461bcd60e51b815260206004820152602160248201527f4552433732313a20617070726f76616c20746f2063757272656e74206f776e656044820152603960f91b6064820152608401610727565b336001600160a01b0382161480611813575061181381336113a8565b6118855760405162461bcd60e51b815260206004820152603860248201527f4552433732313a20617070726f76652063616c6c6572206973206e6f74206f7760448201527f6e6572206e6f7220617070726f76656420666f7220616c6c00000000000000006064820152608401610727565b610820838361218c565b60008061189b83610cd0565b9050806001600160a01b0316846001600160a01b031614806118d65750836001600160a01b03166118cb8461066f565b6001600160a01b0316145b806118e657506118e681856113a8565b949350505050565b806000036118fb57600080fd5b6000611906826115fa565b5050905080801561192c57506000828152609960205260409020546001600160a01b0316155b801561194857506000828152610102602052604090205460ff16155b156119575761195784836121fb565b6111a084848461233d565b6000610cee8284613245565b6000610cee828461327a565b60fb80546001600160a01b0319166001600160a01b0392909216919091179055565b6119a53361086a565b611a0a5760405162461bcd60e51b815260206004820152603060248201527f4552433732314275726e61626c653a2063616c6c6572206973206e6f74206f7760448201526f1b995c881b9bdc88185c1c1c9bdd995960821b6064820152608401610727565b61098b816124d9565b806002811115611a2557611a25612d09565b6101085460ff166002811115611a3d57611a3d612d09565b60405133907f12282389323caf08dd4e02c490ef05bc7edb56967c085742687aad3cc81aa15f90600090a4610108805482919060ff19166001836002811115611a8857611a88612d09565b021790555050565b6000611aa161010480546001019055565b6000611aad6101045490565b905061010054811115611b025760405162461bcd60e51b815260206004820181905260248201527f5f637265617465546f6b656e3a3a6578636565646564206d6178546f6b656e736044820152606401610727565b611b0c8582612574565b600081815261010660205260409020611b258882613108565b5060008181526101016020526040902080546001600160a01b0319166001600160a01b038816179055600081815260fe60205260409020849055600081815260fd6020526040902080546001600160a01b0319166001600160a01b0385161790555b9695505050505050565b60008054610100900460ff1615611bd8578160ff166001148015611bb45750303b155b611bd05760405162461bcd60e51b81526004016107279061328e565b506000919050565b60005460ff808416911610611bff5760405162461bcd60e51b81526004016107279061328e565b506000805460ff191660ff92909216919091179055600190565b919050565b600054610100900460ff16611c455760405162461bcd60e51b8152600401610727906132dc565b610e0c61258e565b600054610100900460ff16611c745760405162461bcd60e51b8152600401610727906132dc565b610a1a82826125be565b600054610100900460ff16610e0c5760405162461bcd60e51b8152600401610727906132dc565b600054610100900460ff16611ccc5760405162461bcd60e51b8152600401610727906132dc565b610e0c611c7e565b6000818152609960205260408120546001600160a01b0316806105bd5760405162461bcd60e51b815260206004820152602960248201527f4552433732313a206f776e657220717565727920666f72206e6f6e657869737460448201526832b73a103a37b5b2b760b91b6064820152608401610727565b603380546001600160a01b038381166001600160a01b0319831681179093556040519116919082907f8be0079c531659141344cd1fd0a4f28419497f9722a3daafe3b4186f6b6457e090600090a35050565b6000836002811115611db157611db1612d09565b146108205760005b82518110156111a0578115611e9a57611e29838281518110611ddd57611ddd613216565b60200260200101516101076000876002811115611dfc57611dfc612d09565b6002811115611e0d57611e0d612d09565b81526020019081526020016000206125fe90919063ffffffff16565b50836002811115611e3c57611e3c612d09565b838281518110611e4e57611e4e613216565b60200260200101516001600160a01b0316336001600160a01b03167f14155f749dc3f9cd2bf890d6d3a47069f77ae35befcee11c8b1a3ba41cba153660405160405180910390a4611f68565b611efb838281518110611eaf57611eaf613216565b60200260200101516101076000876002811115611ece57611ece612d09565b6002811115611edf57611edf612d09565b815260200190815260200160002061261390919063ffffffff16565b50836002811115611f0e57611f0e612d09565b838281518110611f2057611f20613216565b60200260200101516001600160a01b0316336001600160a01b03167fc72e29af1b34de3dec3a764b4ca4d85b9c380ab33b9b268d29b6e7008bd0ed9560405160405180910390a45b80611f728161322c565b915050611db9565b610a1a338383612628565b611f908484846118ee565b611f9c848484846126f6565b6111a05760405162461bcd60e51b815260040161072790613327565b606081600003611fdf5750506040805180820190915260018152600360fc1b602082015290565b8160005b81156120095780611ff38161322c565b91506120029050600a8361327a565b9150611fe3565b60008167ffffffffffffffff81111561202457612024612e09565b6040519080825280601f01601f19166020018201604052801561204e576020820181803683370190505b5090505b84156118e6576120636001836130a3565b9150612070600a86613379565b61207b90603061308b565b60f81b81838151811061209057612090613216565b60200101906001600160f81b031916908160001a9053506120b2600a8661327a565b9450612052565b60608160000180548060200260200160405190810160405280929190818152602001828054801561210957602002820191906000526020600020905b8154815260200190600101908083116120f5575b50505050509050919050565b6001600160e01b0319166301ffc9a760e01b1490565b60006001600160e01b0319821663152a902d60e11b14806105bd57506105bd825b60006001600160e01b031982166380ac58cd60e01b148061217d57506001600160e01b03198216635b5e139f60e01b145b806105bd57506105bd82612115565b60008181526101036020526040902080546001600160a01b0319166001600160a01b03841690811790915581906121c282611cd4565b6001600160a01b03167f8c5be1e5ebec7d5bd14f71427d1e84f3dd0314c0f7b2291e5b200ac8c7c3b92560405160405180910390a45050565b6001600160a01b0382166122515760405162461bcd60e51b815260206004820181905260248201527f4552433732313a206d696e7420746f20746865207a65726f20616464726573736044820152606401610727565b6000818152609960205260409020546001600160a01b0316156122b65760405162461bcd60e51b815260206004820152601c60248201527f4552433732313a20746f6b656e20616c7265616479206d696e746564000000006044820152606401610727565b6001600160a01b0382166000908152609a602052604081208054600192906122df90849061308b565b909155505060008181526099602052604080822080546001600160a01b0319166001600160a01b03861690811790915590518392907fddf252ad1be2c89b69c2b068fc378daa952ba7f163c4a11628f55a4df523b3ef908290a45050565b826001600160a01b031661235082611cd4565b6001600160a01b0316146123b45760405162461bcd60e51b815260206004820152602560248201527f4552433732313a207472616e736665722066726f6d20696e636f72726563742060448201526437bbb732b960d91b6064820152608401610727565b6001600160a01b0382166124165760405162461bcd60e51b8152602060048201526024808201527f4552433732313a207472616e7366657220746f20746865207a65726f206164646044820152637265737360e01b6064820152608401610727565b61242160008261218c565b6001600160a01b0383166000908152609a6020526040812080546001929061244a9084906130a3565b90915550506001600160a01b0382166000908152609a6020526040812080546001929061247890849061308b565b909155505060008181526099602052604080822080546001600160a01b0319166001600160a01b0386811691821790925591518493918716917fddf252ad1be2c89b69c2b068fc378daa952ba7f163c4a11628f55a4df523b3ef91a4505050565b60006124e482611cd4565b90506124f160008361218c565b6001600160a01b0381166000908152609a6020526040812080546001929061251a9084906130a3565b909155505060008281526099602052604080822080546001600160a01b0319169055518391906001600160a01b038416907fddf252ad1be2c89b69c2b068fc378daa952ba7f163c4a11628f55a4df523b3ef908390a45050565b610a1a8282604051806020016040528060008152506127f7565b600054610100900460ff166125b55760405162461bcd60e51b8152600401610727906132dc565b610e0c33611d4b565b600054610100900460ff166125e55760405162461bcd60e51b8152600401610727906132dc565b60976125f18382613108565b5060986108208282613108565b6000610cee836001600160a01b03841661282a565b6000610cee836001600160a01b038416612879565b816001600160a01b0316836001600160a01b0316036126895760405162461bcd60e51b815260206004820152601960248201527f4552433732313a20617070726f766520746f2063616c6c6572000000000000006044820152606401610727565b6001600160a01b038381166000818152609c6020908152604080832094871680845294825291829020805460ff191686151590811790915591519182527f17307eab39ab6107e8899845ad3d59bd9653f200f220920489ca2b5937696c31910160405180910390a3505050565b60006001600160a01b0384163b156127ec57604051630a85bd0160e11b81526001600160a01b0385169063150b7a029061273a90339089908890889060040161338d565b6020604051808303816000875af1925050508015612775575060408051601f3d908101601f19168201909252612772918101906133c0565b60015b6127d2573d8080156127a3576040519150601f19603f3d011682016040523d82523d6000602084013e6127a8565b606091505b5080516000036127ca5760405162461bcd60e51b815260040161072790613327565b805181602001fd5b6001600160e01b031916630a85bd0160e11b1490506118e6565b506001949350505050565b61280183836121fb565b61280e60008484846126f6565b6108205760405162461bcd60e51b815260040161072790613327565b6000818152600183016020526040812054612871575081546001818101845560008481526020808220909301849055845484825282860190935260409020919091556105bd565b5060006105bd565b6000818152600183016020526040812054801561296257600061289d6001836130a3565b85549091506000906128b1906001906130a3565b90508181146129165760008660000182815481106128d1576128d1613216565b90600052602060002001549050808760000184815481106128f4576128f4613216565b6000918252602080832090910192909255918252600188019052604090208390555b8554869080612927576129276133dd565b6001900381819060005260206000200160009055905585600101600086815260200190815260200160002060009055600193505050506105bd565b60009150506105bd565b508054600082559060005260206000209081019061098b91905b8082111561299a5760008155600101612986565b5090565b803560038110611c1957600080fd5b6000602082840312156129bf57600080fd5b610cee8261299e565b6020808252825182820181905260009190848201906040850190845b81811015612a095783516001600160a01b0316835292840192918401916001016129e4565b50909695505050505050565b6001600160e01b03198116811461098b57600080fd5b600060208284031215612a3d57600080fd5b8135610cee81612a15565b60005b83811015612a63578181015183820152602001612a4b565b838111156111a05750506000910152565b60008151808452612a8c816020860160208601612a48565b601f01601f19169290920160200192915050565b602081526000610cee6020830184612a74565b600060208284031215612ac557600080fd5b5035919050565b80356001600160a01b0381168114611c1957600080fd5b60008060408385031215612af657600080fd5b612aff83612acc565b946020939093013593505050565b600060208284031215612b1f57600080fd5b610cee82612acc565b600080600060608486031215612b3d57600080fd5b612b4684612acc565b9250612b5460208501612acc565b9150604084013590509250925092565b60008060408385031215612b7757600080fd5b50508035926020909101359150565b60008083601f840112612b9857600080fd5b50813567ffffffffffffffff811115612bb057600080fd5b602083019150836020828501011115612bc857600080fd5b9250929050565b60008060008060608587031215612be557600080fd5b843567ffffffffffffffff811115612bfc57600080fd5b612c0887828801612b86565b9095509350612c1b905060208601612acc565b9150612c2960408601612acc565b905092959194509250565b60008060008060008060808789031215612c4d57600080fd5b863567ffffffffffffffff80821115612c6557600080fd5b612c718a838b01612b86565b90985096506020890135915080821115612c8a57600080fd5b50612c9789828a01612b86565b9095509350612caa905060408801612acc565b9150606087013590509295509295509295565b600080600060408486031215612cd257600080fd5b833567ffffffffffffffff811115612ce957600080fd5b612cf586828701612b86565b909790965060209590950135949350505050565b634e487b7160e01b600052602160045260246000fd5b6020810160038310612d4157634e487b7160e01b600052602160045260246000fd5b91905290565b600080600060408486031215612d5c57600080fd5b612d658461299e565b9250602084013567ffffffffffffffff80821115612d8257600080fd5b818601915086601f830112612d9657600080fd5b813581811115612da557600080fd5b8760208260051b8501011115612dba57600080fd5b6020830194508093505050509250925092565b60008060408385031215612de057600080fd5b612de983612acc565b915060208301358015158114612dfe57600080fd5b809150509250929050565b634e487b7160e01b600052604160045260246000fd5b600067ffffffffffffffff80841115612e3a57612e3a612e09565b604051601f8501601f19908116603f01168101908282118183101715612e6257612e62612e09565b81604052809350858152868686011115612e7b57600080fd5b858560208301376000602087830101525050509392505050565b60008060008060808587031215612eab57600080fd5b612eb485612acc565b9350612ec260208601612acc565b925060408501359150606085013567ffffffffffffffff811115612ee557600080fd5b8501601f81018713612ef657600080fd5b612f0587823560208401612e1f565b91505092959194509250565b600060208284031215612f2357600080fd5b813567ffffffffffffffff811115612f3a57600080fd5b8201601f81018413612f4b57600080fd5b6118e684823560208401612e1f565b60008060408385031215612f6d57600080fd5b612f7683612acc565b915061092960208401612acc565b600181811c90821680612f9857607f821691505b602082108103610d4c57634e487b7160e01b600052602260045260246000fd5b60208082526031908201527f4552433732313a207472616e736665722063616c6c6572206973206e6f74206f6040820152701ddb995c881b9bdc88185c1c1c9bdd9959607a1b606082015260800190565b6020808252818101527f4f776e61626c653a2063616c6c6572206973206e6f7420746865206f776e6572604082015260600190565b6020808252601e908201527f436f6e7472616374206d757374206e6f742062652064697361626c65642e0000604082015260600190565b634e487b7160e01b600052601160045260246000fd5b6000821982111561309e5761309e613075565b500190565b6000828210156130b5576130b5613075565b500390565b601f82111561082057600081815260208120601f850160051c810160208610156130e15750805b601f850160051c820191505b81811015613100578281556001016130ed565b505050505050565b815167ffffffffffffffff81111561312257613122612e09565b613136816131308454612f84565b846130ba565b602080601f83116001811461316b57600084156131535750858301515b600019600386901b1c1916600185901b178555613100565b600085815260208120601f198616915b8281101561319a5788860151825594840194600190910190840161317b565b50858210156131b85787850151600019600388901b60f8161c191681555b5050505050600190811b01905550565b600083516131da818460208801612a48565b602f60f81b90830190815283516131f8816001840160208801612a48565b64173539b7b760d91b60019290910191820152600601949350505050565b634e487b7160e01b600052603260045260246000fd5b60006001820161323e5761323e613075565b5060010190565b600081600019048311821515161561325f5761325f613075565b500290565b634e487b7160e01b600052601260045260246000fd5b60008261328957613289613264565b500490565b6020808252602e908201527f496e697469616c697a61626c653a20636f6e747261637420697320616c72656160408201526d191e481a5b9a5d1a585b1a5e995960921b606082015260800190565b6020808252602b908201527f496e697469616c697a61626c653a20636f6e7472616374206973206e6f74206960408201526a6e697469616c697a696e6760a81b606082015260800190565b60208082526032908201527f4552433732313a207472616e7366657220746f206e6f6e20455243373231526560408201527131b2b4bb32b91034b6b83632b6b2b73a32b960711b606082015260800190565b60008261338857613388613264565b500690565b6001600160a01b0385811682528416602082015260408101839052608060608201819052600090611b8790830184612a74565b6000602082840312156133d257600080fd5b8151610cee81612a15565b634e487b7160e01b600052603160045260246000fdfea2646970667358221220938ce2757d4bf31de29a45d48be70d84d733bd4e1e833fb2c0faa8e73438ddf164736f6c634300080f0033608060405234801561001057600080fd5b5061355b806100206000396000f3fe608060405234801561001057600080fd5b50600436106102745760003560e01c806370a0823111610151578063b88d4fde116100c3578063e985e9c511610087578063e985e9c514610557578063eab851181461056a578063ee0708051461057d578063efc32cd414610589578063f2fde38b1461059c578063ff6e8c8f146105af57600080fd5b8063b88d4fde14610501578063bc71945514610514578063c87b56dd14610527578063d9856c211461053a578063e83157421461054d57600080fd5b8063894ba83311610115578063894ba833146104b25780638da5cb5b146104ba57806395d89b41146104cb5780639e860f2a146104d3578063a22cb465146104e6578063ab69607a146104f957600080fd5b806370a0823114610467578063715018a61461047a578063717392ed146104825780637cc918d11461048b57806387bc793f1461049e57600080fd5b80633403c4e9116101ea578063472a6638116101ae578063472a6638146104005780634aa52c41146104135780635aec8d62146104265780635edc7c191461042e5780636297c16c146104415780636352211e1461045457600080fd5b80633403c4e9146103a35780633ebc82c5146103b457806340c1a064146103c757806342842e0e146103da57806342966c68146103ed57600080fd5b806318160ddd1161023c57806318160ddd1461031a578063204274861461033057806321c4a5d81461034357806323b872dd146103565780632a55205a146103695780632ce878da1461039b57600080fd5b8063012cf1e81461027957806301ffc9a7146102a257806306fdde03146102c5578063081812fc146102da578063095ea7b314610305575b600080fd5b61028c610287366004612adf565b6105c2565b6040516102999190612afa565b60405180910390f35b6102b56102b0366004612b5d565b610608565b6040519015158152602001610299565b6102cd610622565b6040516102999190612bd2565b6102ed6102e8366004612be5565b6106b4565b6040516001600160a01b039091168152602001610299565b610318610313366004612c15565b610795565b005b61032261086a565b604051908152602001610299565b6102b561033e366004612c3f565b61087b565b610318610351366004612be5565b6108aa565b610318610364366004612c5a565b6108dc565b61037c610377366004612c96565b61090e565b604080516001600160a01b039093168352602083019190915201610299565b61028c6109a9565b60fb546001600160a01b03166102ed565b6103186103c2366004612c3f565b6109cf565b6102ed6103d5366004612be5565b610a02565b6103186103e8366004612c5a565b610a16565b6103186103fb366004612be5565b610a31565b61031861040e366004612adf565b610a92565b610318610421366004612d01565b610ac1565b610318610b5a565b61031861043c366004612d66565b610bb5565b61031861044f366004612be5565b610d35565b6102ed610462366004612be5565b610d9f565b610322610475366004612c3f565b610e21565b610318610ea7565b61010954610322565b610318610499366004612def565b610edd565b6101085460ff166040516102999190612e51565b6103186110c0565b6033546001600160a01b03166102ed565b6102cd611124565b6103186104e1366004612e79565b611133565b6103186104f4366004612eff565b611196565b60fc54610322565b61031861050f366004612fc7565b61123d565b610318610522366004612adf565b611275565b6102cd610535366004612be5565b61132a565b610318610548366004613043565b611416565b6103226101005481565b6102b561056536600461308c565b611477565b6102b5610578366004612c3f565b6114a5565b60ff80546102b5911681565b610318610597366004612c15565b6114cc565b6103186105aa366004612c3f565b611524565b6103186105bd366004612e79565b6115bc565b606061060261010760008460028111156105de576105de612e3b565b60028111156105ef576105ef612e3b565b8152602001908152602001600020611654565b92915050565b600061061382611661565b80610602575061060282611686565b606060978054610631906130b6565b80601f016020809104026020016040519081016040528092919081815260200182805461065d906130b6565b80156106aa5780601f1061067f576101008083540402835291602001916106aa565b820191906000526020600020905b81548152906001019060200180831161068d57829003601f168201915b5050505050905090565b600081815260fd60205260408120546001600160a01b0316816106d6846116c9565b50509050600081806106f057506001600160a01b03831615155b801561070c57506000858152610102602052604090205460ff16155b9050806107755760405162461bcd60e51b815260206004820152602c60248201527f4552433732313a20617070726f76656420717565727920666f72206e6f6e657860448201526b34b9ba32b73a103a37b5b2b760a11b60648201526084015b60405180910390fd5b50505060009182525061010360205260409020546001600160a01b031690565b8160016101085460ff1660028111156107b0576107b0612e3b565b0361080f576107ee81610107600060015b60028111156107d2576107d2612e3b565b815260200190815260200160002061182c90919063ffffffff16565b61080a576040516282b42960e81b815260040160405180910390fd5b61085b565b60026101085460ff16600281111561082957610829612e3b565b0361085b5761083e81610107600060026107c1565b1561085b576040516282b42960e81b815260040160405180910390fd5b610865838361184e565b505050565b60006108766101045490565b905090565b600061088f6033546001600160a01b031690565b6001600160a01b0316826001600160a01b0316149050919050565b6108b33361087b565b6108d057604051635c510c8360e11b815260040160405180910390fd5b6108d98161195e565b50565b6108e7335b826119c1565b6109035760405162461bcd60e51b815260040161076c906130ea565b610865838383611a20565b600082815260fd602052604081205481906001600160a01b031661093d5760fb546001600160a01b0316610956565b600084815260fd60205260409020546001600160a01b03165b91506109a0606461099a60fe6000888152602001908152602001600020546000036109835760fc54610993565b600087815260fe60205260409020545b8690611a94565b90611aa0565b90509250929050565b61010854606090610876906101079060009060ff1660028111156105de576105de612e3b565b6033546001600160a01b031633146109f95760405162461bcd60e51b815260040161076c9061313b565b6108d981611aac565b60006106026033546001600160a01b031690565b6108658383836040518060200160405280600081525061123d565b6000610a3c826116c9565b5050600083815261010260205260409020805460ff191660011790559050808015610a7c57506000828152609960205260409020546001600160a01b0316155b15610a85575050565b610a8e82611ace565b5050565b610a9b3361087b565b610ab857604051635c510c8360e11b815260040160405180910390fd5b6108d981611b45565b6033546001600160a01b03163314610aeb5760405162461bcd60e51b815260040161076c9061313b565b60ff80541615610b0d5760405162461bcd60e51b815260040161076c90613170565b610b5384848080601f0160208091040260200160405190810160405280939291908181526020018383808284376000920191909152505060fc5433925086915085611bc2565b5050505050565b42610109541115610b7e5760405163807a684760e01b815260040160405180910390fd5b610b886000611b45565b60405133907f60faf76514baf225c418dfc1e3c75bed0bd280f0436999e12cb0a73acb0f9a4690600090a2565b6000610bc16001611cc3565b90508015610bd9576000805461ff0019166101001790555b6001600160a01b038316610c2f5760405162461bcd60e51b815260206004820152601e60248201527f63726561746f722063616e6e6f74206265206e756c6c20616464726573730000604482015260640161076c565b610c39600a60fc55565b60ff805460ff19169055610100829055610c51611d50565b610cc487878080601f01602080910402602001604051908101604052809392919081815260200183838082843760009201919091525050604080516020601f8b018190048102820181019092528981529250899150889081908401838280828437600092019190915250611d7f92505050565b610ccc611db0565b610cd4611dd7565b610cdd83611aac565b610ce683611524565b8015610d2c576000805461ff0019169055604051600181527f7f26b83ff96e1f2b6a682f133852f6798a09c465da95921460cefb38474024989060200160405180910390a15b50505050505050565b8033610d4082610d9f565b6001600160a01b031614610d965760405162461bcd60e51b815260206004820152601760248201527f4d757374206265206f776e6572206f6620746f6b656e2e000000000000000000604482015260640161076c565b610a8e82610a31565b600080610dab836116c9565b5050905080610dc457610dbd83611e06565b9392505050565b6000838152610102602052604090205460ff1615610de557610dbd83611e06565b6000838152609960205260409020546001600160a01b0316610e12576033546001600160a01b0316610dbd565b610dbd83611e06565b50919050565b60006001600160a01b038216610e8b5760405162461bcd60e51b815260206004820152602960248201527f4552433732313a2061646472657373207a65726f206973206e6f7420612076616044820152683634b21037bbb732b960b91b606482015260840161076c565b506001600160a01b03166000908152609a602052604090205490565b6033546001600160a01b03163314610ed15760405162461bcd60e51b815260040161076c9061313b565b610edb6000611e7d565b565b6033546001600160a01b03163314610f075760405162461bcd60e51b815260040161076c9061313b565b60ff80541615610f295760405162461bcd60e51b815260040161076c90613170565b6000610f356101045490565b610f409060016131bd565b905060006001610f5084846131bd565b610f5a91906131d5565b604080516020810190915281905261010481905561010054909150811115610fc45760405162461bcd60e51b815260206004820152601d60248201527f62617463684d696e743a3a6578636565646564206d6178546f6b656e73000000604482015260640161076c565b610105604051806060016040528084815260200183815260200187878080601f0160208091040260200160405190810160405280939291908181526020018383808284376000920182905250939094525050835460018181018655948252602091829020845160039092020190815590830151938101939093555060408101519091906002820190611056908261323a565b50505061106b6033546001600160a01b031690565b6001600160a01b031660006001600160a01b0316837fdeaa91b6123d068f5821d0fb0678463d1a8a6079fe8af5de3ce5e896dcf9133d846040516110b191815260200190565b60405180910390a45050505050565b6033546001600160a01b031633146110ea5760405162461bcd60e51b815260040161076c9061313b565b60ff805460ff1916600117905560405133907f793bc6423dd0257d64f9d47db72fd4b2162f4541aa41740ba1c5fb5e2cd41bcd90600090a2565b606060988054610631906130b6565b61113c3361087b565b61115957604051635c510c8360e11b815260040160405180910390fd5b6108658383838080602002602001604051908101604052809392919081815260200183836020028082843760009201829052509250611ecf915050565b8160016101085460ff1660028111156111b1576111b1612e3b565b036111e7576111c681610107600060016107c1565b6111e2576040516282b42960e81b815260040160405180910390fd5b611233565b60026101085460ff16600281111561120157611201612e3b565b036112335761121681610107600060026107c1565b15611233576040516282b42960e81b815260040160405180910390fd5b61086583836120ac565b61124733836119c1565b6112635760405162461bcd60e51b815260040161076c906130ea565b61126f848484846120b7565b50505050565b61127e3361087b565b61129b57604051635c510c8360e11b815260040160405180910390fd5b61010760008260028111156112b2576112b2612e3b565b60028111156112c3576112c3612e3b565b8152602081019190915260400160009081209081816112e28282612a9e565b50505050336001600160a01b03167f7efc19cf93d497a6a56103ea89a39d51c0cad74a817ed3cd0ecaff9823d4da248260405161131f9190612e51565b60405180910390a250565b6060600080611338846116c9565b9250509150816113e357600084815261010660205260409020805461135c906130b6565b80601f0160208091040260200160405190810160405280929190818152602001828054611388906130b6565b80156113d55780601f106113aa576101008083540402835291602001916113d5565b820191906000526020600020905b8154815290600101906020018083116113b857829003601f168201915b505050505092505050919050565b806113ed856120ea565b6040516020016113fe9291906132fa565b60405160208183030381529060405292505050919050565b6033546001600160a01b031633146114405760405162461bcd60e51b815260040161076c9061313b565b60ff805416156114625760405162461bcd60e51b815260040161076c90613170565b610a8e81333361147160fc5490565b33611bc2565b6001600160a01b039182166000908152609c6020908152604080832093909416825291909152205460ff1690565b6101085460009061060290839061010790849060ff1660028111156107c1576107c1612e3b565b6033546001600160a01b031633146114f65760405162461bcd60e51b815260040161076c9061313b565b600090815260fd6020526040902080546001600160a01b0319166001600160a01b0392909216919091179055565b6033546001600160a01b0316331461154e5760405162461bcd60e51b815260040161076c9061313b565b6001600160a01b0381166115b35760405162461bcd60e51b815260206004820152602660248201527f4f776e61626c653a206e6577206f776e657220697320746865207a65726f206160448201526564647265737360d01b606482015260840161076c565b6108d981611e7d565b6115c53361087b565b6115e257604051635c510c8360e11b815260040160405180910390fd5b60008360028111156115f6576115f6612e3b565b0361161457604051632de777a160e11b815260040160405180910390fd5b6108658383838080602002602001604051908101604052809392919081815260200183836020028082843760009201919091525060019250611ecf915050565b60606000610dbd836121eb565b60006001600160e01b0319821663fa31a45b60e01b1480610602575061060282612247565b60006001600160e01b03198216631030681960e21b14806116ab57506116ab82612247565b806116ba57506116ba8261225d565b8061060257506106028261227e565b600080606060005b6101055481101561180d5761010581815481106116f0576116f0613348565b90600052602060002090600302016000015485101580156117365750610105818154811061172057611720613348565b9060005260206000209060030201600101548511155b156117fb57600181610105838154811061175257611752613348565b906000526020600020906003020160020180805461176f906130b6565b80601f016020809104026020016040519081016040528092919081815260200182805461179b906130b6565b80156117e85780601f106117bd576101008083540402835291602001916117e8565b820191906000526020600020905b8154815290600101906020018083116117cb57829003601f168201915b5050505050905093509350935050611825565b806118058161335e565b9150506116d1565b50506040805160208101909152600080825292508291505b9193909250565b6001600160a01b03811660009081526001830160205260408120541515610dbd565b600061185982610d9f565b9050806001600160a01b0316836001600160a01b0316036118c65760405162461bcd60e51b815260206004820152602160248201527f4552433732313a20617070726f76616c20746f2063757272656e74206f776e656044820152603960f91b606482015260840161076c565b336001600160a01b03821614806118e257506118e28133611477565b6119545760405162461bcd60e51b815260206004820152603860248201527f4552433732313a20617070726f76652063616c6c6572206973206e6f74206f7760448201527f6e6572206e6f7220617070726f76656420666f7220616c6c0000000000000000606482015260840161076c565b61086583836122be565b600061196e826301e13380613377565b61197890426131bd565b61010954604080519182526020820183905291925033917f6e948191a35d69000746799fef50c705bbdc93bd5a7577e9e9eb879c04bdebc9910160405180910390a26101095550565b6000806119cd83610d9f565b9050806001600160a01b0316846001600160a01b03161480611a085750836001600160a01b03166119fd846106b4565b6001600160a01b0316145b80611a185750611a188185611477565b949350505050565b80600003611a2d57600080fd5b6000611a38826116c9565b50509050808015611a5e57506000828152609960205260409020546001600160a01b0316155b8015611a7a57506000828152610102602052604090205460ff16155b15611a8957611a89848361232d565b61126f84848461246f565b6000610dbd8284613377565b6000610dbd82846133ac565b60fb80546001600160a01b0319166001600160a01b0392909216919091179055565b611ad7336108e1565b611b3c5760405162461bcd60e51b815260206004820152603060248201527f4552433732314275726e61626c653a2063616c6c6572206973206e6f74206f7760448201526f1b995c881b9bdc88185c1c1c9bdd995960821b606482015260840161076c565b6108d98161260b565b806002811115611b5757611b57612e3b565b6101085460ff166002811115611b6f57611b6f612e3b565b60405133907f12282389323caf08dd4e02c490ef05bc7edb56967c085742687aad3cc81aa15f90600090a4610108805482919060ff19166001836002811115611bba57611bba612e3b565b021790555050565b6000611bd361010480546001019055565b6000611bdf6101045490565b905061010054811115611c345760405162461bcd60e51b815260206004820181905260248201527f5f637265617465546f6b656e3a3a6578636565646564206d6178546f6b656e73604482015260640161076c565b611c3e85826126a6565b600081815261010660205260409020611c57888261323a565b5060008181526101016020526040902080546001600160a01b0319166001600160a01b038816179055600081815260fe60205260409020849055600081815260fd6020526040902080546001600160a01b0319166001600160a01b0385161790555b9695505050505050565b60008054610100900460ff1615611d0a578160ff166001148015611ce65750303b155b611d025760405162461bcd60e51b815260040161076c906133c0565b506000919050565b60005460ff808416911610611d315760405162461bcd60e51b815260040161076c906133c0565b506000805460ff191660ff92909216919091179055600190565b919050565b600054610100900460ff16611d775760405162461bcd60e51b815260040161076c9061340e565b610edb6126c0565b600054610100900460ff16611da65760405162461bcd60e51b815260040161076c9061340e565b610a8e82826126f0565b600054610100900460ff16610edb5760405162461bcd60e51b815260040161076c9061340e565b600054610100900460ff16611dfe5760405162461bcd60e51b815260040161076c9061340e565b610edb611db0565b6000818152609960205260408120546001600160a01b0316806106025760405162461bcd60e51b815260206004820152602960248201527f4552433732313a206f776e657220717565727920666f72206e6f6e657869737460448201526832b73a103a37b5b2b760b91b606482015260840161076c565b603380546001600160a01b038381166001600160a01b0319831681179093556040519116919082907f8be0079c531659141344cd1fd0a4f28419497f9722a3daafe3b4186f6b6457e090600090a35050565b6000836002811115611ee357611ee3612e3b565b146108655760005b825181101561126f578115611fcc57611f5b838281518110611f0f57611f0f613348565b60200260200101516101076000876002811115611f2e57611f2e612e3b565b6002811115611f3f57611f3f612e3b565b815260200190815260200160002061273090919063ffffffff16565b50836002811115611f6e57611f6e612e3b565b838281518110611f8057611f80613348565b60200260200101516001600160a01b0316336001600160a01b03167f14155f749dc3f9cd2bf890d6d3a47069f77ae35befcee11c8b1a3ba41cba153660405160405180910390a461209a565b61202d838281518110611fe157611fe1613348565b6020026020010151610107600087600281111561200057612000612e3b565b600281111561201157612011612e3b565b815260200190815260200160002061274590919063ffffffff16565b5083600281111561204057612040612e3b565b83828151811061205257612052613348565b60200260200101516001600160a01b0316336001600160a01b03167fc72e29af1b34de3dec3a764b4ca4d85b9c380ab33b9b268d29b6e7008bd0ed9560405160405180910390a45b806120a48161335e565b915050611eeb565b610a8e33838361275a565b6120c2848484611a20565b6120ce84848484612828565b61126f5760405162461bcd60e51b815260040161076c90613459565b6060816000036121115750506040805180820190915260018152600360fc1b602082015290565b8160005b811561213b57806121258161335e565b91506121349050600a836133ac565b9150612115565b60008167ffffffffffffffff81111561215657612156612f3b565b6040519080825280601f01601f191660200182016040528015612180576020820181803683370190505b5090505b8415611a18576121956001836131d5565b91506121a2600a866134ab565b6121ad9060306131bd565b60f81b8183815181106121c2576121c2613348565b60200101906001600160f81b031916908160001a9053506121e4600a866133ac565b9450612184565b60608160000180548060200260200160405190810160405280929190818152602001828054801561223b57602002820191906000526020600020905b815481526020019060010190808311612227575b50505050509050919050565b6001600160e01b0319166301ffc9a760e01b1490565b60006001600160e01b0319821663152a902d60e11b14806106025750610602825b60006001600160e01b031982166380ac58cd60e01b14806122af57506001600160e01b03198216635b5e139f60e01b145b80610602575061060282612247565b60008181526101036020526040902080546001600160a01b0319166001600160a01b03841690811790915581906122f482611e06565b6001600160a01b03167f8c5be1e5ebec7d5bd14f71427d1e84f3dd0314c0f7b2291e5b200ac8c7c3b92560405160405180910390a45050565b6001600160a01b0382166123835760405162461bcd60e51b815260206004820181905260248201527f4552433732313a206d696e7420746f20746865207a65726f2061646472657373604482015260640161076c565b6000818152609960205260409020546001600160a01b0316156123e85760405162461bcd60e51b815260206004820152601c60248201527f4552433732313a20746f6b656e20616c7265616479206d696e74656400000000604482015260640161076c565b6001600160a01b0382166000908152609a602052604081208054600192906124119084906131bd565b909155505060008181526099602052604080822080546001600160a01b0319166001600160a01b03861690811790915590518392907fddf252ad1be2c89b69c2b068fc378daa952ba7f163c4a11628f55a4df523b3ef908290a45050565b826001600160a01b031661248282611e06565b6001600160a01b0316146124e65760405162461bcd60e51b815260206004820152602560248201527f4552433732313a207472616e736665722066726f6d20696e636f72726563742060448201526437bbb732b960d91b606482015260840161076c565b6001600160a01b0382166125485760405162461bcd60e51b8152602060048201526024808201527f4552433732313a207472616e7366657220746f20746865207a65726f206164646044820152637265737360e01b606482015260840161076c565b6125536000826122be565b6001600160a01b0383166000908152609a6020526040812080546001929061257c9084906131d5565b90915550506001600160a01b0382166000908152609a602052604081208054600192906125aa9084906131bd565b909155505060008181526099602052604080822080546001600160a01b0319166001600160a01b0386811691821790925591518493918716917fddf252ad1be2c89b69c2b068fc378daa952ba7f163c4a11628f55a4df523b3ef91a4505050565b600061261682611e06565b90506126236000836122be565b6001600160a01b0381166000908152609a6020526040812080546001929061264c9084906131d5565b909155505060008281526099602052604080822080546001600160a01b0319169055518391906001600160a01b038416907fddf252ad1be2c89b69c2b068fc378daa952ba7f163c4a11628f55a4df523b3ef908390a45050565b610a8e828260405180602001604052806000815250612929565b600054610100900460ff166126e75760405162461bcd60e51b815260040161076c9061340e565b610edb33611e7d565b600054610100900460ff166127175760405162461bcd60e51b815260040161076c9061340e565b6097612723838261323a565b506098610865828261323a565b6000610dbd836001600160a01b03841661295c565b6000610dbd836001600160a01b0384166129ab565b816001600160a01b0316836001600160a01b0316036127bb5760405162461bcd60e51b815260206004820152601960248201527f4552433732313a20617070726f766520746f2063616c6c657200000000000000604482015260640161076c565b6001600160a01b038381166000818152609c6020908152604080832094871680845294825291829020805460ff191686151590811790915591519182527f17307eab39ab6107e8899845ad3d59bd9653f200f220920489ca2b5937696c31910160405180910390a3505050565b60006001600160a01b0384163b1561291e57604051630a85bd0160e11b81526001600160a01b0385169063150b7a029061286c9033908990889088906004016134bf565b6020604051808303816000875af19250505080156128a7575060408051601f3d908101601f191682019092526128a4918101906134f2565b60015b612904573d8080156128d5576040519150601f19603f3d011682016040523d82523d6000602084013e6128da565b606091505b5080516000036128fc5760405162461bcd60e51b815260040161076c90613459565b805181602001fd5b6001600160e01b031916630a85bd0160e11b149050611a18565b506001949350505050565b612933838361232d565b6129406000848484612828565b6108655760405162461bcd60e51b815260040161076c90613459565b60008181526001830160205260408120546129a357508154600181810184556000848152602080822090930184905584548482528286019093526040902091909155610602565b506000610602565b60008181526001830160205260408120548015612a945760006129cf6001836131d5565b85549091506000906129e3906001906131d5565b9050818114612a48576000866000018281548110612a0357612a03613348565b9060005260206000200154905080876000018481548110612a2657612a26613348565b6000918252602080832090910192909255918252600188019052604090208390555b8554869080612a5957612a5961350f565b600190038181906000526020600020016000905590558560010160008681526020019081526020016000206000905560019350505050610602565b6000915050610602565b50805460008255906000526020600020908101906108d991905b80821115612acc5760008155600101612ab8565b5090565b803560038110611d4b57600080fd5b600060208284031215612af157600080fd5b610dbd82612ad0565b6020808252825182820181905260009190848201906040850190845b81811015612b3b5783516001600160a01b031683529284019291840191600101612b16565b50909695505050505050565b6001600160e01b0319811681146108d957600080fd5b600060208284031215612b6f57600080fd5b8135610dbd81612b47565b60005b83811015612b95578181015183820152602001612b7d565b8381111561126f5750506000910152565b60008151808452612bbe816020860160208601612b7a565b601f01601f19169290920160200192915050565b602081526000610dbd6020830184612ba6565b600060208284031215612bf757600080fd5b5035919050565b80356001600160a01b0381168114611d4b57600080fd5b60008060408385031215612c2857600080fd5b612c3183612bfe565b946020939093013593505050565b600060208284031215612c5157600080fd5b610dbd82612bfe565b600080600060608486031215612c6f57600080fd5b612c7884612bfe565b9250612c8660208501612bfe565b9150604084013590509250925092565b60008060408385031215612ca957600080fd5b50508035926020909101359150565b60008083601f840112612cca57600080fd5b50813567ffffffffffffffff811115612ce257600080fd5b602083019150836020828501011115612cfa57600080fd5b9250929050565b60008060008060608587031215612d1757600080fd5b843567ffffffffffffffff811115612d2e57600080fd5b612d3a87828801612cb8565b9095509350612d4d905060208601612bfe565b9150612d5b60408601612bfe565b905092959194509250565b60008060008060008060808789031215612d7f57600080fd5b863567ffffffffffffffff80821115612d9757600080fd5b612da38a838b01612cb8565b90985096506020890135915080821115612dbc57600080fd5b50612dc989828a01612cb8565b9095509350612ddc905060408801612bfe565b9150606087013590509295509295509295565b600080600060408486031215612e0457600080fd5b833567ffffffffffffffff811115612e1b57600080fd5b612e2786828701612cb8565b909790965060209590950135949350505050565b634e487b7160e01b600052602160045260246000fd5b6020810160038310612e7357634e487b7160e01b600052602160045260246000fd5b91905290565b600080600060408486031215612e8e57600080fd5b612e9784612ad0565b9250602084013567ffffffffffffffff80821115612eb457600080fd5b818601915086601f830112612ec857600080fd5b813581811115612ed757600080fd5b8760208260051b8501011115612eec57600080fd5b6020830194508093505050509250925092565b60008060408385031215612f1257600080fd5b612f1b83612bfe565b915060208301358015158114612f3057600080fd5b809150509250929050565b634e487b7160e01b600052604160045260246000fd5b600067ffffffffffffffff80841115612f6c57612f6c612f3b565b604051601f8501601f19908116603f01168101908282118183101715612f9457612f94612f3b565b81604052809350858152868686011115612fad57600080fd5b858560208301376000602087830101525050509392505050565b60008060008060808587031215612fdd57600080fd5b612fe685612bfe565b9350612ff460208601612bfe565b925060408501359150606085013567ffffffffffffffff81111561301757600080fd5b8501601f8101871361302857600080fd5b61303787823560208401612f51565b91505092959194509250565b60006020828403121561305557600080fd5b813567ffffffffffffffff81111561306c57600080fd5b8201601f8101841361307d57600080fd5b611a1884823560208401612f51565b6000806040838503121561309f57600080fd5b6130a883612bfe565b91506109a060208401612bfe565b600181811c908216806130ca57607f821691505b602082108103610e1b57634e487b7160e01b600052602260045260246000fd5b60208082526031908201527f4552433732313a207472616e736665722063616c6c6572206973206e6f74206f6040820152701ddb995c881b9bdc88185c1c1c9bdd9959607a1b606082015260800190565b6020808252818101527f4f776e61626c653a2063616c6c6572206973206e6f7420746865206f776e6572604082015260600190565b6020808252601e908201527f436f6e7472616374206d757374206e6f742062652064697361626c65642e0000604082015260600190565b634e487b7160e01b600052601160045260246000fd5b600082198211156131d0576131d06131a7565b500190565b6000828210156131e7576131e76131a7565b500390565b601f82111561086557600081815260208120601f850160051c810160208610156132135750805b601f850160051c820191505b818110156132325782815560010161321f565b505050505050565b815167ffffffffffffffff81111561325457613254612f3b565b6132688161326284546130b6565b846131ec565b602080601f83116001811461329d57600084156132855750858301515b600019600386901b1c1916600185901b178555613232565b600085815260208120601f198616915b828110156132cc578886015182559484019460019091019084016132ad565b50858210156132ea5787850151600019600388901b60f8161c191681555b5050505050600190811b01905550565b6000835161330c818460208801612b7a565b602f60f81b908301908152835161332a816001840160208801612b7a565b64173539b7b760d91b60019290910191820152600601949350505050565b634e487b7160e01b600052603260045260246000fd5b600060018201613370576133706131a7565b5060010190565b6000816000190483118215151615613391576133916131a7565b500290565b634e487b7160e01b600052601260045260246000fd5b6000826133bb576133bb613396565b500490565b6020808252602e908201527f496e697469616c697a61626c653a20636f6e747261637420697320616c72656160408201526d191e481a5b9a5d1a585b1a5e995960921b606082015260800190565b6020808252602b908201527f496e697469616c697a61626c653a20636f6e7472616374206973206e6f74206960408201526a6e697469616c697a696e6760a81b606082015260800190565b60208082526032908201527f4552433732313a207472616e7366657220746f206e6f6e20455243373231526560408201527131b2b4bb32b91034b6b83632b6b2b73a32b960711b606082015260800190565b6000826134ba576134ba613396565b500690565b6001600160a01b0385811682528416602082015260408101839052608060608201819052600090611cb990830184612ba6565b60006020828403121561350457600080fd5b8151610dbd81612b47565b634e487b7160e01b600052603160045260246000fdfea26469706673582212206c9333f611af818dfc9bd40a27c875d4d2b0bf5e040a755155019b4a2656673c64736f6c634300080f0033",
    "linkReferences": {}
  },
  "methodIdentifiers": {
    "ROYALTY_GUARD()": "7de4c082",
    "ROYALTY_GUARD_DEADMAN()": "ef6fde5b",
    "SOVEREIGN_NFT()": "ea14289f",
    "createSovereignNFTContract(string,string)": "3cebcf41",
    "createSovereignNFTContract(string,string,uint256)": "da8d79f3",
    "createSovereignNFTContract(string,string,uint256,bytes32)": "877ebf51",
    "marketplaceSettings()": "ba50b632",
    "owner()": "8da5cb5b",
    "renounceOwnership()": "715018a6",
    "setMarketplaceSettings(address)": "176ab440",
    "setSovereignNFT(address)": "9607cb49",
    "setSovereignNFT(address,bytes32)": "a55b1c25",
    "sovereignNFT()": "d05df883",
    "sovereignNFTRoyaltyGuard()": "c9be0590",
    "sovereignNFTRoyaltyGuardDeadmanTrigger()": "d1e0f700",
    "transferOwnership(address)": "f2fde38b"
  },
  "id": 46
}