{
  "abi": [
    {
      "inputs": [
        {
          "internalType": "string",
          "name": "_name",
          "type": "string"
        },
        {
          "internalType": "string",
          "name": "_symbol",
          "type": "string"
        }
      ],
      "stateMutability": "nonpayable",
      "type": "constructor"
    },
    {
      "anonymous": false,
      "inputs": [
        {
          "indexed": true,
          "internalType": "address",
          "name": "_newAddress",
          "type": "address"
        }
      ],
      "name": "AddToWhitelist",
      "type": "event"
    },
    {
      "anonymous": false,
      "inputs": [
        {
          "indexed": true,
          "internalType": "address",
          "name": "owner",
          "type": "address"
        },
        {
          "indexed": true,
          "internalType": "address",
          "name": "approved",
          "type": "address"
        },
        {
          "indexed": true,
          "internalType": "uint256",
          "name": "tokenId",
          "type": "uint256"
        }
      ],
      "name": "Approval",
      "type": "event"
    },
    {
      "anonymous": false,
      "inputs": [
        {
          "indexed": true,
          "internalType": "address",
          "name": "owner",
          "type": "address"
        },
        {
          "indexed": true,
          "internalType": "address",
          "name": "operator",
          "type": "address"
        },
        {
          "indexed": false,
          "internalType": "bool",
          "name": "approved",
          "type": "bool"
        }
      ],
      "name": "ApprovalForAll",
      "type": "event"
    },
    {
      "anonymous": false,
      "inputs": [
        {
          "indexed": true,
          "internalType": "address",
          "name": "previousOwner",
          "type": "address"
        },
        {
          "indexed": true,
          "internalType": "address",
          "name": "newOwner",
          "type": "address"
        }
      ],
      "name": "OwnershipTransferred",
      "type": "event"
    },
    {
      "anonymous": false,
      "inputs": [
        {
          "indexed": true,
          "internalType": "address",
          "name": "_removedAddress",
          "type": "address"
        }
      ],
      "name": "RemoveFromWhitelist",
      "type": "event"
    },
    {
      "anonymous": false,
      "inputs": [
        {
          "indexed": true,
          "internalType": "uint256",
          "name": "_tokenId",
          "type": "uint256"
        },
        {
          "indexed": false,
          "internalType": "string",
          "name": "_uri",
          "type": "string"
        }
      ],
      "name": "TokenURIUpdated",
      "type": "event"
    },
    {
      "anonymous": false,
      "inputs": [
        {
          "indexed": true,
          "internalType": "address",
          "name": "from",
          "type": "address"
        },
        {
          "indexed": true,
          "internalType": "address",
          "name": "to",
          "type": "address"
        },
        {
          "indexed": true,
          "internalType": "uint256",
          "name": "tokenId",
          "type": "uint256"
        }
      ],
      "name": "Transfer",
      "type": "event"
    },
    {
      "inputs": [
        {
          "internalType": "string",
          "name": "_uri",
          "type": "string"
        }
      ],
      "name": "addNewToken",
      "outputs": [],
      "stateMutability": "nonpayable",
      "type": "function"
    },
    {
      "inputs": [
        {
          "internalType": "address",
          "name": "_newAddress",
          "type": "address"
        }
      ],
      "name": "addToWhitelist",
      "outputs": [],
      "stateMutability": "nonpayable",
      "type": "function"
    },
    {
      "inputs": [
        {
          "internalType": "address",
          "name": "to",
          "type": "address"
        },
        {
          "internalType": "uint256",
          "name": "tokenId",
          "type": "uint256"
        }
      ],
      "name": "approve",
      "outputs": [],
      "stateMutability": "nonpayable",
      "type": "function"
    },
    {
      "inputs": [
        {
          "internalType": "address",
          "name": "owner",
          "type": "address"
        }
      ],
      "name": "balanceOf",
      "outputs": [
        {
          "internalType": "uint256",
          "name": "",
          "type": "uint256"
        }
      ],
      "stateMutability": "view",
      "type": "function"
    },
    {
      "inputs": [
        {
          "internalType": "uint256",
          "name": "_tokenId",
          "type": "uint256"
        }
      ],
      "name": "deleteToken",
      "outputs": [],
      "stateMutability": "nonpayable",
      "type": "function"
    },
    {
      "inputs": [
        {
          "internalType": "bool",
          "name": "_enabled",
          "type": "bool"
        }
      ],
      "name": "enableWhitelist",
      "outputs": [],
      "stateMutability": "nonpayable",
      "type": "function"
    },
    {
      "inputs": [
        {
          "internalType": "uint256",
          "name": "tokenId",
          "type": "uint256"
        }
      ],
      "name": "getApproved",
      "outputs": [
        {
          "internalType": "address",
          "name": "",
          "type": "address"
        }
      ],
      "stateMutability": "view",
      "type": "function"
    },
    {
      "inputs": [
        {
          "internalType": "address[]",
          "name": "_whitelistees",
          "type": "address[]"
        }
      ],
      "name": "initWhitelist",
      "outputs": [],
      "stateMutability": "nonpayable",
      "type": "function"
    },
    {
      "inputs": [
        {
          "internalType": "address",
          "name": "owner",
          "type": "address"
        },
        {
          "internalType": "address",
          "name": "operator",
          "type": "address"
        }
      ],
      "name": "isApprovedForAll",
      "outputs": [
        {
          "internalType": "bool",
          "name": "",
          "type": "bool"
        }
      ],
      "stateMutability": "view",
      "type": "function"
    },
    {
      "inputs": [
        {
          "internalType": "address",
          "name": "_address",
          "type": "address"
        }
      ],
      "name": "isWhitelisted",
      "outputs": [
        {
          "internalType": "bool",
          "name": "",
          "type": "bool"
        }
      ],
      "stateMutability": "view",
      "type": "function"
    },
    {
      "inputs": [],
      "name": "name",
      "outputs": [
        {
          "internalType": "string",
          "name": "",
          "type": "string"
        }
      ],
      "stateMutability": "view",
      "type": "function"
    },
    {
      "inputs": [],
      "name": "owner",
      "outputs": [
        {
          "internalType": "address",
          "name": "",
          "type": "address"
        }
      ],
      "stateMutability": "view",
      "type": "function"
    },
    {
      "inputs": [
        {
          "internalType": "uint256",
          "name": "tokenId",
          "type": "uint256"
        }
      ],
      "name": "ownerOf",
      "outputs": [
        {
          "internalType": "address",
          "name": "",
          "type": "address"
        }
      ],
      "stateMutability": "view",
      "type": "function"
    },
    {
      "inputs": [
        {
          "internalType": "address",
          "name": "_removedAddress",
          "type": "address"
        }
      ],
      "name": "removeFromWhitelist",
      "outputs": [],
      "stateMutability": "nonpayable",
      "type": "function"
    },
    {
      "inputs": [],
      "name": "renounceOwnership",
      "outputs": [],
      "stateMutability": "nonpayable",
      "type": "function"
    },
    {
      "inputs": [
        {
          "internalType": "address",
          "name": "from",
          "type": "address"
        },
        {
          "internalType": "address",
          "name": "to",
          "type": "address"
        },
        {
          "internalType": "uint256",
          "name": "tokenId",
          "type": "uint256"
        }
      ],
      "name": "safeTransferFrom",
      "outputs": [],
      "stateMutability": "nonpayable",
      "type": "function"
    },
    {
      "inputs": [
        {
          "internalType": "address",
          "name": "from",
          "type": "address"
        },
        {
          "internalType": "address",
          "name": "to",
          "type": "address"
        },
        {
          "internalType": "uint256",
          "name": "tokenId",
          "type": "uint256"
        },
        {
          "internalType": "bytes",
          "name": "data",
          "type": "bytes"
        }
      ],
      "name": "safeTransferFrom",
      "outputs": [],
      "stateMutability": "nonpayable",
      "type": "function"
    },
    {
      "inputs": [
        {
          "internalType": "address",
          "name": "operator",
          "type": "address"
        },
        {
          "internalType": "bool",
          "name": "approved",
          "type": "bool"
        }
      ],
      "name": "setApprovalForAll",
      "outputs": [],
      "stateMutability": "nonpayable",
      "type": "function"
    },
    {
      "inputs": [
        {
          "internalType": "bytes4",
          "name": "interfaceId",
          "type": "bytes4"
        }
      ],
      "name": "supportsInterface",
      "outputs": [
        {
          "internalType": "bool",
          "name": "",
          "type": "bool"
        }
      ],
      "stateMutability": "view",
      "type": "function"
    },
    {
      "inputs": [],
      "name": "symbol",
      "outputs": [
        {
          "internalType": "string",
          "name": "",
          "type": "string"
        }
      ],
      "stateMutability": "view",
      "type": "function"
    },
    {
      "inputs": [
        {
          "internalType": "uint256",
          "name": "_tokenId",
          "type": "uint256"
        }
      ],
      "name": "tokenCreator",
      "outputs": [
        {
          "internalType": "address payable",
          "name": "",
          "type": "address"
        }
      ],
      "stateMutability": "view",
      "type": "function"
    },
    {
      "inputs": [
        {
          "internalType": "uint256",
          "name": "tokenId",
          "type": "uint256"
        }
      ],
      "name": "tokenURI",
      "outputs": [
        {
          "internalType": "string",
          "name": "",
          "type": "string"
        }
      ],
      "stateMutability": "view",
      "type": "function"
    },
    {
      "inputs": [
        {
          "internalType": "address",
          "name": "from",
          "type": "address"
        },
        {
          "internalType": "address",
          "name": "to",
          "type": "address"
        },
        {
          "internalType": "uint256",
          "name": "tokenId",
          "type": "uint256"
        }
      ],
      "name": "transferFrom",
      "outputs": [],
      "stateMutability": "nonpayable",
      "type": "function"
    },
    {
      "inputs": [
        {
          "internalType": "address",
          "name": "newOwner",
          "type": "address"
        }
      ],
      "name": "transferOwnership",
      "outputs": [],
      "stateMutability": "nonpayable",
      "type": "function"
    },
    {
      "inputs": [
        {
          "internalType": "uint256",
          "name": "_tokenId",
          "type": "uint256"
        },
        {
          "internalType": "string",
          "name": "_uri",
          "type": "string"
        }
      ],
      "name": "updateTokenMetadata",
      "outputs": [],
      "stateMutability": "nonpayable",
      "type": "function"
    }
  ],
  "bytecode": {
    "object": "0x60806040526009805460ff191660011790553480156200001e57600080fd5b5060405162002196380380620021968339810160408190526200004191620001ad565b81816000620000518382620002a6565b506001620000608282620002a6565b5050506200007d620000776200008a60201b60201c565b6200008e565b50506000600b5562000372565b3390565b600780546001600160a01b038381166001600160a01b0319831681179093556040519116919082907f8be0079c531659141344cd1fd0a4f28419497f9722a3daafe3b4186f6b6457e090600090a35050565b634e487b7160e01b600052604160045260246000fd5b600082601f8301126200010857600080fd5b81516001600160401b0380821115620001255762000125620000e0565b604051601f8301601f19908116603f01168101908282118183101715620001505762000150620000e0565b816040528381526020925086838588010111156200016d57600080fd5b600091505b8382101562000191578582018301518183018401529082019062000172565b83821115620001a35760008385830101525b9695505050505050565b60008060408385031215620001c157600080fd5b82516001600160401b0380821115620001d957600080fd5b620001e786838701620000f6565b93506020850151915080821115620001fe57600080fd5b506200020d85828601620000f6565b9150509250929050565b600181811c908216806200022c57607f821691505b6020821081036200024d57634e487b7160e01b600052602260045260246000fd5b50919050565b601f821115620002a157600081815260208120601f850160051c810160208610156200027c5750805b601f850160051c820191505b818110156200029d5782815560010162000288565b5050505b505050565b81516001600160401b03811115620002c257620002c2620000e0565b620002da81620002d3845462000217565b8462000253565b602080601f831160018114620003125760008415620002f95750858301515b600019600386901b1c1916600185901b1785556200029d565b600085815260208120601f198616915b82811015620003435788860151825594840194600190910190840162000322565b5085821015620003625787850151600019600388901b60f8161c191681555b5050505050600190811b01905550565b611e1480620003826000396000f3fe608060405234801561001057600080fd5b50600436106101735760003560e01c806370a08231116100de578063b85ecf9311610097578063d9856c2111610071578063d9856c2114610344578063e43252d714610357578063e985e9c51461036a578063f2fde38b146103a657600080fd5b8063b85ecf931461030b578063b88d4fde1461031e578063c87b56dd1461033157600080fd5b806370a08231146102a3578063715018a6146102c45780638ab1d681146102cc5780638da5cb5b146102df57806395d89b41146102f0578063a22cb465146102f857600080fd5b80632cb2f52e116101305780632cb2f52e1461021b5780633af32abf1461022e57806340c1a0641461024157806342842e0e1461026a5780636297c16c1461027d5780636352211e1461029057600080fd5b806301ffc9a714610178578063040b6583146101a057806306fdde03146101b5578063081812fc146101ca578063095ea7b3146101f557806323b872dd14610208575b600080fd5b61018b61018636600461165e565b6103b9565b60405190151581526020015b60405180910390f35b6101b36101ae36600461168b565b61040b565b005b6101bd610451565b60405161019791906116fe565b6101dd6101d8366004611711565b6104e3565b6040516001600160a01b039091168152602001610197565b6101b3610203366004611741565b610578565b6101b361021636600461176b565b61068d565b6101b3610229366004611866565b6106be565b61018b61023c3660046118ad565b6107d7565b6101dd61024f366004611711565b6000908152600660205260409020546001600160a01b031690565b6101b361027836600461176b565b610811565b6101b361028b366004611711565b61082c565b6101dd61029e366004611711565b61089b565b6102b66102b13660046118ad565b610912565b604051908152602001610197565b6101b3610998565b6101b36102da3660046118ad565b6109ce565b6007546001600160a01b03166101dd565b6101bd610a54565b6101b36103063660046118c8565b610a63565b6101b36103193660046118fb565b610a72565b6101b361032c3660046119a8565b610aef565b6101bd61033f366004611711565b610b27565b6101b3610352366004611a24565b610c0f565b6101b36103653660046118ad565b610c7a565b61018b610378366004611a59565b6001600160a01b03918216600090815260056020908152604080832093909416825291909152205460ff1690565b6101b36103b43660046118ad565b610ce4565b60006001600160e01b031982166380ac58cd60e01b14806103ea57506001600160e01b03198216635b5e139f60e01b145b8061040557506301ffc9a760e01b6001600160e01b03198316145b92915050565b6007546001600160a01b0316331461043e5760405162461bcd60e51b815260040161043590611a83565b60405180910390fd5b6009805460ff1916911515919091179055565b60606000805461046090611ab8565b80601f016020809104026020016040519081016040528092919081815260200182805461048c90611ab8565b80156104d95780601f106104ae576101008083540402835291602001916104d9565b820191906000526020600020905b8154815290600101906020018083116104bc57829003601f168201915b5050505050905090565b6000818152600260205260408120546001600160a01b031661055c5760405162461bcd60e51b815260206004820152602c60248201527f4552433732313a20617070726f76656420717565727920666f72206e6f6e657860448201526b34b9ba32b73a103a37b5b2b760a11b6064820152608401610435565b506000908152600460205260409020546001600160a01b031690565b60006105838261089b565b9050806001600160a01b0316836001600160a01b0316036105f05760405162461bcd60e51b815260206004820152602160248201527f4552433732313a20617070726f76616c20746f2063757272656e74206f776e656044820152603960f91b6064820152608401610435565b336001600160a01b038216148061060c575061060c8133610378565b61067e5760405162461bcd60e51b815260206004820152603860248201527f4552433732313a20617070726f76652063616c6c6572206973206e6f74206f7760448201527f6e6572206e6f7220617070726f76656420666f7220616c6c00000000000000006064820152608401610435565b6106888383610d7f565b505050565b6106973382610ded565b6106b35760405162461bcd60e51b815260040161043590611af2565b610688838383610ee4565b8160006106ca8261089b565b90506001600160a01b03811633146107245760405162461bcd60e51b815260206004820152601e60248201527f6d75737420626520746865206f776e6572206f662074686520746f6b656e00006044820152606401610435565b60008481526006602052604090205484906001600160a01b031633811461078d5760405162461bcd60e51b815260206004820181905260248201527f6d757374206265207468652063726561746f72206f662074686520746f6b656e6044820152606401610435565b6107978686611080565b857f931f495b9a8e5d8e61946ea5d61e021f636cfe213a801f97589c18c152e408bd866040516107c791906116fe565b60405180910390a2505050505050565b60095460009060ff161561080457506001600160a01b031660009081526008602052604090205460ff1690565b506001919050565b919050565b61068883838360405180602001604052806000815250610aef565b8060006108388261089b565b90506001600160a01b03811633146108925760405162461bcd60e51b815260206004820152601e60248201527f6d75737420626520746865206f776e6572206f662074686520746f6b656e00006044820152606401610435565b61068883611098565b6000818152600260205260408120546001600160a01b0316806104055760405162461bcd60e51b815260206004820152602960248201527f4552433732313a206f776e657220717565727920666f72206e6f6e657869737460448201526832b73a103a37b5b2b760b91b6064820152608401610435565b60006001600160a01b03821661097c5760405162461bcd60e51b815260206004820152602960248201527f4552433732313a2061646472657373207a65726f206973206e6f7420612076616044820152683634b21037bbb732b960b91b6064820152608401610435565b506001600160a01b031660009081526003602052604090205490565b6007546001600160a01b031633146109c25760405162461bcd60e51b815260040161043590611a83565b6109cc6000611133565b565b6007546001600160a01b031633146109f85760405162461bcd60e51b815260040161043590611a83565b610a1d816001600160a01b03166000908152600860205260409020805460ff19169055565b6040516001600160a01b038216907f1f756c8b089af6b33ee121fee8badac2553a2fa89c0575ea91ff8792617746c290600090a250565b60606001805461046090611ab8565b610a6e338383611185565b5050565b6007546001600160a01b03163314610a9c5760405162461bcd60e51b815260040161043590611a83565b60005b8151811015610a6e576000828281518110610abc57610abc611b43565b60200260200101519050610acf816107d7565b610adc57610adc81611253565b5080610ae781611b6f565b915050610a9f565b610af93383610ded565b610b155760405162461bcd60e51b815260040161043590611af2565b610b2184848484611277565b50505050565b6000818152600260205260409020546060906001600160a01b0316610ba65760405162461bcd60e51b815260206004820152602f60248201527f4552433732314d657461646174613a2055524920717565727920666f72206e6f60448201526e3732bc34b9ba32b73a103a37b5b2b760891b6064820152608401610435565b6000610bbd60408051602081019091526000815290565b90506000815111610bdd5760405180602001604052806000815250610c08565b80610be7846112aa565b604051602001610bf8929190611b88565b6040516020818303038152906040525b9392505050565b610c18336107d7565b610c705760405162461bcd60e51b8152602060048201526024808201527f6d7573742062652077686974656c697374656420746f2063726561746520746f6044820152636b656e7360e01b6064820152608401610435565b610a6e81336113ab565b6007546001600160a01b03163314610ca45760405162461bcd60e51b815260040161043590611a83565b610cad81611253565b6040516001600160a01b038216907f75b2135d1c8c3519f3c09c43fe6527089ef09f40c7981ebf0ed46e79e79032c790600090a250565b6007546001600160a01b03163314610d0e5760405162461bcd60e51b815260040161043590611a83565b6001600160a01b038116610d735760405162461bcd60e51b815260206004820152602660248201527f4f776e61626c653a206e6577206f776e657220697320746865207a65726f206160448201526564647265737360d01b6064820152608401610435565b610d7c81611133565b50565b600081815260046020526040902080546001600160a01b0319166001600160a01b0384169081179091558190610db48261089b565b6001600160a01b03167f8c5be1e5ebec7d5bd14f71427d1e84f3dd0314c0f7b2291e5b200ac8c7c3b92560405160405180910390a45050565b6000818152600260205260408120546001600160a01b0316610e665760405162461bcd60e51b815260206004820152602c60248201527f4552433732313a206f70657261746f7220717565727920666f72206e6f6e657860448201526b34b9ba32b73a103a37b5b2b760a11b6064820152608401610435565b6000610e718361089b565b9050806001600160a01b0316846001600160a01b03161480610eb857506001600160a01b0380821660009081526005602090815260408083209388168352929052205460ff165b80610edc5750836001600160a01b0316610ed1846104e3565b6001600160a01b0316145b949350505050565b826001600160a01b0316610ef78261089b565b6001600160a01b031614610f5b5760405162461bcd60e51b815260206004820152602560248201527f4552433732313a207472616e736665722066726f6d20696e636f72726563742060448201526437bbb732b960d91b6064820152608401610435565b6001600160a01b038216610fbd5760405162461bcd60e51b8152602060048201526024808201527f4552433732313a207472616e7366657220746f20746865207a65726f206164646044820152637265737360e01b6064820152608401610435565b610fc8600082610d7f565b6001600160a01b0383166000908152600360205260408120805460019290610ff1908490611bb7565b90915550506001600160a01b038216600090815260036020526040812080546001929061101f908490611bce565b909155505060008181526002602052604080822080546001600160a01b0319166001600160a01b0386811691821790925591518493918716917fddf252ad1be2c89b69c2b068fc378daa952ba7f163c4a11628f55a4df523b3ef91a4505050565b6000828152600a602052604090206106888282611c34565b60006110a38261089b565b90506110b0600083610d7f565b6001600160a01b03811660009081526003602052604081208054600192906110d9908490611bb7565b909155505060008281526002602052604080822080546001600160a01b0319169055518391906001600160a01b038416907fddf252ad1be2c89b69c2b068fc378daa952ba7f163c4a11628f55a4df523b3ef908390a45050565b600780546001600160a01b038381166001600160a01b0319831681179093556040519116919082907f8be0079c531659141344cd1fd0a4f28419497f9722a3daafe3b4186f6b6457e090600090a35050565b816001600160a01b0316836001600160a01b0316036111e65760405162461bcd60e51b815260206004820152601960248201527f4552433732313a20617070726f766520746f2063616c6c6572000000000000006044820152606401610435565b6001600160a01b03838116600081815260056020908152604080832094871680845294825291829020805460ff191686151590811790915591519182527f17307eab39ab6107e8899845ad3d59bd9653f200f220920489ca2b5937696c31910160405180910390a3505050565b6001600160a01b03166000908152600860205260409020805460ff19166001179055565b611282848484610ee4565b61128e84848484611405565b610b215760405162461bcd60e51b815260040161043590611cf4565b6060816000036112d15750506040805180820190915260018152600360fc1b602082015290565b8160005b81156112fb57806112e581611b6f565b91506112f49050600a83611d5c565b91506112d5565b60008167ffffffffffffffff811115611316576113166117a7565b6040519080825280601f01601f191660200182016040528015611340576020820181803683370190505b5090505b8415610edc57611355600183611bb7565b9150611362600a86611d70565b61136d906030611bce565b60f81b81838151811061138257611382611b43565b60200101906001600160f81b031916908160001a9053506113a4600a86611d5c565b9450611344565b600b80546000918190836113be83611b6f565b91905055506113cd8382611506565b6113d78185611080565b600081815260066020526040902080546001600160a01b0319166001600160a01b0385161790559392505050565b60006001600160a01b0384163b156114fb57604051630a85bd0160e11b81526001600160a01b0385169063150b7a0290611449903390899088908890600401611d84565b6020604051808303816000875af1925050508015611484575060408051601f3d908101601f1916820190925261148191810190611dc1565b60015b6114e1573d8080156114b2576040519150601f19603f3d011682016040523d82523d6000602084013e6114b7565b606091505b5080516000036114d95760405162461bcd60e51b815260040161043590611cf4565b805181602001fd5b6001600160e01b031916630a85bd0160e11b149050610edc565b506001949350505050565b6001600160a01b03821661155c5760405162461bcd60e51b815260206004820181905260248201527f4552433732313a206d696e7420746f20746865207a65726f20616464726573736044820152606401610435565b6000818152600260205260409020546001600160a01b0316156115c15760405162461bcd60e51b815260206004820152601c60248201527f4552433732313a20746f6b656e20616c7265616479206d696e746564000000006044820152606401610435565b6001600160a01b03821660009081526003602052604081208054600192906115ea908490611bce565b909155505060008181526002602052604080822080546001600160a01b0319166001600160a01b03861690811790915590518392907fddf252ad1be2c89b69c2b068fc378daa952ba7f163c4a11628f55a4df523b3ef908290a45050565b6001600160e01b031981168114610d7c57600080fd5b60006020828403121561167057600080fd5b8135610c0881611648565b8035801515811461080c57600080fd5b60006020828403121561169d57600080fd5b610c088261167b565b60005b838110156116c15781810151838201526020016116a9565b83811115610b215750506000910152565b600081518084526116ea8160208601602086016116a6565b601f01601f19169290920160200192915050565b602081526000610c0860208301846116d2565b60006020828403121561172357600080fd5b5035919050565b80356001600160a01b038116811461080c57600080fd5b6000806040838503121561175457600080fd5b61175d8361172a565b946020939093013593505050565b60008060006060848603121561178057600080fd5b6117898461172a565b92506117976020850161172a565b9150604084013590509250925092565b634e487b7160e01b600052604160045260246000fd5b604051601f8201601f1916810167ffffffffffffffff811182821017156117e6576117e66117a7565b604052919050565b600067ffffffffffffffff831115611808576118086117a7565b61181b601f8401601f19166020016117bd565b905082815283838301111561182f57600080fd5b828260208301376000602084830101529392505050565b600082601f83011261185757600080fd5b610c08838335602085016117ee565b6000806040838503121561187957600080fd5b82359150602083013567ffffffffffffffff81111561189757600080fd5b6118a385828601611846565b9150509250929050565b6000602082840312156118bf57600080fd5b610c088261172a565b600080604083850312156118db57600080fd5b6118e48361172a565b91506118f26020840161167b565b90509250929050565b6000602080838503121561190e57600080fd5b823567ffffffffffffffff8082111561192657600080fd5b818501915085601f83011261193a57600080fd5b81358181111561194c5761194c6117a7565b8060051b915061195d8483016117bd565b818152918301840191848101908884111561197757600080fd5b938501935b8385101561199c5761198d8561172a565b8252938501939085019061197c565b98975050505050505050565b600080600080608085870312156119be57600080fd5b6119c78561172a565b93506119d56020860161172a565b925060408501359150606085013567ffffffffffffffff8111156119f857600080fd5b8501601f81018713611a0957600080fd5b611a18878235602084016117ee565b91505092959194509250565b600060208284031215611a3657600080fd5b813567ffffffffffffffff811115611a4d57600080fd5b610edc84828501611846565b60008060408385031215611a6c57600080fd5b611a758361172a565b91506118f26020840161172a565b6020808252818101527f4f776e61626c653a2063616c6c6572206973206e6f7420746865206f776e6572604082015260600190565b600181811c90821680611acc57607f821691505b602082108103611aec57634e487b7160e01b600052602260045260246000fd5b50919050565b60208082526031908201527f4552433732313a207472616e736665722063616c6c6572206973206e6f74206f6040820152701ddb995c881b9bdc88185c1c1c9bdd9959607a1b606082015260800190565b634e487b7160e01b600052603260045260246000fd5b634e487b7160e01b600052601160045260246000fd5b600060018201611b8157611b81611b59565b5060010190565b60008351611b9a8184602088016116a6565b835190830190611bae8183602088016116a6565b01949350505050565b600082821015611bc957611bc9611b59565b500390565b60008219821115611be157611be1611b59565b500190565b601f82111561068857600081815260208120601f850160051c81016020861015611c0d5750805b601f850160051c820191505b81811015611c2c57828155600101611c19565b505050505050565b815167ffffffffffffffff811115611c4e57611c4e6117a7565b611c6281611c5c8454611ab8565b84611be6565b602080601f831160018114611c975760008415611c7f5750858301515b600019600386901b1c1916600185901b178555611c2c565b600085815260208120601f198616915b82811015611cc657888601518255948401946001909101908401611ca7565b5085821015611ce45787850151600019600388901b60f8161c191681555b5050505050600190811b01905550565b60208082526032908201527f4552433732313a207472616e7366657220746f206e6f6e20455243373231526560408201527131b2b4bb32b91034b6b83632b6b2b73a32b960711b606082015260800190565b634e487b7160e01b600052601260045260246000fd5b600082611d6b57611d6b611d46565b500490565b600082611d7f57611d7f611d46565b500690565b6001600160a01b0385811682528416602082015260408101839052608060608201819052600090611db7908301846116d2565b9695505050505050565b600060208284031215611dd357600080fd5b8151610c088161164856fea2646970667358221220b7a75a290d713e190c06fa7eca897b9beb2fe6b3d3f9a1f5d82888d7a6cea02a64736f6c634300080f0033",
    "linkReferences": {}
  },
  "methodIdentifiers": {
    "addNewToken(string)": "d9856c21",
    "addToWhitelist(address)": "e43252d7",
    "approve(address,uint256)": "095ea7b3",
    "balanceOf(address)": "70a08231",
    "deleteToken(uint256)": "6297c16c",
    "enableWhitelist(bool)": "040b6583",
    "getApproved(uint256)": "081812fc",
    "initWhitelist(address[])": "b85ecf93",
    "isApprovedForAll(address,address)": "e985e9c5",
    "isWhitelisted(address)": "3af32abf",
    "name()": "06fdde03",
    "owner()": "8da5cb5b",
    "ownerOf(uint256)": "6352211e",
    "removeFromWhitelist(address)": "8ab1d681",
    "renounceOwnership()": "715018a6",
    "safeTransferFrom(address,address,uint256)": "42842e0e",
    "safeTransferFrom(address,address,uint256,bytes)": "b88d4fde",
    "setApprovalForAll(address,bool)": "a22cb465",
    "supportsInterface(bytes4)": "01ffc9a7",
    "symbol()": "95d89b41",
    "tokenCreator(uint256)": "40c1a064",
    "tokenURI(uint256)": "c87b56dd",
    "transferFrom(address,address,uint256)": "23b872dd",
    "transferOwnership(address)": "f2fde38b",
    "updateTokenMetadata(uint256,string)": "2cb2f52e"
  },
  "id": 52
}