{
  "abi": [
    {
      "anonymous": false,
      "inputs": [
        {
          "indexed": true,
          "internalType": "address",
          "name": "_newAddress",
          "type": "address"
        }
      ],
      "name": "AddToWhitelist",
      "type": "event"
    },
    {
      "anonymous": false,
      "inputs": [
        {
          "indexed": true,
          "internalType": "address",
          "name": "previousOwner",
          "type": "address"
        },
        {
          "indexed": true,
          "internalType": "address",
          "name": "newOwner",
          "type": "address"
        }
      ],
      "name": "OwnershipTransferred",
      "type": "event"
    },
    {
      "anonymous": false,
      "inputs": [
        {
          "indexed": true,
          "internalType": "address",
          "name": "_removedAddress",
          "type": "address"
        }
      ],
      "name": "RemoveFromWhitelist",
      "type": "event"
    },
    {
      "inputs": [
        {
          "internalType": "address",
          "name": "_newAddress",
          "type": "address"
        }
      ],
      "name": "addToWhitelist",
      "outputs": [],
      "stateMutability": "nonpayable",
      "type": "function"
    },
    {
      "inputs": [
        {
          "internalType": "bool",
          "name": "_enabled",
          "type": "bool"
        }
      ],
      "name": "enableWhitelist",
      "outputs": [],
      "stateMutability": "nonpayable",
      "type": "function"
    },
    {
      "inputs": [
        {
          "internalType": "address",
          "name": "_address",
          "type": "address"
        }
      ],
      "name": "isWhitelisted",
      "outputs": [
        {
          "internalType": "bool",
          "name": "",
          "type": "bool"
        }
      ],
      "stateMutability": "view",
      "type": "function"
    },
    {
      "inputs": [],
      "name": "owner",
      "outputs": [
        {
          "internalType": "address",
          "name": "",
          "type": "address"
        }
      ],
      "stateMutability": "view",
      "type": "function"
    },
    {
      "inputs": [
        {
          "internalType": "address",
          "name": "_removedAddress",
          "type": "address"
        }
      ],
      "name": "removeFromWhitelist",
      "outputs": [],
      "stateMutability": "nonpayable",
      "type": "function"
    },
    {
      "inputs": [],
      "name": "renounceOwnership",
      "outputs": [],
      "stateMutability": "nonpayable",
      "type": "function"
    },
    {
      "inputs": [
        {
          "internalType": "address",
          "name": "newOwner",
          "type": "address"
        }
      ],
      "name": "transferOwnership",
      "outputs": [],
      "stateMutability": "nonpayable",
      "type": "function"
    }
  ],
  "bytecode": {
    "object": "0x60806040526002805460ff1916600117905534801561001d57600080fd5b506100273361002c565b61007c565b600080546001600160a01b038381166001600160a01b0319831681178455604051919092169283917f8be0079c531659141344cd1fd0a4f28419497f9722a3daafe3b4186f6b6457e09190a35050565b6104868061008b6000396000f3fe608060405234801561001057600080fd5b506004361061007d5760003560e01c80638ab1d6811161005b5780638ab1d681146100c75780638da5cb5b146100da578063e43252d7146100f5578063f2fde38b1461010857600080fd5b8063040b6583146100825780633af32abf14610097578063715018a6146100bf575b600080fd5b6100956100903660046103c9565b61011b565b005b6100aa6100a53660046103f2565b610161565b60405190151581526020015b60405180910390f35b610095610196565b6100956100d53660046103f2565b6101cc565b6000546040516001600160a01b0390911681526020016100b6565b6100956101033660046103f2565b610252565b6100956101163660046103f2565b6102de565b6000546001600160a01b0316331461014e5760405162461bcd60e51b81526004016101459061041b565b60405180910390fd5b6002805460ff1916911515919091179055565b60025460009060ff161561018e57506001600160a01b031660009081526001602052604090205460ff1690565b506001919050565b6000546001600160a01b031633146101c05760405162461bcd60e51b81526004016101459061041b565b6101ca6000610379565b565b6000546001600160a01b031633146101f65760405162461bcd60e51b81526004016101459061041b565b61021b816001600160a01b03166000908152600160205260409020805460ff19169055565b6040516001600160a01b038216907f1f756c8b089af6b33ee121fee8badac2553a2fa89c0575ea91ff8792617746c290600090a250565b6000546001600160a01b0316331461027c5760405162461bcd60e51b81526004016101459061041b565b6102a7816001600160a01b03166000908152600160208190526040909120805460ff19169091179055565b6040516001600160a01b038216907f75b2135d1c8c3519f3c09c43fe6527089ef09f40c7981ebf0ed46e79e79032c790600090a250565b6000546001600160a01b031633146103085760405162461bcd60e51b81526004016101459061041b565b6001600160a01b03811661036d5760405162461bcd60e51b815260206004820152602660248201527f4f776e61626c653a206e6577206f776e657220697320746865207a65726f206160448201526564647265737360d01b6064820152608401610145565b61037681610379565b50565b600080546001600160a01b038381166001600160a01b0319831681178455604051919092169283917f8be0079c531659141344cd1fd0a4f28419497f9722a3daafe3b4186f6b6457e09190a35050565b6000602082840312156103db57600080fd5b813580151581146103eb57600080fd5b9392505050565b60006020828403121561040457600080fd5b81356001600160a01b03811681146103eb57600080fd5b6020808252818101527f4f776e61626c653a2063616c6c6572206973206e6f7420746865206f776e657260408201526060019056fea264697066735822122030b04e7b64d8c9936206d85ce2d227470fc93054f7c2afc55140107c75e37ec264736f6c634300080f0033",
    "linkReferences": {}
  },
  "methodIdentifiers": {
    "addToWhitelist(address)": "e43252d7",
    "enableWhitelist(bool)": "040b6583",
    "isWhitelisted(address)": "3af32abf",
    "owner()": "8da5cb5b",
    "removeFromWhitelist(address)": "8ab1d681",
    "renounceOwnership()": "715018a6",
    "transferOwnership(address)": "f2fde38b"
  },
  "id": 71
}